{
  "data": {
    "bytecode": {
      "linkReferences": {},
      "object": "60a06040523480156200001157600080fd5b50604051620061b4380380620061b4833981810160405281019062000037919062000386565b82828280806200005c62000050620000c260201b60201c565b620000ca60201b60201c565b8073ffffffffffffffffffffffffffffffffffffffff1660808173ffffffffffffffffffffffffffffffffffffffff168152505050505081600a9081620000a491906200066b565b5080600b9081620000b691906200066b565b50505050505062000752565b600033905090565b60008060009054906101000a900473ffffffffffffffffffffffffffffffffffffffff169050816000806101000a81548173ffffffffffffffffffffffffffffffffffffffff021916908373ffffffffffffffffffffffffffffffffffffffff1602179055508173ffffffffffffffffffffffffffffffffffffffff168173ffffffffffffffffffffffffffffffffffffffff167f8be0079c531659141344cd1fd0a4f28419497f9722a3daafe3b4186f6b6457e060405160405180910390a35050565b6000604051905090565b600080fd5b600080fd5b600080fd5b600080fd5b6000601f19601f8301169050919050565b7f4e487b7100000000000000000000000000000000000000000000000000000000600052604160045260246000fd5b620001f782620001ac565b810181811067ffffffffffffffff82111715620002195762000218620001bd565b5b80604052505050565b60006200022e6200018e565b90506200023c8282620001ec565b919050565b600067ffffffffffffffff8211156200025f576200025e620001bd565b5b6200026a82620001ac565b9050602081019050919050565b60005b83811015620002975780820151818401526020810190506200027a565b60008484015250505050565b6000620002ba620002b48462000241565b62000222565b905082815260208101848484011115620002d957620002d8620001a7565b5b620002e684828562000277565b509392505050565b600082601f830112620003065762000305620001a2565b5b815162000318848260208601620002a3565b91505092915050565b600073ffffffffffffffffffffffffffffffffffffffff82169050919050565b60006200034e8262000321565b9050919050565b620003608162000341565b81146200036c57600080fd5b50565b600081519050620003808162000355565b92915050565b600080600060608486031215620003a257620003a162000198565b5b600084015167ffffffffffffffff811115620003c357620003c26200019d565b5b620003d186828701620002ee565b935050602084015167ffffffffffffffff811115620003f557620003f46200019d565b5b6200040386828701620002ee565b925050604062000416868287016200036f565b9150509250925092565b600081519050919050565b7f4e487b7100000000000000000000000000000000000000000000000000000000600052602260045260246000fd5b600060028204905060018216806200047357607f821691505b6020821081036200048957620004886200042b565b5b50919050565b60008190508160005260206000209050919050565b60006020601f8301049050919050565b600082821b905092915050565b600060088302620004f37fffffffffffffffffffffffffffffffffffffffffffffffffffffffffffffffff82620004b4565b620004ff8683620004b4565b95508019841693508086168417925050509392505050565b6000819050919050565b6000819050919050565b60006200054c62000546620005408462000517565b62000521565b62000517565b9050919050565b6000819050919050565b62000568836200052b565b62000580620005778262000553565b848454620004c1565b825550505050565b600090565b6200059762000588565b620005a48184846200055d565b505050565b5b81811015620005cc57620005c06000826200058d565b600181019050620005aa565b5050565b601f8211156200061b57620005e5816200048f565b620005f084620004a4565b8101602085101562000600578190505b620006186200060f85620004a4565b830182620005a9565b50505b505050565b600082821c905092915050565b6000620006406000198460080262000620565b1980831691505092915050565b60006200065b83836200062d565b9150826002028217905092915050565b620006768262000420565b67ffffffffffffffff811115620006925762000691620001bd565b5b6200069e82546200045a565b620006ab828285620005d0565b600060209050601f831160018114620006e35760008415620006ce578287015190505b620006da85826200064d565b8655506200074a565b601f198416620006f3866200048f565b60005b828110156200071d57848901518255600182019150602085019450602081019050620006f6565b868310156200073d578489015162000739601f8916826200062d565b8355505b6001600288020188555050505b505050505050565b608051615a0e620007a660003960008181610adc01528181610e8e01528181610f73015281816110670152818161124f01528181611941015281816119f601528181611f850152612d5b0152615a0e6000f3fe6080604052600436106102715760003560e01c80637533d7881161014f578063baf3292d116100c1578063eab45d9c1161007a578063eab45d9c146109cc578063eb8d72b7146109f5578063ed629c5c14610a1e578063f2fde38b14610a49578063f5ecbdbc14610a72578063fc0c546a14610aaf57610271565b8063baf3292d146108cd578063c4461834146108f6578063cbed8b9c14610921578063d1deba1f1461094a578063dd62ed3e14610966578063df2a5b3b146109a357610271565b806395d89b411161011357806395d89b41146107975780639f38369a146107c2578063a457c2d7146107ff578063a6c3d1651461083c578063a9059cbb14610865578063b353aaa7146108a257610271565b80637533d7881461069c5780638cfd8f5c146106d95780638da5cb5b146107165780639358928b14610741578063950c8a741461076c57610271565b806339509351116101e85780634c42899a116101ac5780634c42899a1461059b57806351905636146105c65780635b8c41e6146105e257806366ad5c8a1461061f57806370a0823114610648578063715018a61461068557610271565b806339509351146104905780633d8b38f6146104cd5780633f1f4fa41461050a57806342d65a8d14610547578063447705151461057057610271565b80630df374831161023a5780630df374831461036d57806310ddb1371461039657806318160ddd146103bf57806323b872dd146103ea5780632a205e3d14610427578063313ce5671461046557610271565b80621d35671461027657806301ffc9a71461029f57806306fdde03146102dc57806307e0db1714610307578063095ea7b314610330575b600080fd5b34801561028257600080fd5b5061029d600480360381019061029891906134e2565b610ada565b005b3480156102ab57600080fd5b506102c660048036038101906102c191906135e1565b610d30565b6040516102d39190613629565b60405180910390f35b3480156102e857600080fd5b506102f1610df2565b6040516102fe91906136d4565b60405180910390f35b34801561031357600080fd5b5061032e600480360381019061032991906136f6565b610e84565b005b34801561033c57600080fd5b50610357600480360381019061035291906137b7565b610f1a565b6040516103649190613629565b60405180910390f35b34801561037957600080fd5b50610394600480360381019061038f91906137f7565b610f3d565b005b3480156103a257600080fd5b506103bd60048036038101906103b891906136f6565b610f69565b005b3480156103cb57600080fd5b506103d4610fff565b6040516103e19190613846565b60405180910390f35b3480156103f657600080fd5b50610411600480360381019061040c9190613861565b611009565b60405161041e9190613629565b60405180910390f35b34801561043357600080fd5b5061044e600480360381019061044991906138e0565b611038565b60405161045c92919061399c565b60405180910390f35b34801561047157600080fd5b5061047a611119565b60405161048791906139e1565b60405180910390f35b34801561049c57600080fd5b506104b760048036038101906104b291906137b7565b611122565b6040516104c49190613629565b60405180910390f35b3480156104d957600080fd5b506104f460048036038101906104ef91906139fc565b611159565b6040516105019190613629565b60405180910390f35b34801561051657600080fd5b50610531600480360381019061052c91906136f6565b61122d565b60405161053e9190613846565b60405180910390f35b34801561055357600080fd5b5061056e600480360381019061056991906139fc565b611245565b005b34801561057c57600080fd5b506105856112e1565b6040516105929190613846565b60405180910390f35b3480156105a757600080fd5b506105b06112e6565b6040516105bd9190613a6b565b60405180910390f35b6105e060048036038101906105db9190613ac4565b6112eb565b005b3480156105ee57600080fd5b5061060960048036038101906106049190613cd6565b61138d565b6040516106169190613d5e565b60405180910390f35b34801561062b57600080fd5b50610646600480360381019061064191906134e2565b6113d5565b005b34801561065457600080fd5b5061066f600480360381019061066a9190613d79565b6114e6565b60405161067c9190613846565b60405180910390f35b34801561069157600080fd5b5061069a61152f565b005b3480156106a857600080fd5b506106c360048036038101906106be91906136f6565b611543565b6040516106d09190613dfb565b60405180910390f35b3480156106e557600080fd5b5061070060048036038101906106fb9190613e1d565b6115e3565b60405161070d9190613846565b60405180910390f35b34801561072257600080fd5b5061072b611608565b6040516107389190613e6c565b60405180910390f35b34801561074d57600080fd5b50610756611631565b6040516107639190613846565b60405180910390f35b34801561077857600080fd5b50610781611640565b60405161078e9190613e6c565b60405180910390f35b3480156107a357600080fd5b506107ac611666565b6040516107b991906136d4565b60405180910390f35b3480156107ce57600080fd5b506107e960048036038101906107e491906136f6565b6116f8565b6040516107f69190613dfb565b60405180910390f35b34801561080b57600080fd5b50610826600480360381019061082191906137b7565b611811565b6040516108339190613629565b60405180910390f35b34801561084857600080fd5b50610863600480360381019061085e91906139fc565b611888565b005b34801561087157600080fd5b5061088c600480360381019061088791906137b7565b61191c565b6040516108999190613629565b60405180910390f35b3480156108ae57600080fd5b506108b761193f565b6040516108c49190613ee6565b60405180910390f35b3480156108d957600080fd5b506108f460048036038101906108ef9190613d79565b611963565b005b34801561090257600080fd5b5061090b6119e6565b6040516109189190613846565b60405180910390f35b34801561092d57600080fd5b5061094860048036038101906109439190613f01565b6119ec565b005b610964600480360381019061095f91906134e2565b611a8e565b005b34801561097257600080fd5b5061098d60048036038101906109889190613f89565b611cd1565b60405161099a9190613846565b60405180910390f35b3480156109af57600080fd5b506109ca60048036038101906109c59190613fc9565b611d58565b005b3480156109d857600080fd5b506109f360048036038101906109ee919061401c565b611e1c565b005b348015610a0157600080fd5b50610a1c6004803603810190610a1791906139fc565b611e78565b005b348015610a2a57600080fd5b50610a33611eeb565b604051610a409190613629565b60405180910390f35b348015610a5557600080fd5b50610a706004803603810190610a6b9190613d79565b611efe565b005b348015610a7e57600080fd5b50610a996004803603810190610a949190614049565b611f81565b604051610aa69190613dfb565b60405180910390f35b348015610abb57600080fd5b50610ac4612032565b604051610ad19190613e6c565b60405180910390f35b7f000000000000000000000000000000000000000000000000000000000000000073ffffffffffffffffffffffffffffffffffffffff16610b1961203a565b73ffffffffffffffffffffffffffffffffffffffff1614610b6f576040517f08c379a0000000000000000000000000000000000000000000000000000000008152600401610b66906140fc565b60405180910390fd5b6000600160008861ffff1661ffff1681526020019081526020016000208054610b979061414b565b80601f0160208091040260200160405190810160405280929190818152602001828054610bc39061414b565b8015610c105780601f10610be557610100808354040283529160200191610c10565b820191906000526020600020905b815481529060010190602001808311610bf357829003601f168201915b50505050509050805186869050148015610c2b575060008151115b8015610c54575080805190602001208686604051610c4a9291906141ac565b6040518091039020145b610c93576040517f08c379a0000000000000000000000000000000000000000000000000000000008152600401610c8a90614237565b60405180910390fd5b610d278787878080601f016020809104026020016040519081016040528093929190818152602001838380828437600081840152601f19601f820116905080830192505050505050508686868080601f016020809104026020016040519081016040528093929190818152602001838380828437600081840152601f19601f82011690508083019250505050505050612042565b50505050505050565b6000807bffffffffffffffffffffffffffffffffffffffffffffffffffffffff1916827bffffffffffffffffffffffffffffffffffffffffffffffffffffffff19161480610ddb57507f36372b07000000000000000000000000000000000000000000000000000000007bffffffffffffffffffffffffffffffffffffffffffffffffffffffff1916827bffffffffffffffffffffffffffffffffffffffffffffffffffffffff1916145b80610deb5750610dea8261210d565b5b9050919050565b6060600a8054610e019061414b565b80601f0160208091040260200160405190810160405280929190818152602001828054610e2d9061414b565b8015610e7a5780601f10610e4f57610100808354040283529160200191610e7a565b820191906000526020600020905b815481529060010190602001808311610e5d57829003601f168201915b5050505050905090565b610e8c612187565b7f000000000000000000000000000000000000000000000000000000000000000073ffffffffffffffffffffffffffffffffffffffff166307e0db17826040518263ffffffff1660e01b8152600401610ee59190613a6b565b600060405180830381600087803b158015610eff57600080fd5b505af1158015610f13573d6000803e3d6000fd5b5050505050565b600080610f2561203a565b9050610f32818585612205565b600191505092915050565b610f45612187565b80600360008461ffff1661ffff168152602001908152602001600020819055505050565b610f71612187565b7f000000000000000000000000000000000000000000000000000000000000000073ffffffffffffffffffffffffffffffffffffffff166310ddb137826040518263ffffffff1660e01b8152600401610fca9190613a6b565b600060405180830381600087803b158015610fe457600080fd5b505af1158015610ff8573d6000803e3d6000fd5b5050505050565b6000600954905090565b60008061101461203a565b90506110218582856123ce565b61102c85858561245a565b60019150509392505050565b6000806000808989896040516020016110549493929190614284565b60405160208183030381529060405290507f000000000000000000000000000000000000000000000000000000000000000073ffffffffffffffffffffffffffffffffffffffff166340a7bb108b30848a8a8a6040518763ffffffff1660e01b81526004016110c8969594939291906142c4565b6040805180830381865afa1580156110e4573d6000803e3d6000fd5b505050506040513d601f19601f82011682018060405250810190611108919061433c565b925092505097509795505050505050565b60006012905090565b60008061112d61203a565b905061114e81858561113f8589611cd1565b61114991906143ab565b612205565b600191505092915050565b600080600160008661ffff1661ffff16815260200190815260200160002080546111829061414b565b80601f01602080910402602001604051908101604052809291908181526020018280546111ae9061414b565b80156111fb5780601f106111d0576101008083540402835291602001916111fb565b820191906000526020600020905b8154815290600101906020018083116111de57829003601f168201915b5050505050905083836040516112129291906141ac565b60405180910390208180519060200120149150509392505050565b60036020528060005260406000206000915090505481565b61124d612187565b7f000000000000000000000000000000000000000000000000000000000000000073ffffffffffffffffffffffffffffffffffffffff166342d65a8d8484846040518463ffffffff1660e01b81526004016112aa939291906143df565b600060405180830381600087803b1580156112c457600080fd5b505af11580156112d8573d6000803e3d6000fd5b50505050505050565b600081565b600081565b611382898989898080601f016020809104026020016040519081016040528093929190818152602001838380828437600081840152601f19601f8201169050808301925050505050505088888888888080601f016020809104026020016040519081016040528093929190818152602001838380828437600081840152601f19601f820116905080830192505050505050506126d3565b505050505050505050565b60056020528260005260406000208280516020810182018051848252602083016020850120818352809550505050505060205280600052604060002060009250925050505481565b3073ffffffffffffffffffffffffffffffffffffffff166113f461203a565b73ffffffffffffffffffffffffffffffffffffffff161461144a576040517f08c379a000000000000000000000000000000000000000000000000000000000815260040161144190614483565b60405180910390fd5b6114de8686868080601f016020809104026020016040519081016040528093929190818152602001838380828437600081840152601f19601f820116905080830192505050505050508585858080601f016020809104026020016040519081016040528093929190818152602001838380828437600081840152601f19601f82011690508083019250505050505050612787565b505050505050565b6000600760008373ffffffffffffffffffffffffffffffffffffffff1673ffffffffffffffffffffffffffffffffffffffff168152602001908152602001600020549050919050565b611537612187565b61154160006127f3565b565b600160205280600052604060002060009150905080546115629061414b565b80601f016020809104026020016040519081016040528092919081815260200182805461158e9061414b565b80156115db5780601f106115b0576101008083540402835291602001916115db565b820191906000526020600020905b8154815290600101906020018083116115be57829003601f168201915b505050505081565b6002602052816000526040600020602052806000526040600020600091509150505481565b60008060009054906101000a900473ffffffffffffffffffffffffffffffffffffffff16905090565b600061163b610fff565b905090565b600460009054906101000a900473ffffffffffffffffffffffffffffffffffffffff1681565b6060600b80546116759061414b565b80601f01602080910402602001604051908101604052809291908181526020018280546116a19061414b565b80156116ee5780601f106116c3576101008083540402835291602001916116ee565b820191906000526020600020905b8154815290600101906020018083116116d157829003601f168201915b5050505050905090565b60606000600160008461ffff1661ffff16815260200190815260200160002080546117229061414b565b80601f016020809104026020016040519081016040528092919081815260200182805461174e9061414b565b801561179b5780601f106117705761010080835404028352916020019161179b565b820191906000526020600020905b81548152906001019060200180831161177e57829003601f168201915b5050505050905060008151036117e6576040517f08c379a00000000000000000000000000000000000000000000000000000000081526004016117dd906144ef565b60405180910390fd5b6118096000601483516117f9919061450f565b836128b79092919063ffffffff16565b915050919050565b60008061181c61203a565b9050600061182a8286611cd1565b90508381101561186f576040517f08c379a0000000000000000000000000000000000000000000000000000000008152600401611866906145b5565b60405180910390fd5b61187c8286868403612205565b60019250505092915050565b611890612187565b8181306040516020016118a59392919061461d565b604051602081830303815290604052600160008561ffff1661ffff16815260200190815260200160002090816118db91906147e9565b507f8c0400cfe2d1199b1a725c78960bcc2a344d869b80590d0f2bd005db15a572ce83838360405161190f939291906143df565b60405180910390a1505050565b60008061192761203a565b905061193481858561245a565b600191505092915050565b7f000000000000000000000000000000000000000000000000000000000000000081565b61196b612187565b80600460006101000a81548173ffffffffffffffffffffffffffffffffffffffff021916908373ffffffffffffffffffffffffffffffffffffffff1602179055507f5db758e995a17ec1ad84bdef7e8c3293a0bd6179bcce400dff5d4c3d87db726b816040516119db9190613e6c565b60405180910390a150565b61271081565b6119f4612187565b7f000000000000000000000000000000000000000000000000000000000000000073ffffffffffffffffffffffffffffffffffffffff1663cbed8b9c86868686866040518663ffffffff1660e01b8152600401611a559594939291906148bb565b600060405180830381600087803b158015611a6f57600080fd5b505af1158015611a83573d6000803e3d6000fd5b505050505050505050565b6000600560008861ffff1661ffff1681526020019081526020016000208686604051611abb9291906141ac565b908152602001604051809103902060008567ffffffffffffffff1667ffffffffffffffff1681526020019081526020016000205490506000801b8103611b36576040517f08c379a0000000000000000000000000000000000000000000000000000000008152600401611b2d9061497b565b60405180910390fd5b808383604051611b479291906141ac565b604051809103902014611b8f576040517f08c379a0000000000000000000000000000000000000000000000000000000008152600401611b8690614a0d565b60405180910390fd5b6000801b600560008961ffff1661ffff1681526020019081526020016000208787604051611bbe9291906141ac565b908152602001604051809103902060008667ffffffffffffffff1667ffffffffffffffff16815260200190815260200160002081905550611c898787878080601f016020809104026020016040519081016040528093929190818152602001838380828437600081840152601f19601f820116905080830192505050505050508686868080601f016020809104026020016040519081016040528093929190818152602001838380828437600081840152601f19601f82011690508083019250505050505050612787565b7fc264d91f3adc5588250e1551f547752ca0cfa8f6b530d243b9f9f4cab10ea8e58787878785604051611cc0959493929190614a3c565b60405180910390a150505050505050565b6000600860008473ffffffffffffffffffffffffffffffffffffffff1673ffffffffffffffffffffffffffffffffffffffff16815260200190815260200160002060008373ffffffffffffffffffffffffffffffffffffffff1673ffffffffffffffffffffffffffffffffffffffff16815260200190815260200160002054905092915050565b611d60612187565b60008111611da3576040517f08c379a0000000000000000000000000000000000000000000000000000000008152600401611d9a90614ad6565b60405180910390fd5b80600260008561ffff1661ffff16815260200190815260200160002060008461ffff1661ffff168152602001908152602001600020819055507f9d5c7c0b934da8fefa9c7760c98383778a12dfbfc0c3b3106518f43fb9508ac0838383604051611e0f93929190614af6565b60405180910390a1505050565b611e24612187565b80600660006101000a81548160ff0219169083151502179055507f1584ad594a70cbe1e6515592e1272a987d922b097ead875069cebe8b40c004a481604051611e6d9190613629565b60405180910390a150565b611e80612187565b8181600160008661ffff1661ffff1681526020019081526020016000209182611eaa929190614b38565b507ffa41487ad5d6728f0b19276fa1eddc16558578f5109fc39d2dc33c3230470dab838383604051611ede939291906143df565b60405180910390a1505050565b600660009054906101000a900460ff1681565b611f06612187565b600073ffffffffffffffffffffffffffffffffffffffff168173ffffffffffffffffffffffffffffffffffffffff1603611f75576040517f08c379a0000000000000000000000000000000000000000000000000000000008152600401611f6c90614c7a565b60405180910390fd5b611f7e816127f3565b50565b60607f000000000000000000000000000000000000000000000000000000000000000073ffffffffffffffffffffffffffffffffffffffff1663f5ecbdbc868630866040518563ffffffff1660e01b8152600401611fe29493929190614c9a565b600060405180830381865afa158015611fff573d6000803e3d6000fd5b505050506040513d6000823e3d601f19601f820116820180604052508101906120289190614d4f565b9050949350505050565b600030905090565b600033905090565b6000806120ee5a60966366ad5c8a60e01b8989898960405160240161206a9493929190614d98565b604051602081830303815290604052907bffffffffffffffffffffffffffffffffffffffffffffffffffffffff19166020820180517bffffffffffffffffffffffffffffffffffffffffffffffffffffffff83818316178352505050503073ffffffffffffffffffffffffffffffffffffffff166129d5909392919063ffffffff16565b9150915081612105576121048686868685612a6d565b5b505050505050565b60007f14e4ceea000000000000000000000000000000000000000000000000000000007bffffffffffffffffffffffffffffffffffffffffffffffffffffffff1916827bffffffffffffffffffffffffffffffffffffffffffffffffffffffff19161480612180575061217f82612b1b565b5b9050919050565b61218f61203a565b73ffffffffffffffffffffffffffffffffffffffff166121ad611608565b73ffffffffffffffffffffffffffffffffffffffff1614612203576040517f08c379a00000000000000000000000000000000000000000000000000000000081526004016121fa90614e37565b60405180910390fd5b565b600073ffffffffffffffffffffffffffffffffffffffff168373ffffffffffffffffffffffffffffffffffffffff1603612274576040517f08c379a000000000000000000000000000000000000000000000000000000000815260040161226b90614ec9565b60405180910390fd5b600073ffffffffffffffffffffffffffffffffffffffff168273ffffffffffffffffffffffffffffffffffffffff16036122e3576040517f08c379a00000000000000000000000000000000000000000000000000000000081526004016122da90614f5b565b60405180910390fd5b80600860008573ffffffffffffffffffffffffffffffffffffffff1673ffffffffffffffffffffffffffffffffffffffff16815260200190815260200160002060008473ffffffffffffffffffffffffffffffffffffffff1673ffffffffffffffffffffffffffffffffffffffff168152602001908152602001600020819055508173ffffffffffffffffffffffffffffffffffffffff168373ffffffffffffffffffffffffffffffffffffffff167f8c5be1e5ebec7d5bd14f71427d1e84f3dd0314c0f7b2291e5b200ac8c7c3b925836040516123c19190613846565b60405180910390a3505050565b60006123da8484611cd1565b90507fffffffffffffffffffffffffffffffffffffffffffffffffffffffffffffffff81146124545781811015612446576040517f08c379a000000000000000000000000000000000000000000000000000000000815260040161243d90614fc7565b60405180910390fd5b6124538484848403612205565b5b50505050565b600073ffffffffffffffffffffffffffffffffffffffff168373ffffffffffffffffffffffffffffffffffffffff16036124c9576040517f08c379a00000000000000000000000000000000000000000000000000000000081526004016124c090615059565b60405180910390fd5b600073ffffffffffffffffffffffffffffffffffffffff168273ffffffffffffffffffffffffffffffffffffffff1603612538576040517f08c379a000000000000000000000000000000000000000000000000000000000815260040161252f906150eb565b60405180910390fd5b612543838383612b85565b6000600760008573ffffffffffffffffffffffffffffffffffffffff1673ffffffffffffffffffffffffffffffffffffffff168152602001908152602001600020549050818110156125ca576040517f08c379a00000000000000000000000000000000000000000000000000000000081526004016125c19061517d565b60405180910390fd5b818103600760008673ffffffffffffffffffffffffffffffffffffffff1673ffffffffffffffffffffffffffffffffffffffff1681526020019081526020016000208190555081600760008573ffffffffffffffffffffffffffffffffffffffff1673ffffffffffffffffffffffffffffffffffffffff168152602001908152602001600020600082825401925050819055508273ffffffffffffffffffffffffffffffffffffffff168473ffffffffffffffffffffffffffffffffffffffff167fddf252ad1be2c89b69c2b068fc378daa952ba7f163c4a11628f55a4df523b3ef846040516126ba9190613846565b60405180910390a36126cd848484612b8a565b50505050565b6126e1866000836000612b8f565b60006126ef88888888612c00565b905060008087836040516020016127089392919061519d565b6040516020818303038152906040529050612727888287878734612c62565b8873ffffffffffffffffffffffffffffffffffffffff168861ffff167f39a4c66499bcf4b56d79f0dde8ed7a9d4925a0df55825206b2b8531e202be0d089856040516127749291906151db565b60405180910390a3505050505050505050565b600060208201519050600061ffff168161ffff16036127b1576127ac85858585612df8565b6127ec565b6040517f08c379a00000000000000000000000000000000000000000000000000000000081526004016127e390615257565b60405180910390fd5b5050505050565b60008060009054906101000a900473ffffffffffffffffffffffffffffffffffffffff169050816000806101000a81548173ffffffffffffffffffffffffffffffffffffffff021916908373ffffffffffffffffffffffffffffffffffffffff1602179055508173ffffffffffffffffffffffffffffffffffffffff168173ffffffffffffffffffffffffffffffffffffffff167f8be0079c531659141344cd1fd0a4f28419497f9722a3daafe3b4186f6b6457e060405160405180910390a35050565b606081601f836128c791906143ab565b1015612908576040517f08c379a00000000000000000000000000000000000000000000000000000000081526004016128ff906152c3565b60405180910390fd5b818361291491906143ab565b84511015612957576040517f08c379a000000000000000000000000000000000000000000000000000000000815260040161294e9061532f565b60405180910390fd5b606082156000811461297857604051915060008252602082016040526129c9565b6040519150601f8416801560200281840101858101878315602002848b0101015b818310156129b65780518352602083019250602081019050612999565b50868552601f19601f8301166040525050505b50809150509392505050565b6000606060008060008661ffff1667ffffffffffffffff8111156129fc576129fb613bab565b5b6040519080825280601f01601f191660200182016040528015612a2e5781602001600182028036833780820191505090505b50905060008087516020890160008d8df191503d925086831115612a50578692505b828152826000602083013e81819450945050505094509492505050565b8180519060200120600560008761ffff1661ffff16815260200190815260200160002085604051612a9e9190615380565b908152602001604051809103902060008567ffffffffffffffff1667ffffffffffffffff168152602001908152602001600020819055507fe183f33de2837795525b4792ca4cd60535bd77c53b7e7030060bfcf5734d6b0c8585858585604051612b0c959493929190615397565b60405180910390a15050505050565b60007f01ffc9a7000000000000000000000000000000000000000000000000000000007bffffffffffffffffffffffffffffffffffffffffffffffffffffffff1916827bffffffffffffffffffffffffffffffffffffffffffffffffffffffff1916149050919050565b505050565b505050565b600660009054906101000a900460ff1615612bb557612bb084848484612e95565b612bfa565b6000825114612bf9576040517f08c379a0000000000000000000000000000000000000000000000000000000008152600401612bf090615471565b60405180910390fd5b5b50505050565b600080612c0b61203a565b90508073ffffffffffffffffffffffffffffffffffffffff168673ffffffffffffffffffffffffffffffffffffffff1614612c4c57612c4b8682856123ce565b5b612c568684612f74565b82915050949350505050565b6000600160008861ffff1661ffff1681526020019081526020016000208054612c8a9061414b565b80601f0160208091040260200160405190810160405280929190818152602001828054612cb69061414b565b8015612d035780601f10612cd857610100808354040283529160200191612d03565b820191906000526020600020905b815481529060010190602001808311612ce657829003601f168201915b505050505090506000815103612d4e576040517f08c379a0000000000000000000000000000000000000000000000000000000008152600401612d4590615503565b60405180910390fd5b612d59878751613143565b7f000000000000000000000000000000000000000000000000000000000000000073ffffffffffffffffffffffffffffffffffffffff1663c58031008389848a8a8a8a6040518863ffffffff1660e01b8152600401612dbd96959493929190615532565b6000604051808303818588803b158015612dd657600080fd5b505af1158015612dea573d6000803e3d6000fd5b505050505050505050505050565b60008082806020019051810190612e0f91906155bd565b92509250506000612e2a6000846131b990919063ffffffff16565b9050612e3787828461322f565b91508073ffffffffffffffffffffffffffffffffffffffff168761ffff167fbf551ec93859b170f9b2141bd9298bf3f64322c6f7beb2543a0cb669834118bf84604051612e849190613846565b60405180910390a350505050505050565b6000612ea083613245565b9050600082600260008861ffff1661ffff16815260200190815260200160002060008761ffff1661ffff16815260200190815260200160002054612ee491906143ab565b905060008111612f29576040517f08c379a0000000000000000000000000000000000000000000000000000000008152600401612f2090615678565b60405180910390fd5b80821015612f6c576040517f08c379a0000000000000000000000000000000000000000000000000000000008152600401612f63906156e4565b60405180910390fd5b505050505050565b600073ffffffffffffffffffffffffffffffffffffffff168273ffffffffffffffffffffffffffffffffffffffff1603612fe3576040517f08c379a0000000000000000000000000000000000000000000000000000000008152600401612fda90615776565b60405180910390fd5b612fef82600083612b85565b6000600760008473ffffffffffffffffffffffffffffffffffffffff1673ffffffffffffffffffffffffffffffffffffffff16815260200190815260200160002054905081811015613076576040517f08c379a000000000000000000000000000000000000000000000000000000000815260040161306d90615808565b60405180910390fd5b818103600760008573ffffffffffffffffffffffffffffffffffffffff1673ffffffffffffffffffffffffffffffffffffffff1681526020019081526020016000208190555081600960008282540392505081905550600073ffffffffffffffffffffffffffffffffffffffff168373ffffffffffffffffffffffffffffffffffffffff167fddf252ad1be2c89b69c2b068fc378daa952ba7f163c4a11628f55a4df523b3ef8460405161312a9190613846565b60405180910390a361313e83600084612b8a565b505050565b6000600360008461ffff1661ffff168152602001908152602001600020549050600081036131715761271090505b808211156131b4576040517f08c379a00000000000000000000000000000000000000000000000000000000081526004016131ab90615874565b60405180910390fd5b505050565b60006014826131c891906143ab565b8351101561320b576040517f08c379a0000000000000000000000000000000000000000000000000000000008152600401613202906158e0565b60405180910390fd5b60006c01000000000000000000000000836020860101510490508091505092915050565b600061323b8383613298565b8190509392505050565b600060228251101561328c576040517f08c379a00000000000000000000000000000000000000000000000000000000081526004016132839061594c565b60405180910390fd5b60228201519050919050565b600073ffffffffffffffffffffffffffffffffffffffff168273ffffffffffffffffffffffffffffffffffffffff1603613307576040517f08c379a00000000000000000000000000000000000000000000000000000000081526004016132fe906159b8565b60405180910390fd5b61331360008383612b85565b806009600082825461332591906143ab565b9250508190555080600760008473ffffffffffffffffffffffffffffffffffffffff1673ffffffffffffffffffffffffffffffffffffffff168152602001908152602001600020600082825401925050819055508173ffffffffffffffffffffffffffffffffffffffff16600073ffffffffffffffffffffffffffffffffffffffff167fddf252ad1be2c89b69c2b068fc378daa952ba7f163c4a11628f55a4df523b3ef836040516133d79190613846565b60405180910390a36133eb60008383612b8a565b5050565b6000604051905090565b600080fd5b600080fd5b600061ffff82169050919050565b61341a81613403565b811461342557600080fd5b50565b60008135905061343781613411565b92915050565b600080fd5b600080fd5b600080fd5b60008083601f8401126134625761346161343d565b5b8235905067ffffffffffffffff81111561347f5761347e613442565b5b60208301915083600182028301111561349b5761349a613447565b5b9250929050565b600067ffffffffffffffff82169050919050565b6134bf816134a2565b81146134ca57600080fd5b50565b6000813590506134dc816134b6565b92915050565b600080600080600080608087890312156134ff576134fe6133f9565b5b600061350d89828a01613428565b965050602087013567ffffffffffffffff81111561352e5761352d6133fe565b5b61353a89828a0161344c565b9550955050604061354d89828a016134cd565b935050606087013567ffffffffffffffff81111561356e5761356d6133fe565b5b61357a89828a0161344c565b92509250509295509295509295565b60007fffffffff0000000000000000000000000000000000000000000000000000000082169050919050565b6135be81613589565b81146135c957600080fd5b50565b6000813590506135db816135b5565b92915050565b6000602082840312156135f7576135f66133f9565b5b6000613605848285016135cc565b91505092915050565b60008115159050919050565b6136238161360e565b82525050565b600060208201905061363e600083018461361a565b92915050565b600081519050919050565b600082825260208201905092915050565b60005b8381101561367e578082015181840152602081019050613663565b60008484015250505050565b6000601f19601f8301169050919050565b60006136a682613644565b6136b0818561364f565b93506136c0818560208601613660565b6136c98161368a565b840191505092915050565b600060208201905081810360008301526136ee818461369b565b905092915050565b60006020828403121561370c5761370b6133f9565b5b600061371a84828501613428565b91505092915050565b600073ffffffffffffffffffffffffffffffffffffffff82169050919050565b600061374e82613723565b9050919050565b61375e81613743565b811461376957600080fd5b50565b60008135905061377b81613755565b92915050565b6000819050919050565b61379481613781565b811461379f57600080fd5b50565b6000813590506137b18161378b565b92915050565b600080604083850312156137ce576137cd6133f9565b5b60006137dc8582860161376c565b92505060206137ed858286016137a2565b9150509250929050565b6000806040838503121561380e5761380d6133f9565b5b600061381c85828601613428565b925050602061382d858286016137a2565b9150509250929050565b61384081613781565b82525050565b600060208201905061385b6000830184613837565b92915050565b60008060006060848603121561387a576138796133f9565b5b60006138888682870161376c565b93505060206138998682870161376c565b92505060406138aa868287016137a2565b9150509250925092565b6138bd8161360e565b81146138c857600080fd5b50565b6000813590506138da816138b4565b92915050565b600080600080600080600060a0888a0312156138ff576138fe6133f9565b5b600061390d8a828b01613428565b975050602088013567ffffffffffffffff81111561392e5761392d6133fe565b5b61393a8a828b0161344c565b9650965050604061394d8a828b016137a2565b945050606061395e8a828b016138cb565b935050608088013567ffffffffffffffff81111561397f5761397e6133fe565b5b61398b8a828b0161344c565b925092505092959891949750929550565b60006040820190506139b16000830185613837565b6139be6020830184613837565b9392505050565b600060ff82169050919050565b6139db816139c5565b82525050565b60006020820190506139f660008301846139d2565b92915050565b600080600060408486031215613a1557613a146133f9565b5b6000613a2386828701613428565b935050602084013567ffffffffffffffff811115613a4457613a436133fe565b5b613a508682870161344c565b92509250509250925092565b613a6581613403565b82525050565b6000602082019050613a806000830184613a5c565b92915050565b6000613a9182613723565b9050919050565b613aa181613a86565b8114613aac57600080fd5b50565b600081359050613abe81613a98565b92915050565b600080600080600080600080600060e08a8c031215613ae657613ae56133f9565b5b6000613af48c828d0161376c565b9950506020613b058c828d01613428565b98505060408a013567ffffffffffffffff811115613b2657613b256133fe565b5b613b328c828d0161344c565b97509750506060613b458c828d016137a2565b9550506080613b568c828d01613aaf565b94505060a0613b678c828d0161376c565b93505060c08a013567ffffffffffffffff811115613b8857613b876133fe565b5b613b948c828d0161344c565b92509250509295985092959850929598565b600080fd5b7f4e487b7100000000000000000000000000000000000000000000000000000000600052604160045260246000fd5b613be38261368a565b810181811067ffffffffffffffff82111715613c0257613c01613bab565b5b80604052505050565b6000613c156133ef565b9050613c218282613bda565b919050565b600067ffffffffffffffff821115613c4157613c40613bab565b5b613c4a8261368a565b9050602081019050919050565b82818337600083830152505050565b6000613c79613c7484613c26565b613c0b565b905082815260208101848484011115613c9557613c94613ba6565b5b613ca0848285613c57565b509392505050565b600082601f830112613cbd57613cbc61343d565b5b8135613ccd848260208601613c66565b91505092915050565b600080600060608486031215613cef57613cee6133f9565b5b6000613cfd86828701613428565b935050602084013567ffffffffffffffff811115613d1e57613d1d6133fe565b5b613d2a86828701613ca8565b9250506040613d3b868287016134cd565b9150509250925092565b6000819050919050565b613d5881613d45565b82525050565b6000602082019050613d736000830184613d4f565b92915050565b600060208284031215613d8f57613d8e6133f9565b5b6000613d9d8482850161376c565b91505092915050565b600081519050919050565b600082825260208201905092915050565b6000613dcd82613da6565b613dd78185613db1565b9350613de7818560208601613660565b613df08161368a565b840191505092915050565b60006020820190508181036000830152613e158184613dc2565b905092915050565b60008060408385031215613e3457613e336133f9565b5b6000613e4285828601613428565b9250506020613e5385828601613428565b9150509250929050565b613e6681613743565b82525050565b6000602082019050613e816000830184613e5d565b92915050565b6000819050919050565b6000613eac613ea7613ea284613723565b613e87565b613723565b9050919050565b6000613ebe82613e91565b9050919050565b6000613ed082613eb3565b9050919050565b613ee081613ec5565b82525050565b6000602082019050613efb6000830184613ed7565b92915050565b600080600080600060808688031215613f1d57613f1c6133f9565b5b6000613f2b88828901613428565b9550506020613f3c88828901613428565b9450506040613f4d888289016137a2565b935050606086013567ffffffffffffffff811115613f6e57613f6d6133fe565b5b613f7a8882890161344c565b92509250509295509295909350565b60008060408385031215613fa057613f9f6133f9565b5b6000613fae8582860161376c565b9250506020613fbf8582860161376c565b9150509250929050565b600080600060608486031215613fe257613fe16133f9565b5b6000613ff086828701613428565b935050602061400186828701613428565b9250506040614012868287016137a2565b9150509250925092565b600060208284031215614032576140316133f9565b5b6000614040848285016138cb565b91505092915050565b60008060008060808587031215614063576140626133f9565b5b600061407187828801613428565b945050602061408287828801613428565b93505060406140938782880161376c565b92505060606140a4878288016137a2565b91505092959194509250565b7f4c7a4170703a20696e76616c696420656e64706f696e742063616c6c65720000600082015250565b60006140e6601e8361364f565b91506140f1826140b0565b602082019050919050565b60006020820190508181036000830152614115816140d9565b9050919050565b7f4e487b7100000000000000000000000000000000000000000000000000000000600052602260045260246000fd5b6000600282049050600182168061416357607f821691505b6020821081036141765761417561411c565b5b50919050565b600081905092915050565b6000614193838561417c565b93506141a0838584613c57565b82840190509392505050565b60006141b9828486614187565b91508190509392505050565b7f4c7a4170703a20696e76616c696420736f757263652073656e64696e6720636f60008201527f6e74726163740000000000000000000000000000000000000000000000000000602082015250565b600061422160268361364f565b915061422c826141c5565b604082019050919050565b6000602082019050818103600083015261425081614214565b9050919050565b60006142638385613db1565b9350614270838584613c57565b6142798361368a565b840190509392505050565b60006060820190506142996000830187613a5c565b81810360208301526142ac818587614257565b90506142bb6040830184613837565b95945050505050565b600060a0820190506142d96000830189613a5c565b6142e66020830188613e5d565b81810360408301526142f88187613dc2565b9050614307606083018661361a565b818103608083015261431a818486614257565b9050979650505050505050565b6000815190506143368161378b565b92915050565b60008060408385031215614353576143526133f9565b5b600061436185828601614327565b925050602061437285828601614327565b9150509250929050565b7f4e487b7100000000000000000000000000000000000000000000000000000000600052601160045260246000fd5b60006143b682613781565b91506143c183613781565b92508282019050808211156143d9576143d861437c565b5b92915050565b60006040820190506143f46000830186613a5c565b8181036020830152614407818486614257565b9050949350505050565b7f4e6f6e626c6f636b696e674c7a4170703a2063616c6c6572206d75737420626560008201527f204c7a4170700000000000000000000000000000000000000000000000000000602082015250565b600061446d60268361364f565b915061447882614411565b604082019050919050565b6000602082019050818103600083015261449c81614460565b9050919050565b7f4c7a4170703a206e6f20747275737465642070617468207265636f7264000000600082015250565b60006144d9601d8361364f565b91506144e4826144a3565b602082019050919050565b60006020820190508181036000830152614508816144cc565b9050919050565b600061451a82613781565b915061452583613781565b925082820390508181111561453d5761453c61437c565b5b92915050565b7f45524332303a2064656372656173656420616c6c6f77616e63652062656c6f7760008201527f207a65726f000000000000000000000000000000000000000000000000000000602082015250565b600061459f60258361364f565b91506145aa82614543565b604082019050919050565b600060208201905081810360008301526145ce81614592565b9050919050565b60008160601b9050919050565b60006145ed826145d5565b9050919050565b60006145ff826145e2565b9050919050565b61461761461282613743565b6145f4565b82525050565b600061462a828587614187565b91506146368284614606565b601482019150819050949350505050565b60008190508160005260206000209050919050565b60006020601f8301049050919050565b600082821b905092915050565b6000600883026146a97fffffffffffffffffffffffffffffffffffffffffffffffffffffffffffffffff8261466c565b6146b3868361466c565b95508019841693508086168417925050509392505050565b60006146e66146e16146dc84613781565b613e87565b613781565b9050919050565b6000819050919050565b614700836146cb565b61471461470c826146ed565b848454614679565b825550505050565b600090565b61472961471c565b6147348184846146f7565b505050565b5b818110156147585761474d600082614721565b60018101905061473a565b5050565b601f82111561479d5761476e81614647565b6147778461465c565b81016020851015614786578190505b61479a6147928561465c565b830182614739565b50505b505050565b600082821c905092915050565b60006147c0600019846008026147a2565b1980831691505092915050565b60006147d983836147af565b9150826002028217905092915050565b6147f282613da6565b67ffffffffffffffff81111561480b5761480a613bab565b5b614815825461414b565b61482082828561475c565b600060209050601f8311600181146148535760008415614841578287015190505b61484b85826147cd565b8655506148b3565b601f19841661486186614647565b60005b8281101561488957848901518255600182019150602085019450602081019050614864565b868310156148a657848901516148a2601f8916826147af565b8355505b6001600288020188555050505b505050505050565b60006080820190506148d06000830188613a5c565b6148dd6020830187613a5c565b6148ea6040830186613837565b81810360608301526148fd818486614257565b90509695505050505050565b7f4e6f6e626c6f636b696e674c7a4170703a206e6f2073746f726564206d65737360008201527f6167650000000000000000000000000000000000000000000000000000000000602082015250565b600061496560238361364f565b915061497082614909565b604082019050919050565b6000602082019050818103600083015261499481614958565b9050919050565b7f4e6f6e626c6f636b696e674c7a4170703a20696e76616c6964207061796c6f6160008201527f6400000000000000000000000000000000000000000000000000000000000000602082015250565b60006149f760218361364f565b9150614a028261499b565b604082019050919050565b60006020820190508181036000830152614a26816149ea565b9050919050565b614a36816134a2565b82525050565b6000608082019050614a516000830188613a5c565b8181036020830152614a64818688614257565b9050614a736040830185614a2d565b614a806060830184613d4f565b9695505050505050565b7f4c7a4170703a20696e76616c6964206d696e4761730000000000000000000000600082015250565b6000614ac060158361364f565b9150614acb82614a8a565b602082019050919050565b60006020820190508181036000830152614aef81614ab3565b9050919050565b6000606082019050614b0b6000830186613a5c565b614b186020830185613a5c565b614b256040830184613837565b949350505050565b600082905092915050565b614b428383614b2d565b67ffffffffffffffff811115614b5b57614b5a613bab565b5b614b65825461414b565b614b7082828561475c565b6000601f831160018114614b9f5760008415614b8d578287013590505b614b9785826147cd565b865550614bff565b601f198416614bad86614647565b60005b82811015614bd557848901358255600182019150602085019450602081019050614bb0565b86831015614bf25784890135614bee601f8916826147af565b8355505b6001600288020188555050505b50505050505050565b7f4f776e61626c653a206e6577206f776e657220697320746865207a65726f206160008201527f6464726573730000000000000000000000000000000000000000000000000000602082015250565b6000614c6460268361364f565b9150614c6f82614c08565b604082019050919050565b60006020820190508181036000830152614c9381614c57565b9050919050565b6000608082019050614caf6000830187613a5c565b614cbc6020830186613a5c565b614cc96040830185613e5d565b614cd66060830184613837565b95945050505050565b6000614cf2614ced84613c26565b613c0b565b905082815260208101848484011115614d0e57614d0d613ba6565b5b614d19848285613660565b509392505050565b600082601f830112614d3657614d3561343d565b5b8151614d46848260208601614cdf565b91505092915050565b600060208284031215614d6557614d646133f9565b5b600082015167ffffffffffffffff811115614d8357614d826133fe565b5b614d8f84828501614d21565b91505092915050565b6000608082019050614dad6000830187613a5c565b8181036020830152614dbf8186613dc2565b9050614dce6040830185614a2d565b8181036060830152614de08184613dc2565b905095945050505050565b7f4f776e61626c653a2063616c6c6572206973206e6f7420746865206f776e6572600082015250565b6000614e2160208361364f565b9150614e2c82614deb565b602082019050919050565b60006020820190508181036000830152614e5081614e14565b9050919050565b7f45524332303a20617070726f76652066726f6d20746865207a65726f2061646460008201527f7265737300000000000000000000000000000000000000000000000000000000602082015250565b6000614eb360248361364f565b9150614ebe82614e57565b604082019050919050565b60006020820190508181036000830152614ee281614ea6565b9050919050565b7f45524332303a20617070726f766520746f20746865207a65726f20616464726560008201527f7373000000000000000000000000000000000000000000000000000000000000602082015250565b6000614f4560228361364f565b9150614f5082614ee9565b604082019050919050565b60006020820190508181036000830152614f7481614f38565b9050919050565b7f45524332303a20696e73756666696369656e7420616c6c6f77616e6365000000600082015250565b6000614fb1601d8361364f565b9150614fbc82614f7b565b602082019050919050565b60006020820190508181036000830152614fe081614fa4565b9050919050565b7f45524332303a207472616e736665722066726f6d20746865207a65726f20616460008201527f6472657373000000000000000000000000000000000000000000000000000000602082015250565b600061504360258361364f565b915061504e82614fe7565b604082019050919050565b6000602082019050818103600083015261507281615036565b9050919050565b7f45524332303a207472616e7366657220746f20746865207a65726f206164647260008201527f6573730000000000000000000000000000000000000000000000000000000000602082015250565b60006150d560238361364f565b91506150e082615079565b604082019050919050565b60006020820190508181036000830152615104816150c8565b9050919050565b7f45524332303a207472616e7366657220616d6f756e742065786365656473206260008201527f616c616e63650000000000000000000000000000000000000000000000000000602082015250565b600061516760268361364f565b91506151728261510b565b604082019050919050565b600060208201905081810360008301526151968161515a565b9050919050565b60006060820190506151b26000830186613a5c565b81810360208301526151c48185613dc2565b90506151d36040830184613837565b949350505050565b600060408201905081810360008301526151f58185613dc2565b90506152046020830184613837565b9392505050565b7f4f4654436f72653a20756e6b6e6f776e207061636b6574207479706500000000600082015250565b6000615241601c8361364f565b915061524c8261520b565b602082019050919050565b6000602082019050818103600083015261527081615234565b9050919050565b7f736c6963655f6f766572666c6f77000000000000000000000000000000000000600082015250565b60006152ad600e8361364f565b91506152b882615277565b602082019050919050565b600060208201905081810360008301526152dc816152a0565b9050919050565b7f736c6963655f6f75744f66426f756e6473000000000000000000000000000000600082015250565b600061531960118361364f565b9150615324826152e3565b602082019050919050565b600060208201905081810360008301526153488161530c565b9050919050565b600061535a82613da6565b615364818561417c565b9350615374818560208601613660565b80840191505092915050565b600061538c828461534f565b915081905092915050565b600060a0820190506153ac6000830188613a5c565b81810360208301526153be8187613dc2565b90506153cd6040830186614a2d565b81810360608301526153df8185613dc2565b905081810360808301526153f38184613dc2565b90509695505050505050565b7f4f4654436f72653a205f61646170746572506172616d73206d7573742062652060008201527f656d7074792e0000000000000000000000000000000000000000000000000000602082015250565b600061545b60268361364f565b9150615466826153ff565b604082019050919050565b6000602082019050818103600083015261548a8161544e565b9050919050565b7f4c7a4170703a2064657374696e6174696f6e20636861696e206973206e6f742060008201527f61207472757374656420736f7572636500000000000000000000000000000000602082015250565b60006154ed60308361364f565b91506154f882615491565b604082019050919050565b6000602082019050818103600083015261551c816154e0565b9050919050565b61552c81613a86565b82525050565b600060c0820190506155476000830189613a5c565b81810360208301526155598188613dc2565b9050818103604083015261556d8187613dc2565b905061557c6060830186615523565b6155896080830185613e5d565b81810360a083015261559b8184613dc2565b9050979650505050505050565b6000815190506155b781613411565b92915050565b6000806000606084860312156155d6576155d56133f9565b5b60006155e4868287016155a8565b935050602084015167ffffffffffffffff811115615605576156046133fe565b5b61561186828701614d21565b925050604061562286828701614327565b9150509250925092565b7f4c7a4170703a206d696e4761734c696d6974206e6f7420736574000000000000600082015250565b6000615662601a8361364f565b915061566d8261562c565b602082019050919050565b6000602082019050818103600083015261569181615655565b9050919050565b7f4c7a4170703a20676173206c696d697420697320746f6f206c6f770000000000600082015250565b60006156ce601b8361364f565b91506156d982615698565b602082019050919050565b600060208201905081810360008301526156fd816156c1565b9050919050565b7f45524332303a206275726e2066726f6d20746865207a65726f2061646472657360008201527f7300000000000000000000000000000000000000000000000000000000000000602082015250565b600061576060218361364f565b915061576b82615704565b604082019050919050565b6000602082019050818103600083015261578f81615753565b9050919050565b7f45524332303a206275726e20616d6f756e7420657863656564732062616c616e60008201527f6365000000000000000000000000000000000000000000000000000000000000602082015250565b60006157f260228361364f565b91506157fd82615796565b604082019050919050565b60006020820190508181036000830152615821816157e5565b9050919050565b7f4c7a4170703a207061796c6f61642073697a6520697320746f6f206c61726765600082015250565b600061585e60208361364f565b915061586982615828565b602082019050919050565b6000602082019050818103600083015261588d81615851565b9050919050565b7f746f416464726573735f6f75744f66426f756e64730000000000000000000000600082015250565b60006158ca60158361364f565b91506158d582615894565b602082019050919050565b600060208201905081810360008301526158f9816158bd565b9050919050565b7f4c7a4170703a20696e76616c69642061646170746572506172616d7300000000600082015250565b6000615936601c8361364f565b915061594182615900565b602082019050919050565b6000602082019050818103600083015261596581615929565b9050919050565b7f45524332303a206d696e7420746f20746865207a65726f206164647265737300600082015250565b60006159a2601f8361364f565b91506159ad8261596c565b602082019050919050565b600060208201905081810360008301526159d181615995565b905091905056fea2646970667358221220187f98549d5358b7b42388f6aa55541509b9a01e907e3d987b8ba1c9385c68ab64736f6c63430008120033",
      "opcodes": "PUSH1 0xA0 PUSH1 0x40 MSTORE CALLVALUE DUP1 ISZERO PUSH3 0x11 JUMPI PUSH1 0x0 DUP1 REVERT JUMPDEST POP PUSH1 0x40 MLOAD PUSH3 0x61B4 CODESIZE SUB DUP1 PUSH3 0x61B4 DUP4 CODECOPY DUP2 DUP2 ADD PUSH1 0x40 MSTORE DUP2 ADD SWAP1 PUSH3 0x37 SWAP2 SWAP1 PUSH3 0x386 JUMP JUMPDEST DUP3 DUP3 DUP3 DUP1 DUP1 PUSH3 0x5C PUSH3 0x50 PUSH3 0xC2 PUSH1 0x20 SHL PUSH1 0x20 SHR JUMP JUMPDEST PUSH3 0xCA PUSH1 0x20 SHL PUSH1 0x20 SHR JUMP JUMPDEST DUP1 PUSH20 0xFFFFFFFFFFFFFFFFFFFFFFFFFFFFFFFFFFFFFFFF AND PUSH1 0x80 DUP2 PUSH20 0xFFFFFFFFFFFFFFFFFFFFFFFFFFFFFFFFFFFFFFFF AND DUP2 MSTORE POP POP POP POP POP DUP2 PUSH1 0xA SWAP1 DUP2 PUSH3 0xA4 SWAP2 SWAP1 PUSH3 0x66B JUMP JUMPDEST POP DUP1 PUSH1 0xB SWAP1 DUP2 PUSH3 0xB6 SWAP2 SWAP1 PUSH3 0x66B JUMP JUMPDEST POP POP POP POP POP POP PUSH3 0x752 JUMP JUMPDEST PUSH1 0x0 CALLER SWAP1 POP SWAP1 JUMP JUMPDEST PUSH1 0x0 DUP1 PUSH1 0x0 SWAP1 SLOAD SWAP1 PUSH2 0x100 EXP SWAP1 DIV PUSH20 0xFFFFFFFFFFFFFFFFFFFFFFFFFFFFFFFFFFFFFFFF AND SWAP1 POP DUP2 PUSH1 0x0 DUP1 PUSH2 0x100 EXP DUP2 SLOAD DUP2 PUSH20 0xFFFFFFFFFFFFFFFFFFFFFFFFFFFFFFFFFFFFFFFF MUL NOT AND SWAP1 DUP4 PUSH20 0xFFFFFFFFFFFFFFFFFFFFFFFFFFFFFFFFFFFFFFFF AND MUL OR SWAP1 SSTORE POP DUP2 PUSH20 0xFFFFFFFFFFFFFFFFFFFFFFFFFFFFFFFFFFFFFFFF AND DUP2 PUSH20 0xFFFFFFFFFFFFFFFFFFFFFFFFFFFFFFFFFFFFFFFF AND PUSH32 0x8BE0079C531659141344CD1FD0A4F28419497F9722A3DAAFE3B4186F6B6457E0 PUSH1 0x40 MLOAD PUSH1 0x40 MLOAD DUP1 SWAP2 SUB SWAP1 LOG3 POP POP JUMP JUMPDEST PUSH1 0x0 PUSH1 0x40 MLOAD SWAP1 POP SWAP1 JUMP JUMPDEST PUSH1 0x0 DUP1 REVERT JUMPDEST PUSH1 0x0 DUP1 REVERT JUMPDEST PUSH1 0x0 DUP1 REVERT JUMPDEST PUSH1 0x0 DUP1 REVERT JUMPDEST PUSH1 0x0 PUSH1 0x1F NOT PUSH1 0x1F DUP4 ADD AND SWAP1 POP SWAP2 SWAP1 POP JUMP JUMPDEST PUSH32 0x4E487B7100000000000000000000000000000000000000000000000000000000 PUSH1 0x0 MSTORE PUSH1 0x41 PUSH1 0x4 MSTORE PUSH1 0x24 PUSH1 0x0 REVERT JUMPDEST PUSH3 0x1F7 DUP3 PUSH3 0x1AC JUMP JUMPDEST DUP2 ADD DUP2 DUP2 LT PUSH8 0xFFFFFFFFFFFFFFFF DUP3 GT OR ISZERO PUSH3 0x219 JUMPI PUSH3 0x218 PUSH3 0x1BD JUMP JUMPDEST JUMPDEST DUP1 PUSH1 0x40 MSTORE POP POP POP JUMP JUMPDEST PUSH1 0x0 PUSH3 0x22E PUSH3 0x18E JUMP JUMPDEST SWAP1 POP PUSH3 0x23C DUP3 DUP3 PUSH3 0x1EC JUMP JUMPDEST SWAP2 SWAP1 POP JUMP JUMPDEST PUSH1 0x0 PUSH8 0xFFFFFFFFFFFFFFFF DUP3 GT ISZERO PUSH3 0x25F JUMPI PUSH3 0x25E PUSH3 0x1BD JUMP JUMPDEST JUMPDEST PUSH3 0x26A DUP3 PUSH3 0x1AC JUMP JUMPDEST SWAP1 POP PUSH1 0x20 DUP2 ADD SWAP1 POP SWAP2 SWAP1 POP JUMP JUMPDEST PUSH1 0x0 JUMPDEST DUP4 DUP2 LT ISZERO PUSH3 0x297 JUMPI DUP1 DUP3 ADD MLOAD DUP2 DUP5 ADD MSTORE PUSH1 0x20 DUP2 ADD SWAP1 POP PUSH3 0x27A JUMP JUMPDEST PUSH1 0x0 DUP5 DUP5 ADD MSTORE POP POP POP POP JUMP JUMPDEST PUSH1 0x0 PUSH3 0x2BA PUSH3 0x2B4 DUP5 PUSH3 0x241 JUMP JUMPDEST PUSH3 0x222 JUMP JUMPDEST SWAP1 POP DUP3 DUP2 MSTORE PUSH1 0x20 DUP2 ADD DUP5 DUP5 DUP5 ADD GT ISZERO PUSH3 0x2D9 JUMPI PUSH3 0x2D8 PUSH3 0x1A7 JUMP JUMPDEST JUMPDEST PUSH3 0x2E6 DUP5 DUP3 DUP6 PUSH3 0x277 JUMP JUMPDEST POP SWAP4 SWAP3 POP POP POP JUMP JUMPDEST PUSH1 0x0 DUP3 PUSH1 0x1F DUP4 ADD SLT PUSH3 0x306 JUMPI PUSH3 0x305 PUSH3 0x1A2 JUMP JUMPDEST JUMPDEST DUP2 MLOAD PUSH3 0x318 DUP5 DUP3 PUSH1 0x20 DUP7 ADD PUSH3 0x2A3 JUMP JUMPDEST SWAP2 POP POP SWAP3 SWAP2 POP POP JUMP JUMPDEST PUSH1 0x0 PUSH20 0xFFFFFFFFFFFFFFFFFFFFFFFFFFFFFFFFFFFFFFFF DUP3 AND SWAP1 POP SWAP2 SWAP1 POP JUMP JUMPDEST PUSH1 0x0 PUSH3 0x34E DUP3 PUSH3 0x321 JUMP JUMPDEST SWAP1 POP SWAP2 SWAP1 POP JUMP JUMPDEST PUSH3 0x360 DUP2 PUSH3 0x341 JUMP JUMPDEST DUP2 EQ PUSH3 0x36C JUMPI PUSH1 0x0 DUP1 REVERT JUMPDEST POP JUMP JUMPDEST PUSH1 0x0 DUP2 MLOAD SWAP1 POP PUSH3 0x380 DUP2 PUSH3 0x355 JUMP JUMPDEST SWAP3 SWAP2 POP POP JUMP JUMPDEST PUSH1 0x0 DUP1 PUSH1 0x0 PUSH1 0x60 DUP5 DUP7 SUB SLT ISZERO PUSH3 0x3A2 JUMPI PUSH3 0x3A1 PUSH3 0x198 JUMP JUMPDEST JUMPDEST PUSH1 0x0 DUP5 ADD MLOAD PUSH8 0xFFFFFFFFFFFFFFFF DUP2 GT ISZERO PUSH3 0x3C3 JUMPI PUSH3 0x3C2 PUSH3 0x19D JUMP JUMPDEST JUMPDEST PUSH3 0x3D1 DUP7 DUP3 DUP8 ADD PUSH3 0x2EE JUMP JUMPDEST SWAP4 POP POP PUSH1 0x20 DUP5 ADD MLOAD PUSH8 0xFFFFFFFFFFFFFFFF DUP2 GT ISZERO PUSH3 0x3F5 JUMPI PUSH3 0x3F4 PUSH3 0x19D JUMP JUMPDEST JUMPDEST PUSH3 0x403 DUP7 DUP3 DUP8 ADD PUSH3 0x2EE JUMP JUMPDEST SWAP3 POP POP PUSH1 0x40 PUSH3 0x416 DUP7 DUP3 DUP8 ADD PUSH3 0x36F JUMP JUMPDEST SWAP2 POP POP SWAP3 POP SWAP3 POP SWAP3 JUMP JUMPDEST PUSH1 0x0 DUP2 MLOAD SWAP1 POP SWAP2 SWAP1 POP JUMP JUMPDEST PUSH32 0x4E487B7100000000000000000000000000000000000000000000000000000000 PUSH1 0x0 MSTORE PUSH1 0x22 PUSH1 0x4 MSTORE PUSH1 0x24 PUSH1 0x0 REVERT JUMPDEST PUSH1 0x0 PUSH1 0x2 DUP3 DIV SWAP1 POP PUSH1 0x1 DUP3 AND DUP1 PUSH3 0x473 JUMPI PUSH1 0x7F DUP3 AND SWAP2 POP JUMPDEST PUSH1 0x20 DUP3 LT DUP2 SUB PUSH3 0x489 JUMPI PUSH3 0x488 PUSH3 0x42B JUMP JUMPDEST JUMPDEST POP SWAP2 SWAP1 POP JUMP JUMPDEST PUSH1 0x0 DUP2 SWAP1 POP DUP2 PUSH1 0x0 MSTORE PUSH1 0x20 PUSH1 0x0 KECCAK256 SWAP1 POP SWAP2 SWAP1 POP JUMP JUMPDEST PUSH1 0x0 PUSH1 0x20 PUSH1 0x1F DUP4 ADD DIV SWAP1 POP SWAP2 SWAP1 POP JUMP JUMPDEST PUSH1 0x0 DUP3 DUP3 SHL SWAP1 POP SWAP3 SWAP2 POP POP JUMP JUMPDEST PUSH1 0x0 PUSH1 0x8 DUP4 MUL PUSH3 0x4F3 PUSH32 0xFFFFFFFFFFFFFFFFFFFFFFFFFFFFFFFFFFFFFFFFFFFFFFFFFFFFFFFFFFFFFFFF DUP3 PUSH3 0x4B4 JUMP JUMPDEST PUSH3 0x4FF DUP7 DUP4 PUSH3 0x4B4 JUMP JUMPDEST SWAP6 POP DUP1 NOT DUP5 AND SWAP4 POP DUP1 DUP7 AND DUP5 OR SWAP3 POP POP POP SWAP4 SWAP3 POP POP POP JUMP JUMPDEST PUSH1 0x0 DUP2 SWAP1 POP SWAP2 SWAP1 POP JUMP JUMPDEST PUSH1 0x0 DUP2 SWAP1 POP SWAP2 SWAP1 POP JUMP JUMPDEST PUSH1 0x0 PUSH3 0x54C PUSH3 0x546 PUSH3 0x540 DUP5 PUSH3 0x517 JUMP JUMPDEST PUSH3 0x521 JUMP JUMPDEST PUSH3 0x517 JUMP JUMPDEST SWAP1 POP SWAP2 SWAP1 POP JUMP JUMPDEST PUSH1 0x0 DUP2 SWAP1 POP SWAP2 SWAP1 POP JUMP JUMPDEST PUSH3 0x568 DUP4 PUSH3 0x52B JUMP JUMPDEST PUSH3 0x580 PUSH3 0x577 DUP3 PUSH3 0x553 JUMP JUMPDEST DUP5 DUP5 SLOAD PUSH3 0x4C1 JUMP JUMPDEST DUP3 SSTORE POP POP POP POP JUMP JUMPDEST PUSH1 0x0 SWAP1 JUMP JUMPDEST PUSH3 0x597 PUSH3 0x588 JUMP JUMPDEST PUSH3 0x5A4 DUP2 DUP5 DUP5 PUSH3 0x55D JUMP JUMPDEST POP POP POP JUMP JUMPDEST JUMPDEST DUP2 DUP2 LT ISZERO PUSH3 0x5CC JUMPI PUSH3 0x5C0 PUSH1 0x0 DUP3 PUSH3 0x58D JUMP JUMPDEST PUSH1 0x1 DUP2 ADD SWAP1 POP PUSH3 0x5AA JUMP JUMPDEST POP POP JUMP JUMPDEST PUSH1 0x1F DUP3 GT ISZERO PUSH3 0x61B JUMPI PUSH3 0x5E5 DUP2 PUSH3 0x48F JUMP JUMPDEST PUSH3 0x5F0 DUP5 PUSH3 0x4A4 JUMP JUMPDEST DUP2 ADD PUSH1 0x20 DUP6 LT ISZERO PUSH3 0x600 JUMPI DUP2 SWAP1 POP JUMPDEST PUSH3 0x618 PUSH3 0x60F DUP6 PUSH3 0x4A4 JUMP JUMPDEST DUP4 ADD DUP3 PUSH3 0x5A9 JUMP JUMPDEST POP POP JUMPDEST POP POP POP JUMP JUMPDEST PUSH1 0x0 DUP3 DUP3 SHR SWAP1 POP SWAP3 SWAP2 POP POP JUMP JUMPDEST PUSH1 0x0 PUSH3 0x640 PUSH1 0x0 NOT DUP5 PUSH1 0x8 MUL PUSH3 0x620 JUMP JUMPDEST NOT DUP1 DUP4 AND SWAP2 POP POP SWAP3 SWAP2 POP POP JUMP JUMPDEST PUSH1 0x0 PUSH3 0x65B DUP4 DUP4 PUSH3 0x62D JUMP JUMPDEST SWAP2 POP DUP3 PUSH1 0x2 MUL DUP3 OR SWAP1 POP SWAP3 SWAP2 POP POP JUMP JUMPDEST PUSH3 0x676 DUP3 PUSH3 0x420 JUMP JUMPDEST PUSH8 0xFFFFFFFFFFFFFFFF DUP2 GT ISZERO PUSH3 0x692 JUMPI PUSH3 0x691 PUSH3 0x1BD JUMP JUMPDEST JUMPDEST PUSH3 0x69E DUP3 SLOAD PUSH3 0x45A JUMP JUMPDEST PUSH3 0x6AB DUP3 DUP3 DUP6 PUSH3 0x5D0 JUMP JUMPDEST PUSH1 0x0 PUSH1 0x20 SWAP1 POP PUSH1 0x1F DUP4 GT PUSH1 0x1 DUP2 EQ PUSH3 0x6E3 JUMPI PUSH1 0x0 DUP5 ISZERO PUSH3 0x6CE JUMPI DUP3 DUP8 ADD MLOAD SWAP1 POP JUMPDEST PUSH3 0x6DA DUP6 DUP3 PUSH3 0x64D JUMP JUMPDEST DUP7 SSTORE POP PUSH3 0x74A JUMP JUMPDEST PUSH1 0x1F NOT DUP5 AND PUSH3 0x6F3 DUP7 PUSH3 0x48F JUMP JUMPDEST PUSH1 0x0 JUMPDEST DUP3 DUP2 LT ISZERO PUSH3 0x71D JUMPI DUP5 DUP10 ADD MLOAD DUP3 SSTORE PUSH1 0x1 DUP3 ADD SWAP2 POP PUSH1 0x20 DUP6 ADD SWAP5 POP PUSH1 0x20 DUP2 ADD SWAP1 POP PUSH3 0x6F6 JUMP JUMPDEST DUP7 DUP4 LT ISZERO PUSH3 0x73D JUMPI DUP5 DUP10 ADD MLOAD PUSH3 0x739 PUSH1 0x1F DUP10 AND DUP3 PUSH3 0x62D JUMP JUMPDEST DUP4 SSTORE POP JUMPDEST PUSH1 0x1 PUSH1 0x2 DUP9 MUL ADD DUP9 SSTORE POP POP POP JUMPDEST POP POP POP POP POP POP JUMP JUMPDEST PUSH1 0x80 MLOAD PUSH2 0x5A0E PUSH3 0x7A6 PUSH1 0x0 CODECOPY PUSH1 0x0 DUP2 DUP2 PUSH2 0xADC ADD MSTORE DUP2 DUP2 PUSH2 0xE8E ADD MSTORE DUP2 DUP2 PUSH2 0xF73 ADD MSTORE DUP2 DUP2 PUSH2 0x1067 ADD MSTORE DUP2 DUP2 PUSH2 0x124F ADD MSTORE DUP2 DUP2 PUSH2 0x1941 ADD MSTORE DUP2 DUP2 PUSH2 0x19F6 ADD MSTORE DUP2 DUP2 PUSH2 0x1F85 ADD MSTORE PUSH2 0x2D5B ADD MSTORE PUSH2 0x5A0E PUSH1 0x0 RETURN INVALID PUSH1 0x80 PUSH1 0x40 MSTORE PUSH1 0x4 CALLDATASIZE LT PUSH2 0x271 JUMPI PUSH1 0x0 CALLDATALOAD PUSH1 0xE0 SHR DUP1 PUSH4 0x7533D788 GT PUSH2 0x14F JUMPI DUP1 PUSH4 0xBAF3292D GT PUSH2 0xC1 JUMPI DUP1 PUSH4 0xEAB45D9C GT PUSH2 0x7A JUMPI DUP1 PUSH4 0xEAB45D9C EQ PUSH2 0x9CC JUMPI DUP1 PUSH4 0xEB8D72B7 EQ PUSH2 0x9F5 JUMPI DUP1 PUSH4 0xED629C5C EQ PUSH2 0xA1E JUMPI DUP1 PUSH4 0xF2FDE38B EQ PUSH2 0xA49 JUMPI DUP1 PUSH4 0xF5ECBDBC EQ PUSH2 0xA72 JUMPI DUP1 PUSH4 0xFC0C546A EQ PUSH2 0xAAF JUMPI PUSH2 0x271 JUMP JUMPDEST DUP1 PUSH4 0xBAF3292D EQ PUSH2 0x8CD JUMPI DUP1 PUSH4 0xC4461834 EQ PUSH2 0x8F6 JUMPI DUP1 PUSH4 0xCBED8B9C EQ PUSH2 0x921 JUMPI DUP1 PUSH4 0xD1DEBA1F EQ PUSH2 0x94A JUMPI DUP1 PUSH4 0xDD62ED3E EQ PUSH2 0x966 JUMPI DUP1 PUSH4 0xDF2A5B3B EQ PUSH2 0x9A3 JUMPI PUSH2 0x271 JUMP JUMPDEST DUP1 PUSH4 0x95D89B41 GT PUSH2 0x113 JUMPI DUP1 PUSH4 0x95D89B41 EQ PUSH2 0x797 JUMPI DUP1 PUSH4 0x9F38369A EQ PUSH2 0x7C2 JUMPI DUP1 PUSH4 0xA457C2D7 EQ PUSH2 0x7FF JUMPI DUP1 PUSH4 0xA6C3D165 EQ PUSH2 0x83C JUMPI DUP1 PUSH4 0xA9059CBB EQ PUSH2 0x865 JUMPI DUP1 PUSH4 0xB353AAA7 EQ PUSH2 0x8A2 JUMPI PUSH2 0x271 JUMP JUMPDEST DUP1 PUSH4 0x7533D788 EQ PUSH2 0x69C JUMPI DUP1 PUSH4 0x8CFD8F5C EQ PUSH2 0x6D9 JUMPI DUP1 PUSH4 0x8DA5CB5B EQ PUSH2 0x716 JUMPI DUP1 PUSH4 0x9358928B EQ PUSH2 0x741 JUMPI DUP1 PUSH4 0x950C8A74 EQ PUSH2 0x76C JUMPI PUSH2 0x271 JUMP JUMPDEST DUP1 PUSH4 0x39509351 GT PUSH2 0x1E8 JUMPI DUP1 PUSH4 0x4C42899A GT PUSH2 0x1AC JUMPI DUP1 PUSH4 0x4C42899A EQ PUSH2 0x59B JUMPI DUP1 PUSH4 0x51905636 EQ PUSH2 0x5C6 JUMPI DUP1 PUSH4 0x5B8C41E6 EQ PUSH2 0x5E2 JUMPI DUP1 PUSH4 0x66AD5C8A EQ PUSH2 0x61F JUMPI DUP1 PUSH4 0x70A08231 EQ PUSH2 0x648 JUMPI DUP1 PUSH4 0x715018A6 EQ PUSH2 0x685 JUMPI PUSH2 0x271 JUMP JUMPDEST DUP1 PUSH4 0x39509351 EQ PUSH2 0x490 JUMPI DUP1 PUSH4 0x3D8B38F6 EQ PUSH2 0x4CD JUMPI DUP1 PUSH4 0x3F1F4FA4 EQ PUSH2 0x50A JUMPI DUP1 PUSH4 0x42D65A8D EQ PUSH2 0x547 JUMPI DUP1 PUSH4 0x44770515 EQ PUSH2 0x570 JUMPI PUSH2 0x271 JUMP JUMPDEST DUP1 PUSH4 0xDF37483 GT PUSH2 0x23A JUMPI DUP1 PUSH4 0xDF37483 EQ PUSH2 0x36D JUMPI DUP1 PUSH4 0x10DDB137 EQ PUSH2 0x396 JUMPI DUP1 PUSH4 0x18160DDD EQ PUSH2 0x3BF JUMPI DUP1 PUSH4 0x23B872DD EQ PUSH2 0x3EA JUMPI DUP1 PUSH4 0x2A205E3D EQ PUSH2 0x427 JUMPI DUP1 PUSH4 0x313CE567 EQ PUSH2 0x465 JUMPI PUSH2 0x271 JUMP JUMPDEST DUP1 PUSH3 0x1D3567 EQ PUSH2 0x276 JUMPI DUP1 PUSH4 0x1FFC9A7 EQ PUSH2 0x29F JUMPI DUP1 PUSH4 0x6FDDE03 EQ PUSH2 0x2DC JUMPI DUP1 PUSH4 0x7E0DB17 EQ PUSH2 0x307 JUMPI DUP1 PUSH4 0x95EA7B3 EQ PUSH2 0x330 JUMPI JUMPDEST PUSH1 0x0 DUP1 REVERT JUMPDEST CALLVALUE DUP1 ISZERO PUSH2 0x282 JUMPI PUSH1 0x0 DUP1 REVERT JUMPDEST POP PUSH2 0x29D PUSH1 0x4 DUP1 CALLDATASIZE SUB DUP2 ADD SWAP1 PUSH2 0x298 SWAP2 SWAP1 PUSH2 0x34E2 JUMP JUMPDEST PUSH2 0xADA JUMP JUMPDEST STOP JUMPDEST CALLVALUE DUP1 ISZERO PUSH2 0x2AB JUMPI PUSH1 0x0 DUP1 REVERT JUMPDEST POP PUSH2 0x2C6 PUSH1 0x4 DUP1 CALLDATASIZE SUB DUP2 ADD SWAP1 PUSH2 0x2C1 SWAP2 SWAP1 PUSH2 0x35E1 JUMP JUMPDEST PUSH2 0xD30 JUMP JUMPDEST PUSH1 0x40 MLOAD PUSH2 0x2D3 SWAP2 SWAP1 PUSH2 0x3629 JUMP JUMPDEST PUSH1 0x40 MLOAD DUP1 SWAP2 SUB SWAP1 RETURN JUMPDEST CALLVALUE DUP1 ISZERO PUSH2 0x2E8 JUMPI PUSH1 0x0 DUP1 REVERT JUMPDEST POP PUSH2 0x2F1 PUSH2 0xDF2 JUMP JUMPDEST PUSH1 0x40 MLOAD PUSH2 0x2FE SWAP2 SWAP1 PUSH2 0x36D4 JUMP JUMPDEST PUSH1 0x40 MLOAD DUP1 SWAP2 SUB SWAP1 RETURN JUMPDEST CALLVALUE DUP1 ISZERO PUSH2 0x313 JUMPI PUSH1 0x0 DUP1 REVERT JUMPDEST POP PUSH2 0x32E PUSH1 0x4 DUP1 CALLDATASIZE SUB DUP2 ADD SWAP1 PUSH2 0x329 SWAP2 SWAP1 PUSH2 0x36F6 JUMP JUMPDEST PUSH2 0xE84 JUMP JUMPDEST STOP JUMPDEST CALLVALUE DUP1 ISZERO PUSH2 0x33C JUMPI PUSH1 0x0 DUP1 REVERT JUMPDEST POP PUSH2 0x357 PUSH1 0x4 DUP1 CALLDATASIZE SUB DUP2 ADD SWAP1 PUSH2 0x352 SWAP2 SWAP1 PUSH2 0x37B7 JUMP JUMPDEST PUSH2 0xF1A JUMP JUMPDEST PUSH1 0x40 MLOAD PUSH2 0x364 SWAP2 SWAP1 PUSH2 0x3629 JUMP JUMPDEST PUSH1 0x40 MLOAD DUP1 SWAP2 SUB SWAP1 RETURN JUMPDEST CALLVALUE DUP1 ISZERO PUSH2 0x379 JUMPI PUSH1 0x0 DUP1 REVERT JUMPDEST POP PUSH2 0x394 PUSH1 0x4 DUP1 CALLDATASIZE SUB DUP2 ADD SWAP1 PUSH2 0x38F SWAP2 SWAP1 PUSH2 0x37F7 JUMP JUMPDEST PUSH2 0xF3D JUMP JUMPDEST STOP JUMPDEST CALLVALUE DUP1 ISZERO PUSH2 0x3A2 JUMPI PUSH1 0x0 DUP1 REVERT JUMPDEST POP PUSH2 0x3BD PUSH1 0x4 DUP1 CALLDATASIZE SUB DUP2 ADD SWAP1 PUSH2 0x3B8 SWAP2 SWAP1 PUSH2 0x36F6 JUMP JUMPDEST PUSH2 0xF69 JUMP JUMPDEST STOP JUMPDEST CALLVALUE DUP1 ISZERO PUSH2 0x3CB JUMPI PUSH1 0x0 DUP1 REVERT JUMPDEST POP PUSH2 0x3D4 PUSH2 0xFFF JUMP JUMPDEST PUSH1 0x40 MLOAD PUSH2 0x3E1 SWAP2 SWAP1 PUSH2 0x3846 JUMP JUMPDEST PUSH1 0x40 MLOAD DUP1 SWAP2 SUB SWAP1 RETURN JUMPDEST CALLVALUE DUP1 ISZERO PUSH2 0x3F6 JUMPI PUSH1 0x0 DUP1 REVERT JUMPDEST POP PUSH2 0x411 PUSH1 0x4 DUP1 CALLDATASIZE SUB DUP2 ADD SWAP1 PUSH2 0x40C SWAP2 SWAP1 PUSH2 0x3861 JUMP JUMPDEST PUSH2 0x1009 JUMP JUMPDEST PUSH1 0x40 MLOAD PUSH2 0x41E SWAP2 SWAP1 PUSH2 0x3629 JUMP JUMPDEST PUSH1 0x40 MLOAD DUP1 SWAP2 SUB SWAP1 RETURN JUMPDEST CALLVALUE DUP1 ISZERO PUSH2 0x433 JUMPI PUSH1 0x0 DUP1 REVERT JUMPDEST POP PUSH2 0x44E PUSH1 0x4 DUP1 CALLDATASIZE SUB DUP2 ADD SWAP1 PUSH2 0x449 SWAP2 SWAP1 PUSH2 0x38E0 JUMP JUMPDEST PUSH2 0x1038 JUMP JUMPDEST PUSH1 0x40 MLOAD PUSH2 0x45C SWAP3 SWAP2 SWAP1 PUSH2 0x399C JUMP JUMPDEST PUSH1 0x40 MLOAD DUP1 SWAP2 SUB SWAP1 RETURN JUMPDEST CALLVALUE DUP1 ISZERO PUSH2 0x471 JUMPI PUSH1 0x0 DUP1 REVERT JUMPDEST POP PUSH2 0x47A PUSH2 0x1119 JUMP JUMPDEST PUSH1 0x40 MLOAD PUSH2 0x487 SWAP2 SWAP1 PUSH2 0x39E1 JUMP JUMPDEST PUSH1 0x40 MLOAD DUP1 SWAP2 SUB SWAP1 RETURN JUMPDEST CALLVALUE DUP1 ISZERO PUSH2 0x49C JUMPI PUSH1 0x0 DUP1 REVERT JUMPDEST POP PUSH2 0x4B7 PUSH1 0x4 DUP1 CALLDATASIZE SUB DUP2 ADD SWAP1 PUSH2 0x4B2 SWAP2 SWAP1 PUSH2 0x37B7 JUMP JUMPDEST PUSH2 0x1122 JUMP JUMPDEST PUSH1 0x40 MLOAD PUSH2 0x4C4 SWAP2 SWAP1 PUSH2 0x3629 JUMP JUMPDEST PUSH1 0x40 MLOAD DUP1 SWAP2 SUB SWAP1 RETURN JUMPDEST CALLVALUE DUP1 ISZERO PUSH2 0x4D9 JUMPI PUSH1 0x0 DUP1 REVERT JUMPDEST POP PUSH2 0x4F4 PUSH1 0x4 DUP1 CALLDATASIZE SUB DUP2 ADD SWAP1 PUSH2 0x4EF SWAP2 SWAP1 PUSH2 0x39FC JUMP JUMPDEST PUSH2 0x1159 JUMP JUMPDEST PUSH1 0x40 MLOAD PUSH2 0x501 SWAP2 SWAP1 PUSH2 0x3629 JUMP JUMPDEST PUSH1 0x40 MLOAD DUP1 SWAP2 SUB SWAP1 RETURN JUMPDEST CALLVALUE DUP1 ISZERO PUSH2 0x516 JUMPI PUSH1 0x0 DUP1 REVERT JUMPDEST POP PUSH2 0x531 PUSH1 0x4 DUP1 CALLDATASIZE SUB DUP2 ADD SWAP1 PUSH2 0x52C SWAP2 SWAP1 PUSH2 0x36F6 JUMP JUMPDEST PUSH2 0x122D JUMP JUMPDEST PUSH1 0x40 MLOAD PUSH2 0x53E SWAP2 SWAP1 PUSH2 0x3846 JUMP JUMPDEST PUSH1 0x40 MLOAD DUP1 SWAP2 SUB SWAP1 RETURN JUMPDEST CALLVALUE DUP1 ISZERO PUSH2 0x553 JUMPI PUSH1 0x0 DUP1 REVERT JUMPDEST POP PUSH2 0x56E PUSH1 0x4 DUP1 CALLDATASIZE SUB DUP2 ADD SWAP1 PUSH2 0x569 SWAP2 SWAP1 PUSH2 0x39FC JUMP JUMPDEST PUSH2 0x1245 JUMP JUMPDEST STOP JUMPDEST CALLVALUE DUP1 ISZERO PUSH2 0x57C JUMPI PUSH1 0x0 DUP1 REVERT JUMPDEST POP PUSH2 0x585 PUSH2 0x12E1 JUMP JUMPDEST PUSH1 0x40 MLOAD PUSH2 0x592 SWAP2 SWAP1 PUSH2 0x3846 JUMP JUMPDEST PUSH1 0x40 MLOAD DUP1 SWAP2 SUB SWAP1 RETURN JUMPDEST CALLVALUE DUP1 ISZERO PUSH2 0x5A7 JUMPI PUSH1 0x0 DUP1 REVERT JUMPDEST POP PUSH2 0x5B0 PUSH2 0x12E6 JUMP JUMPDEST PUSH1 0x40 MLOAD PUSH2 0x5BD SWAP2 SWAP1 PUSH2 0x3A6B JUMP JUMPDEST PUSH1 0x40 MLOAD DUP1 SWAP2 SUB SWAP1 RETURN JUMPDEST PUSH2 0x5E0 PUSH1 0x4 DUP1 CALLDATASIZE SUB DUP2 ADD SWAP1 PUSH2 0x5DB SWAP2 SWAP1 PUSH2 0x3AC4 JUMP JUMPDEST PUSH2 0x12EB JUMP JUMPDEST STOP JUMPDEST CALLVALUE DUP1 ISZERO PUSH2 0x5EE JUMPI PUSH1 0x0 DUP1 REVERT JUMPDEST POP PUSH2 0x609 PUSH1 0x4 DUP1 CALLDATASIZE SUB DUP2 ADD SWAP1 PUSH2 0x604 SWAP2 SWAP1 PUSH2 0x3CD6 JUMP JUMPDEST PUSH2 0x138D JUMP JUMPDEST PUSH1 0x40 MLOAD PUSH2 0x616 SWAP2 SWAP1 PUSH2 0x3D5E JUMP JUMPDEST PUSH1 0x40 MLOAD DUP1 SWAP2 SUB SWAP1 RETURN JUMPDEST CALLVALUE DUP1 ISZERO PUSH2 0x62B JUMPI PUSH1 0x0 DUP1 REVERT JUMPDEST POP PUSH2 0x646 PUSH1 0x4 DUP1 CALLDATASIZE SUB DUP2 ADD SWAP1 PUSH2 0x641 SWAP2 SWAP1 PUSH2 0x34E2 JUMP JUMPDEST PUSH2 0x13D5 JUMP JUMPDEST STOP JUMPDEST CALLVALUE DUP1 ISZERO PUSH2 0x654 JUMPI PUSH1 0x0 DUP1 REVERT JUMPDEST POP PUSH2 0x66F PUSH1 0x4 DUP1 CALLDATASIZE SUB DUP2 ADD SWAP1 PUSH2 0x66A SWAP2 SWAP1 PUSH2 0x3D79 JUMP JUMPDEST PUSH2 0x14E6 JUMP JUMPDEST PUSH1 0x40 MLOAD PUSH2 0x67C SWAP2 SWAP1 PUSH2 0x3846 JUMP JUMPDEST PUSH1 0x40 MLOAD DUP1 SWAP2 SUB SWAP1 RETURN JUMPDEST CALLVALUE DUP1 ISZERO PUSH2 0x691 JUMPI PUSH1 0x0 DUP1 REVERT JUMPDEST POP PUSH2 0x69A PUSH2 0x152F JUMP JUMPDEST STOP JUMPDEST CALLVALUE DUP1 ISZERO PUSH2 0x6A8 JUMPI PUSH1 0x0 DUP1 REVERT JUMPDEST POP PUSH2 0x6C3 PUSH1 0x4 DUP1 CALLDATASIZE SUB DUP2 ADD SWAP1 PUSH2 0x6BE SWAP2 SWAP1 PUSH2 0x36F6 JUMP JUMPDEST PUSH2 0x1543 JUMP JUMPDEST PUSH1 0x40 MLOAD PUSH2 0x6D0 SWAP2 SWAP1 PUSH2 0x3DFB JUMP JUMPDEST PUSH1 0x40 MLOAD DUP1 SWAP2 SUB SWAP1 RETURN JUMPDEST CALLVALUE DUP1 ISZERO PUSH2 0x6E5 JUMPI PUSH1 0x0 DUP1 REVERT JUMPDEST POP PUSH2 0x700 PUSH1 0x4 DUP1 CALLDATASIZE SUB DUP2 ADD SWAP1 PUSH2 0x6FB SWAP2 SWAP1 PUSH2 0x3E1D JUMP JUMPDEST PUSH2 0x15E3 JUMP JUMPDEST PUSH1 0x40 MLOAD PUSH2 0x70D SWAP2 SWAP1 PUSH2 0x3846 JUMP JUMPDEST PUSH1 0x40 MLOAD DUP1 SWAP2 SUB SWAP1 RETURN JUMPDEST CALLVALUE DUP1 ISZERO PUSH2 0x722 JUMPI PUSH1 0x0 DUP1 REVERT JUMPDEST POP PUSH2 0x72B PUSH2 0x1608 JUMP JUMPDEST PUSH1 0x40 MLOAD PUSH2 0x738 SWAP2 SWAP1 PUSH2 0x3E6C JUMP JUMPDEST PUSH1 0x40 MLOAD DUP1 SWAP2 SUB SWAP1 RETURN JUMPDEST CALLVALUE DUP1 ISZERO PUSH2 0x74D JUMPI PUSH1 0x0 DUP1 REVERT JUMPDEST POP PUSH2 0x756 PUSH2 0x1631 JUMP JUMPDEST PUSH1 0x40 MLOAD PUSH2 0x763 SWAP2 SWAP1 PUSH2 0x3846 JUMP JUMPDEST PUSH1 0x40 MLOAD DUP1 SWAP2 SUB SWAP1 RETURN JUMPDEST CALLVALUE DUP1 ISZERO PUSH2 0x778 JUMPI PUSH1 0x0 DUP1 REVERT JUMPDEST POP PUSH2 0x781 PUSH2 0x1640 JUMP JUMPDEST PUSH1 0x40 MLOAD PUSH2 0x78E SWAP2 SWAP1 PUSH2 0x3E6C JUMP JUMPDEST PUSH1 0x40 MLOAD DUP1 SWAP2 SUB SWAP1 RETURN JUMPDEST CALLVALUE DUP1 ISZERO PUSH2 0x7A3 JUMPI PUSH1 0x0 DUP1 REVERT JUMPDEST POP PUSH2 0x7AC PUSH2 0x1666 JUMP JUMPDEST PUSH1 0x40 MLOAD PUSH2 0x7B9 SWAP2 SWAP1 PUSH2 0x36D4 JUMP JUMPDEST PUSH1 0x40 MLOAD DUP1 SWAP2 SUB SWAP1 RETURN JUMPDEST CALLVALUE DUP1 ISZERO PUSH2 0x7CE JUMPI PUSH1 0x0 DUP1 REVERT JUMPDEST POP PUSH2 0x7E9 PUSH1 0x4 DUP1 CALLDATASIZE SUB DUP2 ADD SWAP1 PUSH2 0x7E4 SWAP2 SWAP1 PUSH2 0x36F6 JUMP JUMPDEST PUSH2 0x16F8 JUMP JUMPDEST PUSH1 0x40 MLOAD PUSH2 0x7F6 SWAP2 SWAP1 PUSH2 0x3DFB JUMP JUMPDEST PUSH1 0x40 MLOAD DUP1 SWAP2 SUB SWAP1 RETURN JUMPDEST CALLVALUE DUP1 ISZERO PUSH2 0x80B JUMPI PUSH1 0x0 DUP1 REVERT JUMPDEST POP PUSH2 0x826 PUSH1 0x4 DUP1 CALLDATASIZE SUB DUP2 ADD SWAP1 PUSH2 0x821 SWAP2 SWAP1 PUSH2 0x37B7 JUMP JUMPDEST PUSH2 0x1811 JUMP JUMPDEST PUSH1 0x40 MLOAD PUSH2 0x833 SWAP2 SWAP1 PUSH2 0x3629 JUMP JUMPDEST PUSH1 0x40 MLOAD DUP1 SWAP2 SUB SWAP1 RETURN JUMPDEST CALLVALUE DUP1 ISZERO PUSH2 0x848 JUMPI PUSH1 0x0 DUP1 REVERT JUMPDEST POP PUSH2 0x863 PUSH1 0x4 DUP1 CALLDATASIZE SUB DUP2 ADD SWAP1 PUSH2 0x85E SWAP2 SWAP1 PUSH2 0x39FC JUMP JUMPDEST PUSH2 0x1888 JUMP JUMPDEST STOP JUMPDEST CALLVALUE DUP1 ISZERO PUSH2 0x871 JUMPI PUSH1 0x0 DUP1 REVERT JUMPDEST POP PUSH2 0x88C PUSH1 0x4 DUP1 CALLDATASIZE SUB DUP2 ADD SWAP1 PUSH2 0x887 SWAP2 SWAP1 PUSH2 0x37B7 JUMP JUMPDEST PUSH2 0x191C JUMP JUMPDEST PUSH1 0x40 MLOAD PUSH2 0x899 SWAP2 SWAP1 PUSH2 0x3629 JUMP JUMPDEST PUSH1 0x40 MLOAD DUP1 SWAP2 SUB SWAP1 RETURN JUMPDEST CALLVALUE DUP1 ISZERO PUSH2 0x8AE JUMPI PUSH1 0x0 DUP1 REVERT JUMPDEST POP PUSH2 0x8B7 PUSH2 0x193F JUMP JUMPDEST PUSH1 0x40 MLOAD PUSH2 0x8C4 SWAP2 SWAP1 PUSH2 0x3EE6 JUMP JUMPDEST PUSH1 0x40 MLOAD DUP1 SWAP2 SUB SWAP1 RETURN JUMPDEST CALLVALUE DUP1 ISZERO PUSH2 0x8D9 JUMPI PUSH1 0x0 DUP1 REVERT JUMPDEST POP PUSH2 0x8F4 PUSH1 0x4 DUP1 CALLDATASIZE SUB DUP2 ADD SWAP1 PUSH2 0x8EF SWAP2 SWAP1 PUSH2 0x3D79 JUMP JUMPDEST PUSH2 0x1963 JUMP JUMPDEST STOP JUMPDEST CALLVALUE DUP1 ISZERO PUSH2 0x902 JUMPI PUSH1 0x0 DUP1 REVERT JUMPDEST POP PUSH2 0x90B PUSH2 0x19E6 JUMP JUMPDEST PUSH1 0x40 MLOAD PUSH2 0x918 SWAP2 SWAP1 PUSH2 0x3846 JUMP JUMPDEST PUSH1 0x40 MLOAD DUP1 SWAP2 SUB SWAP1 RETURN JUMPDEST CALLVALUE DUP1 ISZERO PUSH2 0x92D JUMPI PUSH1 0x0 DUP1 REVERT JUMPDEST POP PUSH2 0x948 PUSH1 0x4 DUP1 CALLDATASIZE SUB DUP2 ADD SWAP1 PUSH2 0x943 SWAP2 SWAP1 PUSH2 0x3F01 JUMP JUMPDEST PUSH2 0x19EC JUMP JUMPDEST STOP JUMPDEST PUSH2 0x964 PUSH1 0x4 DUP1 CALLDATASIZE SUB DUP2 ADD SWAP1 PUSH2 0x95F SWAP2 SWAP1 PUSH2 0x34E2 JUMP JUMPDEST PUSH2 0x1A8E JUMP JUMPDEST STOP JUMPDEST CALLVALUE DUP1 ISZERO PUSH2 0x972 JUMPI PUSH1 0x0 DUP1 REVERT JUMPDEST POP PUSH2 0x98D PUSH1 0x4 DUP1 CALLDATASIZE SUB DUP2 ADD SWAP1 PUSH2 0x988 SWAP2 SWAP1 PUSH2 0x3F89 JUMP JUMPDEST PUSH2 0x1CD1 JUMP JUMPDEST PUSH1 0x40 MLOAD PUSH2 0x99A SWAP2 SWAP1 PUSH2 0x3846 JUMP JUMPDEST PUSH1 0x40 MLOAD DUP1 SWAP2 SUB SWAP1 RETURN JUMPDEST CALLVALUE DUP1 ISZERO PUSH2 0x9AF JUMPI PUSH1 0x0 DUP1 REVERT JUMPDEST POP PUSH2 0x9CA PUSH1 0x4 DUP1 CALLDATASIZE SUB DUP2 ADD SWAP1 PUSH2 0x9C5 SWAP2 SWAP1 PUSH2 0x3FC9 JUMP JUMPDEST PUSH2 0x1D58 JUMP JUMPDEST STOP JUMPDEST CALLVALUE DUP1 ISZERO PUSH2 0x9D8 JUMPI PUSH1 0x0 DUP1 REVERT JUMPDEST POP PUSH2 0x9F3 PUSH1 0x4 DUP1 CALLDATASIZE SUB DUP2 ADD SWAP1 PUSH2 0x9EE SWAP2 SWAP1 PUSH2 0x401C JUMP JUMPDEST PUSH2 0x1E1C JUMP JUMPDEST STOP JUMPDEST CALLVALUE DUP1 ISZERO PUSH2 0xA01 JUMPI PUSH1 0x0 DUP1 REVERT JUMPDEST POP PUSH2 0xA1C PUSH1 0x4 DUP1 CALLDATASIZE SUB DUP2 ADD SWAP1 PUSH2 0xA17 SWAP2 SWAP1 PUSH2 0x39FC JUMP JUMPDEST PUSH2 0x1E78 JUMP JUMPDEST STOP JUMPDEST CALLVALUE DUP1 ISZERO PUSH2 0xA2A JUMPI PUSH1 0x0 DUP1 REVERT JUMPDEST POP PUSH2 0xA33 PUSH2 0x1EEB JUMP JUMPDEST PUSH1 0x40 MLOAD PUSH2 0xA40 SWAP2 SWAP1 PUSH2 0x3629 JUMP JUMPDEST PUSH1 0x40 MLOAD DUP1 SWAP2 SUB SWAP1 RETURN JUMPDEST CALLVALUE DUP1 ISZERO PUSH2 0xA55 JUMPI PUSH1 0x0 DUP1 REVERT JUMPDEST POP PUSH2 0xA70 PUSH1 0x4 DUP1 CALLDATASIZE SUB DUP2 ADD SWAP1 PUSH2 0xA6B SWAP2 SWAP1 PUSH2 0x3D79 JUMP JUMPDEST PUSH2 0x1EFE JUMP JUMPDEST STOP JUMPDEST CALLVALUE DUP1 ISZERO PUSH2 0xA7E JUMPI PUSH1 0x0 DUP1 REVERT JUMPDEST POP PUSH2 0xA99 PUSH1 0x4 DUP1 CALLDATASIZE SUB DUP2 ADD SWAP1 PUSH2 0xA94 SWAP2 SWAP1 PUSH2 0x4049 JUMP JUMPDEST PUSH2 0x1F81 JUMP JUMPDEST PUSH1 0x40 MLOAD PUSH2 0xAA6 SWAP2 SWAP1 PUSH2 0x3DFB JUMP JUMPDEST PUSH1 0x40 MLOAD DUP1 SWAP2 SUB SWAP1 RETURN JUMPDEST CALLVALUE DUP1 ISZERO PUSH2 0xABB JUMPI PUSH1 0x0 DUP1 REVERT JUMPDEST POP PUSH2 0xAC4 PUSH2 0x2032 JUMP JUMPDEST PUSH1 0x40 MLOAD PUSH2 0xAD1 SWAP2 SWAP1 PUSH2 0x3E6C JUMP JUMPDEST PUSH1 0x40 MLOAD DUP1 SWAP2 SUB SWAP1 RETURN JUMPDEST PUSH32 0x0 PUSH20 0xFFFFFFFFFFFFFFFFFFFFFFFFFFFFFFFFFFFFFFFF AND PUSH2 0xB19 PUSH2 0x203A JUMP JUMPDEST PUSH20 0xFFFFFFFFFFFFFFFFFFFFFFFFFFFFFFFFFFFFFFFF AND EQ PUSH2 0xB6F JUMPI PUSH1 0x40 MLOAD PUSH32 0x8C379A000000000000000000000000000000000000000000000000000000000 DUP2 MSTORE PUSH1 0x4 ADD PUSH2 0xB66 SWAP1 PUSH2 0x40FC JUMP JUMPDEST PUSH1 0x40 MLOAD DUP1 SWAP2 SUB SWAP1 REVERT JUMPDEST PUSH1 0x0 PUSH1 0x1 PUSH1 0x0 DUP9 PUSH2 0xFFFF AND PUSH2 0xFFFF AND DUP2 MSTORE PUSH1 0x20 ADD SWAP1 DUP2 MSTORE PUSH1 0x20 ADD PUSH1 0x0 KECCAK256 DUP1 SLOAD PUSH2 0xB97 SWAP1 PUSH2 0x414B JUMP JUMPDEST DUP1 PUSH1 0x1F ADD PUSH1 0x20 DUP1 SWAP2 DIV MUL PUSH1 0x20 ADD PUSH1 0x40 MLOAD SWAP1 DUP2 ADD PUSH1 0x40 MSTORE DUP1 SWAP3 SWAP2 SWAP1 DUP2 DUP2 MSTORE PUSH1 0x20 ADD DUP3 DUP1 SLOAD PUSH2 0xBC3 SWAP1 PUSH2 0x414B JUMP JUMPDEST DUP1 ISZERO PUSH2 0xC10 JUMPI DUP1 PUSH1 0x1F LT PUSH2 0xBE5 JUMPI PUSH2 0x100 DUP1 DUP4 SLOAD DIV MUL DUP4 MSTORE SWAP2 PUSH1 0x20 ADD SWAP2 PUSH2 0xC10 JUMP JUMPDEST DUP3 ADD SWAP2 SWAP1 PUSH1 0x0 MSTORE PUSH1 0x20 PUSH1 0x0 KECCAK256 SWAP1 JUMPDEST DUP2 SLOAD DUP2 MSTORE SWAP1 PUSH1 0x1 ADD SWAP1 PUSH1 0x20 ADD DUP1 DUP4 GT PUSH2 0xBF3 JUMPI DUP3 SWAP1 SUB PUSH1 0x1F AND DUP3 ADD SWAP2 JUMPDEST POP POP POP POP POP SWAP1 POP DUP1 MLOAD DUP7 DUP7 SWAP1 POP EQ DUP1 ISZERO PUSH2 0xC2B JUMPI POP PUSH1 0x0 DUP2 MLOAD GT JUMPDEST DUP1 ISZERO PUSH2 0xC54 JUMPI POP DUP1 DUP1 MLOAD SWAP1 PUSH1 0x20 ADD KECCAK256 DUP7 DUP7 PUSH1 0x40 MLOAD PUSH2 0xC4A SWAP3 SWAP2 SWAP1 PUSH2 0x41AC JUMP JUMPDEST PUSH1 0x40 MLOAD DUP1 SWAP2 SUB SWAP1 KECCAK256 EQ JUMPDEST PUSH2 0xC93 JUMPI PUSH1 0x40 MLOAD PUSH32 0x8C379A000000000000000000000000000000000000000000000000000000000 DUP2 MSTORE PUSH1 0x4 ADD PUSH2 0xC8A SWAP1 PUSH2 0x4237 JUMP JUMPDEST PUSH1 0x40 MLOAD DUP1 SWAP2 SUB SWAP1 REVERT JUMPDEST PUSH2 0xD27 DUP8 DUP8 DUP8 DUP1 DUP1 PUSH1 0x1F ADD PUSH1 0x20 DUP1 SWAP2 DIV MUL PUSH1 0x20 ADD PUSH1 0x40 MLOAD SWAP1 DUP2 ADD PUSH1 0x40 MSTORE DUP1 SWAP4 SWAP3 SWAP2 SWAP1 DUP2 DUP2 MSTORE PUSH1 0x20 ADD DUP4 DUP4 DUP1 DUP3 DUP5 CALLDATACOPY PUSH1 0x0 DUP2 DUP5 ADD MSTORE PUSH1 0x1F NOT PUSH1 0x1F DUP3 ADD AND SWAP1 POP DUP1 DUP4 ADD SWAP3 POP POP POP POP POP POP POP DUP7 DUP7 DUP7 DUP1 DUP1 PUSH1 0x1F ADD PUSH1 0x20 DUP1 SWAP2 DIV MUL PUSH1 0x20 ADD PUSH1 0x40 MLOAD SWAP1 DUP2 ADD PUSH1 0x40 MSTORE DUP1 SWAP4 SWAP3 SWAP2 SWAP1 DUP2 DUP2 MSTORE PUSH1 0x20 ADD DUP4 DUP4 DUP1 DUP3 DUP5 CALLDATACOPY PUSH1 0x0 DUP2 DUP5 ADD MSTORE PUSH1 0x1F NOT PUSH1 0x1F DUP3 ADD AND SWAP1 POP DUP1 DUP4 ADD SWAP3 POP POP POP POP POP POP POP PUSH2 0x2042 JUMP JUMPDEST POP POP POP POP POP POP POP JUMP JUMPDEST PUSH1 0x0 DUP1 PUSH28 0xFFFFFFFFFFFFFFFFFFFFFFFFFFFFFFFFFFFFFFFFFFFFFFFFFFFFFFFF NOT AND DUP3 PUSH28 0xFFFFFFFFFFFFFFFFFFFFFFFFFFFFFFFFFFFFFFFFFFFFFFFFFFFFFFFF NOT AND EQ DUP1 PUSH2 0xDDB JUMPI POP PUSH32 0x36372B0700000000000000000000000000000000000000000000000000000000 PUSH28 0xFFFFFFFFFFFFFFFFFFFFFFFFFFFFFFFFFFFFFFFFFFFFFFFFFFFFFFFF NOT AND DUP3 PUSH28 0xFFFFFFFFFFFFFFFFFFFFFFFFFFFFFFFFFFFFFFFFFFFFFFFFFFFFFFFF NOT AND EQ JUMPDEST DUP1 PUSH2 0xDEB JUMPI POP PUSH2 0xDEA DUP3 PUSH2 0x210D JUMP JUMPDEST JUMPDEST SWAP1 POP SWAP2 SWAP1 POP JUMP JUMPDEST PUSH1 0x60 PUSH1 0xA DUP1 SLOAD PUSH2 0xE01 SWAP1 PUSH2 0x414B JUMP JUMPDEST DUP1 PUSH1 0x1F ADD PUSH1 0x20 DUP1 SWAP2 DIV MUL PUSH1 0x20 ADD PUSH1 0x40 MLOAD SWAP1 DUP2 ADD PUSH1 0x40 MSTORE DUP1 SWAP3 SWAP2 SWAP1 DUP2 DUP2 MSTORE PUSH1 0x20 ADD DUP3 DUP1 SLOAD PUSH2 0xE2D SWAP1 PUSH2 0x414B JUMP JUMPDEST DUP1 ISZERO PUSH2 0xE7A JUMPI DUP1 PUSH1 0x1F LT PUSH2 0xE4F JUMPI PUSH2 0x100 DUP1 DUP4 SLOAD DIV MUL DUP4 MSTORE SWAP2 PUSH1 0x20 ADD SWAP2 PUSH2 0xE7A JUMP JUMPDEST DUP3 ADD SWAP2 SWAP1 PUSH1 0x0 MSTORE PUSH1 0x20 PUSH1 0x0 KECCAK256 SWAP1 JUMPDEST DUP2 SLOAD DUP2 MSTORE SWAP1 PUSH1 0x1 ADD SWAP1 PUSH1 0x20 ADD DUP1 DUP4 GT PUSH2 0xE5D JUMPI DUP3 SWAP1 SUB PUSH1 0x1F AND DUP3 ADD SWAP2 JUMPDEST POP POP POP POP POP SWAP1 POP SWAP1 JUMP JUMPDEST PUSH2 0xE8C PUSH2 0x2187 JUMP JUMPDEST PUSH32 0x0 PUSH20 0xFFFFFFFFFFFFFFFFFFFFFFFFFFFFFFFFFFFFFFFF AND PUSH4 0x7E0DB17 DUP3 PUSH1 0x40 MLOAD DUP3 PUSH4 0xFFFFFFFF AND PUSH1 0xE0 SHL DUP2 MSTORE PUSH1 0x4 ADD PUSH2 0xEE5 SWAP2 SWAP1 PUSH2 0x3A6B JUMP JUMPDEST PUSH1 0x0 PUSH1 0x40 MLOAD DUP1 DUP4 SUB DUP2 PUSH1 0x0 DUP8 DUP1 EXTCODESIZE ISZERO DUP1 ISZERO PUSH2 0xEFF JUMPI PUSH1 0x0 DUP1 REVERT JUMPDEST POP GAS CALL ISZERO DUP1 ISZERO PUSH2 0xF13 JUMPI RETURNDATASIZE PUSH1 0x0 DUP1 RETURNDATACOPY RETURNDATASIZE PUSH1 0x0 REVERT JUMPDEST POP POP POP POP POP JUMP JUMPDEST PUSH1 0x0 DUP1 PUSH2 0xF25 PUSH2 0x203A JUMP JUMPDEST SWAP1 POP PUSH2 0xF32 DUP2 DUP6 DUP6 PUSH2 0x2205 JUMP JUMPDEST PUSH1 0x1 SWAP2 POP POP SWAP3 SWAP2 POP POP JUMP JUMPDEST PUSH2 0xF45 PUSH2 0x2187 JUMP JUMPDEST DUP1 PUSH1 0x3 PUSH1 0x0 DUP5 PUSH2 0xFFFF AND PUSH2 0xFFFF AND DUP2 MSTORE PUSH1 0x20 ADD SWAP1 DUP2 MSTORE PUSH1 0x20 ADD PUSH1 0x0 KECCAK256 DUP2 SWAP1 SSTORE POP POP POP JUMP JUMPDEST PUSH2 0xF71 PUSH2 0x2187 JUMP JUMPDEST PUSH32 0x0 PUSH20 0xFFFFFFFFFFFFFFFFFFFFFFFFFFFFFFFFFFFFFFFF AND PUSH4 0x10DDB137 DUP3 PUSH1 0x40 MLOAD DUP3 PUSH4 0xFFFFFFFF AND PUSH1 0xE0 SHL DUP2 MSTORE PUSH1 0x4 ADD PUSH2 0xFCA SWAP2 SWAP1 PUSH2 0x3A6B JUMP JUMPDEST PUSH1 0x0 PUSH1 0x40 MLOAD DUP1 DUP4 SUB DUP2 PUSH1 0x0 DUP8 DUP1 EXTCODESIZE ISZERO DUP1 ISZERO PUSH2 0xFE4 JUMPI PUSH1 0x0 DUP1 REVERT JUMPDEST POP GAS CALL ISZERO DUP1 ISZERO PUSH2 0xFF8 JUMPI RETURNDATASIZE PUSH1 0x0 DUP1 RETURNDATACOPY RETURNDATASIZE PUSH1 0x0 REVERT JUMPDEST POP POP POP POP POP JUMP JUMPDEST PUSH1 0x0 PUSH1 0x9 SLOAD SWAP1 POP SWAP1 JUMP JUMPDEST PUSH1 0x0 DUP1 PUSH2 0x1014 PUSH2 0x203A JUMP JUMPDEST SWAP1 POP PUSH2 0x1021 DUP6 DUP3 DUP6 PUSH2 0x23CE JUMP JUMPDEST PUSH2 0x102C DUP6 DUP6 DUP6 PUSH2 0x245A JUMP JUMPDEST PUSH1 0x1 SWAP2 POP POP SWAP4 SWAP3 POP POP POP JUMP JUMPDEST PUSH1 0x0 DUP1 PUSH1 0x0 DUP1 DUP10 DUP10 DUP10 PUSH1 0x40 MLOAD PUSH1 0x20 ADD PUSH2 0x1054 SWAP5 SWAP4 SWAP3 SWAP2 SWAP1 PUSH2 0x4284 JUMP JUMPDEST PUSH1 0x40 MLOAD PUSH1 0x20 DUP2 DUP4 SUB SUB DUP2 MSTORE SWAP1 PUSH1 0x40 MSTORE SWAP1 POP PUSH32 0x0 PUSH20 0xFFFFFFFFFFFFFFFFFFFFFFFFFFFFFFFFFFFFFFFF AND PUSH4 0x40A7BB10 DUP12 ADDRESS DUP5 DUP11 DUP11 DUP11 PUSH1 0x40 MLOAD DUP8 PUSH4 0xFFFFFFFF AND PUSH1 0xE0 SHL DUP2 MSTORE PUSH1 0x4 ADD PUSH2 0x10C8 SWAP7 SWAP6 SWAP5 SWAP4 SWAP3 SWAP2 SWAP1 PUSH2 0x42C4 JUMP JUMPDEST PUSH1 0x40 DUP1 MLOAD DUP1 DUP4 SUB DUP2 DUP7 GAS STATICCALL ISZERO DUP1 ISZERO PUSH2 0x10E4 JUMPI RETURNDATASIZE PUSH1 0x0 DUP1 RETURNDATACOPY RETURNDATASIZE PUSH1 0x0 REVERT JUMPDEST POP POP POP POP PUSH1 0x40 MLOAD RETURNDATASIZE PUSH1 0x1F NOT PUSH1 0x1F DUP3 ADD AND DUP3 ADD DUP1 PUSH1 0x40 MSTORE POP DUP2 ADD SWAP1 PUSH2 0x1108 SWAP2 SWAP1 PUSH2 0x433C JUMP JUMPDEST SWAP3 POP SWAP3 POP POP SWAP8 POP SWAP8 SWAP6 POP POP POP POP POP POP JUMP JUMPDEST PUSH1 0x0 PUSH1 0x12 SWAP1 POP SWAP1 JUMP JUMPDEST PUSH1 0x0 DUP1 PUSH2 0x112D PUSH2 0x203A JUMP JUMPDEST SWAP1 POP PUSH2 0x114E DUP2 DUP6 DUP6 PUSH2 0x113F DUP6 DUP10 PUSH2 0x1CD1 JUMP JUMPDEST PUSH2 0x1149 SWAP2 SWAP1 PUSH2 0x43AB JUMP JUMPDEST PUSH2 0x2205 JUMP JUMPDEST PUSH1 0x1 SWAP2 POP POP SWAP3 SWAP2 POP POP JUMP JUMPDEST PUSH1 0x0 DUP1 PUSH1 0x1 PUSH1 0x0 DUP7 PUSH2 0xFFFF AND PUSH2 0xFFFF AND DUP2 MSTORE PUSH1 0x20 ADD SWAP1 DUP2 MSTORE PUSH1 0x20 ADD PUSH1 0x0 KECCAK256 DUP1 SLOAD PUSH2 0x1182 SWAP1 PUSH2 0x414B JUMP JUMPDEST DUP1 PUSH1 0x1F ADD PUSH1 0x20 DUP1 SWAP2 DIV MUL PUSH1 0x20 ADD PUSH1 0x40 MLOAD SWAP1 DUP2 ADD PUSH1 0x40 MSTORE DUP1 SWAP3 SWAP2 SWAP1 DUP2 DUP2 MSTORE PUSH1 0x20 ADD DUP3 DUP1 SLOAD PUSH2 0x11AE SWAP1 PUSH2 0x414B JUMP JUMPDEST DUP1 ISZERO PUSH2 0x11FB JUMPI DUP1 PUSH1 0x1F LT PUSH2 0x11D0 JUMPI PUSH2 0x100 DUP1 DUP4 SLOAD DIV MUL DUP4 MSTORE SWAP2 PUSH1 0x20 ADD SWAP2 PUSH2 0x11FB JUMP JUMPDEST DUP3 ADD SWAP2 SWAP1 PUSH1 0x0 MSTORE PUSH1 0x20 PUSH1 0x0 KECCAK256 SWAP1 JUMPDEST DUP2 SLOAD DUP2 MSTORE SWAP1 PUSH1 0x1 ADD SWAP1 PUSH1 0x20 ADD DUP1 DUP4 GT PUSH2 0x11DE JUMPI DUP3 SWAP1 SUB PUSH1 0x1F AND DUP3 ADD SWAP2 JUMPDEST POP POP POP POP POP SWAP1 POP DUP4 DUP4 PUSH1 0x40 MLOAD PUSH2 0x1212 SWAP3 SWAP2 SWAP1 PUSH2 0x41AC JUMP JUMPDEST PUSH1 0x40 MLOAD DUP1 SWAP2 SUB SWAP1 KECCAK256 DUP2 DUP1 MLOAD SWAP1 PUSH1 0x20 ADD KECCAK256 EQ SWAP2 POP POP SWAP4 SWAP3 POP POP POP JUMP JUMPDEST PUSH1 0x3 PUSH1 0x20 MSTORE DUP1 PUSH1 0x0 MSTORE PUSH1 0x40 PUSH1 0x0 KECCAK256 PUSH1 0x0 SWAP2 POP SWAP1 POP SLOAD DUP2 JUMP JUMPDEST PUSH2 0x124D PUSH2 0x2187 JUMP JUMPDEST PUSH32 0x0 PUSH20 0xFFFFFFFFFFFFFFFFFFFFFFFFFFFFFFFFFFFFFFFF AND PUSH4 0x42D65A8D DUP5 DUP5 DUP5 PUSH1 0x40 MLOAD DUP5 PUSH4 0xFFFFFFFF AND PUSH1 0xE0 SHL DUP2 MSTORE PUSH1 0x4 ADD PUSH2 0x12AA SWAP4 SWAP3 SWAP2 SWAP1 PUSH2 0x43DF JUMP JUMPDEST PUSH1 0x0 PUSH1 0x40 MLOAD DUP1 DUP4 SUB DUP2 PUSH1 0x0 DUP8 DUP1 EXTCODESIZE ISZERO DUP1 ISZERO PUSH2 0x12C4 JUMPI PUSH1 0x0 DUP1 REVERT JUMPDEST POP GAS CALL ISZERO DUP1 ISZERO PUSH2 0x12D8 JUMPI RETURNDATASIZE PUSH1 0x0 DUP1 RETURNDATACOPY RETURNDATASIZE PUSH1 0x0 REVERT JUMPDEST POP POP POP POP POP POP POP JUMP JUMPDEST PUSH1 0x0 DUP2 JUMP JUMPDEST PUSH1 0x0 DUP2 JUMP JUMPDEST PUSH2 0x1382 DUP10 DUP10 DUP10 DUP10 DUP1 DUP1 PUSH1 0x1F ADD PUSH1 0x20 DUP1 SWAP2 DIV MUL PUSH1 0x20 ADD PUSH1 0x40 MLOAD SWAP1 DUP2 ADD PUSH1 0x40 MSTORE DUP1 SWAP4 SWAP3 SWAP2 SWAP1 DUP2 DUP2 MSTORE PUSH1 0x20 ADD DUP4 DUP4 DUP1 DUP3 DUP5 CALLDATACOPY PUSH1 0x0 DUP2 DUP5 ADD MSTORE PUSH1 0x1F NOT PUSH1 0x1F DUP3 ADD AND SWAP1 POP DUP1 DUP4 ADD SWAP3 POP POP POP POP POP POP POP DUP9 DUP9 DUP9 DUP9 DUP9 DUP1 DUP1 PUSH1 0x1F ADD PUSH1 0x20 DUP1 SWAP2 DIV MUL PUSH1 0x20 ADD PUSH1 0x40 MLOAD SWAP1 DUP2 ADD PUSH1 0x40 MSTORE DUP1 SWAP4 SWAP3 SWAP2 SWAP1 DUP2 DUP2 MSTORE PUSH1 0x20 ADD DUP4 DUP4 DUP1 DUP3 DUP5 CALLDATACOPY PUSH1 0x0 DUP2 DUP5 ADD MSTORE PUSH1 0x1F NOT PUSH1 0x1F DUP3 ADD AND SWAP1 POP DUP1 DUP4 ADD SWAP3 POP POP POP POP POP POP POP PUSH2 0x26D3 JUMP JUMPDEST POP POP POP POP POP POP POP POP POP JUMP JUMPDEST PUSH1 0x5 PUSH1 0x20 MSTORE DUP3 PUSH1 0x0 MSTORE PUSH1 0x40 PUSH1 0x0 KECCAK256 DUP3 DUP1 MLOAD PUSH1 0x20 DUP2 ADD DUP3 ADD DUP1 MLOAD DUP5 DUP3 MSTORE PUSH1 0x20 DUP4 ADD PUSH1 0x20 DUP6 ADD KECCAK256 DUP2 DUP4 MSTORE DUP1 SWAP6 POP POP POP POP POP POP PUSH1 0x20 MSTORE DUP1 PUSH1 0x0 MSTORE PUSH1 0x40 PUSH1 0x0 KECCAK256 PUSH1 0x0 SWAP3 POP SWAP3 POP POP POP SLOAD DUP2 JUMP JUMPDEST ADDRESS PUSH20 0xFFFFFFFFFFFFFFFFFFFFFFFFFFFFFFFFFFFFFFFF AND PUSH2 0x13F4 PUSH2 0x203A JUMP JUMPDEST PUSH20 0xFFFFFFFFFFFFFFFFFFFFFFFFFFFFFFFFFFFFFFFF AND EQ PUSH2 0x144A JUMPI PUSH1 0x40 MLOAD PUSH32 0x8C379A000000000000000000000000000000000000000000000000000000000 DUP2 MSTORE PUSH1 0x4 ADD PUSH2 0x1441 SWAP1 PUSH2 0x4483 JUMP JUMPDEST PUSH1 0x40 MLOAD DUP1 SWAP2 SUB SWAP1 REVERT JUMPDEST PUSH2 0x14DE DUP7 DUP7 DUP7 DUP1 DUP1 PUSH1 0x1F ADD PUSH1 0x20 DUP1 SWAP2 DIV MUL PUSH1 0x20 ADD PUSH1 0x40 MLOAD SWAP1 DUP2 ADD PUSH1 0x40 MSTORE DUP1 SWAP4 SWAP3 SWAP2 SWAP1 DUP2 DUP2 MSTORE PUSH1 0x20 ADD DUP4 DUP4 DUP1 DUP3 DUP5 CALLDATACOPY PUSH1 0x0 DUP2 DUP5 ADD MSTORE PUSH1 0x1F NOT PUSH1 0x1F DUP3 ADD AND SWAP1 POP DUP1 DUP4 ADD SWAP3 POP POP POP POP POP POP POP DUP6 DUP6 DUP6 DUP1 DUP1 PUSH1 0x1F ADD PUSH1 0x20 DUP1 SWAP2 DIV MUL PUSH1 0x20 ADD PUSH1 0x40 MLOAD SWAP1 DUP2 ADD PUSH1 0x40 MSTORE DUP1 SWAP4 SWAP3 SWAP2 SWAP1 DUP2 DUP2 MSTORE PUSH1 0x20 ADD DUP4 DUP4 DUP1 DUP3 DUP5 CALLDATACOPY PUSH1 0x0 DUP2 DUP5 ADD MSTORE PUSH1 0x1F NOT PUSH1 0x1F DUP3 ADD AND SWAP1 POP DUP1 DUP4 ADD SWAP3 POP POP POP POP POP POP POP PUSH2 0x2787 JUMP JUMPDEST POP POP POP POP POP POP JUMP JUMPDEST PUSH1 0x0 PUSH1 0x7 PUSH1 0x0 DUP4 PUSH20 0xFFFFFFFFFFFFFFFFFFFFFFFFFFFFFFFFFFFFFFFF AND PUSH20 0xFFFFFFFFFFFFFFFFFFFFFFFFFFFFFFFFFFFFFFFF AND DUP2 MSTORE PUSH1 0x20 ADD SWAP1 DUP2 MSTORE PUSH1 0x20 ADD PUSH1 0x0 KECCAK256 SLOAD SWAP1 POP SWAP2 SWAP1 POP JUMP JUMPDEST PUSH2 0x1537 PUSH2 0x2187 JUMP JUMPDEST PUSH2 0x1541 PUSH1 0x0 PUSH2 0x27F3 JUMP JUMPDEST JUMP JUMPDEST PUSH1 0x1 PUSH1 0x20 MSTORE DUP1 PUSH1 0x0 MSTORE PUSH1 0x40 PUSH1 0x0 KECCAK256 PUSH1 0x0 SWAP2 POP SWAP1 POP DUP1 SLOAD PUSH2 0x1562 SWAP1 PUSH2 0x414B JUMP JUMPDEST DUP1 PUSH1 0x1F ADD PUSH1 0x20 DUP1 SWAP2 DIV MUL PUSH1 0x20 ADD PUSH1 0x40 MLOAD SWAP1 DUP2 ADD PUSH1 0x40 MSTORE DUP1 SWAP3 SWAP2 SWAP1 DUP2 DUP2 MSTORE PUSH1 0x20 ADD DUP3 DUP1 SLOAD PUSH2 0x158E SWAP1 PUSH2 0x414B JUMP JUMPDEST DUP1 ISZERO PUSH2 0x15DB JUMPI DUP1 PUSH1 0x1F LT PUSH2 0x15B0 JUMPI PUSH2 0x100 DUP1 DUP4 SLOAD DIV MUL DUP4 MSTORE SWAP2 PUSH1 0x20 ADD SWAP2 PUSH2 0x15DB JUMP JUMPDEST DUP3 ADD SWAP2 SWAP1 PUSH1 0x0 MSTORE PUSH1 0x20 PUSH1 0x0 KECCAK256 SWAP1 JUMPDEST DUP2 SLOAD DUP2 MSTORE SWAP1 PUSH1 0x1 ADD SWAP1 PUSH1 0x20 ADD DUP1 DUP4 GT PUSH2 0x15BE JUMPI DUP3 SWAP1 SUB PUSH1 0x1F AND DUP3 ADD SWAP2 JUMPDEST POP POP POP POP POP DUP2 JUMP JUMPDEST PUSH1 0x2 PUSH1 0x20 MSTORE DUP2 PUSH1 0x0 MSTORE PUSH1 0x40 PUSH1 0x0 KECCAK256 PUSH1 0x20 MSTORE DUP1 PUSH1 0x0 MSTORE PUSH1 0x40 PUSH1 0x0 KECCAK256 PUSH1 0x0 SWAP2 POP SWAP2 POP POP SLOAD DUP2 JUMP JUMPDEST PUSH1 0x0 DUP1 PUSH1 0x0 SWAP1 SLOAD SWAP1 PUSH2 0x100 EXP SWAP1 DIV PUSH20 0xFFFFFFFFFFFFFFFFFFFFFFFFFFFFFFFFFFFFFFFF AND SWAP1 POP SWAP1 JUMP JUMPDEST PUSH1 0x0 PUSH2 0x163B PUSH2 0xFFF JUMP JUMPDEST SWAP1 POP SWAP1 JUMP JUMPDEST PUSH1 0x4 PUSH1 0x0 SWAP1 SLOAD SWAP1 PUSH2 0x100 EXP SWAP1 DIV PUSH20 0xFFFFFFFFFFFFFFFFFFFFFFFFFFFFFFFFFFFFFFFF AND DUP2 JUMP JUMPDEST PUSH1 0x60 PUSH1 0xB DUP1 SLOAD PUSH2 0x1675 SWAP1 PUSH2 0x414B JUMP JUMPDEST DUP1 PUSH1 0x1F ADD PUSH1 0x20 DUP1 SWAP2 DIV MUL PUSH1 0x20 ADD PUSH1 0x40 MLOAD SWAP1 DUP2 ADD PUSH1 0x40 MSTORE DUP1 SWAP3 SWAP2 SWAP1 DUP2 DUP2 MSTORE PUSH1 0x20 ADD DUP3 DUP1 SLOAD PUSH2 0x16A1 SWAP1 PUSH2 0x414B JUMP JUMPDEST DUP1 ISZERO PUSH2 0x16EE JUMPI DUP1 PUSH1 0x1F LT PUSH2 0x16C3 JUMPI PUSH2 0x100 DUP1 DUP4 SLOAD DIV MUL DUP4 MSTORE SWAP2 PUSH1 0x20 ADD SWAP2 PUSH2 0x16EE JUMP JUMPDEST DUP3 ADD SWAP2 SWAP1 PUSH1 0x0 MSTORE PUSH1 0x20 PUSH1 0x0 KECCAK256 SWAP1 JUMPDEST DUP2 SLOAD DUP2 MSTORE SWAP1 PUSH1 0x1 ADD SWAP1 PUSH1 0x20 ADD DUP1 DUP4 GT PUSH2 0x16D1 JUMPI DUP3 SWAP1 SUB PUSH1 0x1F AND DUP3 ADD SWAP2 JUMPDEST POP POP POP POP POP SWAP1 POP SWAP1 JUMP JUMPDEST PUSH1 0x60 PUSH1 0x0 PUSH1 0x1 PUSH1 0x0 DUP5 PUSH2 0xFFFF AND PUSH2 0xFFFF AND DUP2 MSTORE PUSH1 0x20 ADD SWAP1 DUP2 MSTORE PUSH1 0x20 ADD PUSH1 0x0 KECCAK256 DUP1 SLOAD PUSH2 0x1722 SWAP1 PUSH2 0x414B JUMP JUMPDEST DUP1 PUSH1 0x1F ADD PUSH1 0x20 DUP1 SWAP2 DIV MUL PUSH1 0x20 ADD PUSH1 0x40 MLOAD SWAP1 DUP2 ADD PUSH1 0x40 MSTORE DUP1 SWAP3 SWAP2 SWAP1 DUP2 DUP2 MSTORE PUSH1 0x20 ADD DUP3 DUP1 SLOAD PUSH2 0x174E SWAP1 PUSH2 0x414B JUMP JUMPDEST DUP1 ISZERO PUSH2 0x179B JUMPI DUP1 PUSH1 0x1F LT PUSH2 0x1770 JUMPI PUSH2 0x100 DUP1 DUP4 SLOAD DIV MUL DUP4 MSTORE SWAP2 PUSH1 0x20 ADD SWAP2 PUSH2 0x179B JUMP JUMPDEST DUP3 ADD SWAP2 SWAP1 PUSH1 0x0 MSTORE PUSH1 0x20 PUSH1 0x0 KECCAK256 SWAP1 JUMPDEST DUP2 SLOAD DUP2 MSTORE SWAP1 PUSH1 0x1 ADD SWAP1 PUSH1 0x20 ADD DUP1 DUP4 GT PUSH2 0x177E JUMPI DUP3 SWAP1 SUB PUSH1 0x1F AND DUP3 ADD SWAP2 JUMPDEST POP POP POP POP POP SWAP1 POP PUSH1 0x0 DUP2 MLOAD SUB PUSH2 0x17E6 JUMPI PUSH1 0x40 MLOAD PUSH32 0x8C379A000000000000000000000000000000000000000000000000000000000 DUP2 MSTORE PUSH1 0x4 ADD PUSH2 0x17DD SWAP1 PUSH2 0x44EF JUMP JUMPDEST PUSH1 0x40 MLOAD DUP1 SWAP2 SUB SWAP1 REVERT JUMPDEST PUSH2 0x1809 PUSH1 0x0 PUSH1 0x14 DUP4 MLOAD PUSH2 0x17F9 SWAP2 SWAP1 PUSH2 0x450F JUMP JUMPDEST DUP4 PUSH2 0x28B7 SWAP1 SWAP3 SWAP2 SWAP1 PUSH4 0xFFFFFFFF AND JUMP JUMPDEST SWAP2 POP POP SWAP2 SWAP1 POP JUMP JUMPDEST PUSH1 0x0 DUP1 PUSH2 0x181C PUSH2 0x203A JUMP JUMPDEST SWAP1 POP PUSH1 0x0 PUSH2 0x182A DUP3 DUP7 PUSH2 0x1CD1 JUMP JUMPDEST SWAP1 POP DUP4 DUP2 LT ISZERO PUSH2 0x186F JUMPI PUSH1 0x40 MLOAD PUSH32 0x8C379A000000000000000000000000000000000000000000000000000000000 DUP2 MSTORE PUSH1 0x4 ADD PUSH2 0x1866 SWAP1 PUSH2 0x45B5 JUMP JUMPDEST PUSH1 0x40 MLOAD DUP1 SWAP2 SUB SWAP1 REVERT JUMPDEST PUSH2 0x187C DUP3 DUP7 DUP7 DUP5 SUB PUSH2 0x2205 JUMP JUMPDEST PUSH1 0x1 SWAP3 POP POP POP SWAP3 SWAP2 POP POP JUMP JUMPDEST PUSH2 0x1890 PUSH2 0x2187 JUMP JUMPDEST DUP2 DUP2 ADDRESS PUSH1 0x40 MLOAD PUSH1 0x20 ADD PUSH2 0x18A5 SWAP4 SWAP3 SWAP2 SWAP1 PUSH2 0x461D JUMP JUMPDEST PUSH1 0x40 MLOAD PUSH1 0x20 DUP2 DUP4 SUB SUB DUP2 MSTORE SWAP1 PUSH1 0x40 MSTORE PUSH1 0x1 PUSH1 0x0 DUP6 PUSH2 0xFFFF AND PUSH2 0xFFFF AND DUP2 MSTORE PUSH1 0x20 ADD SWAP1 DUP2 MSTORE PUSH1 0x20 ADD PUSH1 0x0 KECCAK256 SWAP1 DUP2 PUSH2 0x18DB SWAP2 SWAP1 PUSH2 0x47E9 JUMP JUMPDEST POP PUSH32 0x8C0400CFE2D1199B1A725C78960BCC2A344D869B80590D0F2BD005DB15A572CE DUP4 DUP4 DUP4 PUSH1 0x40 MLOAD PUSH2 0x190F SWAP4 SWAP3 SWAP2 SWAP1 PUSH2 0x43DF JUMP JUMPDEST PUSH1 0x40 MLOAD DUP1 SWAP2 SUB SWAP1 LOG1 POP POP POP JUMP JUMPDEST PUSH1 0x0 DUP1 PUSH2 0x1927 PUSH2 0x203A JUMP JUMPDEST SWAP1 POP PUSH2 0x1934 DUP2 DUP6 DUP6 PUSH2 0x245A JUMP JUMPDEST PUSH1 0x1 SWAP2 POP POP SWAP3 SWAP2 POP POP JUMP JUMPDEST PUSH32 0x0 DUP2 JUMP JUMPDEST PUSH2 0x196B PUSH2 0x2187 JUMP JUMPDEST DUP1 PUSH1 0x4 PUSH1 0x0 PUSH2 0x100 EXP DUP2 SLOAD DUP2 PUSH20 0xFFFFFFFFFFFFFFFFFFFFFFFFFFFFFFFFFFFFFFFF MUL NOT AND SWAP1 DUP4 PUSH20 0xFFFFFFFFFFFFFFFFFFFFFFFFFFFFFFFFFFFFFFFF AND MUL OR SWAP1 SSTORE POP PUSH32 0x5DB758E995A17EC1AD84BDEF7E8C3293A0BD6179BCCE400DFF5D4C3D87DB726B DUP2 PUSH1 0x40 MLOAD PUSH2 0x19DB SWAP2 SWAP1 PUSH2 0x3E6C JUMP JUMPDEST PUSH1 0x40 MLOAD DUP1 SWAP2 SUB SWAP1 LOG1 POP JUMP JUMPDEST PUSH2 0x2710 DUP2 JUMP JUMPDEST PUSH2 0x19F4 PUSH2 0x2187 JUMP JUMPDEST PUSH32 0x0 PUSH20 0xFFFFFFFFFFFFFFFFFFFFFFFFFFFFFFFFFFFFFFFF AND PUSH4 0xCBED8B9C DUP7 DUP7 DUP7 DUP7 DUP7 PUSH1 0x40 MLOAD DUP7 PUSH4 0xFFFFFFFF AND PUSH1 0xE0 SHL DUP2 MSTORE PUSH1 0x4 ADD PUSH2 0x1A55 SWAP6 SWAP5 SWAP4 SWAP3 SWAP2 SWAP1 PUSH2 0x48BB JUMP JUMPDEST PUSH1 0x0 PUSH1 0x40 MLOAD DUP1 DUP4 SUB DUP2 PUSH1 0x0 DUP8 DUP1 EXTCODESIZE ISZERO DUP1 ISZERO PUSH2 0x1A6F JUMPI PUSH1 0x0 DUP1 REVERT JUMPDEST POP GAS CALL ISZERO DUP1 ISZERO PUSH2 0x1A83 JUMPI RETURNDATASIZE PUSH1 0x0 DUP1 RETURNDATACOPY RETURNDATASIZE PUSH1 0x0 REVERT JUMPDEST POP POP POP POP POP POP POP POP POP JUMP JUMPDEST PUSH1 0x0 PUSH1 0x5 PUSH1 0x0 DUP9 PUSH2 0xFFFF AND PUSH2 0xFFFF AND DUP2 MSTORE PUSH1 0x20 ADD SWAP1 DUP2 MSTORE PUSH1 0x20 ADD PUSH1 0x0 KECCAK256 DUP7 DUP7 PUSH1 0x40 MLOAD PUSH2 0x1ABB SWAP3 SWAP2 SWAP1 PUSH2 0x41AC JUMP JUMPDEST SWAP1 DUP2 MSTORE PUSH1 0x20 ADD PUSH1 0x40 MLOAD DUP1 SWAP2 SUB SWAP1 KECCAK256 PUSH1 0x0 DUP6 PUSH8 0xFFFFFFFFFFFFFFFF AND PUSH8 0xFFFFFFFFFFFFFFFF AND DUP2 MSTORE PUSH1 0x20 ADD SWAP1 DUP2 MSTORE PUSH1 0x20 ADD PUSH1 0x0 KECCAK256 SLOAD SWAP1 POP PUSH1 0x0 DUP1 SHL DUP2 SUB PUSH2 0x1B36 JUMPI PUSH1 0x40 MLOAD PUSH32 0x8C379A000000000000000000000000000000000000000000000000000000000 DUP2 MSTORE PUSH1 0x4 ADD PUSH2 0x1B2D SWAP1 PUSH2 0x497B JUMP JUMPDEST PUSH1 0x40 MLOAD DUP1 SWAP2 SUB SWAP1 REVERT JUMPDEST DUP1 DUP4 DUP4 PUSH1 0x40 MLOAD PUSH2 0x1B47 SWAP3 SWAP2 SWAP1 PUSH2 0x41AC JUMP JUMPDEST PUSH1 0x40 MLOAD DUP1 SWAP2 SUB SWAP1 KECCAK256 EQ PUSH2 0x1B8F JUMPI PUSH1 0x40 MLOAD PUSH32 0x8C379A000000000000000000000000000000000000000000000000000000000 DUP2 MSTORE PUSH1 0x4 ADD PUSH2 0x1B86 SWAP1 PUSH2 0x4A0D JUMP JUMPDEST PUSH1 0x40 MLOAD DUP1 SWAP2 SUB SWAP1 REVERT JUMPDEST PUSH1 0x0 DUP1 SHL PUSH1 0x5 PUSH1 0x0 DUP10 PUSH2 0xFFFF AND PUSH2 0xFFFF AND DUP2 MSTORE PUSH1 0x20 ADD SWAP1 DUP2 MSTORE PUSH1 0x20 ADD PUSH1 0x0 KECCAK256 DUP8 DUP8 PUSH1 0x40 MLOAD PUSH2 0x1BBE SWAP3 SWAP2 SWAP1 PUSH2 0x41AC JUMP JUMPDEST SWAP1 DUP2 MSTORE PUSH1 0x20 ADD PUSH1 0x40 MLOAD DUP1 SWAP2 SUB SWAP1 KECCAK256 PUSH1 0x0 DUP7 PUSH8 0xFFFFFFFFFFFFFFFF AND PUSH8 0xFFFFFFFFFFFFFFFF AND DUP2 MSTORE PUSH1 0x20 ADD SWAP1 DUP2 MSTORE PUSH1 0x20 ADD PUSH1 0x0 KECCAK256 DUP2 SWAP1 SSTORE POP PUSH2 0x1C89 DUP8 DUP8 DUP8 DUP1 DUP1 PUSH1 0x1F ADD PUSH1 0x20 DUP1 SWAP2 DIV MUL PUSH1 0x20 ADD PUSH1 0x40 MLOAD SWAP1 DUP2 ADD PUSH1 0x40 MSTORE DUP1 SWAP4 SWAP3 SWAP2 SWAP1 DUP2 DUP2 MSTORE PUSH1 0x20 ADD DUP4 DUP4 DUP1 DUP3 DUP5 CALLDATACOPY PUSH1 0x0 DUP2 DUP5 ADD MSTORE PUSH1 0x1F NOT PUSH1 0x1F DUP3 ADD AND SWAP1 POP DUP1 DUP4 ADD SWAP3 POP POP POP POP POP POP POP DUP7 DUP7 DUP7 DUP1 DUP1 PUSH1 0x1F ADD PUSH1 0x20 DUP1 SWAP2 DIV MUL PUSH1 0x20 ADD PUSH1 0x40 MLOAD SWAP1 DUP2 ADD PUSH1 0x40 MSTORE DUP1 SWAP4 SWAP3 SWAP2 SWAP1 DUP2 DUP2 MSTORE PUSH1 0x20 ADD DUP4 DUP4 DUP1 DUP3 DUP5 CALLDATACOPY PUSH1 0x0 DUP2 DUP5 ADD MSTORE PUSH1 0x1F NOT PUSH1 0x1F DUP3 ADD AND SWAP1 POP DUP1 DUP4 ADD SWAP3 POP POP POP POP POP POP POP PUSH2 0x2787 JUMP JUMPDEST PUSH32 0xC264D91F3ADC5588250E1551F547752CA0CFA8F6B530D243B9F9F4CAB10EA8E5 DUP8 DUP8 DUP8 DUP8 DUP6 PUSH1 0x40 MLOAD PUSH2 0x1CC0 SWAP6 SWAP5 SWAP4 SWAP3 SWAP2 SWAP1 PUSH2 0x4A3C JUMP JUMPDEST PUSH1 0x40 MLOAD DUP1 SWAP2 SUB SWAP1 LOG1 POP POP POP POP POP POP POP JUMP JUMPDEST PUSH1 0x0 PUSH1 0x8 PUSH1 0x0 DUP5 PUSH20 0xFFFFFFFFFFFFFFFFFFFFFFFFFFFFFFFFFFFFFFFF AND PUSH20 0xFFFFFFFFFFFFFFFFFFFFFFFFFFFFFFFFFFFFFFFF AND DUP2 MSTORE PUSH1 0x20 ADD SWAP1 DUP2 MSTORE PUSH1 0x20 ADD PUSH1 0x0 KECCAK256 PUSH1 0x0 DUP4 PUSH20 0xFFFFFFFFFFFFFFFFFFFFFFFFFFFFFFFFFFFFFFFF AND PUSH20 0xFFFFFFFFFFFFFFFFFFFFFFFFFFFFFFFFFFFFFFFF AND DUP2 MSTORE PUSH1 0x20 ADD SWAP1 DUP2 MSTORE PUSH1 0x20 ADD PUSH1 0x0 KECCAK256 SLOAD SWAP1 POP SWAP3 SWAP2 POP POP JUMP JUMPDEST PUSH2 0x1D60 PUSH2 0x2187 JUMP JUMPDEST PUSH1 0x0 DUP2 GT PUSH2 0x1DA3 JUMPI PUSH1 0x40 MLOAD PUSH32 0x8C379A000000000000000000000000000000000000000000000000000000000 DUP2 MSTORE PUSH1 0x4 ADD PUSH2 0x1D9A SWAP1 PUSH2 0x4AD6 JUMP JUMPDEST PUSH1 0x40 MLOAD DUP1 SWAP2 SUB SWAP1 REVERT JUMPDEST DUP1 PUSH1 0x2 PUSH1 0x0 DUP6 PUSH2 0xFFFF AND PUSH2 0xFFFF AND DUP2 MSTORE PUSH1 0x20 ADD SWAP1 DUP2 MSTORE PUSH1 0x20 ADD PUSH1 0x0 KECCAK256 PUSH1 0x0 DUP5 PUSH2 0xFFFF AND PUSH2 0xFFFF AND DUP2 MSTORE PUSH1 0x20 ADD SWAP1 DUP2 MSTORE PUSH1 0x20 ADD PUSH1 0x0 KECCAK256 DUP2 SWAP1 SSTORE POP PUSH32 0x9D5C7C0B934DA8FEFA9C7760C98383778A12DFBFC0C3B3106518F43FB9508AC0 DUP4 DUP4 DUP4 PUSH1 0x40 MLOAD PUSH2 0x1E0F SWAP4 SWAP3 SWAP2 SWAP1 PUSH2 0x4AF6 JUMP JUMPDEST PUSH1 0x40 MLOAD DUP1 SWAP2 SUB SWAP1 LOG1 POP POP POP JUMP JUMPDEST PUSH2 0x1E24 PUSH2 0x2187 JUMP JUMPDEST DUP1 PUSH1 0x6 PUSH1 0x0 PUSH2 0x100 EXP DUP2 SLOAD DUP2 PUSH1 0xFF MUL NOT AND SWAP1 DUP4 ISZERO ISZERO MUL OR SWAP1 SSTORE POP PUSH32 0x1584AD594A70CBE1E6515592E1272A987D922B097EAD875069CEBE8B40C004A4 DUP2 PUSH1 0x40 MLOAD PUSH2 0x1E6D SWAP2 SWAP1 PUSH2 0x3629 JUMP JUMPDEST PUSH1 0x40 MLOAD DUP1 SWAP2 SUB SWAP1 LOG1 POP JUMP JUMPDEST PUSH2 0x1E80 PUSH2 0x2187 JUMP JUMPDEST DUP2 DUP2 PUSH1 0x1 PUSH1 0x0 DUP7 PUSH2 0xFFFF AND PUSH2 0xFFFF AND DUP2 MSTORE PUSH1 0x20 ADD SWAP1 DUP2 MSTORE PUSH1 0x20 ADD PUSH1 0x0 KECCAK256 SWAP2 DUP3 PUSH2 0x1EAA SWAP3 SWAP2 SWAP1 PUSH2 0x4B38 JUMP JUMPDEST POP PUSH32 0xFA41487AD5D6728F0B19276FA1EDDC16558578F5109FC39D2DC33C3230470DAB DUP4 DUP4 DUP4 PUSH1 0x40 MLOAD PUSH2 0x1EDE SWAP4 SWAP3 SWAP2 SWAP1 PUSH2 0x43DF JUMP JUMPDEST PUSH1 0x40 MLOAD DUP1 SWAP2 SUB SWAP1 LOG1 POP POP POP JUMP JUMPDEST PUSH1 0x6 PUSH1 0x0 SWAP1 SLOAD SWAP1 PUSH2 0x100 EXP SWAP1 DIV PUSH1 0xFF AND DUP2 JUMP JUMPDEST PUSH2 0x1F06 PUSH2 0x2187 JUMP JUMPDEST PUSH1 0x0 PUSH20 0xFFFFFFFFFFFFFFFFFFFFFFFFFFFFFFFFFFFFFFFF AND DUP2 PUSH20 0xFFFFFFFFFFFFFFFFFFFFFFFFFFFFFFFFFFFFFFFF AND SUB PUSH2 0x1F75 JUMPI PUSH1 0x40 MLOAD PUSH32 0x8C379A000000000000000000000000000000000000000000000000000000000 DUP2 MSTORE PUSH1 0x4 ADD PUSH2 0x1F6C SWAP1 PUSH2 0x4C7A JUMP JUMPDEST PUSH1 0x40 MLOAD DUP1 SWAP2 SUB SWAP1 REVERT JUMPDEST PUSH2 0x1F7E DUP2 PUSH2 0x27F3 JUMP JUMPDEST POP JUMP JUMPDEST PUSH1 0x60 PUSH32 0x0 PUSH20 0xFFFFFFFFFFFFFFFFFFFFFFFFFFFFFFFFFFFFFFFF AND PUSH4 0xF5ECBDBC DUP7 DUP7 ADDRESS DUP7 PUSH1 0x40 MLOAD DUP6 PUSH4 0xFFFFFFFF AND PUSH1 0xE0 SHL DUP2 MSTORE PUSH1 0x4 ADD PUSH2 0x1FE2 SWAP5 SWAP4 SWAP3 SWAP2 SWAP1 PUSH2 0x4C9A JUMP JUMPDEST PUSH1 0x0 PUSH1 0x40 MLOAD DUP1 DUP4 SUB DUP2 DUP7 GAS STATICCALL ISZERO DUP1 ISZERO PUSH2 0x1FFF JUMPI RETURNDATASIZE PUSH1 0x0 DUP1 RETURNDATACOPY RETURNDATASIZE PUSH1 0x0 REVERT JUMPDEST POP POP POP POP PUSH1 0x40 MLOAD RETURNDATASIZE PUSH1 0x0 DUP3 RETURNDATACOPY RETURNDATASIZE PUSH1 0x1F NOT PUSH1 0x1F DUP3 ADD AND DUP3 ADD DUP1 PUSH1 0x40 MSTORE POP DUP2 ADD SWAP1 PUSH2 0x2028 SWAP2 SWAP1 PUSH2 0x4D4F JUMP JUMPDEST SWAP1 POP SWAP5 SWAP4 POP POP POP POP JUMP JUMPDEST PUSH1 0x0 ADDRESS SWAP1 POP SWAP1 JUMP JUMPDEST PUSH1 0x0 CALLER SWAP1 POP SWAP1 JUMP JUMPDEST PUSH1 0x0 DUP1 PUSH2 0x20EE GAS PUSH1 0x96 PUSH4 0x66AD5C8A PUSH1 0xE0 SHL DUP10 DUP10 DUP10 DUP10 PUSH1 0x40 MLOAD PUSH1 0x24 ADD PUSH2 0x206A SWAP5 SWAP4 SWAP3 SWAP2 SWAP1 PUSH2 0x4D98 JUMP JUMPDEST PUSH1 0x40 MLOAD PUSH1 0x20 DUP2 DUP4 SUB SUB DUP2 MSTORE SWAP1 PUSH1 0x40 MSTORE SWAP1 PUSH28 0xFFFFFFFFFFFFFFFFFFFFFFFFFFFFFFFFFFFFFFFFFFFFFFFFFFFFFFFF NOT AND PUSH1 0x20 DUP3 ADD DUP1 MLOAD PUSH28 0xFFFFFFFFFFFFFFFFFFFFFFFFFFFFFFFFFFFFFFFFFFFFFFFFFFFFFFFF DUP4 DUP2 DUP4 AND OR DUP4 MSTORE POP POP POP POP ADDRESS PUSH20 0xFFFFFFFFFFFFFFFFFFFFFFFFFFFFFFFFFFFFFFFF AND PUSH2 0x29D5 SWAP1 SWAP4 SWAP3 SWAP2 SWAP1 PUSH4 0xFFFFFFFF AND JUMP JUMPDEST SWAP2 POP SWAP2 POP DUP2 PUSH2 0x2105 JUMPI PUSH2 0x2104 DUP7 DUP7 DUP7 DUP7 DUP6 PUSH2 0x2A6D JUMP JUMPDEST JUMPDEST POP POP POP POP POP POP JUMP JUMPDEST PUSH1 0x0 PUSH32 0x14E4CEEA00000000000000000000000000000000000000000000000000000000 PUSH28 0xFFFFFFFFFFFFFFFFFFFFFFFFFFFFFFFFFFFFFFFFFFFFFFFFFFFFFFFF NOT AND DUP3 PUSH28 0xFFFFFFFFFFFFFFFFFFFFFFFFFFFFFFFFFFFFFFFFFFFFFFFFFFFFFFFF NOT AND EQ DUP1 PUSH2 0x2180 JUMPI POP PUSH2 0x217F DUP3 PUSH2 0x2B1B JUMP JUMPDEST JUMPDEST SWAP1 POP SWAP2 SWAP1 POP JUMP JUMPDEST PUSH2 0x218F PUSH2 0x203A JUMP JUMPDEST PUSH20 0xFFFFFFFFFFFFFFFFFFFFFFFFFFFFFFFFFFFFFFFF AND PUSH2 0x21AD PUSH2 0x1608 JUMP JUMPDEST PUSH20 0xFFFFFFFFFFFFFFFFFFFFFFFFFFFFFFFFFFFFFFFF AND EQ PUSH2 0x2203 JUMPI PUSH1 0x40 MLOAD PUSH32 0x8C379A000000000000000000000000000000000000000000000000000000000 DUP2 MSTORE PUSH1 0x4 ADD PUSH2 0x21FA SWAP1 PUSH2 0x4E37 JUMP JUMPDEST PUSH1 0x40 MLOAD DUP1 SWAP2 SUB SWAP1 REVERT JUMPDEST JUMP JUMPDEST PUSH1 0x0 PUSH20 0xFFFFFFFFFFFFFFFFFFFFFFFFFFFFFFFFFFFFFFFF AND DUP4 PUSH20 0xFFFFFFFFFFFFFFFFFFFFFFFFFFFFFFFFFFFFFFFF AND SUB PUSH2 0x2274 JUMPI PUSH1 0x40 MLOAD PUSH32 0x8C379A000000000000000000000000000000000000000000000000000000000 DUP2 MSTORE PUSH1 0x4 ADD PUSH2 0x226B SWAP1 PUSH2 0x4EC9 JUMP JUMPDEST PUSH1 0x40 MLOAD DUP1 SWAP2 SUB SWAP1 REVERT JUMPDEST PUSH1 0x0 PUSH20 0xFFFFFFFFFFFFFFFFFFFFFFFFFFFFFFFFFFFFFFFF AND DUP3 PUSH20 0xFFFFFFFFFFFFFFFFFFFFFFFFFFFFFFFFFFFFFFFF AND SUB PUSH2 0x22E3 JUMPI PUSH1 0x40 MLOAD PUSH32 0x8C379A000000000000000000000000000000000000000000000000000000000 DUP2 MSTORE PUSH1 0x4 ADD PUSH2 0x22DA SWAP1 PUSH2 0x4F5B JUMP JUMPDEST PUSH1 0x40 MLOAD DUP1 SWAP2 SUB SWAP1 REVERT JUMPDEST DUP1 PUSH1 0x8 PUSH1 0x0 DUP6 PUSH20 0xFFFFFFFFFFFFFFFFFFFFFFFFFFFFFFFFFFFFFFFF AND PUSH20 0xFFFFFFFFFFFFFFFFFFFFFFFFFFFFFFFFFFFFFFFF AND DUP2 MSTORE PUSH1 0x20 ADD SWAP1 DUP2 MSTORE PUSH1 0x20 ADD PUSH1 0x0 KECCAK256 PUSH1 0x0 DUP5 PUSH20 0xFFFFFFFFFFFFFFFFFFFFFFFFFFFFFFFFFFFFFFFF AND PUSH20 0xFFFFFFFFFFFFFFFFFFFFFFFFFFFFFFFFFFFFFFFF AND DUP2 MSTORE PUSH1 0x20 ADD SWAP1 DUP2 MSTORE PUSH1 0x20 ADD PUSH1 0x0 KECCAK256 DUP2 SWAP1 SSTORE POP DUP2 PUSH20 0xFFFFFFFFFFFFFFFFFFFFFFFFFFFFFFFFFFFFFFFF AND DUP4 PUSH20 0xFFFFFFFFFFFFFFFFFFFFFFFFFFFFFFFFFFFFFFFF AND PUSH32 0x8C5BE1E5EBEC7D5BD14F71427D1E84F3DD0314C0F7B2291E5B200AC8C7C3B925 DUP4 PUSH1 0x40 MLOAD PUSH2 0x23C1 SWAP2 SWAP1 PUSH2 0x3846 JUMP JUMPDEST PUSH1 0x40 MLOAD DUP1 SWAP2 SUB SWAP1 LOG3 POP POP POP JUMP JUMPDEST PUSH1 0x0 PUSH2 0x23DA DUP5 DUP5 PUSH2 0x1CD1 JUMP JUMPDEST SWAP1 POP PUSH32 0xFFFFFFFFFFFFFFFFFFFFFFFFFFFFFFFFFFFFFFFFFFFFFFFFFFFFFFFFFFFFFFFF DUP2 EQ PUSH2 0x2454 JUMPI DUP2 DUP2 LT ISZERO PUSH2 0x2446 JUMPI PUSH1 0x40 MLOAD PUSH32 0x8C379A000000000000000000000000000000000000000000000000000000000 DUP2 MSTORE PUSH1 0x4 ADD PUSH2 0x243D SWAP1 PUSH2 0x4FC7 JUMP JUMPDEST PUSH1 0x40 MLOAD DUP1 SWAP2 SUB SWAP1 REVERT JUMPDEST PUSH2 0x2453 DUP5 DUP5 DUP5 DUP5 SUB PUSH2 0x2205 JUMP JUMPDEST JUMPDEST POP POP POP POP JUMP JUMPDEST PUSH1 0x0 PUSH20 0xFFFFFFFFFFFFFFFFFFFFFFFFFFFFFFFFFFFFFFFF AND DUP4 PUSH20 0xFFFFFFFFFFFFFFFFFFFFFFFFFFFFFFFFFFFFFFFF AND SUB PUSH2 0x24C9 JUMPI PUSH1 0x40 MLOAD PUSH32 0x8C379A000000000000000000000000000000000000000000000000000000000 DUP2 MSTORE PUSH1 0x4 ADD PUSH2 0x24C0 SWAP1 PUSH2 0x5059 JUMP JUMPDEST PUSH1 0x40 MLOAD DUP1 SWAP2 SUB SWAP1 REVERT JUMPDEST PUSH1 0x0 PUSH20 0xFFFFFFFFFFFFFFFFFFFFFFFFFFFFFFFFFFFFFFFF AND DUP3 PUSH20 0xFFFFFFFFFFFFFFFFFFFFFFFFFFFFFFFFFFFFFFFF AND SUB PUSH2 0x2538 JUMPI PUSH1 0x40 MLOAD PUSH32 0x8C379A000000000000000000000000000000000000000000000000000000000 DUP2 MSTORE PUSH1 0x4 ADD PUSH2 0x252F SWAP1 PUSH2 0x50EB JUMP JUMPDEST PUSH1 0x40 MLOAD DUP1 SWAP2 SUB SWAP1 REVERT JUMPDEST PUSH2 0x2543 DUP4 DUP4 DUP4 PUSH2 0x2B85 JUMP JUMPDEST PUSH1 0x0 PUSH1 0x7 PUSH1 0x0 DUP6 PUSH20 0xFFFFFFFFFFFFFFFFFFFFFFFFFFFFFFFFFFFFFFFF AND PUSH20 0xFFFFFFFFFFFFFFFFFFFFFFFFFFFFFFFFFFFFFFFF AND DUP2 MSTORE PUSH1 0x20 ADD SWAP1 DUP2 MSTORE PUSH1 0x20 ADD PUSH1 0x0 KECCAK256 SLOAD SWAP1 POP DUP2 DUP2 LT ISZERO PUSH2 0x25CA JUMPI PUSH1 0x40 MLOAD PUSH32 0x8C379A000000000000000000000000000000000000000000000000000000000 DUP2 MSTORE PUSH1 0x4 ADD PUSH2 0x25C1 SWAP1 PUSH2 0x517D JUMP JUMPDEST PUSH1 0x40 MLOAD DUP1 SWAP2 SUB SWAP1 REVERT JUMPDEST DUP2 DUP2 SUB PUSH1 0x7 PUSH1 0x0 DUP7 PUSH20 0xFFFFFFFFFFFFFFFFFFFFFFFFFFFFFFFFFFFFFFFF AND PUSH20 0xFFFFFFFFFFFFFFFFFFFFFFFFFFFFFFFFFFFFFFFF AND DUP2 MSTORE PUSH1 0x20 ADD SWAP1 DUP2 MSTORE PUSH1 0x20 ADD PUSH1 0x0 KECCAK256 DUP2 SWAP1 SSTORE POP DUP2 PUSH1 0x7 PUSH1 0x0 DUP6 PUSH20 0xFFFFFFFFFFFFFFFFFFFFFFFFFFFFFFFFFFFFFFFF AND PUSH20 0xFFFFFFFFFFFFFFFFFFFFFFFFFFFFFFFFFFFFFFFF AND DUP2 MSTORE PUSH1 0x20 ADD SWAP1 DUP2 MSTORE PUSH1 0x20 ADD PUSH1 0x0 KECCAK256 PUSH1 0x0 DUP3 DUP3 SLOAD ADD SWAP3 POP POP DUP2 SWAP1 SSTORE POP DUP3 PUSH20 0xFFFFFFFFFFFFFFFFFFFFFFFFFFFFFFFFFFFFFFFF AND DUP5 PUSH20 0xFFFFFFFFFFFFFFFFFFFFFFFFFFFFFFFFFFFFFFFF AND PUSH32 0xDDF252AD1BE2C89B69C2B068FC378DAA952BA7F163C4A11628F55A4DF523B3EF DUP5 PUSH1 0x40 MLOAD PUSH2 0x26BA SWAP2 SWAP1 PUSH2 0x3846 JUMP JUMPDEST PUSH1 0x40 MLOAD DUP1 SWAP2 SUB SWAP1 LOG3 PUSH2 0x26CD DUP5 DUP5 DUP5 PUSH2 0x2B8A JUMP JUMPDEST POP POP POP POP JUMP JUMPDEST PUSH2 0x26E1 DUP7 PUSH1 0x0 DUP4 PUSH1 0x0 PUSH2 0x2B8F JUMP JUMPDEST PUSH1 0x0 PUSH2 0x26EF DUP9 DUP9 DUP9 DUP9 PUSH2 0x2C00 JUMP JUMPDEST SWAP1 POP PUSH1 0x0 DUP1 DUP8 DUP4 PUSH1 0x40 MLOAD PUSH1 0x20 ADD PUSH2 0x2708 SWAP4 SWAP3 SWAP2 SWAP1 PUSH2 0x519D JUMP JUMPDEST PUSH1 0x40 MLOAD PUSH1 0x20 DUP2 DUP4 SUB SUB DUP2 MSTORE SWAP1 PUSH1 0x40 MSTORE SWAP1 POP PUSH2 0x2727 DUP9 DUP3 DUP8 DUP8 DUP8 CALLVALUE PUSH2 0x2C62 JUMP JUMPDEST DUP9 PUSH20 0xFFFFFFFFFFFFFFFFFFFFFFFFFFFFFFFFFFFFFFFF AND DUP9 PUSH2 0xFFFF AND PUSH32 0x39A4C66499BCF4B56D79F0DDE8ED7A9D4925A0DF55825206B2B8531E202BE0D0 DUP10 DUP6 PUSH1 0x40 MLOAD PUSH2 0x2774 SWAP3 SWAP2 SWAP1 PUSH2 0x51DB JUMP JUMPDEST PUSH1 0x40 MLOAD DUP1 SWAP2 SUB SWAP1 LOG3 POP POP POP POP POP POP POP POP POP JUMP JUMPDEST PUSH1 0x0 PUSH1 0x20 DUP3 ADD MLOAD SWAP1 POP PUSH1 0x0 PUSH2 0xFFFF AND DUP2 PUSH2 0xFFFF AND SUB PUSH2 0x27B1 JUMPI PUSH2 0x27AC DUP6 DUP6 DUP6 DUP6 PUSH2 0x2DF8 JUMP JUMPDEST PUSH2 0x27EC JUMP JUMPDEST PUSH1 0x40 MLOAD PUSH32 0x8C379A000000000000000000000000000000000000000000000000000000000 DUP2 MSTORE PUSH1 0x4 ADD PUSH2 0x27E3 SWAP1 PUSH2 0x5257 JUMP JUMPDEST PUSH1 0x40 MLOAD DUP1 SWAP2 SUB SWAP1 REVERT JUMPDEST POP POP POP POP POP JUMP JUMPDEST PUSH1 0x0 DUP1 PUSH1 0x0 SWAP1 SLOAD SWAP1 PUSH2 0x100 EXP SWAP1 DIV PUSH20 0xFFFFFFFFFFFFFFFFFFFFFFFFFFFFFFFFFFFFFFFF AND SWAP1 POP DUP2 PUSH1 0x0 DUP1 PUSH2 0x100 EXP DUP2 SLOAD DUP2 PUSH20 0xFFFFFFFFFFFFFFFFFFFFFFFFFFFFFFFFFFFFFFFF MUL NOT AND SWAP1 DUP4 PUSH20 0xFFFFFFFFFFFFFFFFFFFFFFFFFFFFFFFFFFFFFFFF AND MUL OR SWAP1 SSTORE POP DUP2 PUSH20 0xFFFFFFFFFFFFFFFFFFFFFFFFFFFFFFFFFFFFFFFF AND DUP2 PUSH20 0xFFFFFFFFFFFFFFFFFFFFFFFFFFFFFFFFFFFFFFFF AND PUSH32 0x8BE0079C531659141344CD1FD0A4F28419497F9722A3DAAFE3B4186F6B6457E0 PUSH1 0x40 MLOAD PUSH1 0x40 MLOAD DUP1 SWAP2 SUB SWAP1 LOG3 POP POP JUMP JUMPDEST PUSH1 0x60 DUP2 PUSH1 0x1F DUP4 PUSH2 0x28C7 SWAP2 SWAP1 PUSH2 0x43AB JUMP JUMPDEST LT ISZERO PUSH2 0x2908 JUMPI PUSH1 0x40 MLOAD PUSH32 0x8C379A000000000000000000000000000000000000000000000000000000000 DUP2 MSTORE PUSH1 0x4 ADD PUSH2 0x28FF SWAP1 PUSH2 0x52C3 JUMP JUMPDEST PUSH1 0x40 MLOAD DUP1 SWAP2 SUB SWAP1 REVERT JUMPDEST DUP2 DUP4 PUSH2 0x2914 SWAP2 SWAP1 PUSH2 0x43AB JUMP JUMPDEST DUP5 MLOAD LT ISZERO PUSH2 0x2957 JUMPI PUSH1 0x40 MLOAD PUSH32 0x8C379A000000000000000000000000000000000000000000000000000000000 DUP2 MSTORE PUSH1 0x4 ADD PUSH2 0x294E SWAP1 PUSH2 0x532F JUMP JUMPDEST PUSH1 0x40 MLOAD DUP1 SWAP2 SUB SWAP1 REVERT JUMPDEST PUSH1 0x60 DUP3 ISZERO PUSH1 0x0 DUP2 EQ PUSH2 0x2978 JUMPI PUSH1 0x40 MLOAD SWAP2 POP PUSH1 0x0 DUP3 MSTORE PUSH1 0x20 DUP3 ADD PUSH1 0x40 MSTORE PUSH2 0x29C9 JUMP JUMPDEST PUSH1 0x40 MLOAD SWAP2 POP PUSH1 0x1F DUP5 AND DUP1 ISZERO PUSH1 0x20 MUL DUP2 DUP5 ADD ADD DUP6 DUP2 ADD DUP8 DUP4 ISZERO PUSH1 0x20 MUL DUP5 DUP12 ADD ADD ADD JUMPDEST DUP2 DUP4 LT ISZERO PUSH2 0x29B6 JUMPI DUP1 MLOAD DUP4 MSTORE PUSH1 0x20 DUP4 ADD SWAP3 POP PUSH1 0x20 DUP2 ADD SWAP1 POP PUSH2 0x2999 JUMP JUMPDEST POP DUP7 DUP6 MSTORE PUSH1 0x1F NOT PUSH1 0x1F DUP4 ADD AND PUSH1 0x40 MSTORE POP POP POP JUMPDEST POP DUP1 SWAP2 POP POP SWAP4 SWAP3 POP POP POP JUMP JUMPDEST PUSH1 0x0 PUSH1 0x60 PUSH1 0x0 DUP1 PUSH1 0x0 DUP7 PUSH2 0xFFFF AND PUSH8 0xFFFFFFFFFFFFFFFF DUP2 GT ISZERO PUSH2 0x29FC JUMPI PUSH2 0x29FB PUSH2 0x3BAB JUMP JUMPDEST JUMPDEST PUSH1 0x40 MLOAD SWAP1 DUP1 DUP3 MSTORE DUP1 PUSH1 0x1F ADD PUSH1 0x1F NOT AND PUSH1 0x20 ADD DUP3 ADD PUSH1 0x40 MSTORE DUP1 ISZERO PUSH2 0x2A2E JUMPI DUP2 PUSH1 0x20 ADD PUSH1 0x1 DUP3 MUL DUP1 CALLDATASIZE DUP4 CALLDATACOPY DUP1 DUP3 ADD SWAP2 POP POP SWAP1 POP JUMPDEST POP SWAP1 POP PUSH1 0x0 DUP1 DUP8 MLOAD PUSH1 0x20 DUP10 ADD PUSH1 0x0 DUP14 DUP14 CALL SWAP2 POP RETURNDATASIZE SWAP3 POP DUP7 DUP4 GT ISZERO PUSH2 0x2A50 JUMPI DUP7 SWAP3 POP JUMPDEST DUP3 DUP2 MSTORE DUP3 PUSH1 0x0 PUSH1 0x20 DUP4 ADD RETURNDATACOPY DUP2 DUP2 SWAP5 POP SWAP5 POP POP POP POP SWAP5 POP SWAP5 SWAP3 POP POP POP JUMP JUMPDEST DUP2 DUP1 MLOAD SWAP1 PUSH1 0x20 ADD KECCAK256 PUSH1 0x5 PUSH1 0x0 DUP8 PUSH2 0xFFFF AND PUSH2 0xFFFF AND DUP2 MSTORE PUSH1 0x20 ADD SWAP1 DUP2 MSTORE PUSH1 0x20 ADD PUSH1 0x0 KECCAK256 DUP6 PUSH1 0x40 MLOAD PUSH2 0x2A9E SWAP2 SWAP1 PUSH2 0x5380 JUMP JUMPDEST SWAP1 DUP2 MSTORE PUSH1 0x20 ADD PUSH1 0x40 MLOAD DUP1 SWAP2 SUB SWAP1 KECCAK256 PUSH1 0x0 DUP6 PUSH8 0xFFFFFFFFFFFFFFFF AND PUSH8 0xFFFFFFFFFFFFFFFF AND DUP2 MSTORE PUSH1 0x20 ADD SWAP1 DUP2 MSTORE PUSH1 0x20 ADD PUSH1 0x0 KECCAK256 DUP2 SWAP1 SSTORE POP PUSH32 0xE183F33DE2837795525B4792CA4CD60535BD77C53B7E7030060BFCF5734D6B0C DUP6 DUP6 DUP6 DUP6 DUP6 PUSH1 0x40 MLOAD PUSH2 0x2B0C SWAP6 SWAP5 SWAP4 SWAP3 SWAP2 SWAP1 PUSH2 0x5397 JUMP JUMPDEST PUSH1 0x40 MLOAD DUP1 SWAP2 SUB SWAP1 LOG1 POP POP POP POP POP JUMP JUMPDEST PUSH1 0x0 PUSH32 0x1FFC9A700000000000000000000000000000000000000000000000000000000 PUSH28 0xFFFFFFFFFFFFFFFFFFFFFFFFFFFFFFFFFFFFFFFFFFFFFFFFFFFFFFFF NOT AND DUP3 PUSH28 0xFFFFFFFFFFFFFFFFFFFFFFFFFFFFFFFFFFFFFFFFFFFFFFFFFFFFFFFF NOT AND EQ SWAP1 POP SWAP2 SWAP1 POP JUMP JUMPDEST POP POP POP JUMP JUMPDEST POP POP POP JUMP JUMPDEST PUSH1 0x6 PUSH1 0x0 SWAP1 SLOAD SWAP1 PUSH2 0x100 EXP SWAP1 DIV PUSH1 0xFF AND ISZERO PUSH2 0x2BB5 JUMPI PUSH2 0x2BB0 DUP5 DUP5 DUP5 DUP5 PUSH2 0x2E95 JUMP JUMPDEST PUSH2 0x2BFA JUMP JUMPDEST PUSH1 0x0 DUP3 MLOAD EQ PUSH2 0x2BF9 JUMPI PUSH1 0x40 MLOAD PUSH32 0x8C379A000000000000000000000000000000000000000000000000000000000 DUP2 MSTORE PUSH1 0x4 ADD PUSH2 0x2BF0 SWAP1 PUSH2 0x5471 JUMP JUMPDEST PUSH1 0x40 MLOAD DUP1 SWAP2 SUB SWAP1 REVERT JUMPDEST JUMPDEST POP POP POP POP JUMP JUMPDEST PUSH1 0x0 DUP1 PUSH2 0x2C0B PUSH2 0x203A JUMP JUMPDEST SWAP1 POP DUP1 PUSH20 0xFFFFFFFFFFFFFFFFFFFFFFFFFFFFFFFFFFFFFFFF AND DUP7 PUSH20 0xFFFFFFFFFFFFFFFFFFFFFFFFFFFFFFFFFFFFFFFF AND EQ PUSH2 0x2C4C JUMPI PUSH2 0x2C4B DUP7 DUP3 DUP6 PUSH2 0x23CE JUMP JUMPDEST JUMPDEST PUSH2 0x2C56 DUP7 DUP5 PUSH2 0x2F74 JUMP JUMPDEST DUP3 SWAP2 POP POP SWAP5 SWAP4 POP POP POP POP JUMP JUMPDEST PUSH1 0x0 PUSH1 0x1 PUSH1 0x0 DUP9 PUSH2 0xFFFF AND PUSH2 0xFFFF AND DUP2 MSTORE PUSH1 0x20 ADD SWAP1 DUP2 MSTORE PUSH1 0x20 ADD PUSH1 0x0 KECCAK256 DUP1 SLOAD PUSH2 0x2C8A SWAP1 PUSH2 0x414B JUMP JUMPDEST DUP1 PUSH1 0x1F ADD PUSH1 0x20 DUP1 SWAP2 DIV MUL PUSH1 0x20 ADD PUSH1 0x40 MLOAD SWAP1 DUP2 ADD PUSH1 0x40 MSTORE DUP1 SWAP3 SWAP2 SWAP1 DUP2 DUP2 MSTORE PUSH1 0x20 ADD DUP3 DUP1 SLOAD PUSH2 0x2CB6 SWAP1 PUSH2 0x414B JUMP JUMPDEST DUP1 ISZERO PUSH2 0x2D03 JUMPI DUP1 PUSH1 0x1F LT PUSH2 0x2CD8 JUMPI PUSH2 0x100 DUP1 DUP4 SLOAD DIV MUL DUP4 MSTORE SWAP2 PUSH1 0x20 ADD SWAP2 PUSH2 0x2D03 JUMP JUMPDEST DUP3 ADD SWAP2 SWAP1 PUSH1 0x0 MSTORE PUSH1 0x20 PUSH1 0x0 KECCAK256 SWAP1 JUMPDEST DUP2 SLOAD DUP2 MSTORE SWAP1 PUSH1 0x1 ADD SWAP1 PUSH1 0x20 ADD DUP1 DUP4 GT PUSH2 0x2CE6 JUMPI DUP3 SWAP1 SUB PUSH1 0x1F AND DUP3 ADD SWAP2 JUMPDEST POP POP POP POP POP SWAP1 POP PUSH1 0x0 DUP2 MLOAD SUB PUSH2 0x2D4E JUMPI PUSH1 0x40 MLOAD PUSH32 0x8C379A000000000000000000000000000000000000000000000000000000000 DUP2 MSTORE PUSH1 0x4 ADD PUSH2 0x2D45 SWAP1 PUSH2 0x5503 JUMP JUMPDEST PUSH1 0x40 MLOAD DUP1 SWAP2 SUB SWAP1 REVERT JUMPDEST PUSH2 0x2D59 DUP8 DUP8 MLOAD PUSH2 0x3143 JUMP JUMPDEST PUSH32 0x0 PUSH20 0xFFFFFFFFFFFFFFFFFFFFFFFFFFFFFFFFFFFFFFFF AND PUSH4 0xC5803100 DUP4 DUP10 DUP5 DUP11 DUP11 DUP11 DUP11 PUSH1 0x40 MLOAD DUP9 PUSH4 0xFFFFFFFF AND PUSH1 0xE0 SHL DUP2 MSTORE PUSH1 0x4 ADD PUSH2 0x2DBD SWAP7 SWAP6 SWAP5 SWAP4 SWAP3 SWAP2 SWAP1 PUSH2 0x5532 JUMP JUMPDEST PUSH1 0x0 PUSH1 0x40 MLOAD DUP1 DUP4 SUB DUP2 DUP6 DUP9 DUP1 EXTCODESIZE ISZERO DUP1 ISZERO PUSH2 0x2DD6 JUMPI PUSH1 0x0 DUP1 REVERT JUMPDEST POP GAS CALL ISZERO DUP1 ISZERO PUSH2 0x2DEA JUMPI RETURNDATASIZE PUSH1 0x0 DUP1 RETURNDATACOPY RETURNDATASIZE PUSH1 0x0 REVERT JUMPDEST POP POP POP POP POP POP POP POP POP POP POP POP JUMP JUMPDEST PUSH1 0x0 DUP1 DUP3 DUP1 PUSH1 0x20 ADD SWAP1 MLOAD DUP2 ADD SWAP1 PUSH2 0x2E0F SWAP2 SWAP1 PUSH2 0x55BD JUMP JUMPDEST SWAP3 POP SWAP3 POP POP PUSH1 0x0 PUSH2 0x2E2A PUSH1 0x0 DUP5 PUSH2 0x31B9 SWAP1 SWAP2 SWAP1 PUSH4 0xFFFFFFFF AND JUMP JUMPDEST SWAP1 POP PUSH2 0x2E37 DUP8 DUP3 DUP5 PUSH2 0x322F JUMP JUMPDEST SWAP2 POP DUP1 PUSH20 0xFFFFFFFFFFFFFFFFFFFFFFFFFFFFFFFFFFFFFFFF AND DUP8 PUSH2 0xFFFF AND PUSH32 0xBF551EC93859B170F9B2141BD9298BF3F64322C6F7BEB2543A0CB669834118BF DUP5 PUSH1 0x40 MLOAD PUSH2 0x2E84 SWAP2 SWAP1 PUSH2 0x3846 JUMP JUMPDEST PUSH1 0x40 MLOAD DUP1 SWAP2 SUB SWAP1 LOG3 POP POP POP POP POP POP POP JUMP JUMPDEST PUSH1 0x0 PUSH2 0x2EA0 DUP4 PUSH2 0x3245 JUMP JUMPDEST SWAP1 POP PUSH1 0x0 DUP3 PUSH1 0x2 PUSH1 0x0 DUP9 PUSH2 0xFFFF AND PUSH2 0xFFFF AND DUP2 MSTORE PUSH1 0x20 ADD SWAP1 DUP2 MSTORE PUSH1 0x20 ADD PUSH1 0x0 KECCAK256 PUSH1 0x0 DUP8 PUSH2 0xFFFF AND PUSH2 0xFFFF AND DUP2 MSTORE PUSH1 0x20 ADD SWAP1 DUP2 MSTORE PUSH1 0x20 ADD PUSH1 0x0 KECCAK256 SLOAD PUSH2 0x2EE4 SWAP2 SWAP1 PUSH2 0x43AB JUMP JUMPDEST SWAP1 POP PUSH1 0x0 DUP2 GT PUSH2 0x2F29 JUMPI PUSH1 0x40 MLOAD PUSH32 0x8C379A000000000000000000000000000000000000000000000000000000000 DUP2 MSTORE PUSH1 0x4 ADD PUSH2 0x2F20 SWAP1 PUSH2 0x5678 JUMP JUMPDEST PUSH1 0x40 MLOAD DUP1 SWAP2 SUB SWAP1 REVERT JUMPDEST DUP1 DUP3 LT ISZERO PUSH2 0x2F6C JUMPI PUSH1 0x40 MLOAD PUSH32 0x8C379A000000000000000000000000000000000000000000000000000000000 DUP2 MSTORE PUSH1 0x4 ADD PUSH2 0x2F63 SWAP1 PUSH2 0x56E4 JUMP JUMPDEST PUSH1 0x40 MLOAD DUP1 SWAP2 SUB SWAP1 REVERT JUMPDEST POP POP POP POP POP POP JUMP JUMPDEST PUSH1 0x0 PUSH20 0xFFFFFFFFFFFFFFFFFFFFFFFFFFFFFFFFFFFFFFFF AND DUP3 PUSH20 0xFFFFFFFFFFFFFFFFFFFFFFFFFFFFFFFFFFFFFFFF AND SUB PUSH2 0x2FE3 JUMPI PUSH1 0x40 MLOAD PUSH32 0x8C379A000000000000000000000000000000000000000000000000000000000 DUP2 MSTORE PUSH1 0x4 ADD PUSH2 0x2FDA SWAP1 PUSH2 0x5776 JUMP JUMPDEST PUSH1 0x40 MLOAD DUP1 SWAP2 SUB SWAP1 REVERT JUMPDEST PUSH2 0x2FEF DUP3 PUSH1 0x0 DUP4 PUSH2 0x2B85 JUMP JUMPDEST PUSH1 0x0 PUSH1 0x7 PUSH1 0x0 DUP5 PUSH20 0xFFFFFFFFFFFFFFFFFFFFFFFFFFFFFFFFFFFFFFFF AND PUSH20 0xFFFFFFFFFFFFFFFFFFFFFFFFFFFFFFFFFFFFFFFF AND DUP2 MSTORE PUSH1 0x20 ADD SWAP1 DUP2 MSTORE PUSH1 0x20 ADD PUSH1 0x0 KECCAK256 SLOAD SWAP1 POP DUP2 DUP2 LT ISZERO PUSH2 0x3076 JUMPI PUSH1 0x40 MLOAD PUSH32 0x8C379A000000000000000000000000000000000000000000000000000000000 DUP2 MSTORE PUSH1 0x4 ADD PUSH2 0x306D SWAP1 PUSH2 0x5808 JUMP JUMPDEST PUSH1 0x40 MLOAD DUP1 SWAP2 SUB SWAP1 REVERT JUMPDEST DUP2 DUP2 SUB PUSH1 0x7 PUSH1 0x0 DUP6 PUSH20 0xFFFFFFFFFFFFFFFFFFFFFFFFFFFFFFFFFFFFFFFF AND PUSH20 0xFFFFFFFFFFFFFFFFFFFFFFFFFFFFFFFFFFFFFFFF AND DUP2 MSTORE PUSH1 0x20 ADD SWAP1 DUP2 MSTORE PUSH1 0x20 ADD PUSH1 0x0 KECCAK256 DUP2 SWAP1 SSTORE POP DUP2 PUSH1 0x9 PUSH1 0x0 DUP3 DUP3 SLOAD SUB SWAP3 POP POP DUP2 SWAP1 SSTORE POP PUSH1 0x0 PUSH20 0xFFFFFFFFFFFFFFFFFFFFFFFFFFFFFFFFFFFFFFFF AND DUP4 PUSH20 0xFFFFFFFFFFFFFFFFFFFFFFFFFFFFFFFFFFFFFFFF AND PUSH32 0xDDF252AD1BE2C89B69C2B068FC378DAA952BA7F163C4A11628F55A4DF523B3EF DUP5 PUSH1 0x40 MLOAD PUSH2 0x312A SWAP2 SWAP1 PUSH2 0x3846 JUMP JUMPDEST PUSH1 0x40 MLOAD DUP1 SWAP2 SUB SWAP1 LOG3 PUSH2 0x313E DUP4 PUSH1 0x0 DUP5 PUSH2 0x2B8A JUMP JUMPDEST POP POP POP JUMP JUMPDEST PUSH1 0x0 PUSH1 0x3 PUSH1 0x0 DUP5 PUSH2 0xFFFF AND PUSH2 0xFFFF AND DUP2 MSTORE PUSH1 0x20 ADD SWAP1 DUP2 MSTORE PUSH1 0x20 ADD PUSH1 0x0 KECCAK256 SLOAD SWAP1 POP PUSH1 0x0 DUP2 SUB PUSH2 0x3171 JUMPI PUSH2 0x2710 SWAP1 POP JUMPDEST DUP1 DUP3 GT ISZERO PUSH2 0x31B4 JUMPI PUSH1 0x40 MLOAD PUSH32 0x8C379A000000000000000000000000000000000000000000000000000000000 DUP2 MSTORE PUSH1 0x4 ADD PUSH2 0x31AB SWAP1 PUSH2 0x5874 JUMP JUMPDEST PUSH1 0x40 MLOAD DUP1 SWAP2 SUB SWAP1 REVERT JUMPDEST POP POP POP JUMP JUMPDEST PUSH1 0x0 PUSH1 0x14 DUP3 PUSH2 0x31C8 SWAP2 SWAP1 PUSH2 0x43AB JUMP JUMPDEST DUP4 MLOAD LT ISZERO PUSH2 0x320B JUMPI PUSH1 0x40 MLOAD PUSH32 0x8C379A000000000000000000000000000000000000000000000000000000000 DUP2 MSTORE PUSH1 0x4 ADD PUSH2 0x3202 SWAP1 PUSH2 0x58E0 JUMP JUMPDEST PUSH1 0x40 MLOAD DUP1 SWAP2 SUB SWAP1 REVERT JUMPDEST PUSH1 0x0 PUSH13 0x1000000000000000000000000 DUP4 PUSH1 0x20 DUP7 ADD ADD MLOAD DIV SWAP1 POP DUP1 SWAP2 POP POP SWAP3 SWAP2 POP POP JUMP JUMPDEST PUSH1 0x0 PUSH2 0x323B DUP4 DUP4 PUSH2 0x3298 JUMP JUMPDEST DUP2 SWAP1 POP SWAP4 SWAP3 POP POP POP JUMP JUMPDEST PUSH1 0x0 PUSH1 0x22 DUP3 MLOAD LT ISZERO PUSH2 0x328C JUMPI PUSH1 0x40 MLOAD PUSH32 0x8C379A000000000000000000000000000000000000000000000000000000000 DUP2 MSTORE PUSH1 0x4 ADD PUSH2 0x3283 SWAP1 PUSH2 0x594C JUMP JUMPDEST PUSH1 0x40 MLOAD DUP1 SWAP2 SUB SWAP1 REVERT JUMPDEST PUSH1 0x22 DUP3 ADD MLOAD SWAP1 POP SWAP2 SWAP1 POP JUMP JUMPDEST PUSH1 0x0 PUSH20 0xFFFFFFFFFFFFFFFFFFFFFFFFFFFFFFFFFFFFFFFF AND DUP3 PUSH20 0xFFFFFFFFFFFFFFFFFFFFFFFFFFFFFFFFFFFFFFFF AND SUB PUSH2 0x3307 JUMPI PUSH1 0x40 MLOAD PUSH32 0x8C379A000000000000000000000000000000000000000000000000000000000 DUP2 MSTORE PUSH1 0x4 ADD PUSH2 0x32FE SWAP1 PUSH2 0x59B8 JUMP JUMPDEST PUSH1 0x40 MLOAD DUP1 SWAP2 SUB SWAP1 REVERT JUMPDEST PUSH2 0x3313 PUSH1 0x0 DUP4 DUP4 PUSH2 0x2B85 JUMP JUMPDEST DUP1 PUSH1 0x9 PUSH1 0x0 DUP3 DUP3 SLOAD PUSH2 0x3325 SWAP2 SWAP1 PUSH2 0x43AB JUMP JUMPDEST SWAP3 POP POP DUP2 SWAP1 SSTORE POP DUP1 PUSH1 0x7 PUSH1 0x0 DUP5 PUSH20 0xFFFFFFFFFFFFFFFFFFFFFFFFFFFFFFFFFFFFFFFF AND PUSH20 0xFFFFFFFFFFFFFFFFFFFFFFFFFFFFFFFFFFFFFFFF AND DUP2 MSTORE PUSH1 0x20 ADD SWAP1 DUP2 MSTORE PUSH1 0x20 ADD PUSH1 0x0 KECCAK256 PUSH1 0x0 DUP3 DUP3 SLOAD ADD SWAP3 POP POP DUP2 SWAP1 SSTORE POP DUP2 PUSH20 0xFFFFFFFFFFFFFFFFFFFFFFFFFFFFFFFFFFFFFFFF AND PUSH1 0x0 PUSH20 0xFFFFFFFFFFFFFFFFFFFFFFFFFFFFFFFFFFFFFFFF AND PUSH32 0xDDF252AD1BE2C89B69C2B068FC378DAA952BA7F163C4A11628F55A4DF523B3EF DUP4 PUSH1 0x40 MLOAD PUSH2 0x33D7 SWAP2 SWAP1 PUSH2 0x3846 JUMP JUMPDEST PUSH1 0x40 MLOAD DUP1 SWAP2 SUB SWAP1 LOG3 PUSH2 0x33EB PUSH1 0x0 DUP4 DUP4 PUSH2 0x2B8A JUMP JUMPDEST POP POP JUMP JUMPDEST PUSH1 0x0 PUSH1 0x40 MLOAD SWAP1 POP SWAP1 JUMP JUMPDEST PUSH1 0x0 DUP1 REVERT JUMPDEST PUSH1 0x0 DUP1 REVERT JUMPDEST PUSH1 0x0 PUSH2 0xFFFF DUP3 AND SWAP1 POP SWAP2 SWAP1 POP JUMP JUMPDEST PUSH2 0x341A DUP2 PUSH2 0x3403 JUMP JUMPDEST DUP2 EQ PUSH2 0x3425 JUMPI PUSH1 0x0 DUP1 REVERT JUMPDEST POP JUMP JUMPDEST PUSH1 0x0 DUP2 CALLDATALOAD SWAP1 POP PUSH2 0x3437 DUP2 PUSH2 0x3411 JUMP JUMPDEST SWAP3 SWAP2 POP POP JUMP JUMPDEST PUSH1 0x0 DUP1 REVERT JUMPDEST PUSH1 0x0 DUP1 REVERT JUMPDEST PUSH1 0x0 DUP1 REVERT JUMPDEST PUSH1 0x0 DUP1 DUP4 PUSH1 0x1F DUP5 ADD SLT PUSH2 0x3462 JUMPI PUSH2 0x3461 PUSH2 0x343D JUMP JUMPDEST JUMPDEST DUP3 CALLDATALOAD SWAP1 POP PUSH8 0xFFFFFFFFFFFFFFFF DUP2 GT ISZERO PUSH2 0x347F JUMPI PUSH2 0x347E PUSH2 0x3442 JUMP JUMPDEST JUMPDEST PUSH1 0x20 DUP4 ADD SWAP2 POP DUP4 PUSH1 0x1 DUP3 MUL DUP4 ADD GT ISZERO PUSH2 0x349B JUMPI PUSH2 0x349A PUSH2 0x3447 JUMP JUMPDEST JUMPDEST SWAP3 POP SWAP3 SWAP1 POP JUMP JUMPDEST PUSH1 0x0 PUSH8 0xFFFFFFFFFFFFFFFF DUP3 AND SWAP1 POP SWAP2 SWAP1 POP JUMP JUMPDEST PUSH2 0x34BF DUP2 PUSH2 0x34A2 JUMP JUMPDEST DUP2 EQ PUSH2 0x34CA JUMPI PUSH1 0x0 DUP1 REVERT JUMPDEST POP JUMP JUMPDEST PUSH1 0x0 DUP2 CALLDATALOAD SWAP1 POP PUSH2 0x34DC DUP2 PUSH2 0x34B6 JUMP JUMPDEST SWAP3 SWAP2 POP POP JUMP JUMPDEST PUSH1 0x0 DUP1 PUSH1 0x0 DUP1 PUSH1 0x0 DUP1 PUSH1 0x80 DUP8 DUP10 SUB SLT ISZERO PUSH2 0x34FF JUMPI PUSH2 0x34FE PUSH2 0x33F9 JUMP JUMPDEST JUMPDEST PUSH1 0x0 PUSH2 0x350D DUP10 DUP3 DUP11 ADD PUSH2 0x3428 JUMP JUMPDEST SWAP7 POP POP PUSH1 0x20 DUP8 ADD CALLDATALOAD PUSH8 0xFFFFFFFFFFFFFFFF DUP2 GT ISZERO PUSH2 0x352E JUMPI PUSH2 0x352D PUSH2 0x33FE JUMP JUMPDEST JUMPDEST PUSH2 0x353A DUP10 DUP3 DUP11 ADD PUSH2 0x344C JUMP JUMPDEST SWAP6 POP SWAP6 POP POP PUSH1 0x40 PUSH2 0x354D DUP10 DUP3 DUP11 ADD PUSH2 0x34CD JUMP JUMPDEST SWAP4 POP POP PUSH1 0x60 DUP8 ADD CALLDATALOAD PUSH8 0xFFFFFFFFFFFFFFFF DUP2 GT ISZERO PUSH2 0x356E JUMPI PUSH2 0x356D PUSH2 0x33FE JUMP JUMPDEST JUMPDEST PUSH2 0x357A DUP10 DUP3 DUP11 ADD PUSH2 0x344C JUMP JUMPDEST SWAP3 POP SWAP3 POP POP SWAP3 SWAP6 POP SWAP3 SWAP6 POP SWAP3 SWAP6 JUMP JUMPDEST PUSH1 0x0 PUSH32 0xFFFFFFFF00000000000000000000000000000000000000000000000000000000 DUP3 AND SWAP1 POP SWAP2 SWAP1 POP JUMP JUMPDEST PUSH2 0x35BE DUP2 PUSH2 0x3589 JUMP JUMPDEST DUP2 EQ PUSH2 0x35C9 JUMPI PUSH1 0x0 DUP1 REVERT JUMPDEST POP JUMP JUMPDEST PUSH1 0x0 DUP2 CALLDATALOAD SWAP1 POP PUSH2 0x35DB DUP2 PUSH2 0x35B5 JUMP JUMPDEST SWAP3 SWAP2 POP POP JUMP JUMPDEST PUSH1 0x0 PUSH1 0x20 DUP3 DUP5 SUB SLT ISZERO PUSH2 0x35F7 JUMPI PUSH2 0x35F6 PUSH2 0x33F9 JUMP JUMPDEST JUMPDEST PUSH1 0x0 PUSH2 0x3605 DUP5 DUP3 DUP6 ADD PUSH2 0x35CC JUMP JUMPDEST SWAP2 POP POP SWAP3 SWAP2 POP POP JUMP JUMPDEST PUSH1 0x0 DUP2 ISZERO ISZERO SWAP1 POP SWAP2 SWAP1 POP JUMP JUMPDEST PUSH2 0x3623 DUP2 PUSH2 0x360E JUMP JUMPDEST DUP3 MSTORE POP POP JUMP JUMPDEST PUSH1 0x0 PUSH1 0x20 DUP3 ADD SWAP1 POP PUSH2 0x363E PUSH1 0x0 DUP4 ADD DUP5 PUSH2 0x361A JUMP JUMPDEST SWAP3 SWAP2 POP POP JUMP JUMPDEST PUSH1 0x0 DUP2 MLOAD SWAP1 POP SWAP2 SWAP1 POP JUMP JUMPDEST PUSH1 0x0 DUP3 DUP3 MSTORE PUSH1 0x20 DUP3 ADD SWAP1 POP SWAP3 SWAP2 POP POP JUMP JUMPDEST PUSH1 0x0 JUMPDEST DUP4 DUP2 LT ISZERO PUSH2 0x367E JUMPI DUP1 DUP3 ADD MLOAD DUP2 DUP5 ADD MSTORE PUSH1 0x20 DUP2 ADD SWAP1 POP PUSH2 0x3663 JUMP JUMPDEST PUSH1 0x0 DUP5 DUP5 ADD MSTORE POP POP POP POP JUMP JUMPDEST PUSH1 0x0 PUSH1 0x1F NOT PUSH1 0x1F DUP4 ADD AND SWAP1 POP SWAP2 SWAP1 POP JUMP JUMPDEST PUSH1 0x0 PUSH2 0x36A6 DUP3 PUSH2 0x3644 JUMP JUMPDEST PUSH2 0x36B0 DUP2 DUP6 PUSH2 0x364F JUMP JUMPDEST SWAP4 POP PUSH2 0x36C0 DUP2 DUP6 PUSH1 0x20 DUP7 ADD PUSH2 0x3660 JUMP JUMPDEST PUSH2 0x36C9 DUP2 PUSH2 0x368A JUMP JUMPDEST DUP5 ADD SWAP2 POP POP SWAP3 SWAP2 POP POP JUMP JUMPDEST PUSH1 0x0 PUSH1 0x20 DUP3 ADD SWAP1 POP DUP2 DUP2 SUB PUSH1 0x0 DUP4 ADD MSTORE PUSH2 0x36EE DUP2 DUP5 PUSH2 0x369B JUMP JUMPDEST SWAP1 POP SWAP3 SWAP2 POP POP JUMP JUMPDEST PUSH1 0x0 PUSH1 0x20 DUP3 DUP5 SUB SLT ISZERO PUSH2 0x370C JUMPI PUSH2 0x370B PUSH2 0x33F9 JUMP JUMPDEST JUMPDEST PUSH1 0x0 PUSH2 0x371A DUP5 DUP3 DUP6 ADD PUSH2 0x3428 JUMP JUMPDEST SWAP2 POP POP SWAP3 SWAP2 POP POP JUMP JUMPDEST PUSH1 0x0 PUSH20 0xFFFFFFFFFFFFFFFFFFFFFFFFFFFFFFFFFFFFFFFF DUP3 AND SWAP1 POP SWAP2 SWAP1 POP JUMP JUMPDEST PUSH1 0x0 PUSH2 0x374E DUP3 PUSH2 0x3723 JUMP JUMPDEST SWAP1 POP SWAP2 SWAP1 POP JUMP JUMPDEST PUSH2 0x375E DUP2 PUSH2 0x3743 JUMP JUMPDEST DUP2 EQ PUSH2 0x3769 JUMPI PUSH1 0x0 DUP1 REVERT JUMPDEST POP JUMP JUMPDEST PUSH1 0x0 DUP2 CALLDATALOAD SWAP1 POP PUSH2 0x377B DUP2 PUSH2 0x3755 JUMP JUMPDEST SWAP3 SWAP2 POP POP JUMP JUMPDEST PUSH1 0x0 DUP2 SWAP1 POP SWAP2 SWAP1 POP JUMP JUMPDEST PUSH2 0x3794 DUP2 PUSH2 0x3781 JUMP JUMPDEST DUP2 EQ PUSH2 0x379F JUMPI PUSH1 0x0 DUP1 REVERT JUMPDEST POP JUMP JUMPDEST PUSH1 0x0 DUP2 CALLDATALOAD SWAP1 POP PUSH2 0x37B1 DUP2 PUSH2 0x378B JUMP JUMPDEST SWAP3 SWAP2 POP POP JUMP JUMPDEST PUSH1 0x0 DUP1 PUSH1 0x40 DUP4 DUP6 SUB SLT ISZERO PUSH2 0x37CE JUMPI PUSH2 0x37CD PUSH2 0x33F9 JUMP JUMPDEST JUMPDEST PUSH1 0x0 PUSH2 0x37DC DUP6 DUP3 DUP7 ADD PUSH2 0x376C JUMP JUMPDEST SWAP3 POP POP PUSH1 0x20 PUSH2 0x37ED DUP6 DUP3 DUP7 ADD PUSH2 0x37A2 JUMP JUMPDEST SWAP2 POP POP SWAP3 POP SWAP3 SWAP1 POP JUMP JUMPDEST PUSH1 0x0 DUP1 PUSH1 0x40 DUP4 DUP6 SUB SLT ISZERO PUSH2 0x380E JUMPI PUSH2 0x380D PUSH2 0x33F9 JUMP JUMPDEST JUMPDEST PUSH1 0x0 PUSH2 0x381C DUP6 DUP3 DUP7 ADD PUSH2 0x3428 JUMP JUMPDEST SWAP3 POP POP PUSH1 0x20 PUSH2 0x382D DUP6 DUP3 DUP7 ADD PUSH2 0x37A2 JUMP JUMPDEST SWAP2 POP POP SWAP3 POP SWAP3 SWAP1 POP JUMP JUMPDEST PUSH2 0x3840 DUP2 PUSH2 0x3781 JUMP JUMPDEST DUP3 MSTORE POP POP JUMP JUMPDEST PUSH1 0x0 PUSH1 0x20 DUP3 ADD SWAP1 POP PUSH2 0x385B PUSH1 0x0 DUP4 ADD DUP5 PUSH2 0x3837 JUMP JUMPDEST SWAP3 SWAP2 POP POP JUMP JUMPDEST PUSH1 0x0 DUP1 PUSH1 0x0 PUSH1 0x60 DUP5 DUP7 SUB SLT ISZERO PUSH2 0x387A JUMPI PUSH2 0x3879 PUSH2 0x33F9 JUMP JUMPDEST JUMPDEST PUSH1 0x0 PUSH2 0x3888 DUP7 DUP3 DUP8 ADD PUSH2 0x376C JUMP JUMPDEST SWAP4 POP POP PUSH1 0x20 PUSH2 0x3899 DUP7 DUP3 DUP8 ADD PUSH2 0x376C JUMP JUMPDEST SWAP3 POP POP PUSH1 0x40 PUSH2 0x38AA DUP7 DUP3 DUP8 ADD PUSH2 0x37A2 JUMP JUMPDEST SWAP2 POP POP SWAP3 POP SWAP3 POP SWAP3 JUMP JUMPDEST PUSH2 0x38BD DUP2 PUSH2 0x360E JUMP JUMPDEST DUP2 EQ PUSH2 0x38C8 JUMPI PUSH1 0x0 DUP1 REVERT JUMPDEST POP JUMP JUMPDEST PUSH1 0x0 DUP2 CALLDATALOAD SWAP1 POP PUSH2 0x38DA DUP2 PUSH2 0x38B4 JUMP JUMPDEST SWAP3 SWAP2 POP POP JUMP JUMPDEST PUSH1 0x0 DUP1 PUSH1 0x0 DUP1 PUSH1 0x0 DUP1 PUSH1 0x0 PUSH1 0xA0 DUP9 DUP11 SUB SLT ISZERO PUSH2 0x38FF JUMPI PUSH2 0x38FE PUSH2 0x33F9 JUMP JUMPDEST JUMPDEST PUSH1 0x0 PUSH2 0x390D DUP11 DUP3 DUP12 ADD PUSH2 0x3428 JUMP JUMPDEST SWAP8 POP POP PUSH1 0x20 DUP9 ADD CALLDATALOAD PUSH8 0xFFFFFFFFFFFFFFFF DUP2 GT ISZERO PUSH2 0x392E JUMPI PUSH2 0x392D PUSH2 0x33FE JUMP JUMPDEST JUMPDEST PUSH2 0x393A DUP11 DUP3 DUP12 ADD PUSH2 0x344C JUMP JUMPDEST SWAP7 POP SWAP7 POP POP PUSH1 0x40 PUSH2 0x394D DUP11 DUP3 DUP12 ADD PUSH2 0x37A2 JUMP JUMPDEST SWAP5 POP POP PUSH1 0x60 PUSH2 0x395E DUP11 DUP3 DUP12 ADD PUSH2 0x38CB JUMP JUMPDEST SWAP4 POP POP PUSH1 0x80 DUP9 ADD CALLDATALOAD PUSH8 0xFFFFFFFFFFFFFFFF DUP2 GT ISZERO PUSH2 0x397F JUMPI PUSH2 0x397E PUSH2 0x33FE JUMP JUMPDEST JUMPDEST PUSH2 0x398B DUP11 DUP3 DUP12 ADD PUSH2 0x344C JUMP JUMPDEST SWAP3 POP SWAP3 POP POP SWAP3 SWAP6 SWAP9 SWAP2 SWAP5 SWAP8 POP SWAP3 SWAP6 POP JUMP JUMPDEST PUSH1 0x0 PUSH1 0x40 DUP3 ADD SWAP1 POP PUSH2 0x39B1 PUSH1 0x0 DUP4 ADD DUP6 PUSH2 0x3837 JUMP JUMPDEST PUSH2 0x39BE PUSH1 0x20 DUP4 ADD DUP5 PUSH2 0x3837 JUMP JUMPDEST SWAP4 SWAP3 POP POP POP JUMP JUMPDEST PUSH1 0x0 PUSH1 0xFF DUP3 AND SWAP1 POP SWAP2 SWAP1 POP JUMP JUMPDEST PUSH2 0x39DB DUP2 PUSH2 0x39C5 JUMP JUMPDEST DUP3 MSTORE POP POP JUMP JUMPDEST PUSH1 0x0 PUSH1 0x20 DUP3 ADD SWAP1 POP PUSH2 0x39F6 PUSH1 0x0 DUP4 ADD DUP5 PUSH2 0x39D2 JUMP JUMPDEST SWAP3 SWAP2 POP POP JUMP JUMPDEST PUSH1 0x0 DUP1 PUSH1 0x0 PUSH1 0x40 DUP5 DUP7 SUB SLT ISZERO PUSH2 0x3A15 JUMPI PUSH2 0x3A14 PUSH2 0x33F9 JUMP JUMPDEST JUMPDEST PUSH1 0x0 PUSH2 0x3A23 DUP7 DUP3 DUP8 ADD PUSH2 0x3428 JUMP JUMPDEST SWAP4 POP POP PUSH1 0x20 DUP5 ADD CALLDATALOAD PUSH8 0xFFFFFFFFFFFFFFFF DUP2 GT ISZERO PUSH2 0x3A44 JUMPI PUSH2 0x3A43 PUSH2 0x33FE JUMP JUMPDEST JUMPDEST PUSH2 0x3A50 DUP7 DUP3 DUP8 ADD PUSH2 0x344C JUMP JUMPDEST SWAP3 POP SWAP3 POP POP SWAP3 POP SWAP3 POP SWAP3 JUMP JUMPDEST PUSH2 0x3A65 DUP2 PUSH2 0x3403 JUMP JUMPDEST DUP3 MSTORE POP POP JUMP JUMPDEST PUSH1 0x0 PUSH1 0x20 DUP3 ADD SWAP1 POP PUSH2 0x3A80 PUSH1 0x0 DUP4 ADD DUP5 PUSH2 0x3A5C JUMP JUMPDEST SWAP3 SWAP2 POP POP JUMP JUMPDEST PUSH1 0x0 PUSH2 0x3A91 DUP3 PUSH2 0x3723 JUMP JUMPDEST SWAP1 POP SWAP2 SWAP1 POP JUMP JUMPDEST PUSH2 0x3AA1 DUP2 PUSH2 0x3A86 JUMP JUMPDEST DUP2 EQ PUSH2 0x3AAC JUMPI PUSH1 0x0 DUP1 REVERT JUMPDEST POP JUMP JUMPDEST PUSH1 0x0 DUP2 CALLDATALOAD SWAP1 POP PUSH2 0x3ABE DUP2 PUSH2 0x3A98 JUMP JUMPDEST SWAP3 SWAP2 POP POP JUMP JUMPDEST PUSH1 0x0 DUP1 PUSH1 0x0 DUP1 PUSH1 0x0 DUP1 PUSH1 0x0 DUP1 PUSH1 0x0 PUSH1 0xE0 DUP11 DUP13 SUB SLT ISZERO PUSH2 0x3AE6 JUMPI PUSH2 0x3AE5 PUSH2 0x33F9 JUMP JUMPDEST JUMPDEST PUSH1 0x0 PUSH2 0x3AF4 DUP13 DUP3 DUP14 ADD PUSH2 0x376C JUMP JUMPDEST SWAP10 POP POP PUSH1 0x20 PUSH2 0x3B05 DUP13 DUP3 DUP14 ADD PUSH2 0x3428 JUMP JUMPDEST SWAP9 POP POP PUSH1 0x40 DUP11 ADD CALLDATALOAD PUSH8 0xFFFFFFFFFFFFFFFF DUP2 GT ISZERO PUSH2 0x3B26 JUMPI PUSH2 0x3B25 PUSH2 0x33FE JUMP JUMPDEST JUMPDEST PUSH2 0x3B32 DUP13 DUP3 DUP14 ADD PUSH2 0x344C JUMP JUMPDEST SWAP8 POP SWAP8 POP POP PUSH1 0x60 PUSH2 0x3B45 DUP13 DUP3 DUP14 ADD PUSH2 0x37A2 JUMP JUMPDEST SWAP6 POP POP PUSH1 0x80 PUSH2 0x3B56 DUP13 DUP3 DUP14 ADD PUSH2 0x3AAF JUMP JUMPDEST SWAP5 POP POP PUSH1 0xA0 PUSH2 0x3B67 DUP13 DUP3 DUP14 ADD PUSH2 0x376C JUMP JUMPDEST SWAP4 POP POP PUSH1 0xC0 DUP11 ADD CALLDATALOAD PUSH8 0xFFFFFFFFFFFFFFFF DUP2 GT ISZERO PUSH2 0x3B88 JUMPI PUSH2 0x3B87 PUSH2 0x33FE JUMP JUMPDEST JUMPDEST PUSH2 0x3B94 DUP13 DUP3 DUP14 ADD PUSH2 0x344C JUMP JUMPDEST SWAP3 POP SWAP3 POP POP SWAP3 SWAP6 SWAP9 POP SWAP3 SWAP6 SWAP9 POP SWAP3 SWAP6 SWAP9 JUMP JUMPDEST PUSH1 0x0 DUP1 REVERT JUMPDEST PUSH32 0x4E487B7100000000000000000000000000000000000000000000000000000000 PUSH1 0x0 MSTORE PUSH1 0x41 PUSH1 0x4 MSTORE PUSH1 0x24 PUSH1 0x0 REVERT JUMPDEST PUSH2 0x3BE3 DUP3 PUSH2 0x368A JUMP JUMPDEST DUP2 ADD DUP2 DUP2 LT PUSH8 0xFFFFFFFFFFFFFFFF DUP3 GT OR ISZERO PUSH2 0x3C02 JUMPI PUSH2 0x3C01 PUSH2 0x3BAB JUMP JUMPDEST JUMPDEST DUP1 PUSH1 0x40 MSTORE POP POP POP JUMP JUMPDEST PUSH1 0x0 PUSH2 0x3C15 PUSH2 0x33EF JUMP JUMPDEST SWAP1 POP PUSH2 0x3C21 DUP3 DUP3 PUSH2 0x3BDA JUMP JUMPDEST SWAP2 SWAP1 POP JUMP JUMPDEST PUSH1 0x0 PUSH8 0xFFFFFFFFFFFFFFFF DUP3 GT ISZERO PUSH2 0x3C41 JUMPI PUSH2 0x3C40 PUSH2 0x3BAB JUMP JUMPDEST JUMPDEST PUSH2 0x3C4A DUP3 PUSH2 0x368A JUMP JUMPDEST SWAP1 POP PUSH1 0x20 DUP2 ADD SWAP1 POP SWAP2 SWAP1 POP JUMP JUMPDEST DUP3 DUP2 DUP4 CALLDATACOPY PUSH1 0x0 DUP4 DUP4 ADD MSTORE POP POP POP JUMP JUMPDEST PUSH1 0x0 PUSH2 0x3C79 PUSH2 0x3C74 DUP5 PUSH2 0x3C26 JUMP JUMPDEST PUSH2 0x3C0B JUMP JUMPDEST SWAP1 POP DUP3 DUP2 MSTORE PUSH1 0x20 DUP2 ADD DUP5 DUP5 DUP5 ADD GT ISZERO PUSH2 0x3C95 JUMPI PUSH2 0x3C94 PUSH2 0x3BA6 JUMP JUMPDEST JUMPDEST PUSH2 0x3CA0 DUP5 DUP3 DUP6 PUSH2 0x3C57 JUMP JUMPDEST POP SWAP4 SWAP3 POP POP POP JUMP JUMPDEST PUSH1 0x0 DUP3 PUSH1 0x1F DUP4 ADD SLT PUSH2 0x3CBD JUMPI PUSH2 0x3CBC PUSH2 0x343D JUMP JUMPDEST JUMPDEST DUP2 CALLDATALOAD PUSH2 0x3CCD DUP5 DUP3 PUSH1 0x20 DUP7 ADD PUSH2 0x3C66 JUMP JUMPDEST SWAP2 POP POP SWAP3 SWAP2 POP POP JUMP JUMPDEST PUSH1 0x0 DUP1 PUSH1 0x0 PUSH1 0x60 DUP5 DUP7 SUB SLT ISZERO PUSH2 0x3CEF JUMPI PUSH2 0x3CEE PUSH2 0x33F9 JUMP JUMPDEST JUMPDEST PUSH1 0x0 PUSH2 0x3CFD DUP7 DUP3 DUP8 ADD PUSH2 0x3428 JUMP JUMPDEST SWAP4 POP POP PUSH1 0x20 DUP5 ADD CALLDATALOAD PUSH8 0xFFFFFFFFFFFFFFFF DUP2 GT ISZERO PUSH2 0x3D1E JUMPI PUSH2 0x3D1D PUSH2 0x33FE JUMP JUMPDEST JUMPDEST PUSH2 0x3D2A DUP7 DUP3 DUP8 ADD PUSH2 0x3CA8 JUMP JUMPDEST SWAP3 POP POP PUSH1 0x40 PUSH2 0x3D3B DUP7 DUP3 DUP8 ADD PUSH2 0x34CD JUMP JUMPDEST SWAP2 POP POP SWAP3 POP SWAP3 POP SWAP3 JUMP JUMPDEST PUSH1 0x0 DUP2 SWAP1 POP SWAP2 SWAP1 POP JUMP JUMPDEST PUSH2 0x3D58 DUP2 PUSH2 0x3D45 JUMP JUMPDEST DUP3 MSTORE POP POP JUMP JUMPDEST PUSH1 0x0 PUSH1 0x20 DUP3 ADD SWAP1 POP PUSH2 0x3D73 PUSH1 0x0 DUP4 ADD DUP5 PUSH2 0x3D4F JUMP JUMPDEST SWAP3 SWAP2 POP POP JUMP JUMPDEST PUSH1 0x0 PUSH1 0x20 DUP3 DUP5 SUB SLT ISZERO PUSH2 0x3D8F JUMPI PUSH2 0x3D8E PUSH2 0x33F9 JUMP JUMPDEST JUMPDEST PUSH1 0x0 PUSH2 0x3D9D DUP5 DUP3 DUP6 ADD PUSH2 0x376C JUMP JUMPDEST SWAP2 POP POP SWAP3 SWAP2 POP POP JUMP JUMPDEST PUSH1 0x0 DUP2 MLOAD SWAP1 POP SWAP2 SWAP1 POP JUMP JUMPDEST PUSH1 0x0 DUP3 DUP3 MSTORE PUSH1 0x20 DUP3 ADD SWAP1 POP SWAP3 SWAP2 POP POP JUMP JUMPDEST PUSH1 0x0 PUSH2 0x3DCD DUP3 PUSH2 0x3DA6 JUMP JUMPDEST PUSH2 0x3DD7 DUP2 DUP6 PUSH2 0x3DB1 JUMP JUMPDEST SWAP4 POP PUSH2 0x3DE7 DUP2 DUP6 PUSH1 0x20 DUP7 ADD PUSH2 0x3660 JUMP JUMPDEST PUSH2 0x3DF0 DUP2 PUSH2 0x368A JUMP JUMPDEST DUP5 ADD SWAP2 POP POP SWAP3 SWAP2 POP POP JUMP JUMPDEST PUSH1 0x0 PUSH1 0x20 DUP3 ADD SWAP1 POP DUP2 DUP2 SUB PUSH1 0x0 DUP4 ADD MSTORE PUSH2 0x3E15 DUP2 DUP5 PUSH2 0x3DC2 JUMP JUMPDEST SWAP1 POP SWAP3 SWAP2 POP POP JUMP JUMPDEST PUSH1 0x0 DUP1 PUSH1 0x40 DUP4 DUP6 SUB SLT ISZERO PUSH2 0x3E34 JUMPI PUSH2 0x3E33 PUSH2 0x33F9 JUMP JUMPDEST JUMPDEST PUSH1 0x0 PUSH2 0x3E42 DUP6 DUP3 DUP7 ADD PUSH2 0x3428 JUMP JUMPDEST SWAP3 POP POP PUSH1 0x20 PUSH2 0x3E53 DUP6 DUP3 DUP7 ADD PUSH2 0x3428 JUMP JUMPDEST SWAP2 POP POP SWAP3 POP SWAP3 SWAP1 POP JUMP JUMPDEST PUSH2 0x3E66 DUP2 PUSH2 0x3743 JUMP JUMPDEST DUP3 MSTORE POP POP JUMP JUMPDEST PUSH1 0x0 PUSH1 0x20 DUP3 ADD SWAP1 POP PUSH2 0x3E81 PUSH1 0x0 DUP4 ADD DUP5 PUSH2 0x3E5D JUMP JUMPDEST SWAP3 SWAP2 POP POP JUMP JUMPDEST PUSH1 0x0 DUP2 SWAP1 POP SWAP2 SWAP1 POP JUMP JUMPDEST PUSH1 0x0 PUSH2 0x3EAC PUSH2 0x3EA7 PUSH2 0x3EA2 DUP5 PUSH2 0x3723 JUMP JUMPDEST PUSH2 0x3E87 JUMP JUMPDEST PUSH2 0x3723 JUMP JUMPDEST SWAP1 POP SWAP2 SWAP1 POP JUMP JUMPDEST PUSH1 0x0 PUSH2 0x3EBE DUP3 PUSH2 0x3E91 JUMP JUMPDEST SWAP1 POP SWAP2 SWAP1 POP JUMP JUMPDEST PUSH1 0x0 PUSH2 0x3ED0 DUP3 PUSH2 0x3EB3 JUMP JUMPDEST SWAP1 POP SWAP2 SWAP1 POP JUMP JUMPDEST PUSH2 0x3EE0 DUP2 PUSH2 0x3EC5 JUMP JUMPDEST DUP3 MSTORE POP POP JUMP JUMPDEST PUSH1 0x0 PUSH1 0x20 DUP3 ADD SWAP1 POP PUSH2 0x3EFB PUSH1 0x0 DUP4 ADD DUP5 PUSH2 0x3ED7 JUMP JUMPDEST SWAP3 SWAP2 POP POP JUMP JUMPDEST PUSH1 0x0 DUP1 PUSH1 0x0 DUP1 PUSH1 0x0 PUSH1 0x80 DUP7 DUP9 SUB SLT ISZERO PUSH2 0x3F1D JUMPI PUSH2 0x3F1C PUSH2 0x33F9 JUMP JUMPDEST JUMPDEST PUSH1 0x0 PUSH2 0x3F2B DUP9 DUP3 DUP10 ADD PUSH2 0x3428 JUMP JUMPDEST SWAP6 POP POP PUSH1 0x20 PUSH2 0x3F3C DUP9 DUP3 DUP10 ADD PUSH2 0x3428 JUMP JUMPDEST SWAP5 POP POP PUSH1 0x40 PUSH2 0x3F4D DUP9 DUP3 DUP10 ADD PUSH2 0x37A2 JUMP JUMPDEST SWAP4 POP POP PUSH1 0x60 DUP7 ADD CALLDATALOAD PUSH8 0xFFFFFFFFFFFFFFFF DUP2 GT ISZERO PUSH2 0x3F6E JUMPI PUSH2 0x3F6D PUSH2 0x33FE JUMP JUMPDEST JUMPDEST PUSH2 0x3F7A DUP9 DUP3 DUP10 ADD PUSH2 0x344C JUMP JUMPDEST SWAP3 POP SWAP3 POP POP SWAP3 SWAP6 POP SWAP3 SWAP6 SWAP1 SWAP4 POP JUMP JUMPDEST PUSH1 0x0 DUP1 PUSH1 0x40 DUP4 DUP6 SUB SLT ISZERO PUSH2 0x3FA0 JUMPI PUSH2 0x3F9F PUSH2 0x33F9 JUMP JUMPDEST JUMPDEST PUSH1 0x0 PUSH2 0x3FAE DUP6 DUP3 DUP7 ADD PUSH2 0x376C JUMP JUMPDEST SWAP3 POP POP PUSH1 0x20 PUSH2 0x3FBF DUP6 DUP3 DUP7 ADD PUSH2 0x376C JUMP JUMPDEST SWAP2 POP POP SWAP3 POP SWAP3 SWAP1 POP JUMP JUMPDEST PUSH1 0x0 DUP1 PUSH1 0x0 PUSH1 0x60 DUP5 DUP7 SUB SLT ISZERO PUSH2 0x3FE2 JUMPI PUSH2 0x3FE1 PUSH2 0x33F9 JUMP JUMPDEST JUMPDEST PUSH1 0x0 PUSH2 0x3FF0 DUP7 DUP3 DUP8 ADD PUSH2 0x3428 JUMP JUMPDEST SWAP4 POP POP PUSH1 0x20 PUSH2 0x4001 DUP7 DUP3 DUP8 ADD PUSH2 0x3428 JUMP JUMPDEST SWAP3 POP POP PUSH1 0x40 PUSH2 0x4012 DUP7 DUP3 DUP8 ADD PUSH2 0x37A2 JUMP JUMPDEST SWAP2 POP POP SWAP3 POP SWAP3 POP SWAP3 JUMP JUMPDEST PUSH1 0x0 PUSH1 0x20 DUP3 DUP5 SUB SLT ISZERO PUSH2 0x4032 JUMPI PUSH2 0x4031 PUSH2 0x33F9 JUMP JUMPDEST JUMPDEST PUSH1 0x0 PUSH2 0x4040 DUP5 DUP3 DUP6 ADD PUSH2 0x38CB JUMP JUMPDEST SWAP2 POP POP SWAP3 SWAP2 POP POP JUMP JUMPDEST PUSH1 0x0 DUP1 PUSH1 0x0 DUP1 PUSH1 0x80 DUP6 DUP8 SUB SLT ISZERO PUSH2 0x4063 JUMPI PUSH2 0x4062 PUSH2 0x33F9 JUMP JUMPDEST JUMPDEST PUSH1 0x0 PUSH2 0x4071 DUP8 DUP3 DUP9 ADD PUSH2 0x3428 JUMP JUMPDEST SWAP5 POP POP PUSH1 0x20 PUSH2 0x4082 DUP8 DUP3 DUP9 ADD PUSH2 0x3428 JUMP JUMPDEST SWAP4 POP POP PUSH1 0x40 PUSH2 0x4093 DUP8 DUP3 DUP9 ADD PUSH2 0x376C JUMP JUMPDEST SWAP3 POP POP PUSH1 0x60 PUSH2 0x40A4 DUP8 DUP3 DUP9 ADD PUSH2 0x37A2 JUMP JUMPDEST SWAP2 POP POP SWAP3 SWAP6 SWAP2 SWAP5 POP SWAP3 POP JUMP JUMPDEST PUSH32 0x4C7A4170703A20696E76616C696420656E64706F696E742063616C6C65720000 PUSH1 0x0 DUP3 ADD MSTORE POP JUMP JUMPDEST PUSH1 0x0 PUSH2 0x40E6 PUSH1 0x1E DUP4 PUSH2 0x364F JUMP JUMPDEST SWAP2 POP PUSH2 0x40F1 DUP3 PUSH2 0x40B0 JUMP JUMPDEST PUSH1 0x20 DUP3 ADD SWAP1 POP SWAP2 SWAP1 POP JUMP JUMPDEST PUSH1 0x0 PUSH1 0x20 DUP3 ADD SWAP1 POP DUP2 DUP2 SUB PUSH1 0x0 DUP4 ADD MSTORE PUSH2 0x4115 DUP2 PUSH2 0x40D9 JUMP JUMPDEST SWAP1 POP SWAP2 SWAP1 POP JUMP JUMPDEST PUSH32 0x4E487B7100000000000000000000000000000000000000000000000000000000 PUSH1 0x0 MSTORE PUSH1 0x22 PUSH1 0x4 MSTORE PUSH1 0x24 PUSH1 0x0 REVERT JUMPDEST PUSH1 0x0 PUSH1 0x2 DUP3 DIV SWAP1 POP PUSH1 0x1 DUP3 AND DUP1 PUSH2 0x4163 JUMPI PUSH1 0x7F DUP3 AND SWAP2 POP JUMPDEST PUSH1 0x20 DUP3 LT DUP2 SUB PUSH2 0x4176 JUMPI PUSH2 0x4175 PUSH2 0x411C JUMP JUMPDEST JUMPDEST POP SWAP2 SWAP1 POP JUMP JUMPDEST PUSH1 0x0 DUP2 SWAP1 POP SWAP3 SWAP2 POP POP JUMP JUMPDEST PUSH1 0x0 PUSH2 0x4193 DUP4 DUP6 PUSH2 0x417C JUMP JUMPDEST SWAP4 POP PUSH2 0x41A0 DUP4 DUP6 DUP5 PUSH2 0x3C57 JUMP JUMPDEST DUP3 DUP5 ADD SWAP1 POP SWAP4 SWAP3 POP POP POP JUMP JUMPDEST PUSH1 0x0 PUSH2 0x41B9 DUP3 DUP5 DUP7 PUSH2 0x4187 JUMP JUMPDEST SWAP2 POP DUP2 SWAP1 POP SWAP4 SWAP3 POP POP POP JUMP JUMPDEST PUSH32 0x4C7A4170703A20696E76616C696420736F757263652073656E64696E6720636F PUSH1 0x0 DUP3 ADD MSTORE PUSH32 0x6E74726163740000000000000000000000000000000000000000000000000000 PUSH1 0x20 DUP3 ADD MSTORE POP JUMP JUMPDEST PUSH1 0x0 PUSH2 0x4221 PUSH1 0x26 DUP4 PUSH2 0x364F JUMP JUMPDEST SWAP2 POP PUSH2 0x422C DUP3 PUSH2 0x41C5 JUMP JUMPDEST PUSH1 0x40 DUP3 ADD SWAP1 POP SWAP2 SWAP1 POP JUMP JUMPDEST PUSH1 0x0 PUSH1 0x20 DUP3 ADD SWAP1 POP DUP2 DUP2 SUB PUSH1 0x0 DUP4 ADD MSTORE PUSH2 0x4250 DUP2 PUSH2 0x4214 JUMP JUMPDEST SWAP1 POP SWAP2 SWAP1 POP JUMP JUMPDEST PUSH1 0x0 PUSH2 0x4263 DUP4 DUP6 PUSH2 0x3DB1 JUMP JUMPDEST SWAP4 POP PUSH2 0x4270 DUP4 DUP6 DUP5 PUSH2 0x3C57 JUMP JUMPDEST PUSH2 0x4279 DUP4 PUSH2 0x368A JUMP JUMPDEST DUP5 ADD SWAP1 POP SWAP4 SWAP3 POP POP POP JUMP JUMPDEST PUSH1 0x0 PUSH1 0x60 DUP3 ADD SWAP1 POP PUSH2 0x4299 PUSH1 0x0 DUP4 ADD DUP8 PUSH2 0x3A5C JUMP JUMPDEST DUP2 DUP2 SUB PUSH1 0x20 DUP4 ADD MSTORE PUSH2 0x42AC DUP2 DUP6 DUP8 PUSH2 0x4257 JUMP JUMPDEST SWAP1 POP PUSH2 0x42BB PUSH1 0x40 DUP4 ADD DUP5 PUSH2 0x3837 JUMP JUMPDEST SWAP6 SWAP5 POP POP POP POP POP JUMP JUMPDEST PUSH1 0x0 PUSH1 0xA0 DUP3 ADD SWAP1 POP PUSH2 0x42D9 PUSH1 0x0 DUP4 ADD DUP10 PUSH2 0x3A5C JUMP JUMPDEST PUSH2 0x42E6 PUSH1 0x20 DUP4 ADD DUP9 PUSH2 0x3E5D JUMP JUMPDEST DUP2 DUP2 SUB PUSH1 0x40 DUP4 ADD MSTORE PUSH2 0x42F8 DUP2 DUP8 PUSH2 0x3DC2 JUMP JUMPDEST SWAP1 POP PUSH2 0x4307 PUSH1 0x60 DUP4 ADD DUP7 PUSH2 0x361A JUMP JUMPDEST DUP2 DUP2 SUB PUSH1 0x80 DUP4 ADD MSTORE PUSH2 0x431A DUP2 DUP5 DUP7 PUSH2 0x4257 JUMP JUMPDEST SWAP1 POP SWAP8 SWAP7 POP POP POP POP POP POP POP JUMP JUMPDEST PUSH1 0x0 DUP2 MLOAD SWAP1 POP PUSH2 0x4336 DUP2 PUSH2 0x378B JUMP JUMPDEST SWAP3 SWAP2 POP POP JUMP JUMPDEST PUSH1 0x0 DUP1 PUSH1 0x40 DUP4 DUP6 SUB SLT ISZERO PUSH2 0x4353 JUMPI PUSH2 0x4352 PUSH2 0x33F9 JUMP JUMPDEST JUMPDEST PUSH1 0x0 PUSH2 0x4361 DUP6 DUP3 DUP7 ADD PUSH2 0x4327 JUMP JUMPDEST SWAP3 POP POP PUSH1 0x20 PUSH2 0x4372 DUP6 DUP3 DUP7 ADD PUSH2 0x4327 JUMP JUMPDEST SWAP2 POP POP SWAP3 POP SWAP3 SWAP1 POP JUMP JUMPDEST PUSH32 0x4E487B7100000000000000000000000000000000000000000000000000000000 PUSH1 0x0 MSTORE PUSH1 0x11 PUSH1 0x4 MSTORE PUSH1 0x24 PUSH1 0x0 REVERT JUMPDEST PUSH1 0x0 PUSH2 0x43B6 DUP3 PUSH2 0x3781 JUMP JUMPDEST SWAP2 POP PUSH2 0x43C1 DUP4 PUSH2 0x3781 JUMP JUMPDEST SWAP3 POP DUP3 DUP3 ADD SWAP1 POP DUP1 DUP3 GT ISZERO PUSH2 0x43D9 JUMPI PUSH2 0x43D8 PUSH2 0x437C JUMP JUMPDEST JUMPDEST SWAP3 SWAP2 POP POP JUMP JUMPDEST PUSH1 0x0 PUSH1 0x40 DUP3 ADD SWAP1 POP PUSH2 0x43F4 PUSH1 0x0 DUP4 ADD DUP7 PUSH2 0x3A5C JUMP JUMPDEST DUP2 DUP2 SUB PUSH1 0x20 DUP4 ADD MSTORE PUSH2 0x4407 DUP2 DUP5 DUP7 PUSH2 0x4257 JUMP JUMPDEST SWAP1 POP SWAP5 SWAP4 POP POP POP POP JUMP JUMPDEST PUSH32 0x4E6F6E626C6F636B696E674C7A4170703A2063616C6C6572206D757374206265 PUSH1 0x0 DUP3 ADD MSTORE PUSH32 0x204C7A4170700000000000000000000000000000000000000000000000000000 PUSH1 0x20 DUP3 ADD MSTORE POP JUMP JUMPDEST PUSH1 0x0 PUSH2 0x446D PUSH1 0x26 DUP4 PUSH2 0x364F JUMP JUMPDEST SWAP2 POP PUSH2 0x4478 DUP3 PUSH2 0x4411 JUMP JUMPDEST PUSH1 0x40 DUP3 ADD SWAP1 POP SWAP2 SWAP1 POP JUMP JUMPDEST PUSH1 0x0 PUSH1 0x20 DUP3 ADD SWAP1 POP DUP2 DUP2 SUB PUSH1 0x0 DUP4 ADD MSTORE PUSH2 0x449C DUP2 PUSH2 0x4460 JUMP JUMPDEST SWAP1 POP SWAP2 SWAP1 POP JUMP JUMPDEST PUSH32 0x4C7A4170703A206E6F20747275737465642070617468207265636F7264000000 PUSH1 0x0 DUP3 ADD MSTORE POP JUMP JUMPDEST PUSH1 0x0 PUSH2 0x44D9 PUSH1 0x1D DUP4 PUSH2 0x364F JUMP JUMPDEST SWAP2 POP PUSH2 0x44E4 DUP3 PUSH2 0x44A3 JUMP JUMPDEST PUSH1 0x20 DUP3 ADD SWAP1 POP SWAP2 SWAP1 POP JUMP JUMPDEST PUSH1 0x0 PUSH1 0x20 DUP3 ADD SWAP1 POP DUP2 DUP2 SUB PUSH1 0x0 DUP4 ADD MSTORE PUSH2 0x4508 DUP2 PUSH2 0x44CC JUMP JUMPDEST SWAP1 POP SWAP2 SWAP1 POP JUMP JUMPDEST PUSH1 0x0 PUSH2 0x451A DUP3 PUSH2 0x3781 JUMP JUMPDEST SWAP2 POP PUSH2 0x4525 DUP4 PUSH2 0x3781 JUMP JUMPDEST SWAP3 POP DUP3 DUP3 SUB SWAP1 POP DUP2 DUP2 GT ISZERO PUSH2 0x453D JUMPI PUSH2 0x453C PUSH2 0x437C JUMP JUMPDEST JUMPDEST SWAP3 SWAP2 POP POP JUMP JUMPDEST PUSH32 0x45524332303A2064656372656173656420616C6C6F77616E63652062656C6F77 PUSH1 0x0 DUP3 ADD MSTORE PUSH32 0x207A65726F000000000000000000000000000000000000000000000000000000 PUSH1 0x20 DUP3 ADD MSTORE POP JUMP JUMPDEST PUSH1 0x0 PUSH2 0x459F PUSH1 0x25 DUP4 PUSH2 0x364F JUMP JUMPDEST SWAP2 POP PUSH2 0x45AA DUP3 PUSH2 0x4543 JUMP JUMPDEST PUSH1 0x40 DUP3 ADD SWAP1 POP SWAP2 SWAP1 POP JUMP JUMPDEST PUSH1 0x0 PUSH1 0x20 DUP3 ADD SWAP1 POP DUP2 DUP2 SUB PUSH1 0x0 DUP4 ADD MSTORE PUSH2 0x45CE DUP2 PUSH2 0x4592 JUMP JUMPDEST SWAP1 POP SWAP2 SWAP1 POP JUMP JUMPDEST PUSH1 0x0 DUP2 PUSH1 0x60 SHL SWAP1 POP SWAP2 SWAP1 POP JUMP JUMPDEST PUSH1 0x0 PUSH2 0x45ED DUP3 PUSH2 0x45D5 JUMP JUMPDEST SWAP1 POP SWAP2 SWAP1 POP JUMP JUMPDEST PUSH1 0x0 PUSH2 0x45FF DUP3 PUSH2 0x45E2 JUMP JUMPDEST SWAP1 POP SWAP2 SWAP1 POP JUMP JUMPDEST PUSH2 0x4617 PUSH2 0x4612 DUP3 PUSH2 0x3743 JUMP JUMPDEST PUSH2 0x45F4 JUMP JUMPDEST DUP3 MSTORE POP POP JUMP JUMPDEST PUSH1 0x0 PUSH2 0x462A DUP3 DUP6 DUP8 PUSH2 0x4187 JUMP JUMPDEST SWAP2 POP PUSH2 0x4636 DUP3 DUP5 PUSH2 0x4606 JUMP JUMPDEST PUSH1 0x14 DUP3 ADD SWAP2 POP DUP2 SWAP1 POP SWAP5 SWAP4 POP POP POP POP JUMP JUMPDEST PUSH1 0x0 DUP2 SWAP1 POP DUP2 PUSH1 0x0 MSTORE PUSH1 0x20 PUSH1 0x0 KECCAK256 SWAP1 POP SWAP2 SWAP1 POP JUMP JUMPDEST PUSH1 0x0 PUSH1 0x20 PUSH1 0x1F DUP4 ADD DIV SWAP1 POP SWAP2 SWAP1 POP JUMP JUMPDEST PUSH1 0x0 DUP3 DUP3 SHL SWAP1 POP SWAP3 SWAP2 POP POP JUMP JUMPDEST PUSH1 0x0 PUSH1 0x8 DUP4 MUL PUSH2 0x46A9 PUSH32 0xFFFFFFFFFFFFFFFFFFFFFFFFFFFFFFFFFFFFFFFFFFFFFFFFFFFFFFFFFFFFFFFF DUP3 PUSH2 0x466C JUMP JUMPDEST PUSH2 0x46B3 DUP7 DUP4 PUSH2 0x466C JUMP JUMPDEST SWAP6 POP DUP1 NOT DUP5 AND SWAP4 POP DUP1 DUP7 AND DUP5 OR SWAP3 POP POP POP SWAP4 SWAP3 POP POP POP JUMP JUMPDEST PUSH1 0x0 PUSH2 0x46E6 PUSH2 0x46E1 PUSH2 0x46DC DUP5 PUSH2 0x3781 JUMP JUMPDEST PUSH2 0x3E87 JUMP JUMPDEST PUSH2 0x3781 JUMP JUMPDEST SWAP1 POP SWAP2 SWAP1 POP JUMP JUMPDEST PUSH1 0x0 DUP2 SWAP1 POP SWAP2 SWAP1 POP JUMP JUMPDEST PUSH2 0x4700 DUP4 PUSH2 0x46CB JUMP JUMPDEST PUSH2 0x4714 PUSH2 0x470C DUP3 PUSH2 0x46ED JUMP JUMPDEST DUP5 DUP5 SLOAD PUSH2 0x4679 JUMP JUMPDEST DUP3 SSTORE POP POP POP POP JUMP JUMPDEST PUSH1 0x0 SWAP1 JUMP JUMPDEST PUSH2 0x4729 PUSH2 0x471C JUMP JUMPDEST PUSH2 0x4734 DUP2 DUP5 DUP5 PUSH2 0x46F7 JUMP JUMPDEST POP POP POP JUMP JUMPDEST JUMPDEST DUP2 DUP2 LT ISZERO PUSH2 0x4758 JUMPI PUSH2 0x474D PUSH1 0x0 DUP3 PUSH2 0x4721 JUMP JUMPDEST PUSH1 0x1 DUP2 ADD SWAP1 POP PUSH2 0x473A JUMP JUMPDEST POP POP JUMP JUMPDEST PUSH1 0x1F DUP3 GT ISZERO PUSH2 0x479D JUMPI PUSH2 0x476E DUP2 PUSH2 0x4647 JUMP JUMPDEST PUSH2 0x4777 DUP5 PUSH2 0x465C JUMP JUMPDEST DUP2 ADD PUSH1 0x20 DUP6 LT ISZERO PUSH2 0x4786 JUMPI DUP2 SWAP1 POP JUMPDEST PUSH2 0x479A PUSH2 0x4792 DUP6 PUSH2 0x465C JUMP JUMPDEST DUP4 ADD DUP3 PUSH2 0x4739 JUMP JUMPDEST POP POP JUMPDEST POP POP POP JUMP JUMPDEST PUSH1 0x0 DUP3 DUP3 SHR SWAP1 POP SWAP3 SWAP2 POP POP JUMP JUMPDEST PUSH1 0x0 PUSH2 0x47C0 PUSH1 0x0 NOT DUP5 PUSH1 0x8 MUL PUSH2 0x47A2 JUMP JUMPDEST NOT DUP1 DUP4 AND SWAP2 POP POP SWAP3 SWAP2 POP POP JUMP JUMPDEST PUSH1 0x0 PUSH2 0x47D9 DUP4 DUP4 PUSH2 0x47AF JUMP JUMPDEST SWAP2 POP DUP3 PUSH1 0x2 MUL DUP3 OR SWAP1 POP SWAP3 SWAP2 POP POP JUMP JUMPDEST PUSH2 0x47F2 DUP3 PUSH2 0x3DA6 JUMP JUMPDEST PUSH8 0xFFFFFFFFFFFFFFFF DUP2 GT ISZERO PUSH2 0x480B JUMPI PUSH2 0x480A PUSH2 0x3BAB JUMP JUMPDEST JUMPDEST PUSH2 0x4815 DUP3 SLOAD PUSH2 0x414B JUMP JUMPDEST PUSH2 0x4820 DUP3 DUP3 DUP6 PUSH2 0x475C JUMP JUMPDEST PUSH1 0x0 PUSH1 0x20 SWAP1 POP PUSH1 0x1F DUP4 GT PUSH1 0x1 DUP2 EQ PUSH2 0x4853 JUMPI PUSH1 0x0 DUP5 ISZERO PUSH2 0x4841 JUMPI DUP3 DUP8 ADD MLOAD SWAP1 POP JUMPDEST PUSH2 0x484B DUP6 DUP3 PUSH2 0x47CD JUMP JUMPDEST DUP7 SSTORE POP PUSH2 0x48B3 JUMP JUMPDEST PUSH1 0x1F NOT DUP5 AND PUSH2 0x4861 DUP7 PUSH2 0x4647 JUMP JUMPDEST PUSH1 0x0 JUMPDEST DUP3 DUP2 LT ISZERO PUSH2 0x4889 JUMPI DUP5 DUP10 ADD MLOAD DUP3 SSTORE PUSH1 0x1 DUP3 ADD SWAP2 POP PUSH1 0x20 DUP6 ADD SWAP5 POP PUSH1 0x20 DUP2 ADD SWAP1 POP PUSH2 0x4864 JUMP JUMPDEST DUP7 DUP4 LT ISZERO PUSH2 0x48A6 JUMPI DUP5 DUP10 ADD MLOAD PUSH2 0x48A2 PUSH1 0x1F DUP10 AND DUP3 PUSH2 0x47AF JUMP JUMPDEST DUP4 SSTORE POP JUMPDEST PUSH1 0x1 PUSH1 0x2 DUP9 MUL ADD DUP9 SSTORE POP POP POP JUMPDEST POP POP POP POP POP POP JUMP JUMPDEST PUSH1 0x0 PUSH1 0x80 DUP3 ADD SWAP1 POP PUSH2 0x48D0 PUSH1 0x0 DUP4 ADD DUP9 PUSH2 0x3A5C JUMP JUMPDEST PUSH2 0x48DD PUSH1 0x20 DUP4 ADD DUP8 PUSH2 0x3A5C JUMP JUMPDEST PUSH2 0x48EA PUSH1 0x40 DUP4 ADD DUP7 PUSH2 0x3837 JUMP JUMPDEST DUP2 DUP2 SUB PUSH1 0x60 DUP4 ADD MSTORE PUSH2 0x48FD DUP2 DUP5 DUP7 PUSH2 0x4257 JUMP JUMPDEST SWAP1 POP SWAP7 SWAP6 POP POP POP POP POP POP JUMP JUMPDEST PUSH32 0x4E6F6E626C6F636B696E674C7A4170703A206E6F2073746F726564206D657373 PUSH1 0x0 DUP3 ADD MSTORE PUSH32 0x6167650000000000000000000000000000000000000000000000000000000000 PUSH1 0x20 DUP3 ADD MSTORE POP JUMP JUMPDEST PUSH1 0x0 PUSH2 0x4965 PUSH1 0x23 DUP4 PUSH2 0x364F JUMP JUMPDEST SWAP2 POP PUSH2 0x4970 DUP3 PUSH2 0x4909 JUMP JUMPDEST PUSH1 0x40 DUP3 ADD SWAP1 POP SWAP2 SWAP1 POP JUMP JUMPDEST PUSH1 0x0 PUSH1 0x20 DUP3 ADD SWAP1 POP DUP2 DUP2 SUB PUSH1 0x0 DUP4 ADD MSTORE PUSH2 0x4994 DUP2 PUSH2 0x4958 JUMP JUMPDEST SWAP1 POP SWAP2 SWAP1 POP JUMP JUMPDEST PUSH32 0x4E6F6E626C6F636B696E674C7A4170703A20696E76616C6964207061796C6F61 PUSH1 0x0 DUP3 ADD MSTORE PUSH32 0x6400000000000000000000000000000000000000000000000000000000000000 PUSH1 0x20 DUP3 ADD MSTORE POP JUMP JUMPDEST PUSH1 0x0 PUSH2 0x49F7 PUSH1 0x21 DUP4 PUSH2 0x364F JUMP JUMPDEST SWAP2 POP PUSH2 0x4A02 DUP3 PUSH2 0x499B JUMP JUMPDEST PUSH1 0x40 DUP3 ADD SWAP1 POP SWAP2 SWAP1 POP JUMP JUMPDEST PUSH1 0x0 PUSH1 0x20 DUP3 ADD SWAP1 POP DUP2 DUP2 SUB PUSH1 0x0 DUP4 ADD MSTORE PUSH2 0x4A26 DUP2 PUSH2 0x49EA JUMP JUMPDEST SWAP1 POP SWAP2 SWAP1 POP JUMP JUMPDEST PUSH2 0x4A36 DUP2 PUSH2 0x34A2 JUMP JUMPDEST DUP3 MSTORE POP POP JUMP JUMPDEST PUSH1 0x0 PUSH1 0x80 DUP3 ADD SWAP1 POP PUSH2 0x4A51 PUSH1 0x0 DUP4 ADD DUP9 PUSH2 0x3A5C JUMP JUMPDEST DUP2 DUP2 SUB PUSH1 0x20 DUP4 ADD MSTORE PUSH2 0x4A64 DUP2 DUP7 DUP9 PUSH2 0x4257 JUMP JUMPDEST SWAP1 POP PUSH2 0x4A73 PUSH1 0x40 DUP4 ADD DUP6 PUSH2 0x4A2D JUMP JUMPDEST PUSH2 0x4A80 PUSH1 0x60 DUP4 ADD DUP5 PUSH2 0x3D4F JUMP JUMPDEST SWAP7 SWAP6 POP POP POP POP POP POP JUMP JUMPDEST PUSH32 0x4C7A4170703A20696E76616C6964206D696E4761730000000000000000000000 PUSH1 0x0 DUP3 ADD MSTORE POP JUMP JUMPDEST PUSH1 0x0 PUSH2 0x4AC0 PUSH1 0x15 DUP4 PUSH2 0x364F JUMP JUMPDEST SWAP2 POP PUSH2 0x4ACB DUP3 PUSH2 0x4A8A JUMP JUMPDEST PUSH1 0x20 DUP3 ADD SWAP1 POP SWAP2 SWAP1 POP JUMP JUMPDEST PUSH1 0x0 PUSH1 0x20 DUP3 ADD SWAP1 POP DUP2 DUP2 SUB PUSH1 0x0 DUP4 ADD MSTORE PUSH2 0x4AEF DUP2 PUSH2 0x4AB3 JUMP JUMPDEST SWAP1 POP SWAP2 SWAP1 POP JUMP JUMPDEST PUSH1 0x0 PUSH1 0x60 DUP3 ADD SWAP1 POP PUSH2 0x4B0B PUSH1 0x0 DUP4 ADD DUP7 PUSH2 0x3A5C JUMP JUMPDEST PUSH2 0x4B18 PUSH1 0x20 DUP4 ADD DUP6 PUSH2 0x3A5C JUMP JUMPDEST PUSH2 0x4B25 PUSH1 0x40 DUP4 ADD DUP5 PUSH2 0x3837 JUMP JUMPDEST SWAP5 SWAP4 POP POP POP POP JUMP JUMPDEST PUSH1 0x0 DUP3 SWAP1 POP SWAP3 SWAP2 POP POP JUMP JUMPDEST PUSH2 0x4B42 DUP4 DUP4 PUSH2 0x4B2D JUMP JUMPDEST PUSH8 0xFFFFFFFFFFFFFFFF DUP2 GT ISZERO PUSH2 0x4B5B JUMPI PUSH2 0x4B5A PUSH2 0x3BAB JUMP JUMPDEST JUMPDEST PUSH2 0x4B65 DUP3 SLOAD PUSH2 0x414B JUMP JUMPDEST PUSH2 0x4B70 DUP3 DUP3 DUP6 PUSH2 0x475C JUMP JUMPDEST PUSH1 0x0 PUSH1 0x1F DUP4 GT PUSH1 0x1 DUP2 EQ PUSH2 0x4B9F JUMPI PUSH1 0x0 DUP5 ISZERO PUSH2 0x4B8D JUMPI DUP3 DUP8 ADD CALLDATALOAD SWAP1 POP JUMPDEST PUSH2 0x4B97 DUP6 DUP3 PUSH2 0x47CD JUMP JUMPDEST DUP7 SSTORE POP PUSH2 0x4BFF JUMP JUMPDEST PUSH1 0x1F NOT DUP5 AND PUSH2 0x4BAD DUP7 PUSH2 0x4647 JUMP JUMPDEST PUSH1 0x0 JUMPDEST DUP3 DUP2 LT ISZERO PUSH2 0x4BD5 JUMPI DUP5 DUP10 ADD CALLDATALOAD DUP3 SSTORE PUSH1 0x1 DUP3 ADD SWAP2 POP PUSH1 0x20 DUP6 ADD SWAP5 POP PUSH1 0x20 DUP2 ADD SWAP1 POP PUSH2 0x4BB0 JUMP JUMPDEST DUP7 DUP4 LT ISZERO PUSH2 0x4BF2 JUMPI DUP5 DUP10 ADD CALLDATALOAD PUSH2 0x4BEE PUSH1 0x1F DUP10 AND DUP3 PUSH2 0x47AF JUMP JUMPDEST DUP4 SSTORE POP JUMPDEST PUSH1 0x1 PUSH1 0x2 DUP9 MUL ADD DUP9 SSTORE POP POP POP JUMPDEST POP POP POP POP POP POP POP JUMP JUMPDEST PUSH32 0x4F776E61626C653A206E6577206F776E657220697320746865207A65726F2061 PUSH1 0x0 DUP3 ADD MSTORE PUSH32 0x6464726573730000000000000000000000000000000000000000000000000000 PUSH1 0x20 DUP3 ADD MSTORE POP JUMP JUMPDEST PUSH1 0x0 PUSH2 0x4C64 PUSH1 0x26 DUP4 PUSH2 0x364F JUMP JUMPDEST SWAP2 POP PUSH2 0x4C6F DUP3 PUSH2 0x4C08 JUMP JUMPDEST PUSH1 0x40 DUP3 ADD SWAP1 POP SWAP2 SWAP1 POP JUMP JUMPDEST PUSH1 0x0 PUSH1 0x20 DUP3 ADD SWAP1 POP DUP2 DUP2 SUB PUSH1 0x0 DUP4 ADD MSTORE PUSH2 0x4C93 DUP2 PUSH2 0x4C57 JUMP JUMPDEST SWAP1 POP SWAP2 SWAP1 POP JUMP JUMPDEST PUSH1 0x0 PUSH1 0x80 DUP3 ADD SWAP1 POP PUSH2 0x4CAF PUSH1 0x0 DUP4 ADD DUP8 PUSH2 0x3A5C JUMP JUMPDEST PUSH2 0x4CBC PUSH1 0x20 DUP4 ADD DUP7 PUSH2 0x3A5C JUMP JUMPDEST PUSH2 0x4CC9 PUSH1 0x40 DUP4 ADD DUP6 PUSH2 0x3E5D JUMP JUMPDEST PUSH2 0x4CD6 PUSH1 0x60 DUP4 ADD DUP5 PUSH2 0x3837 JUMP JUMPDEST SWAP6 SWAP5 POP POP POP POP POP JUMP JUMPDEST PUSH1 0x0 PUSH2 0x4CF2 PUSH2 0x4CED DUP5 PUSH2 0x3C26 JUMP JUMPDEST PUSH2 0x3C0B JUMP JUMPDEST SWAP1 POP DUP3 DUP2 MSTORE PUSH1 0x20 DUP2 ADD DUP5 DUP5 DUP5 ADD GT ISZERO PUSH2 0x4D0E JUMPI PUSH2 0x4D0D PUSH2 0x3BA6 JUMP JUMPDEST JUMPDEST PUSH2 0x4D19 DUP5 DUP3 DUP6 PUSH2 0x3660 JUMP JUMPDEST POP SWAP4 SWAP3 POP POP POP JUMP JUMPDEST PUSH1 0x0 DUP3 PUSH1 0x1F DUP4 ADD SLT PUSH2 0x4D36 JUMPI PUSH2 0x4D35 PUSH2 0x343D JUMP JUMPDEST JUMPDEST DUP2 MLOAD PUSH2 0x4D46 DUP5 DUP3 PUSH1 0x20 DUP7 ADD PUSH2 0x4CDF JUMP JUMPDEST SWAP2 POP POP SWAP3 SWAP2 POP POP JUMP JUMPDEST PUSH1 0x0 PUSH1 0x20 DUP3 DUP5 SUB SLT ISZERO PUSH2 0x4D65 JUMPI PUSH2 0x4D64 PUSH2 0x33F9 JUMP JUMPDEST JUMPDEST PUSH1 0x0 DUP3 ADD MLOAD PUSH8 0xFFFFFFFFFFFFFFFF DUP2 GT ISZERO PUSH2 0x4D83 JUMPI PUSH2 0x4D82 PUSH2 0x33FE JUMP JUMPDEST JUMPDEST PUSH2 0x4D8F DUP5 DUP3 DUP6 ADD PUSH2 0x4D21 JUMP JUMPDEST SWAP2 POP POP SWAP3 SWAP2 POP POP JUMP JUMPDEST PUSH1 0x0 PUSH1 0x80 DUP3 ADD SWAP1 POP PUSH2 0x4DAD PUSH1 0x0 DUP4 ADD DUP8 PUSH2 0x3A5C JUMP JUMPDEST DUP2 DUP2 SUB PUSH1 0x20 DUP4 ADD MSTORE PUSH2 0x4DBF DUP2 DUP7 PUSH2 0x3DC2 JUMP JUMPDEST SWAP1 POP PUSH2 0x4DCE PUSH1 0x40 DUP4 ADD DUP6 PUSH2 0x4A2D JUMP JUMPDEST DUP2 DUP2 SUB PUSH1 0x60 DUP4 ADD MSTORE PUSH2 0x4DE0 DUP2 DUP5 PUSH2 0x3DC2 JUMP JUMPDEST SWAP1 POP SWAP6 SWAP5 POP POP POP POP POP JUMP JUMPDEST PUSH32 0x4F776E61626C653A2063616C6C6572206973206E6F7420746865206F776E6572 PUSH1 0x0 DUP3 ADD MSTORE POP JUMP JUMPDEST PUSH1 0x0 PUSH2 0x4E21 PUSH1 0x20 DUP4 PUSH2 0x364F JUMP JUMPDEST SWAP2 POP PUSH2 0x4E2C DUP3 PUSH2 0x4DEB JUMP JUMPDEST PUSH1 0x20 DUP3 ADD SWAP1 POP SWAP2 SWAP1 POP JUMP JUMPDEST PUSH1 0x0 PUSH1 0x20 DUP3 ADD SWAP1 POP DUP2 DUP2 SUB PUSH1 0x0 DUP4 ADD MSTORE PUSH2 0x4E50 DUP2 PUSH2 0x4E14 JUMP JUMPDEST SWAP1 POP SWAP2 SWAP1 POP JUMP JUMPDEST PUSH32 0x45524332303A20617070726F76652066726F6D20746865207A65726F20616464 PUSH1 0x0 DUP3 ADD MSTORE PUSH32 0x7265737300000000000000000000000000000000000000000000000000000000 PUSH1 0x20 DUP3 ADD MSTORE POP JUMP JUMPDEST PUSH1 0x0 PUSH2 0x4EB3 PUSH1 0x24 DUP4 PUSH2 0x364F JUMP JUMPDEST SWAP2 POP PUSH2 0x4EBE DUP3 PUSH2 0x4E57 JUMP JUMPDEST PUSH1 0x40 DUP3 ADD SWAP1 POP SWAP2 SWAP1 POP JUMP JUMPDEST PUSH1 0x0 PUSH1 0x20 DUP3 ADD SWAP1 POP DUP2 DUP2 SUB PUSH1 0x0 DUP4 ADD MSTORE PUSH2 0x4EE2 DUP2 PUSH2 0x4EA6 JUMP JUMPDEST SWAP1 POP SWAP2 SWAP1 POP JUMP JUMPDEST PUSH32 0x45524332303A20617070726F766520746F20746865207A65726F206164647265 PUSH1 0x0 DUP3 ADD MSTORE PUSH32 0x7373000000000000000000000000000000000000000000000000000000000000 PUSH1 0x20 DUP3 ADD MSTORE POP JUMP JUMPDEST PUSH1 0x0 PUSH2 0x4F45 PUSH1 0x22 DUP4 PUSH2 0x364F JUMP JUMPDEST SWAP2 POP PUSH2 0x4F50 DUP3 PUSH2 0x4EE9 JUMP JUMPDEST PUSH1 0x40 DUP3 ADD SWAP1 POP SWAP2 SWAP1 POP JUMP JUMPDEST PUSH1 0x0 PUSH1 0x20 DUP3 ADD SWAP1 POP DUP2 DUP2 SUB PUSH1 0x0 DUP4 ADD MSTORE PUSH2 0x4F74 DUP2 PUSH2 0x4F38 JUMP JUMPDEST SWAP1 POP SWAP2 SWAP1 POP JUMP JUMPDEST PUSH32 0x45524332303A20696E73756666696369656E7420616C6C6F77616E6365000000 PUSH1 0x0 DUP3 ADD MSTORE POP JUMP JUMPDEST PUSH1 0x0 PUSH2 0x4FB1 PUSH1 0x1D DUP4 PUSH2 0x364F JUMP JUMPDEST SWAP2 POP PUSH2 0x4FBC DUP3 PUSH2 0x4F7B JUMP JUMPDEST PUSH1 0x20 DUP3 ADD SWAP1 POP SWAP2 SWAP1 POP JUMP JUMPDEST PUSH1 0x0 PUSH1 0x20 DUP3 ADD SWAP1 POP DUP2 DUP2 SUB PUSH1 0x0 DUP4 ADD MSTORE PUSH2 0x4FE0 DUP2 PUSH2 0x4FA4 JUMP JUMPDEST SWAP1 POP SWAP2 SWAP1 POP JUMP JUMPDEST PUSH32 0x45524332303A207472616E736665722066726F6D20746865207A65726F206164 PUSH1 0x0 DUP3 ADD MSTORE PUSH32 0x6472657373000000000000000000000000000000000000000000000000000000 PUSH1 0x20 DUP3 ADD MSTORE POP JUMP JUMPDEST PUSH1 0x0 PUSH2 0x5043 PUSH1 0x25 DUP4 PUSH2 0x364F JUMP JUMPDEST SWAP2 POP PUSH2 0x504E DUP3 PUSH2 0x4FE7 JUMP JUMPDEST PUSH1 0x40 DUP3 ADD SWAP1 POP SWAP2 SWAP1 POP JUMP JUMPDEST PUSH1 0x0 PUSH1 0x20 DUP3 ADD SWAP1 POP DUP2 DUP2 SUB PUSH1 0x0 DUP4 ADD MSTORE PUSH2 0x5072 DUP2 PUSH2 0x5036 JUMP JUMPDEST SWAP1 POP SWAP2 SWAP1 POP JUMP JUMPDEST PUSH32 0x45524332303A207472616E7366657220746F20746865207A65726F2061646472 PUSH1 0x0 DUP3 ADD MSTORE PUSH32 0x6573730000000000000000000000000000000000000000000000000000000000 PUSH1 0x20 DUP3 ADD MSTORE POP JUMP JUMPDEST PUSH1 0x0 PUSH2 0x50D5 PUSH1 0x23 DUP4 PUSH2 0x364F JUMP JUMPDEST SWAP2 POP PUSH2 0x50E0 DUP3 PUSH2 0x5079 JUMP JUMPDEST PUSH1 0x40 DUP3 ADD SWAP1 POP SWAP2 SWAP1 POP JUMP JUMPDEST PUSH1 0x0 PUSH1 0x20 DUP3 ADD SWAP1 POP DUP2 DUP2 SUB PUSH1 0x0 DUP4 ADD MSTORE PUSH2 0x5104 DUP2 PUSH2 0x50C8 JUMP JUMPDEST SWAP1 POP SWAP2 SWAP1 POP JUMP JUMPDEST PUSH32 0x45524332303A207472616E7366657220616D6F756E7420657863656564732062 PUSH1 0x0 DUP3 ADD MSTORE PUSH32 0x616C616E63650000000000000000000000000000000000000000000000000000 PUSH1 0x20 DUP3 ADD MSTORE POP JUMP JUMPDEST PUSH1 0x0 PUSH2 0x5167 PUSH1 0x26 DUP4 PUSH2 0x364F JUMP JUMPDEST SWAP2 POP PUSH2 0x5172 DUP3 PUSH2 0x510B JUMP JUMPDEST PUSH1 0x40 DUP3 ADD SWAP1 POP SWAP2 SWAP1 POP JUMP JUMPDEST PUSH1 0x0 PUSH1 0x20 DUP3 ADD SWAP1 POP DUP2 DUP2 SUB PUSH1 0x0 DUP4 ADD MSTORE PUSH2 0x5196 DUP2 PUSH2 0x515A JUMP JUMPDEST SWAP1 POP SWAP2 SWAP1 POP JUMP JUMPDEST PUSH1 0x0 PUSH1 0x60 DUP3 ADD SWAP1 POP PUSH2 0x51B2 PUSH1 0x0 DUP4 ADD DUP7 PUSH2 0x3A5C JUMP JUMPDEST DUP2 DUP2 SUB PUSH1 0x20 DUP4 ADD MSTORE PUSH2 0x51C4 DUP2 DUP6 PUSH2 0x3DC2 JUMP JUMPDEST SWAP1 POP PUSH2 0x51D3 PUSH1 0x40 DUP4 ADD DUP5 PUSH2 0x3837 JUMP JUMPDEST SWAP5 SWAP4 POP POP POP POP JUMP JUMPDEST PUSH1 0x0 PUSH1 0x40 DUP3 ADD SWAP1 POP DUP2 DUP2 SUB PUSH1 0x0 DUP4 ADD MSTORE PUSH2 0x51F5 DUP2 DUP6 PUSH2 0x3DC2 JUMP JUMPDEST SWAP1 POP PUSH2 0x5204 PUSH1 0x20 DUP4 ADD DUP5 PUSH2 0x3837 JUMP JUMPDEST SWAP4 SWAP3 POP POP POP JUMP JUMPDEST PUSH32 0x4F4654436F72653A20756E6B6E6F776E207061636B6574207479706500000000 PUSH1 0x0 DUP3 ADD MSTORE POP JUMP JUMPDEST PUSH1 0x0 PUSH2 0x5241 PUSH1 0x1C DUP4 PUSH2 0x364F JUMP JUMPDEST SWAP2 POP PUSH2 0x524C DUP3 PUSH2 0x520B JUMP JUMPDEST PUSH1 0x20 DUP3 ADD SWAP1 POP SWAP2 SWAP1 POP JUMP JUMPDEST PUSH1 0x0 PUSH1 0x20 DUP3 ADD SWAP1 POP DUP2 DUP2 SUB PUSH1 0x0 DUP4 ADD MSTORE PUSH2 0x5270 DUP2 PUSH2 0x5234 JUMP JUMPDEST SWAP1 POP SWAP2 SWAP1 POP JUMP JUMPDEST PUSH32 0x736C6963655F6F766572666C6F77000000000000000000000000000000000000 PUSH1 0x0 DUP3 ADD MSTORE POP JUMP JUMPDEST PUSH1 0x0 PUSH2 0x52AD PUSH1 0xE DUP4 PUSH2 0x364F JUMP JUMPDEST SWAP2 POP PUSH2 0x52B8 DUP3 PUSH2 0x5277 JUMP JUMPDEST PUSH1 0x20 DUP3 ADD SWAP1 POP SWAP2 SWAP1 POP JUMP JUMPDEST PUSH1 0x0 PUSH1 0x20 DUP3 ADD SWAP1 POP DUP2 DUP2 SUB PUSH1 0x0 DUP4 ADD MSTORE PUSH2 0x52DC DUP2 PUSH2 0x52A0 JUMP JUMPDEST SWAP1 POP SWAP2 SWAP1 POP JUMP JUMPDEST PUSH32 0x736C6963655F6F75744F66426F756E6473000000000000000000000000000000 PUSH1 0x0 DUP3 ADD MSTORE POP JUMP JUMPDEST PUSH1 0x0 PUSH2 0x5319 PUSH1 0x11 DUP4 PUSH2 0x364F JUMP JUMPDEST SWAP2 POP PUSH2 0x5324 DUP3 PUSH2 0x52E3 JUMP JUMPDEST PUSH1 0x20 DUP3 ADD SWAP1 POP SWAP2 SWAP1 POP JUMP JUMPDEST PUSH1 0x0 PUSH1 0x20 DUP3 ADD SWAP1 POP DUP2 DUP2 SUB PUSH1 0x0 DUP4 ADD MSTORE PUSH2 0x5348 DUP2 PUSH2 0x530C JUMP JUMPDEST SWAP1 POP SWAP2 SWAP1 POP JUMP JUMPDEST PUSH1 0x0 PUSH2 0x535A DUP3 PUSH2 0x3DA6 JUMP JUMPDEST PUSH2 0x5364 DUP2 DUP6 PUSH2 0x417C JUMP JUMPDEST SWAP4 POP PUSH2 0x5374 DUP2 DUP6 PUSH1 0x20 DUP7 ADD PUSH2 0x3660 JUMP JUMPDEST DUP1 DUP5 ADD SWAP2 POP POP SWAP3 SWAP2 POP POP JUMP JUMPDEST PUSH1 0x0 PUSH2 0x538C DUP3 DUP5 PUSH2 0x534F JUMP JUMPDEST SWAP2 POP DUP2 SWAP1 POP SWAP3 SWAP2 POP POP JUMP JUMPDEST PUSH1 0x0 PUSH1 0xA0 DUP3 ADD SWAP1 POP PUSH2 0x53AC PUSH1 0x0 DUP4 ADD DUP9 PUSH2 0x3A5C JUMP JUMPDEST DUP2 DUP2 SUB PUSH1 0x20 DUP4 ADD MSTORE PUSH2 0x53BE DUP2 DUP8 PUSH2 0x3DC2 JUMP JUMPDEST SWAP1 POP PUSH2 0x53CD PUSH1 0x40 DUP4 ADD DUP7 PUSH2 0x4A2D JUMP JUMPDEST DUP2 DUP2 SUB PUSH1 0x60 DUP4 ADD MSTORE PUSH2 0x53DF DUP2 DUP6 PUSH2 0x3DC2 JUMP JUMPDEST SWAP1 POP DUP2 DUP2 SUB PUSH1 0x80 DUP4 ADD MSTORE PUSH2 0x53F3 DUP2 DUP5 PUSH2 0x3DC2 JUMP JUMPDEST SWAP1 POP SWAP7 SWAP6 POP POP POP POP POP POP JUMP JUMPDEST PUSH32 0x4F4654436F72653A205F61646170746572506172616D73206D75737420626520 PUSH1 0x0 DUP3 ADD MSTORE PUSH32 0x656D7074792E0000000000000000000000000000000000000000000000000000 PUSH1 0x20 DUP3 ADD MSTORE POP JUMP JUMPDEST PUSH1 0x0 PUSH2 0x545B PUSH1 0x26 DUP4 PUSH2 0x364F JUMP JUMPDEST SWAP2 POP PUSH2 0x5466 DUP3 PUSH2 0x53FF JUMP JUMPDEST PUSH1 0x40 DUP3 ADD SWAP1 POP SWAP2 SWAP1 POP JUMP JUMPDEST PUSH1 0x0 PUSH1 0x20 DUP3 ADD SWAP1 POP DUP2 DUP2 SUB PUSH1 0x0 DUP4 ADD MSTORE PUSH2 0x548A DUP2 PUSH2 0x544E JUMP JUMPDEST SWAP1 POP SWAP2 SWAP1 POP JUMP JUMPDEST PUSH32 0x4C7A4170703A2064657374696E6174696F6E20636861696E206973206E6F7420 PUSH1 0x0 DUP3 ADD MSTORE PUSH32 0x61207472757374656420736F7572636500000000000000000000000000000000 PUSH1 0x20 DUP3 ADD MSTORE POP JUMP JUMPDEST PUSH1 0x0 PUSH2 0x54ED PUSH1 0x30 DUP4 PUSH2 0x364F JUMP JUMPDEST SWAP2 POP PUSH2 0x54F8 DUP3 PUSH2 0x5491 JUMP JUMPDEST PUSH1 0x40 DUP3 ADD SWAP1 POP SWAP2 SWAP1 POP JUMP JUMPDEST PUSH1 0x0 PUSH1 0x20 DUP3 ADD SWAP1 POP DUP2 DUP2 SUB PUSH1 0x0 DUP4 ADD MSTORE PUSH2 0x551C DUP2 PUSH2 0x54E0 JUMP JUMPDEST SWAP1 POP SWAP2 SWAP1 POP JUMP JUMPDEST PUSH2 0x552C DUP2 PUSH2 0x3A86 JUMP JUMPDEST DUP3 MSTORE POP POP JUMP JUMPDEST PUSH1 0x0 PUSH1 0xC0 DUP3 ADD SWAP1 POP PUSH2 0x5547 PUSH1 0x0 DUP4 ADD DUP10 PUSH2 0x3A5C JUMP JUMPDEST DUP2 DUP2 SUB PUSH1 0x20 DUP4 ADD MSTORE PUSH2 0x5559 DUP2 DUP9 PUSH2 0x3DC2 JUMP JUMPDEST SWAP1 POP DUP2 DUP2 SUB PUSH1 0x40 DUP4 ADD MSTORE PUSH2 0x556D DUP2 DUP8 PUSH2 0x3DC2 JUMP JUMPDEST SWAP1 POP PUSH2 0x557C PUSH1 0x60 DUP4 ADD DUP7 PUSH2 0x5523 JUMP JUMPDEST PUSH2 0x5589 PUSH1 0x80 DUP4 ADD DUP6 PUSH2 0x3E5D JUMP JUMPDEST DUP2 DUP2 SUB PUSH1 0xA0 DUP4 ADD MSTORE PUSH2 0x559B DUP2 DUP5 PUSH2 0x3DC2 JUMP JUMPDEST SWAP1 POP SWAP8 SWAP7 POP POP POP POP POP POP POP JUMP JUMPDEST PUSH1 0x0 DUP2 MLOAD SWAP1 POP PUSH2 0x55B7 DUP2 PUSH2 0x3411 JUMP JUMPDEST SWAP3 SWAP2 POP POP JUMP JUMPDEST PUSH1 0x0 DUP1 PUSH1 0x0 PUSH1 0x60 DUP5 DUP7 SUB SLT ISZERO PUSH2 0x55D6 JUMPI PUSH2 0x55D5 PUSH2 0x33F9 JUMP JUMPDEST JUMPDEST PUSH1 0x0 PUSH2 0x55E4 DUP7 DUP3 DUP8 ADD PUSH2 0x55A8 JUMP JUMPDEST SWAP4 POP POP PUSH1 0x20 DUP5 ADD MLOAD PUSH8 0xFFFFFFFFFFFFFFFF DUP2 GT ISZERO PUSH2 0x5605 JUMPI PUSH2 0x5604 PUSH2 0x33FE JUMP JUMPDEST JUMPDEST PUSH2 0x5611 DUP7 DUP3 DUP8 ADD PUSH2 0x4D21 JUMP JUMPDEST SWAP3 POP POP PUSH1 0x40 PUSH2 0x5622 DUP7 DUP3 DUP8 ADD PUSH2 0x4327 JUMP JUMPDEST SWAP2 POP POP SWAP3 POP SWAP3 POP SWAP3 JUMP JUMPDEST PUSH32 0x4C7A4170703A206D696E4761734C696D6974206E6F7420736574000000000000 PUSH1 0x0 DUP3 ADD MSTORE POP JUMP JUMPDEST PUSH1 0x0 PUSH2 0x5662 PUSH1 0x1A DUP4 PUSH2 0x364F JUMP JUMPDEST SWAP2 POP PUSH2 0x566D DUP3 PUSH2 0x562C JUMP JUMPDEST PUSH1 0x20 DUP3 ADD SWAP1 POP SWAP2 SWAP1 POP JUMP JUMPDEST PUSH1 0x0 PUSH1 0x20 DUP3 ADD SWAP1 POP DUP2 DUP2 SUB PUSH1 0x0 DUP4 ADD MSTORE PUSH2 0x5691 DUP2 PUSH2 0x5655 JUMP JUMPDEST SWAP1 POP SWAP2 SWAP1 POP JUMP JUMPDEST PUSH32 0x4C7A4170703A20676173206C696D697420697320746F6F206C6F770000000000 PUSH1 0x0 DUP3 ADD MSTORE POP JUMP JUMPDEST PUSH1 0x0 PUSH2 0x56CE PUSH1 0x1B DUP4 PUSH2 0x364F JUMP JUMPDEST SWAP2 POP PUSH2 0x56D9 DUP3 PUSH2 0x5698 JUMP JUMPDEST PUSH1 0x20 DUP3 ADD SWAP1 POP SWAP2 SWAP1 POP JUMP JUMPDEST PUSH1 0x0 PUSH1 0x20 DUP3 ADD SWAP1 POP DUP2 DUP2 SUB PUSH1 0x0 DUP4 ADD MSTORE PUSH2 0x56FD DUP2 PUSH2 0x56C1 JUMP JUMPDEST SWAP1 POP SWAP2 SWAP1 POP JUMP JUMPDEST PUSH32 0x45524332303A206275726E2066726F6D20746865207A65726F20616464726573 PUSH1 0x0 DUP3 ADD MSTORE PUSH32 0x7300000000000000000000000000000000000000000000000000000000000000 PUSH1 0x20 DUP3 ADD MSTORE POP JUMP JUMPDEST PUSH1 0x0 PUSH2 0x5760 PUSH1 0x21 DUP4 PUSH2 0x364F JUMP JUMPDEST SWAP2 POP PUSH2 0x576B DUP3 PUSH2 0x5704 JUMP JUMPDEST PUSH1 0x40 DUP3 ADD SWAP1 POP SWAP2 SWAP1 POP JUMP JUMPDEST PUSH1 0x0 PUSH1 0x20 DUP3 ADD SWAP1 POP DUP2 DUP2 SUB PUSH1 0x0 DUP4 ADD MSTORE PUSH2 0x578F DUP2 PUSH2 0x5753 JUMP JUMPDEST SWAP1 POP SWAP2 SWAP1 POP JUMP JUMPDEST PUSH32 0x45524332303A206275726E20616D6F756E7420657863656564732062616C616E PUSH1 0x0 DUP3 ADD MSTORE PUSH32 0x6365000000000000000000000000000000000000000000000000000000000000 PUSH1 0x20 DUP3 ADD MSTORE POP JUMP JUMPDEST PUSH1 0x0 PUSH2 0x57F2 PUSH1 0x22 DUP4 PUSH2 0x364F JUMP JUMPDEST SWAP2 POP PUSH2 0x57FD DUP3 PUSH2 0x5796 JUMP JUMPDEST PUSH1 0x40 DUP3 ADD SWAP1 POP SWAP2 SWAP1 POP JUMP JUMPDEST PUSH1 0x0 PUSH1 0x20 DUP3 ADD SWAP1 POP DUP2 DUP2 SUB PUSH1 0x0 DUP4 ADD MSTORE PUSH2 0x5821 DUP2 PUSH2 0x57E5 JUMP JUMPDEST SWAP1 POP SWAP2 SWAP1 POP JUMP JUMPDEST PUSH32 0x4C7A4170703A207061796C6F61642073697A6520697320746F6F206C61726765 PUSH1 0x0 DUP3 ADD MSTORE POP JUMP JUMPDEST PUSH1 0x0 PUSH2 0x585E PUSH1 0x20 DUP4 PUSH2 0x364F JUMP JUMPDEST SWAP2 POP PUSH2 0x5869 DUP3 PUSH2 0x5828 JUMP JUMPDEST PUSH1 0x20 DUP3 ADD SWAP1 POP SWAP2 SWAP1 POP JUMP JUMPDEST PUSH1 0x0 PUSH1 0x20 DUP3 ADD SWAP1 POP DUP2 DUP2 SUB PUSH1 0x0 DUP4 ADD MSTORE PUSH2 0x588D DUP2 PUSH2 0x5851 JUMP JUMPDEST SWAP1 POP SWAP2 SWAP1 POP JUMP JUMPDEST PUSH32 0x746F416464726573735F6F75744F66426F756E64730000000000000000000000 PUSH1 0x0 DUP3 ADD MSTORE POP JUMP JUMPDEST PUSH1 0x0 PUSH2 0x58CA PUSH1 0x15 DUP4 PUSH2 0x364F JUMP JUMPDEST SWAP2 POP PUSH2 0x58D5 DUP3 PUSH2 0x5894 JUMP JUMPDEST PUSH1 0x20 DUP3 ADD SWAP1 POP SWAP2 SWAP1 POP JUMP JUMPDEST PUSH1 0x0 PUSH1 0x20 DUP3 ADD SWAP1 POP DUP2 DUP2 SUB PUSH1 0x0 DUP4 ADD MSTORE PUSH2 0x58F9 DUP2 PUSH2 0x58BD JUMP JUMPDEST SWAP1 POP SWAP2 SWAP1 POP JUMP JUMPDEST PUSH32 0x4C7A4170703A20696E76616C69642061646170746572506172616D7300000000 PUSH1 0x0 DUP3 ADD MSTORE POP JUMP JUMPDEST PUSH1 0x0 PUSH2 0x5936 PUSH1 0x1C DUP4 PUSH2 0x364F JUMP JUMPDEST SWAP2 POP PUSH2 0x5941 DUP3 PUSH2 0x5900 JUMP JUMPDEST PUSH1 0x20 DUP3 ADD SWAP1 POP SWAP2 SWAP1 POP JUMP JUMPDEST PUSH1 0x0 PUSH1 0x20 DUP3 ADD SWAP1 POP DUP2 DUP2 SUB PUSH1 0x0 DUP4 ADD MSTORE PUSH2 0x5965 DUP2 PUSH2 0x5929 JUMP JUMPDEST SWAP1 POP SWAP2 SWAP1 POP JUMP JUMPDEST PUSH32 0x45524332303A206D696E7420746F20746865207A65726F206164647265737300 PUSH1 0x0 DUP3 ADD MSTORE POP JUMP JUMPDEST PUSH1 0x0 PUSH2 0x59A2 PUSH1 0x1F DUP4 PUSH2 0x364F JUMP JUMPDEST SWAP2 POP PUSH2 0x59AD DUP3 PUSH2 0x596C JUMP JUMPDEST PUSH1 0x20 DUP3 ADD SWAP1 POP SWAP2 SWAP1 POP JUMP JUMPDEST PUSH1 0x0 PUSH1 0x20 DUP3 ADD SWAP1 POP DUP2 DUP2 SUB PUSH1 0x0 DUP4 ADD MSTORE PUSH2 0x59D1 DUP2 PUSH2 0x5995 JUMP JUMPDEST SWAP1 POP SWAP2 SWAP1 POP JUMP INVALID LOG2 PUSH5 0x6970667358 0x22 SLT KECCAK256 XOR PUSH32 0x98549D5358B7B42388F6AA55541509B9A01E907E3D987B8BA1C9385C68AB6473 PUSH16 0x6C634300081200330000000000000000 "
    },
    "gasEstimates": {
      "creation": {
        "codeDepositCost": "4610800",
        "executionCost": "infinite",
        "totalCost": "infinite"
      },
      "external": {
        "DEFAULT_PAYLOAD_SIZE_LIMIT()": "396",
        "NO_EXTRA_GAS()": "463",
        "PT_SEND()": "380",
        "allowance(address,address)": "infinite",
        "approve(address,uint256)": "infinite",
        "balanceOf(address)": "2974",
        "circulatingSupply()": "2584",
        "decimals()": "499",
        "decreaseAllowance(address,uint256)": "infinite",
        "estimateSendFee(uint16,bytes,uint256,bool,bytes)": "infinite",
        "failedMessages(uint16,bytes,uint64)": "infinite",
        "forceResumeReceive(uint16,bytes)": "infinite",
        "getConfig(uint16,uint16,address,uint256)": "infinite",
        "getTrustedRemoteAddress(uint16)": "infinite",
        "increaseAllowance(address,uint256)": "infinite",
        "isTrustedRemote(uint16,bytes)": "infinite",
        "lzEndpoint()": "infinite",
        "lzReceive(uint16,bytes,uint64,bytes)": "infinite",
        "minDstGasLookup(uint16,uint16)": "infinite",
        "name()": "infinite",
        "nonblockingLzReceive(uint16,bytes,uint64,bytes)": "infinite",
        "owner()": "2612",
        "payloadSizeLimitLookup(uint16)": "2861",
        "precrime()": "2648",
        "renounceOwnership()": "30553",
        "retryMessage(uint16,bytes,uint64,bytes)": "infinite",
        "sendFrom(address,uint16,bytes,uint256,address,address,bytes)": "infinite",
        "setConfig(uint16,uint16,uint256,bytes)": "infinite",
        "setMinDstGas(uint16,uint16,uint256)": "infinite",
        "setPayloadSizeLimit(uint16,uint256)": "25099",
        "setPrecrime(address)": "infinite",
        "setReceiveVersion(uint16)": "infinite",
        "setSendVersion(uint16)": "infinite",
        "setTrustedRemote(uint16,bytes)": "infinite",
        "setTrustedRemoteAddress(uint16,bytes)": "infinite",
        "setUseCustomAdapterParams(bool)": "infinite",
        "supportsInterface(bytes4)": "931",
        "symbol()": "infinite",
        "token()": "539",
        "totalSupply()": "2527",
        "transfer(address,uint256)": "infinite",
        "transferFrom(address,address,uint256)": "infinite",
        "transferOwnership(address)": "30854",
        "trustedRemoteLookup(uint16)": "infinite",
        "useCustomAdapterParams()": "2559"
      },
      "internal": {
        "_creditTo(uint16,address,uint256)": "infinite",
        "_debitFrom(address,uint16,bytes memory,uint256)": "infinite"
      }
    },
    "methodIdentifiers": {
      "DEFAULT_PAYLOAD_SIZE_LIMIT()": "c4461834",
      "NO_EXTRA_GAS()": "44770515",
      "PT_SEND()": "4c42899a",
      "allowance(address,address)": "dd62ed3e",
      "approve(address,uint256)": "095ea7b3",
      "balanceOf(address)": "70a08231",
      "circulatingSupply()": "9358928b",
      "decimals()": "313ce567",
      "decreaseAllowance(address,uint256)": "a457c2d7",
      "estimateSendFee(uint16,bytes,uint256,bool,bytes)": "2a205e3d",
      "failedMessages(uint16,bytes,uint64)": "5b8c41e6",
      "forceResumeReceive(uint16,bytes)": "42d65a8d",
      "getConfig(uint16,uint16,address,uint256)": "f5ecbdbc",
      "getTrustedRemoteAddress(uint16)": "9f38369a",
      "increaseAllowance(address,uint256)": "39509351",
      "isTrustedRemote(uint16,bytes)": "3d8b38f6",
      "lzEndpoint()": "b353aaa7",
      "lzReceive(uint16,bytes,uint64,bytes)": "001d3567",
      "minDstGasLookup(uint16,uint16)": "8cfd8f5c",
      "name()": "06fdde03",
      "nonblockingLzReceive(uint16,bytes,uint64,bytes)": "66ad5c8a",
      "owner()": "8da5cb5b",
      "payloadSizeLimitLookup(uint16)": "3f1f4fa4",
      "precrime()": "950c8a74",
      "renounceOwnership()": "715018a6",
      "retryMessage(uint16,bytes,uint64,bytes)": "d1deba1f",
      "sendFrom(address,uint16,bytes,uint256,address,address,bytes)": "51905636",
      "setConfig(uint16,uint16,uint256,bytes)": "cbed8b9c",
      "setMinDstGas(uint16,uint16,uint256)": "df2a5b3b",
      "setPayloadSizeLimit(uint16,uint256)": "0df37483",
      "setPrecrime(address)": "baf3292d",
      "setReceiveVersion(uint16)": "10ddb137",
      "setSendVersion(uint16)": "07e0db17",
      "setTrustedRemote(uint16,bytes)": "eb8d72b7",
      "setTrustedRemoteAddress(uint16,bytes)": "a6c3d165",
      "setUseCustomAdapterParams(bool)": "eab45d9c",
      "supportsInterface(bytes4)": "01ffc9a7",
      "symbol()": "95d89b41",
      "token()": "fc0c546a",
      "totalSupply()": "18160ddd",
      "transfer(address,uint256)": "a9059cbb",
      "transferFrom(address,address,uint256)": "23b872dd",
      "transferOwnership(address)": "f2fde38b",
      "trustedRemoteLookup(uint16)": "7533d788",
      "useCustomAdapterParams()": "ed629c5c"
    }
  },
  "abi": [
    {
      "inputs": [
        {
          "internalType": "string",
          "name": "_name",
          "type": "string"
        },
        {
          "internalType": "string",
          "name": "_symbol",
          "type": "string"
        },
        {
          "internalType": "address",
          "name": "_lzEndpoint",
          "type": "address"
        }
      ],
      "stateMutability": "nonpayable",
      "type": "constructor"
    },
    {
      "anonymous": false,
      "inputs": [
        {
          "indexed": true,
          "internalType": "address",
          "name": "owner",
          "type": "address"
        },
        {
          "indexed": true,
          "internalType": "address",
          "name": "spender",
          "type": "address"
        },
        {
          "indexed": false,
          "internalType": "uint256",
          "name": "value",
          "type": "uint256"
        }
      ],
      "name": "Approval",
      "type": "event"
    },
    {
      "anonymous": false,
      "inputs": [
        {
          "indexed": false,
          "internalType": "uint16",
          "name": "_srcChainId",
          "type": "uint16"
        },
        {
          "indexed": false,
          "internalType": "bytes",
          "name": "_srcAddress",
          "type": "bytes"
        },
        {
          "indexed": false,
          "internalType": "uint64",
          "name": "_nonce",
          "type": "uint64"
        },
        {
          "indexed": false,
          "internalType": "bytes",
          "name": "_payload",
          "type": "bytes"
        },
        {
          "indexed": false,
          "internalType": "bytes",
          "name": "_reason",
          "type": "bytes"
        }
      ],
      "name": "MessageFailed",
      "type": "event"
    },
    {
      "anonymous": false,
      "inputs": [
        {
          "indexed": true,
          "internalType": "address",
          "name": "previousOwner",
          "type": "address"
        },
        {
          "indexed": true,
          "internalType": "address",
          "name": "newOwner",
          "type": "address"
        }
      ],
      "name": "OwnershipTransferred",
      "type": "event"
    },
    {
      "anonymous": false,
      "inputs": [
        {
          "indexed": true,
          "internalType": "uint16",
          "name": "_srcChainId",
          "type": "uint16"
        },
        {
          "indexed": true,
          "internalType": "address",
          "name": "_to",
          "type": "address"
        },
        {
          "indexed": false,
          "internalType": "uint256",
          "name": "_amount",
          "type": "uint256"
        }
      ],
      "name": "ReceiveFromChain",
      "type": "event"
    },
    {
      "anonymous": false,
      "inputs": [
        {
          "indexed": false,
          "internalType": "uint16",
          "name": "_srcChainId",
          "type": "uint16"
        },
        {
          "indexed": false,
          "internalType": "bytes",
          "name": "_srcAddress",
          "type": "bytes"
        },
        {
          "indexed": false,
          "internalType": "uint64",
          "name": "_nonce",
          "type": "uint64"
        },
        {
          "indexed": false,
          "internalType": "bytes32",
          "name": "_payloadHash",
          "type": "bytes32"
        }
      ],
      "name": "RetryMessageSuccess",
      "type": "event"
    },
    {
      "anonymous": false,
      "inputs": [
        {
          "indexed": true,
          "internalType": "uint16",
          "name": "_dstChainId",
          "type": "uint16"
        },
        {
          "indexed": true,
          "internalType": "address",
          "name": "_from",
          "type": "address"
        },
        {
          "indexed": false,
          "internalType": "bytes",
          "name": "_toAddress",
          "type": "bytes"
        },
        {
          "indexed": false,
          "internalType": "uint256",
          "name": "_amount",
          "type": "uint256"
        }
      ],
      "name": "SendToChain",
      "type": "event"
    },
    {
      "anonymous": false,
      "inputs": [
        {
          "indexed": false,
          "internalType": "uint16",
          "name": "_dstChainId",
          "type": "uint16"
        },
        {
          "indexed": false,
          "internalType": "uint16",
          "name": "_type",
          "type": "uint16"
        },
        {
          "indexed": false,
          "internalType": "uint256",
          "name": "_minDstGas",
          "type": "uint256"
        }
      ],
      "name": "SetMinDstGas",
      "type": "event"
    },
    {
      "anonymous": false,
      "inputs": [
        {
          "indexed": false,
          "internalType": "address",
          "name": "precrime",
          "type": "address"
        }
      ],
      "name": "SetPrecrime",
      "type": "event"
    },
    {
      "anonymous": false,
      "inputs": [
        {
          "indexed": false,
          "internalType": "uint16",
          "name": "_remoteChainId",
          "type": "uint16"
        },
        {
          "indexed": false,
          "internalType": "bytes",
          "name": "_path",
          "type": "bytes"
        }
      ],
      "name": "SetTrustedRemote",
      "type": "event"
    },
    {
      "anonymous": false,
      "inputs": [
        {
          "indexed": false,
          "internalType": "uint16",
          "name": "_remoteChainId",
          "type": "uint16"
        },
        {
          "indexed": false,
          "internalType": "bytes",
          "name": "_remoteAddress",
          "type": "bytes"
        }
      ],
      "name": "SetTrustedRemoteAddress",
      "type": "event"
    },
    {
      "anonymous": false,
      "inputs": [
        {
          "indexed": false,
          "internalType": "bool",
          "name": "_useCustomAdapterParams",
          "type": "bool"
        }
      ],
      "name": "SetUseCustomAdapterParams",
      "type": "event"
    },
    {
      "anonymous": false,
      "inputs": [
        {
          "indexed": true,
          "internalType": "address",
          "name": "from",
          "type": "address"
        },
        {
          "indexed": true,
          "internalType": "address",
          "name": "to",
          "type": "address"
        },
        {
          "indexed": false,
          "internalType": "uint256",
          "name": "value",
          "type": "uint256"
        }
      ],
      "name": "Transfer",
      "type": "event"
    },
    {
      "inputs": [],
      "name": "DEFAULT_PAYLOAD_SIZE_LIMIT",
      "outputs": [
        {
          "internalType": "uint256",
          "name": "",
          "type": "uint256"
        }
      ],
      "stateMutability": "view",
      "type": "function"
    },
    {
      "inputs": [],
      "name": "NO_EXTRA_GAS",
      "outputs": [
        {
          "internalType": "uint256",
          "name": "",
          "type": "uint256"
        }
      ],
      "stateMutability": "view",
      "type": "function"
    },
    {
      "inputs": [],
      "name": "PT_SEND",
      "outputs": [
        {
          "internalType": "uint16",
          "name": "",
          "type": "uint16"
        }
      ],
      "stateMutability": "view",
      "type": "function"
    },
    {
      "inputs": [
        {
          "internalType": "address",
          "name": "owner",
          "type": "address"
        },
        {
          "internalType": "address",
          "name": "spender",
          "type": "address"
        }
      ],
      "name": "allowance",
      "outputs": [
        {
          "internalType": "uint256",
          "name": "",
          "type": "uint256"
        }
      ],
      "stateMutability": "view",
      "type": "function"
    },
    {
      "inputs": [
        {
          "internalType": "address",
          "name": "spender",
          "type": "address"
        },
        {
          "internalType": "uint256",
          "name": "amount",
          "type": "uint256"
        }
      ],
      "name": "approve",
      "outputs": [
        {
          "internalType": "bool",
          "name": "",
          "type": "bool"
        }
      ],
      "stateMutability": "nonpayable",
      "type": "function"
    },
    {
      "inputs": [
        {
          "internalType": "address",
          "name": "account",
          "type": "address"
        }
      ],
      "name": "balanceOf",
      "outputs": [
        {
          "internalType": "uint256",
          "name": "",
          "type": "uint256"
        }
      ],
      "stateMutability": "view",
      "type": "function"
    },
    {
      "inputs": [],
      "name": "circulatingSupply",
      "outputs": [
        {
          "internalType": "uint256",
          "name": "",
          "type": "uint256"
        }
      ],
      "stateMutability": "view",
      "type": "function"
    },
    {
      "inputs": [],
      "name": "decimals",
      "outputs": [
        {
          "internalType": "uint8",
          "name": "",
          "type": "uint8"
        }
      ],
      "stateMutability": "view",
      "type": "function"
    },
    {
      "inputs": [
        {
          "internalType": "address",
          "name": "spender",
          "type": "address"
        },
        {
          "internalType": "uint256",
          "name": "subtractedValue",
          "type": "uint256"
        }
      ],
      "name": "decreaseAllowance",
      "outputs": [
        {
          "internalType": "bool",
          "name": "",
          "type": "bool"
        }
      ],
      "stateMutability": "nonpayable",
      "type": "function"
    },
    {
      "inputs": [
        {
          "internalType": "uint16",
          "name": "_dstChainId",
          "type": "uint16"
        },
        {
          "internalType": "bytes",
          "name": "_toAddress",
          "type": "bytes"
        },
        {
          "internalType": "uint256",
          "name": "_amount",
          "type": "uint256"
        },
        {
          "internalType": "bool",
          "name": "_useZro",
          "type": "bool"
        },
        {
          "internalType": "bytes",
          "name": "_adapterParams",
          "type": "bytes"
        }
      ],
      "name": "estimateSendFee",
      "outputs": [
        {
          "internalType": "uint256",
          "name": "nativeFee",
          "type": "uint256"
        },
        {
          "internalType": "uint256",
          "name": "zroFee",
          "type": "uint256"
        }
      ],
      "stateMutability": "view",
      "type": "function"
    },
    {
      "inputs": [
        {
          "internalType": "uint16",
          "name": "",
          "type": "uint16"
        },
        {
          "internalType": "bytes",
          "name": "",
          "type": "bytes"
        },
        {
          "internalType": "uint64",
          "name": "",
          "type": "uint64"
        }
      ],
      "name": "failedMessages",
      "outputs": [
        {
          "internalType": "bytes32",
          "name": "",
          "type": "bytes32"
        }
      ],
      "stateMutability": "view",
      "type": "function"
    },
    {
      "inputs": [
        {
          "internalType": "uint16",
          "name": "_srcChainId",
          "type": "uint16"
        },
        {
          "internalType": "bytes",
          "name": "_srcAddress",
          "type": "bytes"
        }
      ],
      "name": "forceResumeReceive",
      "outputs": [],
      "stateMutability": "nonpayable",
      "type": "function"
    },
    {
      "inputs": [
        {
          "internalType": "uint16",
          "name": "_version",
          "type": "uint16"
        },
        {
          "internalType": "uint16",
          "name": "_chainId",
          "type": "uint16"
        },
        {
          "internalType": "address",
          "name": "",
          "type": "address"
        },
        {
          "internalType": "uint256",
          "name": "_configType",
          "type": "uint256"
        }
      ],
      "name": "getConfig",
      "outputs": [
        {
          "internalType": "bytes",
          "name": "",
          "type": "bytes"
        }
      ],
      "stateMutability": "view",
      "type": "function"
    },
    {
      "inputs": [
        {
          "internalType": "uint16",
          "name": "_remoteChainId",
          "type": "uint16"
        }
      ],
      "name": "getTrustedRemoteAddress",
      "outputs": [
        {
          "internalType": "bytes",
          "name": "",
          "type": "bytes"
        }
      ],
      "stateMutability": "view",
      "type": "function"
    },
    {
      "inputs": [
        {
          "internalType": "address",
          "name": "spender",
          "type": "address"
        },
        {
          "internalType": "uint256",
          "name": "addedValue",
          "type": "uint256"
        }
      ],
      "name": "increaseAllowance",
      "outputs": [
        {
          "internalType": "bool",
          "name": "",
          "type": "bool"
        }
      ],
      "stateMutability": "nonpayable",
      "type": "function"
    },
    {
      "inputs": [
        {
          "internalType": "uint16",
          "name": "_srcChainId",
          "type": "uint16"
        },
        {
          "internalType": "bytes",
          "name": "_srcAddress",
          "type": "bytes"
        }
      ],
      "name": "isTrustedRemote",
      "outputs": [
        {
          "internalType": "bool",
          "name": "",
          "type": "bool"
        }
      ],
      "stateMutability": "view",
      "type": "function"
    },
    {
      "inputs": [],
      "name": "lzEndpoint",
      "outputs": [
        {
          "internalType": "contract ILayerZeroEndpoint",
          "name": "",
          "type": "address"
        }
      ],
      "stateMutability": "view",
      "type": "function"
    },
    {
      "inputs": [
        {
          "internalType": "uint16",
          "name": "_srcChainId",
          "type": "uint16"
        },
        {
          "internalType": "bytes",
          "name": "_srcAddress",
          "type": "bytes"
        },
        {
          "internalType": "uint64",
          "name": "_nonce",
          "type": "uint64"
        },
        {
          "internalType": "bytes",
          "name": "_payload",
          "type": "bytes"
        }
      ],
      "name": "lzReceive",
      "outputs": [],
      "stateMutability": "nonpayable",
      "type": "function"
    },
    {
      "inputs": [
        {
          "internalType": "uint16",
          "name": "",
          "type": "uint16"
        },
        {
          "internalType": "uint16",
          "name": "",
          "type": "uint16"
        }
      ],
      "name": "minDstGasLookup",
      "outputs": [
        {
          "internalType": "uint256",
          "name": "",
          "type": "uint256"
        }
      ],
      "stateMutability": "view",
      "type": "function"
    },
    {
      "inputs": [],
      "name": "name",
      "outputs": [
        {
          "internalType": "string",
          "name": "",
          "type": "string"
        }
      ],
      "stateMutability": "view",
      "type": "function"
    },
    {
      "inputs": [
        {
          "internalType": "uint16",
          "name": "_srcChainId",
          "type": "uint16"
        },
        {
          "internalType": "bytes",
          "name": "_srcAddress",
          "type": "bytes"
        },
        {
          "internalType": "uint64",
          "name": "_nonce",
          "type": "uint64"
        },
        {
          "internalType": "bytes",
          "name": "_payload",
          "type": "bytes"
        }
      ],
      "name": "nonblockingLzReceive",
      "outputs": [],
      "stateMutability": "nonpayable",
      "type": "function"
    },
    {
      "inputs": [],
      "name": "owner",
      "outputs": [
        {
          "internalType": "address",
          "name": "",
          "type": "address"
        }
      ],
      "stateMutability": "view",
      "type": "function"
    },
    {
      "inputs": [
        {
          "internalType": "uint16",
          "name": "",
          "type": "uint16"
        }
      ],
      "name": "payloadSizeLimitLookup",
      "outputs": [
        {
          "internalType": "uint256",
          "name": "",
          "type": "uint256"
        }
      ],
      "stateMutability": "view",
      "type": "function"
    },
    {
      "inputs": [],
      "name": "precrime",
      "outputs": [
        {
          "internalType": "address",
          "name": "",
          "type": "address"
        }
      ],
      "stateMutability": "view",
      "type": "function"
    },
    {
      "inputs": [],
      "name": "renounceOwnership",
      "outputs": [],
      "stateMutability": "nonpayable",
      "type": "function"
    },
    {
      "inputs": [
        {
          "internalType": "uint16",
          "name": "_srcChainId",
          "type": "uint16"
        },
        {
          "internalType": "bytes",
          "name": "_srcAddress",
          "type": "bytes"
        },
        {
          "internalType": "uint64",
          "name": "_nonce",
          "type": "uint64"
        },
        {
          "internalType": "bytes",
          "name": "_payload",
          "type": "bytes"
        }
      ],
      "name": "retryMessage",
      "outputs": [],
      "stateMutability": "payable",
      "type": "function"
    },
    {
      "inputs": [
        {
          "internalType": "address",
          "name": "_from",
          "type": "address"
        },
        {
          "internalType": "uint16",
          "name": "_dstChainId",
          "type": "uint16"
        },
        {
          "internalType": "bytes",
          "name": "_toAddress",
          "type": "bytes"
        },
        {
          "internalType": "uint256",
          "name": "_amount",
          "type": "uint256"
        },
        {
          "internalType": "address payable",
          "name": "_refundAddress",
          "type": "address"
        },
        {
          "internalType": "address",
          "name": "_zroPaymentAddress",
          "type": "address"
        },
        {
          "internalType": "bytes",
          "name": "_adapterParams",
          "type": "bytes"
        }
      ],
      "name": "sendFrom",
      "outputs": [],
      "stateMutability": "payable",
      "type": "function"
    },
    {
      "inputs": [
        {
          "internalType": "uint16",
          "name": "_version",
          "type": "uint16"
        },
        {
          "internalType": "uint16",
          "name": "_chainId",
          "type": "uint16"
        },
        {
          "internalType": "uint256",
          "name": "_configType",
          "type": "uint256"
        },
        {
          "internalType": "bytes",
          "name": "_config",
          "type": "bytes"
        }
      ],
      "name": "setConfig",
      "outputs": [],
      "stateMutability": "nonpayable",
      "type": "function"
    },
    {
      "inputs": [
        {
          "internalType": "uint16",
          "name": "_dstChainId",
          "type": "uint16"
        },
        {
          "internalType": "uint16",
          "name": "_packetType",
          "type": "uint16"
        },
        {
          "internalType": "uint256",
          "name": "_minGas",
          "type": "uint256"
        }
      ],
      "name": "setMinDstGas",
      "outputs": [],
      "stateMutability": "nonpayable",
      "type": "function"
    },
    {
      "inputs": [
        {
          "internalType": "uint16",
          "name": "_dstChainId",
          "type": "uint16"
        },
        {
          "internalType": "uint256",
          "name": "_size",
          "type": "uint256"
        }
      ],
      "name": "setPayloadSizeLimit",
      "outputs": [],
      "stateMutability": "nonpayable",
      "type": "function"
    },
    {
      "inputs": [
        {
          "internalType": "address",
          "name": "_precrime",
          "type": "address"
        }
      ],
      "name": "setPrecrime",
      "outputs": [],
      "stateMutability": "nonpayable",
      "type": "function"
    },
    {
      "inputs": [
        {
          "internalType": "uint16",
          "name": "_version",
          "type": "uint16"
        }
      ],
      "name": "setReceiveVersion",
      "outputs": [],
      "stateMutability": "nonpayable",
      "type": "function"
    },
    {
      "inputs": [
        {
          "internalType": "uint16",
          "name": "_version",
          "type": "uint16"
        }
      ],
      "name": "setSendVersion",
      "outputs": [],
      "stateMutability": "nonpayable",
      "type": "function"
    },
    {
      "inputs": [
        {
          "internalType": "uint16",
          "name": "_remoteChainId",
          "type": "uint16"
        },
        {
          "internalType": "bytes",
          "name": "_path",
          "type": "bytes"
        }
      ],
      "name": "setTrustedRemote",
      "outputs": [],
      "stateMutability": "nonpayable",
      "type": "function"
    },
    {
      "inputs": [
        {
          "internalType": "uint16",
          "name": "_remoteChainId",
          "type": "uint16"
        },
        {
          "internalType": "bytes",
          "name": "_remoteAddress",
          "type": "bytes"
        }
      ],
      "name": "setTrustedRemoteAddress",
      "outputs": [],
      "stateMutability": "nonpayable",
      "type": "function"
    },
    {
      "inputs": [
        {
          "internalType": "bool",
          "name": "_useCustomAdapterParams",
          "type": "bool"
        }
      ],
      "name": "setUseCustomAdapterParams",
      "outputs": [],
      "stateMutability": "nonpayable",
      "type": "function"
    },
    {
      "inputs": [
        {
          "internalType": "bytes4",
          "name": "interfaceId",
          "type": "bytes4"
        }
      ],
      "name": "supportsInterface",
      "outputs": [
        {
          "internalType": "bool",
          "name": "",
          "type": "bool"
        }
      ],
      "stateMutability": "view",
      "type": "function"
    },
    {
      "inputs": [],
      "name": "symbol",
      "outputs": [
        {
          "internalType": "string",
          "name": "",
          "type": "string"
        }
      ],
      "stateMutability": "view",
      "type": "function"
    },
    {
      "inputs": [],
      "name": "token",
      "outputs": [
        {
          "internalType": "address",
          "name": "",
          "type": "address"
        }
      ],
      "stateMutability": "view",
      "type": "function"
    },
    {
      "inputs": [],
      "name": "totalSupply",
      "outputs": [
        {
          "internalType": "uint256",
          "name": "",
          "type": "uint256"
        }
      ],
      "stateMutability": "view",
      "type": "function"
    },
    {
      "inputs": [
        {
          "internalType": "address",
          "name": "to",
          "type": "address"
        },
        {
          "internalType": "uint256",
          "name": "amount",
          "type": "uint256"
        }
      ],
      "name": "transfer",
      "outputs": [
        {
          "internalType": "bool",
          "name": "",
          "type": "bool"
        }
      ],
      "stateMutability": "nonpayable",
      "type": "function"
    },
    {
      "inputs": [
        {
          "internalType": "address",
          "name": "from",
          "type": "address"
        },
        {
          "internalType": "address",
          "name": "to",
          "type": "address"
        },
        {
          "internalType": "uint256",
          "name": "amount",
          "type": "uint256"
        }
      ],
      "name": "transferFrom",
      "outputs": [
        {
          "internalType": "bool",
          "name": "",
          "type": "bool"
        }
      ],
      "stateMutability": "nonpayable",
      "type": "function"
    },
    {
      "inputs": [
        {
          "internalType": "address",
          "name": "newOwner",
          "type": "address"
        }
      ],
      "name": "transferOwnership",
      "outputs": [],
      "stateMutability": "nonpayable",
      "type": "function"
    },
    {
      "inputs": [
        {
          "internalType": "uint16",
          "name": "",
          "type": "uint16"
        }
      ],
      "name": "trustedRemoteLookup",
      "outputs": [
        {
          "internalType": "bytes",
          "name": "",
          "type": "bytes"
        }
      ],
      "stateMutability": "view",
      "type": "function"
    },
    {
      "inputs": [],
      "name": "useCustomAdapterParams",
      "outputs": [
        {
          "internalType": "bool",
          "name": "",
          "type": "bool"
        }
      ],
      "stateMutability": "view",
      "type": "function"
    }
  ]
}