{
  "data": {
    "bytecode": {
      "linkReferences": {},
      "object": "60c06040523480156200001157600080fd5b50604051620052cc380380620052cc833981810160405281019062000037919062000203565b8180806200005a6200004e620000cd60201b60201c565b620000d560201b60201c565b8073ffffffffffffffffffffffffffffffffffffffff1660808173ffffffffffffffffffffffffffffffffffffffff16815250505050508073ffffffffffffffffffffffffffffffffffffffff1660a08173ffffffffffffffffffffffffffffffffffffffff168152505050506200024a565b600033905090565b60008060009054906101000a900473ffffffffffffffffffffffffffffffffffffffff169050816000806101000a81548173ffffffffffffffffffffffffffffffffffffffff021916908373ffffffffffffffffffffffffffffffffffffffff1602179055508173ffffffffffffffffffffffffffffffffffffffff168173ffffffffffffffffffffffffffffffffffffffff167f8be0079c531659141344cd1fd0a4f28419497f9722a3daafe3b4186f6b6457e060405160405180910390a35050565b600080fd5b600073ffffffffffffffffffffffffffffffffffffffff82169050919050565b6000620001cb826200019e565b9050919050565b620001dd81620001be565b8114620001e957600080fd5b50565b600081519050620001fd81620001d2565b92915050565b600080604083850312156200021d576200021c62000199565b5b60006200022d85828601620001ec565b92505060206200024085828601620001ec565b9150509250929050565b60805160a051614fec620002e0600039600081816111a60152818161124001528181611b1601528181612229015281816122cb015281816123130152818161284c015281816128ed015261293401526000818161080c01528181610ae401528181610ba601528181610c6101528181610e09015281816114a80152818161155d01528181611a6501526124b90152614fec6000f3fe6080604052600436106101f85760003560e01c80638da5cb5b1161010d578063cbed8b9c116100a0578063eb8d72b71161006f578063eb8d72b714610725578063ed629c5c1461074e578063f2fde38b14610779578063f5ecbdbc146107a2578063fc0c546a146107df576101f8565b8063cbed8b9c1461068e578063d1deba1f146106b7578063df2a5b3b146106d3578063eab45d9c146106fc576101f8565b8063a6c3d165116100dc578063a6c3d165146105e6578063b353aaa71461060f578063baf3292d1461063a578063c446183414610663576101f8565b80638da5cb5b146105285780639358928b14610553578063950c8a741461057e5780639f38369a146105a9576101f8565b806342d65a8d116101905780635b8c41e61161015f5780635b8c41e61461043157806366ad5c8a1461046e578063715018a6146104975780637533d788146104ae5780638cfd8f5c146104eb576101f8565b806342d65a8d1461039657806344770515146103bf5780634c42899a146103ea5780635190563614610415576101f8565b806310ddb137116101cc57806310ddb137146102b55780632a205e3d146102de5780633d8b38f61461031c5780633f1f4fa414610359576101f8565b80621d3567146101fd57806301ffc9a71461022657806307e0db17146102635780630df374831461028c575b600080fd5b34801561020957600080fd5b50610224600480360381019061021f9190612e41565b61080a565b005b34801561023257600080fd5b5061024d60048036038101906102489190612f40565b610a60565b60405161025a9190612f88565b60405180910390f35b34801561026f57600080fd5b5061028a60048036038101906102859190612fa3565b610ada565b005b34801561029857600080fd5b506102b360048036038101906102ae9190613006565b610b70565b005b3480156102c157600080fd5b506102dc60048036038101906102d79190612fa3565b610b9c565b005b3480156102ea57600080fd5b5061030560048036038101906103009190613072565b610c32565b60405161031392919061313d565b60405180910390f35b34801561032857600080fd5b50610343600480360381019061033e9190613166565b610d13565b6040516103509190612f88565b60405180910390f35b34801561036557600080fd5b50610380600480360381019061037b9190612fa3565b610de7565b60405161038d91906131c6565b60405180910390f35b3480156103a257600080fd5b506103bd60048036038101906103b89190613166565b610dff565b005b3480156103cb57600080fd5b506103d4610e9b565b6040516103e191906131c6565b60405180910390f35b3480156103f657600080fd5b506103ff610ea0565b60405161040c91906131f0565b60405180910390f35b61042f600480360381019061042a91906132a7565b610ea5565b005b34801561043d57600080fd5b50610458600480360381019061045391906134ca565b610f47565b6040516104659190613552565b60405180910390f35b34801561047a57600080fd5b5061049560048036038101906104909190612e41565b610f8f565b005b3480156104a357600080fd5b506104ac6110a0565b005b3480156104ba57600080fd5b506104d560048036038101906104d09190612fa3565b6110b4565b6040516104e291906135ec565b60405180910390f35b3480156104f757600080fd5b50610512600480360381019061050d919061360e565b611154565b60405161051f91906131c6565b60405180910390f35b34801561053457600080fd5b5061053d611179565b60405161054a919061365d565b60405180910390f35b34801561055f57600080fd5b506105686111a2565b60405161057591906131c6565b60405180910390f35b34801561058a57600080fd5b506105936112d3565b6040516105a0919061365d565b60405180910390f35b3480156105b557600080fd5b506105d060048036038101906105cb9190612fa3565b6112f9565b6040516105dd91906135ec565b60405180910390f35b3480156105f257600080fd5b5061060d60048036038101906106089190613166565b611412565b005b34801561061b57600080fd5b506106246114a6565b60405161063191906136d7565b60405180910390f35b34801561064657600080fd5b50610661600480360381019061065c91906136f2565b6114ca565b005b34801561066f57600080fd5b5061067861154d565b60405161068591906131c6565b60405180910390f35b34801561069a57600080fd5b506106b560048036038101906106b0919061371f565b611553565b005b6106d160048036038101906106cc9190612e41565b6115f5565b005b3480156106df57600080fd5b506106fa60048036038101906106f591906137a7565b611838565b005b34801561070857600080fd5b50610723600480360381019061071e91906137fa565b6118fc565b005b34801561073157600080fd5b5061074c60048036038101906107479190613166565b611958565b005b34801561075a57600080fd5b506107636119cb565b6040516107709190612f88565b60405180910390f35b34801561078557600080fd5b506107a0600480360381019061079b91906136f2565b6119de565b005b3480156107ae57600080fd5b506107c960048036038101906107c49190613827565b611a61565b6040516107d691906135ec565b60405180910390f35b3480156107eb57600080fd5b506107f4611b12565b604051610801919061365d565b60405180910390f35b7f000000000000000000000000000000000000000000000000000000000000000073ffffffffffffffffffffffffffffffffffffffff16610849611b3a565b73ffffffffffffffffffffffffffffffffffffffff161461089f576040517f08c379a0000000000000000000000000000000000000000000000000000000008152600401610896906138eb565b60405180910390fd5b6000600160008861ffff1661ffff16815260200190815260200160002080546108c79061393a565b80601f01602080910402602001604051908101604052809291908181526020018280546108f39061393a565b80156109405780601f1061091557610100808354040283529160200191610940565b820191906000526020600020905b81548152906001019060200180831161092357829003601f168201915b5050505050905080518686905014801561095b575060008151115b801561098457508080519060200120868660405161097a92919061399b565b6040518091039020145b6109c3576040517f08c379a00000000000000000000000000000000000000000000000000000000081526004016109ba90613a26565b60405180910390fd5b610a578787878080601f016020809104026020016040519081016040528093929190818152602001838380828437600081840152601f19601f820116905080830192505050505050508686868080601f016020809104026020016040519081016040528093929190818152602001838380828437600081840152601f19601f82011690508083019250505050505050611b42565b50505050505050565b60007f14e4ceea000000000000000000000000000000000000000000000000000000007bffffffffffffffffffffffffffffffffffffffffffffffffffffffff1916827bffffffffffffffffffffffffffffffffffffffffffffffffffffffff19161480610ad35750610ad282611c0d565b5b9050919050565b610ae2611c77565b7f000000000000000000000000000000000000000000000000000000000000000073ffffffffffffffffffffffffffffffffffffffff166307e0db17826040518263ffffffff1660e01b8152600401610b3b91906131f0565b600060405180830381600087803b158015610b5557600080fd5b505af1158015610b69573d6000803e3d6000fd5b5050505050565b610b78611c77565b80600360008461ffff1661ffff168152602001908152602001600020819055505050565b610ba4611c77565b7f000000000000000000000000000000000000000000000000000000000000000073ffffffffffffffffffffffffffffffffffffffff166310ddb137826040518263ffffffff1660e01b8152600401610bfd91906131f0565b600060405180830381600087803b158015610c1757600080fd5b505af1158015610c2b573d6000803e3d6000fd5b5050505050565b600080600080898989604051602001610c4e9493929190613a73565b60405160208183030381529060405290507f000000000000000000000000000000000000000000000000000000000000000073ffffffffffffffffffffffffffffffffffffffff166340a7bb108b30848a8a8a6040518763ffffffff1660e01b8152600401610cc296959493929190613ab3565b6040805180830381865afa158015610cde573d6000803e3d6000fd5b505050506040513d601f19601f82011682018060405250810190610d029190613b2b565b925092505097509795505050505050565b600080600160008661ffff1661ffff1681526020019081526020016000208054610d3c9061393a565b80601f0160208091040260200160405190810160405280929190818152602001828054610d689061393a565b8015610db55780601f10610d8a57610100808354040283529160200191610db5565b820191906000526020600020905b815481529060010190602001808311610d9857829003601f168201915b505050505090508383604051610dcc92919061399b565b60405180910390208180519060200120149150509392505050565b60036020528060005260406000206000915090505481565b610e07611c77565b7f000000000000000000000000000000000000000000000000000000000000000073ffffffffffffffffffffffffffffffffffffffff166342d65a8d8484846040518463ffffffff1660e01b8152600401610e6493929190613b6b565b600060405180830381600087803b158015610e7e57600080fd5b505af1158015610e92573d6000803e3d6000fd5b50505050505050565b600081565b600081565b610f3c898989898080601f016020809104026020016040519081016040528093929190818152602001838380828437600081840152601f19601f8201169050808301925050505050505088888888888080601f016020809104026020016040519081016040528093929190818152602001838380828437600081840152601f19601f82011690508083019250505050505050611cf5565b505050505050505050565b60056020528260005260406000208280516020810182018051848252602083016020850120818352809550505050505060205280600052604060002060009250925050505481565b3073ffffffffffffffffffffffffffffffffffffffff16610fae611b3a565b73ffffffffffffffffffffffffffffffffffffffff1614611004576040517f08c379a0000000000000000000000000000000000000000000000000000000008152600401610ffb90613c0f565b60405180910390fd5b6110988686868080601f016020809104026020016040519081016040528093929190818152602001838380828437600081840152601f19601f820116905080830192505050505050508585858080601f016020809104026020016040519081016040528093929190818152602001838380828437600081840152601f19601f82011690508083019250505050505050611da9565b505050505050565b6110a8611c77565b6110b26000611e15565b565b600160205280600052604060002060009150905080546110d39061393a565b80601f01602080910402602001604051908101604052809291908181526020018280546110ff9061393a565b801561114c5780601f106111215761010080835404028352916020019161114c565b820191906000526020600020905b81548152906001019060200180831161112f57829003601f168201915b505050505081565b6002602052816000526040600020602052806000526040600020600091509150505481565b60008060009054906101000a900473ffffffffffffffffffffffffffffffffffffffff16905090565b60007f000000000000000000000000000000000000000000000000000000000000000073ffffffffffffffffffffffffffffffffffffffff166370a08231306040518263ffffffff1660e01b81526004016111fd919061365d565b602060405180830381865afa15801561121a573d6000803e3d6000fd5b505050506040513d601f19601f8201168201806040525081019061123e9190613c2f565b7f000000000000000000000000000000000000000000000000000000000000000073ffffffffffffffffffffffffffffffffffffffff166318160ddd6040518163ffffffff1660e01b8152600401602060405180830381865afa1580156112a9573d6000803e3d6000fd5b505050506040513d601f19601f820116820180604052508101906112cd9190613c2f565b03905090565b600460009054906101000a900473ffffffffffffffffffffffffffffffffffffffff1681565b60606000600160008461ffff1661ffff16815260200190815260200160002080546113239061393a565b80601f016020809104026020016040519081016040528092919081815260200182805461134f9061393a565b801561139c5780601f106113715761010080835404028352916020019161139c565b820191906000526020600020905b81548152906001019060200180831161137f57829003601f168201915b5050505050905060008151036113e7576040517f08c379a00000000000000000000000000000000000000000000000000000000081526004016113de90613ca8565b60405180910390fd5b61140a6000601483516113fa9190613cf7565b83611ed99092919063ffffffff16565b915050919050565b61141a611c77565b81813060405160200161142f93929190613d73565b604051602081830303815290604052600160008561ffff1661ffff16815260200190815260200160002090816114659190613f3f565b507f8c0400cfe2d1199b1a725c78960bcc2a344d869b80590d0f2bd005db15a572ce83838360405161149993929190613b6b565b60405180910390a1505050565b7f000000000000000000000000000000000000000000000000000000000000000081565b6114d2611c77565b80600460006101000a81548173ffffffffffffffffffffffffffffffffffffffff021916908373ffffffffffffffffffffffffffffffffffffffff1602179055507f5db758e995a17ec1ad84bdef7e8c3293a0bd6179bcce400dff5d4c3d87db726b81604051611542919061365d565b60405180910390a150565b61271081565b61155b611c77565b7f000000000000000000000000000000000000000000000000000000000000000073ffffffffffffffffffffffffffffffffffffffff1663cbed8b9c86868686866040518663ffffffff1660e01b81526004016115bc959493929190614011565b600060405180830381600087803b1580156115d657600080fd5b505af11580156115ea573d6000803e3d6000fd5b505050505050505050565b6000600560008861ffff1661ffff168152602001908152602001600020868660405161162292919061399b565b908152602001604051809103902060008567ffffffffffffffff1667ffffffffffffffff1681526020019081526020016000205490506000801b810361169d576040517f08c379a0000000000000000000000000000000000000000000000000000000008152600401611694906140d1565b60405180910390fd5b8083836040516116ae92919061399b565b6040518091039020146116f6576040517f08c379a00000000000000000000000000000000000000000000000000000000081526004016116ed90614163565b60405180910390fd5b6000801b600560008961ffff1661ffff168152602001908152602001600020878760405161172592919061399b565b908152602001604051809103902060008667ffffffffffffffff1667ffffffffffffffff168152602001908152602001600020819055506117f08787878080601f016020809104026020016040519081016040528093929190818152602001838380828437600081840152601f19601f820116905080830192505050505050508686868080601f016020809104026020016040519081016040528093929190818152602001838380828437600081840152601f19601f82011690508083019250505050505050611da9565b7fc264d91f3adc5588250e1551f547752ca0cfa8f6b530d243b9f9f4cab10ea8e58787878785604051611827959493929190614192565b60405180910390a150505050505050565b611840611c77565b60008111611883576040517f08c379a000000000000000000000000000000000000000000000000000000000815260040161187a9061422c565b60405180910390fd5b80600260008561ffff1661ffff16815260200190815260200160002060008461ffff1661ffff168152602001908152602001600020819055507f9d5c7c0b934da8fefa9c7760c98383778a12dfbfc0c3b3106518f43fb9508ac08383836040516118ef9392919061424c565b60405180910390a1505050565b611904611c77565b80600660006101000a81548160ff0219169083151502179055507f1584ad594a70cbe1e6515592e1272a987d922b097ead875069cebe8b40c004a48160405161194d9190612f88565b60405180910390a150565b611960611c77565b8181600160008661ffff1661ffff168152602001908152602001600020918261198a92919061428e565b507ffa41487ad5d6728f0b19276fa1eddc16558578f5109fc39d2dc33c3230470dab8383836040516119be93929190613b6b565b60405180910390a1505050565b600660009054906101000a900460ff1681565b6119e6611c77565b600073ffffffffffffffffffffffffffffffffffffffff168173ffffffffffffffffffffffffffffffffffffffff1603611a55576040517f08c379a0000000000000000000000000000000000000000000000000000000008152600401611a4c906143d0565b60405180910390fd5b611a5e81611e15565b50565b60607f000000000000000000000000000000000000000000000000000000000000000073ffffffffffffffffffffffffffffffffffffffff1663f5ecbdbc868630866040518563ffffffff1660e01b8152600401611ac294939291906143f0565b600060405180830381865afa158015611adf573d6000803e3d6000fd5b505050506040513d6000823e3d601f19601f82011682018060405250810190611b0891906144a5565b9050949350505050565b60007f0000000000000000000000000000000000000000000000000000000000000000905090565b600033905090565b600080611bee5a60966366ad5c8a60e01b89898989604051602401611b6a94939291906144ee565b604051602081830303815290604052907bffffffffffffffffffffffffffffffffffffffffffffffffffffffff19166020820180517bffffffffffffffffffffffffffffffffffffffffffffffffffffffff83818316178352505050503073ffffffffffffffffffffffffffffffffffffffff16611ff7909392919063ffffffff16565b9150915081611c0557611c04868686868561208f565b5b505050505050565b60007f01ffc9a7000000000000000000000000000000000000000000000000000000007bffffffffffffffffffffffffffffffffffffffffffffffffffffffff1916827bffffffffffffffffffffffffffffffffffffffffffffffffffffffff1916149050919050565b611c7f611b3a565b73ffffffffffffffffffffffffffffffffffffffff16611c9d611179565b73ffffffffffffffffffffffffffffffffffffffff1614611cf3576040517f08c379a0000000000000000000000000000000000000000000000000000000008152600401611cea9061458d565b60405180910390fd5b565b611d0386600083600061213d565b6000611d11888888886121ae565b90506000808783604051602001611d2a939291906145ad565b6040516020818303038152906040529050611d498882878787346123c0565b8873ffffffffffffffffffffffffffffffffffffffff168861ffff167f39a4c66499bcf4b56d79f0dde8ed7a9d4925a0df55825206b2b8531e202be0d08985604051611d969291906145eb565b60405180910390a3505050505050505050565b600060208201519050600061ffff168161ffff1603611dd357611dce85858585612556565b611e0e565b6040517f08c379a0000000000000000000000000000000000000000000000000000000008152600401611e0590614667565b60405180910390fd5b5050505050565b60008060009054906101000a900473ffffffffffffffffffffffffffffffffffffffff169050816000806101000a81548173ffffffffffffffffffffffffffffffffffffffff021916908373ffffffffffffffffffffffffffffffffffffffff1602179055508173ffffffffffffffffffffffffffffffffffffffff168173ffffffffffffffffffffffffffffffffffffffff167f8be0079c531659141344cd1fd0a4f28419497f9722a3daafe3b4186f6b6457e060405160405180910390a35050565b606081601f83611ee99190614687565b1015611f2a576040517f08c379a0000000000000000000000000000000000000000000000000000000008152600401611f2190614707565b60405180910390fd5b8183611f369190614687565b84511015611f79576040517f08c379a0000000000000000000000000000000000000000000000000000000008152600401611f7090614773565b60405180910390fd5b6060821560008114611f9a5760405191506000825260208201604052611feb565b6040519150601f8416801560200281840101858101878315602002848b0101015b81831015611fd85780518352602083019250602081019050611fbb565b50868552601f19601f8301166040525050505b50809150509392505050565b6000606060008060008661ffff1667ffffffffffffffff81111561201e5761201d61339f565b5b6040519080825280601f01601f1916602001820160405280156120505781602001600182028036833780820191505090505b50905060008087516020890160008d8df191503d925086831115612072578692505b828152826000602083013e81819450945050505094509492505050565b8180519060200120600560008761ffff1661ffff168152602001908152602001600020856040516120c091906147c4565b908152602001604051809103902060008567ffffffffffffffff1667ffffffffffffffff168152602001908152602001600020819055507fe183f33de2837795525b4792ca4cd60535bd77c53b7e7030060bfcf5734d6b0c858585858560405161212e9594939291906147db565b60405180910390a15050505050565b600660009054906101000a900460ff16156121635761215e848484846125f3565b6121a8565b60008251146121a7576040517f08c379a000000000000000000000000000000000000000000000000000000000815260040161219e906148b5565b60405180910390fd5b5b50505050565b60006121b8611b3a565b73ffffffffffffffffffffffffffffffffffffffff168573ffffffffffffffffffffffffffffffffffffffff1614612225576040517f08c379a000000000000000000000000000000000000000000000000000000000815260040161221c90614947565b60405180910390fd5b60007f000000000000000000000000000000000000000000000000000000000000000073ffffffffffffffffffffffffffffffffffffffff166370a08231306040518263ffffffff1660e01b8152600401612280919061365d565b602060405180830381865afa15801561229d573d6000803e3d6000fd5b505050506040513d601f19601f820116820180604052508101906122c19190613c2f565b90506123108630857f000000000000000000000000000000000000000000000000000000000000000073ffffffffffffffffffffffffffffffffffffffff166126d2909392919063ffffffff16565b807f000000000000000000000000000000000000000000000000000000000000000073ffffffffffffffffffffffffffffffffffffffff166370a08231306040518263ffffffff1660e01b815260040161236a919061365d565b602060405180830381865afa158015612387573d6000803e3d6000fd5b505050506040513d601f19601f820116820180604052508101906123ab9190613c2f565b6123b59190613cf7565b915050949350505050565b6000600160008861ffff1661ffff16815260200190815260200160002080546123e89061393a565b80601f01602080910402602001604051908101604052809291908181526020018280546124149061393a565b80156124615780601f1061243657610100808354040283529160200191612461565b820191906000526020600020905b81548152906001019060200180831161244457829003601f168201915b5050505050905060008151036124ac576040517f08c379a00000000000000000000000000000000000000000000000000000000081526004016124a3906149d9565b60405180910390fd5b6124b787875161275b565b7f000000000000000000000000000000000000000000000000000000000000000073ffffffffffffffffffffffffffffffffffffffff1663c58031008389848a8a8a8a6040518863ffffffff1660e01b815260040161251b96959493929190614a08565b6000604051808303818588803b15801561253457600080fd5b505af1158015612548573d6000803e3d6000fd5b505050505050505050505050565b6000808280602001905181019061256d9190614a93565b925092505060006125886000846127d190919063ffffffff16565b9050612595878284612847565b91508073ffffffffffffffffffffffffffffffffffffffff168761ffff167fbf551ec93859b170f9b2141bd9298bf3f64322c6f7beb2543a0cb669834118bf846040516125e291906131c6565b60405180910390a350505050505050565b60006125fe836129e0565b9050600082600260008861ffff1661ffff16815260200190815260200160002060008761ffff1661ffff168152602001908152602001600020546126429190614687565b905060008111612687576040517f08c379a000000000000000000000000000000000000000000000000000000000815260040161267e90614b4e565b60405180910390fd5b808210156126ca576040517f08c379a00000000000000000000000000000000000000000000000000000000081526004016126c190614bba565b60405180910390fd5b505050505050565b612755846323b872dd60e01b8585856040516024016126f393929190614bda565b604051602081830303815290604052907bffffffffffffffffffffffffffffffffffffffffffffffffffffffff19166020820180517bffffffffffffffffffffffffffffffffffffffffffffffffffffffff8381831617835250505050612a33565b50505050565b6000600360008461ffff1661ffff168152602001908152602001600020549050600081036127895761271090505b808211156127cc576040517f08c379a00000000000000000000000000000000000000000000000000000000081526004016127c390614c5d565b60405180910390fd5b505050565b60006014826127e09190614687565b83511015612823576040517f08c379a000000000000000000000000000000000000000000000000000000000815260040161281a90614cc9565b60405180910390fd5b60006c01000000000000000000000000836020860101510490508091505092915050565b6000807f000000000000000000000000000000000000000000000000000000000000000073ffffffffffffffffffffffffffffffffffffffff166370a08231856040518263ffffffff1660e01b81526004016128a3919061365d565b602060405180830381865afa1580156128c0573d6000803e3d6000fd5b505050506040513d601f19601f820116820180604052508101906128e49190613c2f565b905061293184847f000000000000000000000000000000000000000000000000000000000000000073ffffffffffffffffffffffffffffffffffffffff16612afb9092919063ffffffff16565b807f000000000000000000000000000000000000000000000000000000000000000073ffffffffffffffffffffffffffffffffffffffff166370a08231866040518263ffffffff1660e01b815260040161298b919061365d565b602060405180830381865afa1580156129a8573d6000803e3d6000fd5b505050506040513d601f19601f820116820180604052508101906129cc9190613c2f565b6129d69190613cf7565b9150509392505050565b6000602282511015612a27576040517f08c379a0000000000000000000000000000000000000000000000000000000008152600401612a1e90614d35565b60405180910390fd5b60228201519050919050565b6000612a95826040518060400160405280602081526020017f5361666545524332303a206c6f772d6c6576656c2063616c6c206661696c65648152508573ffffffffffffffffffffffffffffffffffffffff16612b819092919063ffffffff16565b9050600081511480612ab7575080806020019051810190612ab69190614d6a565b5b612af6576040517f08c379a0000000000000000000000000000000000000000000000000000000008152600401612aed90614e09565b60405180910390fd5b505050565b612b7c8363a9059cbb60e01b8484604051602401612b1a929190614e29565b604051602081830303815290604052907bffffffffffffffffffffffffffffffffffffffffffffffffffffffff19166020820180517bffffffffffffffffffffffffffffffffffffffffffffffffffffffff8381831617835250505050612a33565b505050565b6060612b908484600085612b99565b90509392505050565b606082471015612bde576040517f08c379a0000000000000000000000000000000000000000000000000000000008152600401612bd590614ec4565b60405180910390fd5b6000808673ffffffffffffffffffffffffffffffffffffffff168587604051612c0791906147c4565b60006040518083038185875af1925050503d8060008114612c44576040519150601f19603f3d011682016040523d82523d6000602084013e612c49565b606091505b5091509150612c5a87838387612c66565b92505050949350505050565b60608315612cc8576000835103612cc057612c8085612cdb565b612cbf576040517f08c379a0000000000000000000000000000000000000000000000000000000008152600401612cb690614f30565b60405180910390fd5b5b829050612cd3565b612cd28383612cfe565b5b949350505050565b6000808273ffffffffffffffffffffffffffffffffffffffff163b119050919050565b600082511115612d115781518083602001fd5b806040517f08c379a0000000000000000000000000000000000000000000000000000000008152600401612d459190614f94565b60405180910390fd5b6000604051905090565b600080fd5b600080fd5b600061ffff82169050919050565b612d7981612d62565b8114612d8457600080fd5b50565b600081359050612d9681612d70565b92915050565b600080fd5b600080fd5b600080fd5b60008083601f840112612dc157612dc0612d9c565b5b8235905067ffffffffffffffff811115612dde57612ddd612da1565b5b602083019150836001820283011115612dfa57612df9612da6565b5b9250929050565b600067ffffffffffffffff82169050919050565b612e1e81612e01565b8114612e2957600080fd5b50565b600081359050612e3b81612e15565b92915050565b60008060008060008060808789031215612e5e57612e5d612d58565b5b6000612e6c89828a01612d87565b965050602087013567ffffffffffffffff811115612e8d57612e8c612d5d565b5b612e9989828a01612dab565b95509550506040612eac89828a01612e2c565b935050606087013567ffffffffffffffff811115612ecd57612ecc612d5d565b5b612ed989828a01612dab565b92509250509295509295509295565b60007fffffffff0000000000000000000000000000000000000000000000000000000082169050919050565b612f1d81612ee8565b8114612f2857600080fd5b50565b600081359050612f3a81612f14565b92915050565b600060208284031215612f5657612f55612d58565b5b6000612f6484828501612f2b565b91505092915050565b60008115159050919050565b612f8281612f6d565b82525050565b6000602082019050612f9d6000830184612f79565b92915050565b600060208284031215612fb957612fb8612d58565b5b6000612fc784828501612d87565b91505092915050565b6000819050919050565b612fe381612fd0565b8114612fee57600080fd5b50565b60008135905061300081612fda565b92915050565b6000806040838503121561301d5761301c612d58565b5b600061302b85828601612d87565b925050602061303c85828601612ff1565b9150509250929050565b61304f81612f6d565b811461305a57600080fd5b50565b60008135905061306c81613046565b92915050565b600080600080600080600060a0888a03121561309157613090612d58565b5b600061309f8a828b01612d87565b975050602088013567ffffffffffffffff8111156130c0576130bf612d5d565b5b6130cc8a828b01612dab565b965096505060406130df8a828b01612ff1565b94505060606130f08a828b0161305d565b935050608088013567ffffffffffffffff81111561311157613110612d5d565b5b61311d8a828b01612dab565b925092505092959891949750929550565b61313781612fd0565b82525050565b6000604082019050613152600083018561312e565b61315f602083018461312e565b9392505050565b60008060006040848603121561317f5761317e612d58565b5b600061318d86828701612d87565b935050602084013567ffffffffffffffff8111156131ae576131ad612d5d565b5b6131ba86828701612dab565b92509250509250925092565b60006020820190506131db600083018461312e565b92915050565b6131ea81612d62565b82525050565b600060208201905061320560008301846131e1565b92915050565b600073ffffffffffffffffffffffffffffffffffffffff82169050919050565b60006132368261320b565b9050919050565b6132468161322b565b811461325157600080fd5b50565b6000813590506132638161323d565b92915050565b60006132748261320b565b9050919050565b61328481613269565b811461328f57600080fd5b50565b6000813590506132a18161327b565b92915050565b600080600080600080600080600060e08a8c0312156132c9576132c8612d58565b5b60006132d78c828d01613254565b99505060206132e88c828d01612d87565b98505060408a013567ffffffffffffffff81111561330957613308612d5d565b5b6133158c828d01612dab565b975097505060606133288c828d01612ff1565b95505060806133398c828d01613292565b94505060a061334a8c828d01613254565b93505060c08a013567ffffffffffffffff81111561336b5761336a612d5d565b5b6133778c828d01612dab565b92509250509295985092959850929598565b600080fd5b6000601f19601f8301169050919050565b7f4e487b7100000000000000000000000000000000000000000000000000000000600052604160045260246000fd5b6133d78261338e565b810181811067ffffffffffffffff821117156133f6576133f561339f565b5b80604052505050565b6000613409612d4e565b905061341582826133ce565b919050565b600067ffffffffffffffff8211156134355761343461339f565b5b61343e8261338e565b9050602081019050919050565b82818337600083830152505050565b600061346d6134688461341a565b6133ff565b90508281526020810184848401111561348957613488613389565b5b61349484828561344b565b509392505050565b600082601f8301126134b1576134b0612d9c565b5b81356134c184826020860161345a565b91505092915050565b6000806000606084860312156134e3576134e2612d58565b5b60006134f186828701612d87565b935050602084013567ffffffffffffffff81111561351257613511612d5d565b5b61351e8682870161349c565b925050604061352f86828701612e2c565b9150509250925092565b6000819050919050565b61354c81613539565b82525050565b60006020820190506135676000830184613543565b92915050565b600081519050919050565b600082825260208201905092915050565b60005b838110156135a757808201518184015260208101905061358c565b60008484015250505050565b60006135be8261356d565b6135c88185613578565b93506135d8818560208601613589565b6135e18161338e565b840191505092915050565b6000602082019050818103600083015261360681846135b3565b905092915050565b6000806040838503121561362557613624612d58565b5b600061363385828601612d87565b925050602061364485828601612d87565b9150509250929050565b6136578161322b565b82525050565b6000602082019050613672600083018461364e565b92915050565b6000819050919050565b600061369d6136986136938461320b565b613678565b61320b565b9050919050565b60006136af82613682565b9050919050565b60006136c1826136a4565b9050919050565b6136d1816136b6565b82525050565b60006020820190506136ec60008301846136c8565b92915050565b60006020828403121561370857613707612d58565b5b600061371684828501613254565b91505092915050565b60008060008060006080868803121561373b5761373a612d58565b5b600061374988828901612d87565b955050602061375a88828901612d87565b945050604061376b88828901612ff1565b935050606086013567ffffffffffffffff81111561378c5761378b612d5d565b5b61379888828901612dab565b92509250509295509295909350565b6000806000606084860312156137c0576137bf612d58565b5b60006137ce86828701612d87565b93505060206137df86828701612d87565b92505060406137f086828701612ff1565b9150509250925092565b6000602082840312156138105761380f612d58565b5b600061381e8482850161305d565b91505092915050565b6000806000806080858703121561384157613840612d58565b5b600061384f87828801612d87565b945050602061386087828801612d87565b935050604061387187828801613254565b925050606061388287828801612ff1565b91505092959194509250565b600082825260208201905092915050565b7f4c7a4170703a20696e76616c696420656e64706f696e742063616c6c65720000600082015250565b60006138d5601e8361388e565b91506138e08261389f565b602082019050919050565b60006020820190508181036000830152613904816138c8565b9050919050565b7f4e487b7100000000000000000000000000000000000000000000000000000000600052602260045260246000fd5b6000600282049050600182168061395257607f821691505b6020821081036139655761396461390b565b5b50919050565b600081905092915050565b6000613982838561396b565b935061398f83858461344b565b82840190509392505050565b60006139a8828486613976565b91508190509392505050565b7f4c7a4170703a20696e76616c696420736f757263652073656e64696e6720636f60008201527f6e74726163740000000000000000000000000000000000000000000000000000602082015250565b6000613a1060268361388e565b9150613a1b826139b4565b604082019050919050565b60006020820190508181036000830152613a3f81613a03565b9050919050565b6000613a528385613578565b9350613a5f83858461344b565b613a688361338e565b840190509392505050565b6000606082019050613a8860008301876131e1565b8181036020830152613a9b818587613a46565b9050613aaa604083018461312e565b95945050505050565b600060a082019050613ac860008301896131e1565b613ad5602083018861364e565b8181036040830152613ae781876135b3565b9050613af66060830186612f79565b8181036080830152613b09818486613a46565b9050979650505050505050565b600081519050613b2581612fda565b92915050565b60008060408385031215613b4257613b41612d58565b5b6000613b5085828601613b16565b9250506020613b6185828601613b16565b9150509250929050565b6000604082019050613b8060008301866131e1565b8181036020830152613b93818486613a46565b9050949350505050565b7f4e6f6e626c6f636b696e674c7a4170703a2063616c6c6572206d75737420626560008201527f204c7a4170700000000000000000000000000000000000000000000000000000602082015250565b6000613bf960268361388e565b9150613c0482613b9d565b604082019050919050565b60006020820190508181036000830152613c2881613bec565b9050919050565b600060208284031215613c4557613c44612d58565b5b6000613c5384828501613b16565b91505092915050565b7f4c7a4170703a206e6f20747275737465642070617468207265636f7264000000600082015250565b6000613c92601d8361388e565b9150613c9d82613c5c565b602082019050919050565b60006020820190508181036000830152613cc181613c85565b9050919050565b7f4e487b7100000000000000000000000000000000000000000000000000000000600052601160045260246000fd5b6000613d0282612fd0565b9150613d0d83612fd0565b9250828203905081811115613d2557613d24613cc8565b5b92915050565b60008160601b9050919050565b6000613d4382613d2b565b9050919050565b6000613d5582613d38565b9050919050565b613d6d613d688261322b565b613d4a565b82525050565b6000613d80828587613976565b9150613d8c8284613d5c565b601482019150819050949350505050565b60008190508160005260206000209050919050565b60006020601f8301049050919050565b600082821b905092915050565b600060088302613dff7fffffffffffffffffffffffffffffffffffffffffffffffffffffffffffffffff82613dc2565b613e098683613dc2565b95508019841693508086168417925050509392505050565b6000613e3c613e37613e3284612fd0565b613678565b612fd0565b9050919050565b6000819050919050565b613e5683613e21565b613e6a613e6282613e43565b848454613dcf565b825550505050565b600090565b613e7f613e72565b613e8a818484613e4d565b505050565b5b81811015613eae57613ea3600082613e77565b600181019050613e90565b5050565b601f821115613ef357613ec481613d9d565b613ecd84613db2565b81016020851015613edc578190505b613ef0613ee885613db2565b830182613e8f565b50505b505050565b600082821c905092915050565b6000613f1660001984600802613ef8565b1980831691505092915050565b6000613f2f8383613f05565b9150826002028217905092915050565b613f488261356d565b67ffffffffffffffff811115613f6157613f6061339f565b5b613f6b825461393a565b613f76828285613eb2565b600060209050601f831160018114613fa95760008415613f97578287015190505b613fa18582613f23565b865550614009565b601f198416613fb786613d9d565b60005b82811015613fdf57848901518255600182019150602085019450602081019050613fba565b86831015613ffc5784890151613ff8601f891682613f05565b8355505b6001600288020188555050505b505050505050565b600060808201905061402660008301886131e1565b61403360208301876131e1565b614040604083018661312e565b8181036060830152614053818486613a46565b90509695505050505050565b7f4e6f6e626c6f636b696e674c7a4170703a206e6f2073746f726564206d65737360008201527f6167650000000000000000000000000000000000000000000000000000000000602082015250565b60006140bb60238361388e565b91506140c68261405f565b604082019050919050565b600060208201905081810360008301526140ea816140ae565b9050919050565b7f4e6f6e626c6f636b696e674c7a4170703a20696e76616c6964207061796c6f6160008201527f6400000000000000000000000000000000000000000000000000000000000000602082015250565b600061414d60218361388e565b9150614158826140f1565b604082019050919050565b6000602082019050818103600083015261417c81614140565b9050919050565b61418c81612e01565b82525050565b60006080820190506141a760008301886131e1565b81810360208301526141ba818688613a46565b90506141c96040830185614183565b6141d66060830184613543565b9695505050505050565b7f4c7a4170703a20696e76616c6964206d696e4761730000000000000000000000600082015250565b600061421660158361388e565b9150614221826141e0565b602082019050919050565b6000602082019050818103600083015261424581614209565b9050919050565b600060608201905061426160008301866131e1565b61426e60208301856131e1565b61427b604083018461312e565b949350505050565b600082905092915050565b6142988383614283565b67ffffffffffffffff8111156142b1576142b061339f565b5b6142bb825461393a565b6142c6828285613eb2565b6000601f8311600181146142f557600084156142e3578287013590505b6142ed8582613f23565b865550614355565b601f19841661430386613d9d565b60005b8281101561432b57848901358255600182019150602085019450602081019050614306565b868310156143485784890135614344601f891682613f05565b8355505b6001600288020188555050505b50505050505050565b7f4f776e61626c653a206e6577206f776e657220697320746865207a65726f206160008201527f6464726573730000000000000000000000000000000000000000000000000000602082015250565b60006143ba60268361388e565b91506143c58261435e565b604082019050919050565b600060208201905081810360008301526143e9816143ad565b9050919050565b600060808201905061440560008301876131e1565b61441260208301866131e1565b61441f604083018561364e565b61442c606083018461312e565b95945050505050565b60006144486144438461341a565b6133ff565b90508281526020810184848401111561446457614463613389565b5b61446f848285613589565b509392505050565b600082601f83011261448c5761448b612d9c565b5b815161449c848260208601614435565b91505092915050565b6000602082840312156144bb576144ba612d58565b5b600082015167ffffffffffffffff8111156144d9576144d8612d5d565b5b6144e584828501614477565b91505092915050565b600060808201905061450360008301876131e1565b818103602083015261451581866135b3565b90506145246040830185614183565b818103606083015261453681846135b3565b905095945050505050565b7f4f776e61626c653a2063616c6c6572206973206e6f7420746865206f776e6572600082015250565b600061457760208361388e565b915061458282614541565b602082019050919050565b600060208201905081810360008301526145a68161456a565b9050919050565b60006060820190506145c260008301866131e1565b81810360208301526145d481856135b3565b90506145e3604083018461312e565b949350505050565b6000604082019050818103600083015261460581856135b3565b9050614614602083018461312e565b9392505050565b7f4f4654436f72653a20756e6b6e6f776e207061636b6574207479706500000000600082015250565b6000614651601c8361388e565b915061465c8261461b565b602082019050919050565b6000602082019050818103600083015261468081614644565b9050919050565b600061469282612fd0565b915061469d83612fd0565b92508282019050808211156146b5576146b4613cc8565b5b92915050565b7f736c6963655f6f766572666c6f77000000000000000000000000000000000000600082015250565b60006146f1600e8361388e565b91506146fc826146bb565b602082019050919050565b60006020820190508181036000830152614720816146e4565b9050919050565b7f736c6963655f6f75744f66426f756e6473000000000000000000000000000000600082015250565b600061475d60118361388e565b915061476882614727565b602082019050919050565b6000602082019050818103600083015261478c81614750565b9050919050565b600061479e8261356d565b6147a8818561396b565b93506147b8818560208601613589565b80840191505092915050565b60006147d08284614793565b915081905092915050565b600060a0820190506147f060008301886131e1565b818103602083015261480281876135b3565b90506148116040830186614183565b818103606083015261482381856135b3565b9050818103608083015261483781846135b3565b90509695505050505050565b7f4f4654436f72653a205f61646170746572506172616d73206d7573742062652060008201527f656d7074792e0000000000000000000000000000000000000000000000000000602082015250565b600061489f60268361388e565b91506148aa82614843565b604082019050919050565b600060208201905081810360008301526148ce81614892565b9050919050565b7f50726f78794f46543a206f776e6572206973206e6f742073656e642063616c6c60008201527f6572000000000000000000000000000000000000000000000000000000000000602082015250565b600061493160228361388e565b915061493c826148d5565b604082019050919050565b6000602082019050818103600083015261496081614924565b9050919050565b7f4c7a4170703a2064657374696e6174696f6e20636861696e206973206e6f742060008201527f61207472757374656420736f7572636500000000000000000000000000000000602082015250565b60006149c360308361388e565b91506149ce82614967565b604082019050919050565b600060208201905081810360008301526149f2816149b6565b9050919050565b614a0281613269565b82525050565b600060c082019050614a1d60008301896131e1565b8181036020830152614a2f81886135b3565b90508181036040830152614a4381876135b3565b9050614a5260608301866149f9565b614a5f608083018561364e565b81810360a0830152614a7181846135b3565b9050979650505050505050565b600081519050614a8d81612d70565b92915050565b600080600060608486031215614aac57614aab612d58565b5b6000614aba86828701614a7e565b935050602084015167ffffffffffffffff811115614adb57614ada612d5d565b5b614ae786828701614477565b9250506040614af886828701613b16565b9150509250925092565b7f4c7a4170703a206d696e4761734c696d6974206e6f7420736574000000000000600082015250565b6000614b38601a8361388e565b9150614b4382614b02565b602082019050919050565b60006020820190508181036000830152614b6781614b2b565b9050919050565b7f4c7a4170703a20676173206c696d697420697320746f6f206c6f770000000000600082015250565b6000614ba4601b8361388e565b9150614baf82614b6e565b602082019050919050565b60006020820190508181036000830152614bd381614b97565b9050919050565b6000606082019050614bef600083018661364e565b614bfc602083018561364e565b614c09604083018461312e565b949350505050565b7f4c7a4170703a207061796c6f61642073697a6520697320746f6f206c61726765600082015250565b6000614c4760208361388e565b9150614c5282614c11565b602082019050919050565b60006020820190508181036000830152614c7681614c3a565b9050919050565b7f746f416464726573735f6f75744f66426f756e64730000000000000000000000600082015250565b6000614cb360158361388e565b9150614cbe82614c7d565b602082019050919050565b60006020820190508181036000830152614ce281614ca6565b9050919050565b7f4c7a4170703a20696e76616c69642061646170746572506172616d7300000000600082015250565b6000614d1f601c8361388e565b9150614d2a82614ce9565b602082019050919050565b60006020820190508181036000830152614d4e81614d12565b9050919050565b600081519050614d6481613046565b92915050565b600060208284031215614d8057614d7f612d58565b5b6000614d8e84828501614d55565b91505092915050565b7f5361666545524332303a204552433230206f7065726174696f6e20646964206e60008201527f6f74207375636365656400000000000000000000000000000000000000000000602082015250565b6000614df3602a8361388e565b9150614dfe82614d97565b604082019050919050565b60006020820190508181036000830152614e2281614de6565b9050919050565b6000604082019050614e3e600083018561364e565b614e4b602083018461312e565b9392505050565b7f416464726573733a20696e73756666696369656e742062616c616e636520666f60008201527f722063616c6c0000000000000000000000000000000000000000000000000000602082015250565b6000614eae60268361388e565b9150614eb982614e52565b604082019050919050565b60006020820190508181036000830152614edd81614ea1565b9050919050565b7f416464726573733a2063616c6c20746f206e6f6e2d636f6e7472616374000000600082015250565b6000614f1a601d8361388e565b9150614f2582614ee4565b602082019050919050565b60006020820190508181036000830152614f4981614f0d565b9050919050565b600081519050919050565b6000614f6682614f50565b614f70818561388e565b9350614f80818560208601613589565b614f898161338e565b840191505092915050565b60006020820190508181036000830152614fae8184614f5b565b90509291505056fea2646970667358221220ff2a48f2e07d0c8ffeb079182c0309da9ead4f224bbd1041c0f4207ad7b2d7ef64736f6c63430008120033",
      "opcodes": "PUSH1 0xC0 PUSH1 0x40 MSTORE CALLVALUE DUP1 ISZERO PUSH3 0x11 JUMPI PUSH1 0x0 DUP1 REVERT JUMPDEST POP PUSH1 0x40 MLOAD PUSH3 0x52CC CODESIZE SUB DUP1 PUSH3 0x52CC DUP4 CODECOPY DUP2 DUP2 ADD PUSH1 0x40 MSTORE DUP2 ADD SWAP1 PUSH3 0x37 SWAP2 SWAP1 PUSH3 0x203 JUMP JUMPDEST DUP2 DUP1 DUP1 PUSH3 0x5A PUSH3 0x4E PUSH3 0xCD PUSH1 0x20 SHL PUSH1 0x20 SHR JUMP JUMPDEST PUSH3 0xD5 PUSH1 0x20 SHL PUSH1 0x20 SHR JUMP JUMPDEST DUP1 PUSH20 0xFFFFFFFFFFFFFFFFFFFFFFFFFFFFFFFFFFFFFFFF AND PUSH1 0x80 DUP2 PUSH20 0xFFFFFFFFFFFFFFFFFFFFFFFFFFFFFFFFFFFFFFFF AND DUP2 MSTORE POP POP POP POP POP DUP1 PUSH20 0xFFFFFFFFFFFFFFFFFFFFFFFFFFFFFFFFFFFFFFFF AND PUSH1 0xA0 DUP2 PUSH20 0xFFFFFFFFFFFFFFFFFFFFFFFFFFFFFFFFFFFFFFFF AND DUP2 MSTORE POP POP POP POP PUSH3 0x24A JUMP JUMPDEST PUSH1 0x0 CALLER SWAP1 POP SWAP1 JUMP JUMPDEST PUSH1 0x0 DUP1 PUSH1 0x0 SWAP1 SLOAD SWAP1 PUSH2 0x100 EXP SWAP1 DIV PUSH20 0xFFFFFFFFFFFFFFFFFFFFFFFFFFFFFFFFFFFFFFFF AND SWAP1 POP DUP2 PUSH1 0x0 DUP1 PUSH2 0x100 EXP DUP2 SLOAD DUP2 PUSH20 0xFFFFFFFFFFFFFFFFFFFFFFFFFFFFFFFFFFFFFFFF MUL NOT AND SWAP1 DUP4 PUSH20 0xFFFFFFFFFFFFFFFFFFFFFFFFFFFFFFFFFFFFFFFF AND MUL OR SWAP1 SSTORE POP DUP2 PUSH20 0xFFFFFFFFFFFFFFFFFFFFFFFFFFFFFFFFFFFFFFFF AND DUP2 PUSH20 0xFFFFFFFFFFFFFFFFFFFFFFFFFFFFFFFFFFFFFFFF AND PUSH32 0x8BE0079C531659141344CD1FD0A4F28419497F9722A3DAAFE3B4186F6B6457E0 PUSH1 0x40 MLOAD PUSH1 0x40 MLOAD DUP1 SWAP2 SUB SWAP1 LOG3 POP POP JUMP JUMPDEST PUSH1 0x0 DUP1 REVERT JUMPDEST PUSH1 0x0 PUSH20 0xFFFFFFFFFFFFFFFFFFFFFFFFFFFFFFFFFFFFFFFF DUP3 AND SWAP1 POP SWAP2 SWAP1 POP JUMP JUMPDEST PUSH1 0x0 PUSH3 0x1CB DUP3 PUSH3 0x19E JUMP JUMPDEST SWAP1 POP SWAP2 SWAP1 POP JUMP JUMPDEST PUSH3 0x1DD DUP2 PUSH3 0x1BE JUMP JUMPDEST DUP2 EQ PUSH3 0x1E9 JUMPI PUSH1 0x0 DUP1 REVERT JUMPDEST POP JUMP JUMPDEST PUSH1 0x0 DUP2 MLOAD SWAP1 POP PUSH3 0x1FD DUP2 PUSH3 0x1D2 JUMP JUMPDEST SWAP3 SWAP2 POP POP JUMP JUMPDEST PUSH1 0x0 DUP1 PUSH1 0x40 DUP4 DUP6 SUB SLT ISZERO PUSH3 0x21D JUMPI PUSH3 0x21C PUSH3 0x199 JUMP JUMPDEST JUMPDEST PUSH1 0x0 PUSH3 0x22D DUP6 DUP3 DUP7 ADD PUSH3 0x1EC JUMP JUMPDEST SWAP3 POP POP PUSH1 0x20 PUSH3 0x240 DUP6 DUP3 DUP7 ADD PUSH3 0x1EC JUMP JUMPDEST SWAP2 POP POP SWAP3 POP SWAP3 SWAP1 POP JUMP JUMPDEST PUSH1 0x80 MLOAD PUSH1 0xA0 MLOAD PUSH2 0x4FEC PUSH3 0x2E0 PUSH1 0x0 CODECOPY PUSH1 0x0 DUP2 DUP2 PUSH2 0x11A6 ADD MSTORE DUP2 DUP2 PUSH2 0x1240 ADD MSTORE DUP2 DUP2 PUSH2 0x1B16 ADD MSTORE DUP2 DUP2 PUSH2 0x2229 ADD MSTORE DUP2 DUP2 PUSH2 0x22CB ADD MSTORE DUP2 DUP2 PUSH2 0x2313 ADD MSTORE DUP2 DUP2 PUSH2 0x284C ADD MSTORE DUP2 DUP2 PUSH2 0x28ED ADD MSTORE PUSH2 0x2934 ADD MSTORE PUSH1 0x0 DUP2 DUP2 PUSH2 0x80C ADD MSTORE DUP2 DUP2 PUSH2 0xAE4 ADD MSTORE DUP2 DUP2 PUSH2 0xBA6 ADD MSTORE DUP2 DUP2 PUSH2 0xC61 ADD MSTORE DUP2 DUP2 PUSH2 0xE09 ADD MSTORE DUP2 DUP2 PUSH2 0x14A8 ADD MSTORE DUP2 DUP2 PUSH2 0x155D ADD MSTORE DUP2 DUP2 PUSH2 0x1A65 ADD MSTORE PUSH2 0x24B9 ADD MSTORE PUSH2 0x4FEC PUSH1 0x0 RETURN INVALID PUSH1 0x80 PUSH1 0x40 MSTORE PUSH1 0x4 CALLDATASIZE LT PUSH2 0x1F8 JUMPI PUSH1 0x0 CALLDATALOAD PUSH1 0xE0 SHR DUP1 PUSH4 0x8DA5CB5B GT PUSH2 0x10D JUMPI DUP1 PUSH4 0xCBED8B9C GT PUSH2 0xA0 JUMPI DUP1 PUSH4 0xEB8D72B7 GT PUSH2 0x6F JUMPI DUP1 PUSH4 0xEB8D72B7 EQ PUSH2 0x725 JUMPI DUP1 PUSH4 0xED629C5C EQ PUSH2 0x74E JUMPI DUP1 PUSH4 0xF2FDE38B EQ PUSH2 0x779 JUMPI DUP1 PUSH4 0xF5ECBDBC EQ PUSH2 0x7A2 JUMPI DUP1 PUSH4 0xFC0C546A EQ PUSH2 0x7DF JUMPI PUSH2 0x1F8 JUMP JUMPDEST DUP1 PUSH4 0xCBED8B9C EQ PUSH2 0x68E JUMPI DUP1 PUSH4 0xD1DEBA1F EQ PUSH2 0x6B7 JUMPI DUP1 PUSH4 0xDF2A5B3B EQ PUSH2 0x6D3 JUMPI DUP1 PUSH4 0xEAB45D9C EQ PUSH2 0x6FC JUMPI PUSH2 0x1F8 JUMP JUMPDEST DUP1 PUSH4 0xA6C3D165 GT PUSH2 0xDC JUMPI DUP1 PUSH4 0xA6C3D165 EQ PUSH2 0x5E6 JUMPI DUP1 PUSH4 0xB353AAA7 EQ PUSH2 0x60F JUMPI DUP1 PUSH4 0xBAF3292D EQ PUSH2 0x63A JUMPI DUP1 PUSH4 0xC4461834 EQ PUSH2 0x663 JUMPI PUSH2 0x1F8 JUMP JUMPDEST DUP1 PUSH4 0x8DA5CB5B EQ PUSH2 0x528 JUMPI DUP1 PUSH4 0x9358928B EQ PUSH2 0x553 JUMPI DUP1 PUSH4 0x950C8A74 EQ PUSH2 0x57E JUMPI DUP1 PUSH4 0x9F38369A EQ PUSH2 0x5A9 JUMPI PUSH2 0x1F8 JUMP JUMPDEST DUP1 PUSH4 0x42D65A8D GT PUSH2 0x190 JUMPI DUP1 PUSH4 0x5B8C41E6 GT PUSH2 0x15F JUMPI DUP1 PUSH4 0x5B8C41E6 EQ PUSH2 0x431 JUMPI DUP1 PUSH4 0x66AD5C8A EQ PUSH2 0x46E JUMPI DUP1 PUSH4 0x715018A6 EQ PUSH2 0x497 JUMPI DUP1 PUSH4 0x7533D788 EQ PUSH2 0x4AE JUMPI DUP1 PUSH4 0x8CFD8F5C EQ PUSH2 0x4EB JUMPI PUSH2 0x1F8 JUMP JUMPDEST DUP1 PUSH4 0x42D65A8D EQ PUSH2 0x396 JUMPI DUP1 PUSH4 0x44770515 EQ PUSH2 0x3BF JUMPI DUP1 PUSH4 0x4C42899A EQ PUSH2 0x3EA JUMPI DUP1 PUSH4 0x51905636 EQ PUSH2 0x415 JUMPI PUSH2 0x1F8 JUMP JUMPDEST DUP1 PUSH4 0x10DDB137 GT PUSH2 0x1CC JUMPI DUP1 PUSH4 0x10DDB137 EQ PUSH2 0x2B5 JUMPI DUP1 PUSH4 0x2A205E3D EQ PUSH2 0x2DE JUMPI DUP1 PUSH4 0x3D8B38F6 EQ PUSH2 0x31C JUMPI DUP1 PUSH4 0x3F1F4FA4 EQ PUSH2 0x359 JUMPI PUSH2 0x1F8 JUMP JUMPDEST DUP1 PUSH3 0x1D3567 EQ PUSH2 0x1FD JUMPI DUP1 PUSH4 0x1FFC9A7 EQ PUSH2 0x226 JUMPI DUP1 PUSH4 0x7E0DB17 EQ PUSH2 0x263 JUMPI DUP1 PUSH4 0xDF37483 EQ PUSH2 0x28C JUMPI JUMPDEST PUSH1 0x0 DUP1 REVERT JUMPDEST CALLVALUE DUP1 ISZERO PUSH2 0x209 JUMPI PUSH1 0x0 DUP1 REVERT JUMPDEST POP PUSH2 0x224 PUSH1 0x4 DUP1 CALLDATASIZE SUB DUP2 ADD SWAP1 PUSH2 0x21F SWAP2 SWAP1 PUSH2 0x2E41 JUMP JUMPDEST PUSH2 0x80A JUMP JUMPDEST STOP JUMPDEST CALLVALUE DUP1 ISZERO PUSH2 0x232 JUMPI PUSH1 0x0 DUP1 REVERT JUMPDEST POP PUSH2 0x24D PUSH1 0x4 DUP1 CALLDATASIZE SUB DUP2 ADD SWAP1 PUSH2 0x248 SWAP2 SWAP1 PUSH2 0x2F40 JUMP JUMPDEST PUSH2 0xA60 JUMP JUMPDEST PUSH1 0x40 MLOAD PUSH2 0x25A SWAP2 SWAP1 PUSH2 0x2F88 JUMP JUMPDEST PUSH1 0x40 MLOAD DUP1 SWAP2 SUB SWAP1 RETURN JUMPDEST CALLVALUE DUP1 ISZERO PUSH2 0x26F JUMPI PUSH1 0x0 DUP1 REVERT JUMPDEST POP PUSH2 0x28A PUSH1 0x4 DUP1 CALLDATASIZE SUB DUP2 ADD SWAP1 PUSH2 0x285 SWAP2 SWAP1 PUSH2 0x2FA3 JUMP JUMPDEST PUSH2 0xADA JUMP JUMPDEST STOP JUMPDEST CALLVALUE DUP1 ISZERO PUSH2 0x298 JUMPI PUSH1 0x0 DUP1 REVERT JUMPDEST POP PUSH2 0x2B3 PUSH1 0x4 DUP1 CALLDATASIZE SUB DUP2 ADD SWAP1 PUSH2 0x2AE SWAP2 SWAP1 PUSH2 0x3006 JUMP JUMPDEST PUSH2 0xB70 JUMP JUMPDEST STOP JUMPDEST CALLVALUE DUP1 ISZERO PUSH2 0x2C1 JUMPI PUSH1 0x0 DUP1 REVERT JUMPDEST POP PUSH2 0x2DC PUSH1 0x4 DUP1 CALLDATASIZE SUB DUP2 ADD SWAP1 PUSH2 0x2D7 SWAP2 SWAP1 PUSH2 0x2FA3 JUMP JUMPDEST PUSH2 0xB9C JUMP JUMPDEST STOP JUMPDEST CALLVALUE DUP1 ISZERO PUSH2 0x2EA JUMPI PUSH1 0x0 DUP1 REVERT JUMPDEST POP PUSH2 0x305 PUSH1 0x4 DUP1 CALLDATASIZE SUB DUP2 ADD SWAP1 PUSH2 0x300 SWAP2 SWAP1 PUSH2 0x3072 JUMP JUMPDEST PUSH2 0xC32 JUMP JUMPDEST PUSH1 0x40 MLOAD PUSH2 0x313 SWAP3 SWAP2 SWAP1 PUSH2 0x313D JUMP JUMPDEST PUSH1 0x40 MLOAD DUP1 SWAP2 SUB SWAP1 RETURN JUMPDEST CALLVALUE DUP1 ISZERO PUSH2 0x328 JUMPI PUSH1 0x0 DUP1 REVERT JUMPDEST POP PUSH2 0x343 PUSH1 0x4 DUP1 CALLDATASIZE SUB DUP2 ADD SWAP1 PUSH2 0x33E SWAP2 SWAP1 PUSH2 0x3166 JUMP JUMPDEST PUSH2 0xD13 JUMP JUMPDEST PUSH1 0x40 MLOAD PUSH2 0x350 SWAP2 SWAP1 PUSH2 0x2F88 JUMP JUMPDEST PUSH1 0x40 MLOAD DUP1 SWAP2 SUB SWAP1 RETURN JUMPDEST CALLVALUE DUP1 ISZERO PUSH2 0x365 JUMPI PUSH1 0x0 DUP1 REVERT JUMPDEST POP PUSH2 0x380 PUSH1 0x4 DUP1 CALLDATASIZE SUB DUP2 ADD SWAP1 PUSH2 0x37B SWAP2 SWAP1 PUSH2 0x2FA3 JUMP JUMPDEST PUSH2 0xDE7 JUMP JUMPDEST PUSH1 0x40 MLOAD PUSH2 0x38D SWAP2 SWAP1 PUSH2 0x31C6 JUMP JUMPDEST PUSH1 0x40 MLOAD DUP1 SWAP2 SUB SWAP1 RETURN JUMPDEST CALLVALUE DUP1 ISZERO PUSH2 0x3A2 JUMPI PUSH1 0x0 DUP1 REVERT JUMPDEST POP PUSH2 0x3BD PUSH1 0x4 DUP1 CALLDATASIZE SUB DUP2 ADD SWAP1 PUSH2 0x3B8 SWAP2 SWAP1 PUSH2 0x3166 JUMP JUMPDEST PUSH2 0xDFF JUMP JUMPDEST STOP JUMPDEST CALLVALUE DUP1 ISZERO PUSH2 0x3CB JUMPI PUSH1 0x0 DUP1 REVERT JUMPDEST POP PUSH2 0x3D4 PUSH2 0xE9B JUMP JUMPDEST PUSH1 0x40 MLOAD PUSH2 0x3E1 SWAP2 SWAP1 PUSH2 0x31C6 JUMP JUMPDEST PUSH1 0x40 MLOAD DUP1 SWAP2 SUB SWAP1 RETURN JUMPDEST CALLVALUE DUP1 ISZERO PUSH2 0x3F6 JUMPI PUSH1 0x0 DUP1 REVERT JUMPDEST POP PUSH2 0x3FF PUSH2 0xEA0 JUMP JUMPDEST PUSH1 0x40 MLOAD PUSH2 0x40C SWAP2 SWAP1 PUSH2 0x31F0 JUMP JUMPDEST PUSH1 0x40 MLOAD DUP1 SWAP2 SUB SWAP1 RETURN JUMPDEST PUSH2 0x42F PUSH1 0x4 DUP1 CALLDATASIZE SUB DUP2 ADD SWAP1 PUSH2 0x42A SWAP2 SWAP1 PUSH2 0x32A7 JUMP JUMPDEST PUSH2 0xEA5 JUMP JUMPDEST STOP JUMPDEST CALLVALUE DUP1 ISZERO PUSH2 0x43D JUMPI PUSH1 0x0 DUP1 REVERT JUMPDEST POP PUSH2 0x458 PUSH1 0x4 DUP1 CALLDATASIZE SUB DUP2 ADD SWAP1 PUSH2 0x453 SWAP2 SWAP1 PUSH2 0x34CA JUMP JUMPDEST PUSH2 0xF47 JUMP JUMPDEST PUSH1 0x40 MLOAD PUSH2 0x465 SWAP2 SWAP1 PUSH2 0x3552 JUMP JUMPDEST PUSH1 0x40 MLOAD DUP1 SWAP2 SUB SWAP1 RETURN JUMPDEST CALLVALUE DUP1 ISZERO PUSH2 0x47A JUMPI PUSH1 0x0 DUP1 REVERT JUMPDEST POP PUSH2 0x495 PUSH1 0x4 DUP1 CALLDATASIZE SUB DUP2 ADD SWAP1 PUSH2 0x490 SWAP2 SWAP1 PUSH2 0x2E41 JUMP JUMPDEST PUSH2 0xF8F JUMP JUMPDEST STOP JUMPDEST CALLVALUE DUP1 ISZERO PUSH2 0x4A3 JUMPI PUSH1 0x0 DUP1 REVERT JUMPDEST POP PUSH2 0x4AC PUSH2 0x10A0 JUMP JUMPDEST STOP JUMPDEST CALLVALUE DUP1 ISZERO PUSH2 0x4BA JUMPI PUSH1 0x0 DUP1 REVERT JUMPDEST POP PUSH2 0x4D5 PUSH1 0x4 DUP1 CALLDATASIZE SUB DUP2 ADD SWAP1 PUSH2 0x4D0 SWAP2 SWAP1 PUSH2 0x2FA3 JUMP JUMPDEST PUSH2 0x10B4 JUMP JUMPDEST PUSH1 0x40 MLOAD PUSH2 0x4E2 SWAP2 SWAP1 PUSH2 0x35EC JUMP JUMPDEST PUSH1 0x40 MLOAD DUP1 SWAP2 SUB SWAP1 RETURN JUMPDEST CALLVALUE DUP1 ISZERO PUSH2 0x4F7 JUMPI PUSH1 0x0 DUP1 REVERT JUMPDEST POP PUSH2 0x512 PUSH1 0x4 DUP1 CALLDATASIZE SUB DUP2 ADD SWAP1 PUSH2 0x50D SWAP2 SWAP1 PUSH2 0x360E JUMP JUMPDEST PUSH2 0x1154 JUMP JUMPDEST PUSH1 0x40 MLOAD PUSH2 0x51F SWAP2 SWAP1 PUSH2 0x31C6 JUMP JUMPDEST PUSH1 0x40 MLOAD DUP1 SWAP2 SUB SWAP1 RETURN JUMPDEST CALLVALUE DUP1 ISZERO PUSH2 0x534 JUMPI PUSH1 0x0 DUP1 REVERT JUMPDEST POP PUSH2 0x53D PUSH2 0x1179 JUMP JUMPDEST PUSH1 0x40 MLOAD PUSH2 0x54A SWAP2 SWAP1 PUSH2 0x365D JUMP JUMPDEST PUSH1 0x40 MLOAD DUP1 SWAP2 SUB SWAP1 RETURN JUMPDEST CALLVALUE DUP1 ISZERO PUSH2 0x55F JUMPI PUSH1 0x0 DUP1 REVERT JUMPDEST POP PUSH2 0x568 PUSH2 0x11A2 JUMP JUMPDEST PUSH1 0x40 MLOAD PUSH2 0x575 SWAP2 SWAP1 PUSH2 0x31C6 JUMP JUMPDEST PUSH1 0x40 MLOAD DUP1 SWAP2 SUB SWAP1 RETURN JUMPDEST CALLVALUE DUP1 ISZERO PUSH2 0x58A JUMPI PUSH1 0x0 DUP1 REVERT JUMPDEST POP PUSH2 0x593 PUSH2 0x12D3 JUMP JUMPDEST PUSH1 0x40 MLOAD PUSH2 0x5A0 SWAP2 SWAP1 PUSH2 0x365D JUMP JUMPDEST PUSH1 0x40 MLOAD DUP1 SWAP2 SUB SWAP1 RETURN JUMPDEST CALLVALUE DUP1 ISZERO PUSH2 0x5B5 JUMPI PUSH1 0x0 DUP1 REVERT JUMPDEST POP PUSH2 0x5D0 PUSH1 0x4 DUP1 CALLDATASIZE SUB DUP2 ADD SWAP1 PUSH2 0x5CB SWAP2 SWAP1 PUSH2 0x2FA3 JUMP JUMPDEST PUSH2 0x12F9 JUMP JUMPDEST PUSH1 0x40 MLOAD PUSH2 0x5DD SWAP2 SWAP1 PUSH2 0x35EC JUMP JUMPDEST PUSH1 0x40 MLOAD DUP1 SWAP2 SUB SWAP1 RETURN JUMPDEST CALLVALUE DUP1 ISZERO PUSH2 0x5F2 JUMPI PUSH1 0x0 DUP1 REVERT JUMPDEST POP PUSH2 0x60D PUSH1 0x4 DUP1 CALLDATASIZE SUB DUP2 ADD SWAP1 PUSH2 0x608 SWAP2 SWAP1 PUSH2 0x3166 JUMP JUMPDEST PUSH2 0x1412 JUMP JUMPDEST STOP JUMPDEST CALLVALUE DUP1 ISZERO PUSH2 0x61B JUMPI PUSH1 0x0 DUP1 REVERT JUMPDEST POP PUSH2 0x624 PUSH2 0x14A6 JUMP JUMPDEST PUSH1 0x40 MLOAD PUSH2 0x631 SWAP2 SWAP1 PUSH2 0x36D7 JUMP JUMPDEST PUSH1 0x40 MLOAD DUP1 SWAP2 SUB SWAP1 RETURN JUMPDEST CALLVALUE DUP1 ISZERO PUSH2 0x646 JUMPI PUSH1 0x0 DUP1 REVERT JUMPDEST POP PUSH2 0x661 PUSH1 0x4 DUP1 CALLDATASIZE SUB DUP2 ADD SWAP1 PUSH2 0x65C SWAP2 SWAP1 PUSH2 0x36F2 JUMP JUMPDEST PUSH2 0x14CA JUMP JUMPDEST STOP JUMPDEST CALLVALUE DUP1 ISZERO PUSH2 0x66F JUMPI PUSH1 0x0 DUP1 REVERT JUMPDEST POP PUSH2 0x678 PUSH2 0x154D JUMP JUMPDEST PUSH1 0x40 MLOAD PUSH2 0x685 SWAP2 SWAP1 PUSH2 0x31C6 JUMP JUMPDEST PUSH1 0x40 MLOAD DUP1 SWAP2 SUB SWAP1 RETURN JUMPDEST CALLVALUE DUP1 ISZERO PUSH2 0x69A JUMPI PUSH1 0x0 DUP1 REVERT JUMPDEST POP PUSH2 0x6B5 PUSH1 0x4 DUP1 CALLDATASIZE SUB DUP2 ADD SWAP1 PUSH2 0x6B0 SWAP2 SWAP1 PUSH2 0x371F JUMP JUMPDEST PUSH2 0x1553 JUMP JUMPDEST STOP JUMPDEST PUSH2 0x6D1 PUSH1 0x4 DUP1 CALLDATASIZE SUB DUP2 ADD SWAP1 PUSH2 0x6CC SWAP2 SWAP1 PUSH2 0x2E41 JUMP JUMPDEST PUSH2 0x15F5 JUMP JUMPDEST STOP JUMPDEST CALLVALUE DUP1 ISZERO PUSH2 0x6DF JUMPI PUSH1 0x0 DUP1 REVERT JUMPDEST POP PUSH2 0x6FA PUSH1 0x4 DUP1 CALLDATASIZE SUB DUP2 ADD SWAP1 PUSH2 0x6F5 SWAP2 SWAP1 PUSH2 0x37A7 JUMP JUMPDEST PUSH2 0x1838 JUMP JUMPDEST STOP JUMPDEST CALLVALUE DUP1 ISZERO PUSH2 0x708 JUMPI PUSH1 0x0 DUP1 REVERT JUMPDEST POP PUSH2 0x723 PUSH1 0x4 DUP1 CALLDATASIZE SUB DUP2 ADD SWAP1 PUSH2 0x71E SWAP2 SWAP1 PUSH2 0x37FA JUMP JUMPDEST PUSH2 0x18FC JUMP JUMPDEST STOP JUMPDEST CALLVALUE DUP1 ISZERO PUSH2 0x731 JUMPI PUSH1 0x0 DUP1 REVERT JUMPDEST POP PUSH2 0x74C PUSH1 0x4 DUP1 CALLDATASIZE SUB DUP2 ADD SWAP1 PUSH2 0x747 SWAP2 SWAP1 PUSH2 0x3166 JUMP JUMPDEST PUSH2 0x1958 JUMP JUMPDEST STOP JUMPDEST CALLVALUE DUP1 ISZERO PUSH2 0x75A JUMPI PUSH1 0x0 DUP1 REVERT JUMPDEST POP PUSH2 0x763 PUSH2 0x19CB JUMP JUMPDEST PUSH1 0x40 MLOAD PUSH2 0x770 SWAP2 SWAP1 PUSH2 0x2F88 JUMP JUMPDEST PUSH1 0x40 MLOAD DUP1 SWAP2 SUB SWAP1 RETURN JUMPDEST CALLVALUE DUP1 ISZERO PUSH2 0x785 JUMPI PUSH1 0x0 DUP1 REVERT JUMPDEST POP PUSH2 0x7A0 PUSH1 0x4 DUP1 CALLDATASIZE SUB DUP2 ADD SWAP1 PUSH2 0x79B SWAP2 SWAP1 PUSH2 0x36F2 JUMP JUMPDEST PUSH2 0x19DE JUMP JUMPDEST STOP JUMPDEST CALLVALUE DUP1 ISZERO PUSH2 0x7AE JUMPI PUSH1 0x0 DUP1 REVERT JUMPDEST POP PUSH2 0x7C9 PUSH1 0x4 DUP1 CALLDATASIZE SUB DUP2 ADD SWAP1 PUSH2 0x7C4 SWAP2 SWAP1 PUSH2 0x3827 JUMP JUMPDEST PUSH2 0x1A61 JUMP JUMPDEST PUSH1 0x40 MLOAD PUSH2 0x7D6 SWAP2 SWAP1 PUSH2 0x35EC JUMP JUMPDEST PUSH1 0x40 MLOAD DUP1 SWAP2 SUB SWAP1 RETURN JUMPDEST CALLVALUE DUP1 ISZERO PUSH2 0x7EB JUMPI PUSH1 0x0 DUP1 REVERT JUMPDEST POP PUSH2 0x7F4 PUSH2 0x1B12 JUMP JUMPDEST PUSH1 0x40 MLOAD PUSH2 0x801 SWAP2 SWAP1 PUSH2 0x365D JUMP JUMPDEST PUSH1 0x40 MLOAD DUP1 SWAP2 SUB SWAP1 RETURN JUMPDEST PUSH32 0x0 PUSH20 0xFFFFFFFFFFFFFFFFFFFFFFFFFFFFFFFFFFFFFFFF AND PUSH2 0x849 PUSH2 0x1B3A JUMP JUMPDEST PUSH20 0xFFFFFFFFFFFFFFFFFFFFFFFFFFFFFFFFFFFFFFFF AND EQ PUSH2 0x89F JUMPI PUSH1 0x40 MLOAD PUSH32 0x8C379A000000000000000000000000000000000000000000000000000000000 DUP2 MSTORE PUSH1 0x4 ADD PUSH2 0x896 SWAP1 PUSH2 0x38EB JUMP JUMPDEST PUSH1 0x40 MLOAD DUP1 SWAP2 SUB SWAP1 REVERT JUMPDEST PUSH1 0x0 PUSH1 0x1 PUSH1 0x0 DUP9 PUSH2 0xFFFF AND PUSH2 0xFFFF AND DUP2 MSTORE PUSH1 0x20 ADD SWAP1 DUP2 MSTORE PUSH1 0x20 ADD PUSH1 0x0 KECCAK256 DUP1 SLOAD PUSH2 0x8C7 SWAP1 PUSH2 0x393A JUMP JUMPDEST DUP1 PUSH1 0x1F ADD PUSH1 0x20 DUP1 SWAP2 DIV MUL PUSH1 0x20 ADD PUSH1 0x40 MLOAD SWAP1 DUP2 ADD PUSH1 0x40 MSTORE DUP1 SWAP3 SWAP2 SWAP1 DUP2 DUP2 MSTORE PUSH1 0x20 ADD DUP3 DUP1 SLOAD PUSH2 0x8F3 SWAP1 PUSH2 0x393A JUMP JUMPDEST DUP1 ISZERO PUSH2 0x940 JUMPI DUP1 PUSH1 0x1F LT PUSH2 0x915 JUMPI PUSH2 0x100 DUP1 DUP4 SLOAD DIV MUL DUP4 MSTORE SWAP2 PUSH1 0x20 ADD SWAP2 PUSH2 0x940 JUMP JUMPDEST DUP3 ADD SWAP2 SWAP1 PUSH1 0x0 MSTORE PUSH1 0x20 PUSH1 0x0 KECCAK256 SWAP1 JUMPDEST DUP2 SLOAD DUP2 MSTORE SWAP1 PUSH1 0x1 ADD SWAP1 PUSH1 0x20 ADD DUP1 DUP4 GT PUSH2 0x923 JUMPI DUP3 SWAP1 SUB PUSH1 0x1F AND DUP3 ADD SWAP2 JUMPDEST POP POP POP POP POP SWAP1 POP DUP1 MLOAD DUP7 DUP7 SWAP1 POP EQ DUP1 ISZERO PUSH2 0x95B JUMPI POP PUSH1 0x0 DUP2 MLOAD GT JUMPDEST DUP1 ISZERO PUSH2 0x984 JUMPI POP DUP1 DUP1 MLOAD SWAP1 PUSH1 0x20 ADD KECCAK256 DUP7 DUP7 PUSH1 0x40 MLOAD PUSH2 0x97A SWAP3 SWAP2 SWAP1 PUSH2 0x399B JUMP JUMPDEST PUSH1 0x40 MLOAD DUP1 SWAP2 SUB SWAP1 KECCAK256 EQ JUMPDEST PUSH2 0x9C3 JUMPI PUSH1 0x40 MLOAD PUSH32 0x8C379A000000000000000000000000000000000000000000000000000000000 DUP2 MSTORE PUSH1 0x4 ADD PUSH2 0x9BA SWAP1 PUSH2 0x3A26 JUMP JUMPDEST PUSH1 0x40 MLOAD DUP1 SWAP2 SUB SWAP1 REVERT JUMPDEST PUSH2 0xA57 DUP8 DUP8 DUP8 DUP1 DUP1 PUSH1 0x1F ADD PUSH1 0x20 DUP1 SWAP2 DIV MUL PUSH1 0x20 ADD PUSH1 0x40 MLOAD SWAP1 DUP2 ADD PUSH1 0x40 MSTORE DUP1 SWAP4 SWAP3 SWAP2 SWAP1 DUP2 DUP2 MSTORE PUSH1 0x20 ADD DUP4 DUP4 DUP1 DUP3 DUP5 CALLDATACOPY PUSH1 0x0 DUP2 DUP5 ADD MSTORE PUSH1 0x1F NOT PUSH1 0x1F DUP3 ADD AND SWAP1 POP DUP1 DUP4 ADD SWAP3 POP POP POP POP POP POP POP DUP7 DUP7 DUP7 DUP1 DUP1 PUSH1 0x1F ADD PUSH1 0x20 DUP1 SWAP2 DIV MUL PUSH1 0x20 ADD PUSH1 0x40 MLOAD SWAP1 DUP2 ADD PUSH1 0x40 MSTORE DUP1 SWAP4 SWAP3 SWAP2 SWAP1 DUP2 DUP2 MSTORE PUSH1 0x20 ADD DUP4 DUP4 DUP1 DUP3 DUP5 CALLDATACOPY PUSH1 0x0 DUP2 DUP5 ADD MSTORE PUSH1 0x1F NOT PUSH1 0x1F DUP3 ADD AND SWAP1 POP DUP1 DUP4 ADD SWAP3 POP POP POP POP POP POP POP PUSH2 0x1B42 JUMP JUMPDEST POP POP POP POP POP POP POP JUMP JUMPDEST PUSH1 0x0 PUSH32 0x14E4CEEA00000000000000000000000000000000000000000000000000000000 PUSH28 0xFFFFFFFFFFFFFFFFFFFFFFFFFFFFFFFFFFFFFFFFFFFFFFFFFFFFFFFF NOT AND DUP3 PUSH28 0xFFFFFFFFFFFFFFFFFFFFFFFFFFFFFFFFFFFFFFFFFFFFFFFFFFFFFFFF NOT AND EQ DUP1 PUSH2 0xAD3 JUMPI POP PUSH2 0xAD2 DUP3 PUSH2 0x1C0D JUMP JUMPDEST JUMPDEST SWAP1 POP SWAP2 SWAP1 POP JUMP JUMPDEST PUSH2 0xAE2 PUSH2 0x1C77 JUMP JUMPDEST PUSH32 0x0 PUSH20 0xFFFFFFFFFFFFFFFFFFFFFFFFFFFFFFFFFFFFFFFF AND PUSH4 0x7E0DB17 DUP3 PUSH1 0x40 MLOAD DUP3 PUSH4 0xFFFFFFFF AND PUSH1 0xE0 SHL DUP2 MSTORE PUSH1 0x4 ADD PUSH2 0xB3B SWAP2 SWAP1 PUSH2 0x31F0 JUMP JUMPDEST PUSH1 0x0 PUSH1 0x40 MLOAD DUP1 DUP4 SUB DUP2 PUSH1 0x0 DUP8 DUP1 EXTCODESIZE ISZERO DUP1 ISZERO PUSH2 0xB55 JUMPI PUSH1 0x0 DUP1 REVERT JUMPDEST POP GAS CALL ISZERO DUP1 ISZERO PUSH2 0xB69 JUMPI RETURNDATASIZE PUSH1 0x0 DUP1 RETURNDATACOPY RETURNDATASIZE PUSH1 0x0 REVERT JUMPDEST POP POP POP POP POP JUMP JUMPDEST PUSH2 0xB78 PUSH2 0x1C77 JUMP JUMPDEST DUP1 PUSH1 0x3 PUSH1 0x0 DUP5 PUSH2 0xFFFF AND PUSH2 0xFFFF AND DUP2 MSTORE PUSH1 0x20 ADD SWAP1 DUP2 MSTORE PUSH1 0x20 ADD PUSH1 0x0 KECCAK256 DUP2 SWAP1 SSTORE POP POP POP JUMP JUMPDEST PUSH2 0xBA4 PUSH2 0x1C77 JUMP JUMPDEST PUSH32 0x0 PUSH20 0xFFFFFFFFFFFFFFFFFFFFFFFFFFFFFFFFFFFFFFFF AND PUSH4 0x10DDB137 DUP3 PUSH1 0x40 MLOAD DUP3 PUSH4 0xFFFFFFFF AND PUSH1 0xE0 SHL DUP2 MSTORE PUSH1 0x4 ADD PUSH2 0xBFD SWAP2 SWAP1 PUSH2 0x31F0 JUMP JUMPDEST PUSH1 0x0 PUSH1 0x40 MLOAD DUP1 DUP4 SUB DUP2 PUSH1 0x0 DUP8 DUP1 EXTCODESIZE ISZERO DUP1 ISZERO PUSH2 0xC17 JUMPI PUSH1 0x0 DUP1 REVERT JUMPDEST POP GAS CALL ISZERO DUP1 ISZERO PUSH2 0xC2B JUMPI RETURNDATASIZE PUSH1 0x0 DUP1 RETURNDATACOPY RETURNDATASIZE PUSH1 0x0 REVERT JUMPDEST POP POP POP POP POP JUMP JUMPDEST PUSH1 0x0 DUP1 PUSH1 0x0 DUP1 DUP10 DUP10 DUP10 PUSH1 0x40 MLOAD PUSH1 0x20 ADD PUSH2 0xC4E SWAP5 SWAP4 SWAP3 SWAP2 SWAP1 PUSH2 0x3A73 JUMP JUMPDEST PUSH1 0x40 MLOAD PUSH1 0x20 DUP2 DUP4 SUB SUB DUP2 MSTORE SWAP1 PUSH1 0x40 MSTORE SWAP1 POP PUSH32 0x0 PUSH20 0xFFFFFFFFFFFFFFFFFFFFFFFFFFFFFFFFFFFFFFFF AND PUSH4 0x40A7BB10 DUP12 ADDRESS DUP5 DUP11 DUP11 DUP11 PUSH1 0x40 MLOAD DUP8 PUSH4 0xFFFFFFFF AND PUSH1 0xE0 SHL DUP2 MSTORE PUSH1 0x4 ADD PUSH2 0xCC2 SWAP7 SWAP6 SWAP5 SWAP4 SWAP3 SWAP2 SWAP1 PUSH2 0x3AB3 JUMP JUMPDEST PUSH1 0x40 DUP1 MLOAD DUP1 DUP4 SUB DUP2 DUP7 GAS STATICCALL ISZERO DUP1 ISZERO PUSH2 0xCDE JUMPI RETURNDATASIZE PUSH1 0x0 DUP1 RETURNDATACOPY RETURNDATASIZE PUSH1 0x0 REVERT JUMPDEST POP POP POP POP PUSH1 0x40 MLOAD RETURNDATASIZE PUSH1 0x1F NOT PUSH1 0x1F DUP3 ADD AND DUP3 ADD DUP1 PUSH1 0x40 MSTORE POP DUP2 ADD SWAP1 PUSH2 0xD02 SWAP2 SWAP1 PUSH2 0x3B2B JUMP JUMPDEST SWAP3 POP SWAP3 POP POP SWAP8 POP SWAP8 SWAP6 POP POP POP POP POP POP JUMP JUMPDEST PUSH1 0x0 DUP1 PUSH1 0x1 PUSH1 0x0 DUP7 PUSH2 0xFFFF AND PUSH2 0xFFFF AND DUP2 MSTORE PUSH1 0x20 ADD SWAP1 DUP2 MSTORE PUSH1 0x20 ADD PUSH1 0x0 KECCAK256 DUP1 SLOAD PUSH2 0xD3C SWAP1 PUSH2 0x393A JUMP JUMPDEST DUP1 PUSH1 0x1F ADD PUSH1 0x20 DUP1 SWAP2 DIV MUL PUSH1 0x20 ADD PUSH1 0x40 MLOAD SWAP1 DUP2 ADD PUSH1 0x40 MSTORE DUP1 SWAP3 SWAP2 SWAP1 DUP2 DUP2 MSTORE PUSH1 0x20 ADD DUP3 DUP1 SLOAD PUSH2 0xD68 SWAP1 PUSH2 0x393A JUMP JUMPDEST DUP1 ISZERO PUSH2 0xDB5 JUMPI DUP1 PUSH1 0x1F LT PUSH2 0xD8A JUMPI PUSH2 0x100 DUP1 DUP4 SLOAD DIV MUL DUP4 MSTORE SWAP2 PUSH1 0x20 ADD SWAP2 PUSH2 0xDB5 JUMP JUMPDEST DUP3 ADD SWAP2 SWAP1 PUSH1 0x0 MSTORE PUSH1 0x20 PUSH1 0x0 KECCAK256 SWAP1 JUMPDEST DUP2 SLOAD DUP2 MSTORE SWAP1 PUSH1 0x1 ADD SWAP1 PUSH1 0x20 ADD DUP1 DUP4 GT PUSH2 0xD98 JUMPI DUP3 SWAP1 SUB PUSH1 0x1F AND DUP3 ADD SWAP2 JUMPDEST POP POP POP POP POP SWAP1 POP DUP4 DUP4 PUSH1 0x40 MLOAD PUSH2 0xDCC SWAP3 SWAP2 SWAP1 PUSH2 0x399B JUMP JUMPDEST PUSH1 0x40 MLOAD DUP1 SWAP2 SUB SWAP1 KECCAK256 DUP2 DUP1 MLOAD SWAP1 PUSH1 0x20 ADD KECCAK256 EQ SWAP2 POP POP SWAP4 SWAP3 POP POP POP JUMP JUMPDEST PUSH1 0x3 PUSH1 0x20 MSTORE DUP1 PUSH1 0x0 MSTORE PUSH1 0x40 PUSH1 0x0 KECCAK256 PUSH1 0x0 SWAP2 POP SWAP1 POP SLOAD DUP2 JUMP JUMPDEST PUSH2 0xE07 PUSH2 0x1C77 JUMP JUMPDEST PUSH32 0x0 PUSH20 0xFFFFFFFFFFFFFFFFFFFFFFFFFFFFFFFFFFFFFFFF AND PUSH4 0x42D65A8D DUP5 DUP5 DUP5 PUSH1 0x40 MLOAD DUP5 PUSH4 0xFFFFFFFF AND PUSH1 0xE0 SHL DUP2 MSTORE PUSH1 0x4 ADD PUSH2 0xE64 SWAP4 SWAP3 SWAP2 SWAP1 PUSH2 0x3B6B JUMP JUMPDEST PUSH1 0x0 PUSH1 0x40 MLOAD DUP1 DUP4 SUB DUP2 PUSH1 0x0 DUP8 DUP1 EXTCODESIZE ISZERO DUP1 ISZERO PUSH2 0xE7E JUMPI PUSH1 0x0 DUP1 REVERT JUMPDEST POP GAS CALL ISZERO DUP1 ISZERO PUSH2 0xE92 JUMPI RETURNDATASIZE PUSH1 0x0 DUP1 RETURNDATACOPY RETURNDATASIZE PUSH1 0x0 REVERT JUMPDEST POP POP POP POP POP POP POP JUMP JUMPDEST PUSH1 0x0 DUP2 JUMP JUMPDEST PUSH1 0x0 DUP2 JUMP JUMPDEST PUSH2 0xF3C DUP10 DUP10 DUP10 DUP10 DUP1 DUP1 PUSH1 0x1F ADD PUSH1 0x20 DUP1 SWAP2 DIV MUL PUSH1 0x20 ADD PUSH1 0x40 MLOAD SWAP1 DUP2 ADD PUSH1 0x40 MSTORE DUP1 SWAP4 SWAP3 SWAP2 SWAP1 DUP2 DUP2 MSTORE PUSH1 0x20 ADD DUP4 DUP4 DUP1 DUP3 DUP5 CALLDATACOPY PUSH1 0x0 DUP2 DUP5 ADD MSTORE PUSH1 0x1F NOT PUSH1 0x1F DUP3 ADD AND SWAP1 POP DUP1 DUP4 ADD SWAP3 POP POP POP POP POP POP POP DUP9 DUP9 DUP9 DUP9 DUP9 DUP1 DUP1 PUSH1 0x1F ADD PUSH1 0x20 DUP1 SWAP2 DIV MUL PUSH1 0x20 ADD PUSH1 0x40 MLOAD SWAP1 DUP2 ADD PUSH1 0x40 MSTORE DUP1 SWAP4 SWAP3 SWAP2 SWAP1 DUP2 DUP2 MSTORE PUSH1 0x20 ADD DUP4 DUP4 DUP1 DUP3 DUP5 CALLDATACOPY PUSH1 0x0 DUP2 DUP5 ADD MSTORE PUSH1 0x1F NOT PUSH1 0x1F DUP3 ADD AND SWAP1 POP DUP1 DUP4 ADD SWAP3 POP POP POP POP POP POP POP PUSH2 0x1CF5 JUMP JUMPDEST POP POP POP POP POP POP POP POP POP JUMP JUMPDEST PUSH1 0x5 PUSH1 0x20 MSTORE DUP3 PUSH1 0x0 MSTORE PUSH1 0x40 PUSH1 0x0 KECCAK256 DUP3 DUP1 MLOAD PUSH1 0x20 DUP2 ADD DUP3 ADD DUP1 MLOAD DUP5 DUP3 MSTORE PUSH1 0x20 DUP4 ADD PUSH1 0x20 DUP6 ADD KECCAK256 DUP2 DUP4 MSTORE DUP1 SWAP6 POP POP POP POP POP POP PUSH1 0x20 MSTORE DUP1 PUSH1 0x0 MSTORE PUSH1 0x40 PUSH1 0x0 KECCAK256 PUSH1 0x0 SWAP3 POP SWAP3 POP POP POP SLOAD DUP2 JUMP JUMPDEST ADDRESS PUSH20 0xFFFFFFFFFFFFFFFFFFFFFFFFFFFFFFFFFFFFFFFF AND PUSH2 0xFAE PUSH2 0x1B3A JUMP JUMPDEST PUSH20 0xFFFFFFFFFFFFFFFFFFFFFFFFFFFFFFFFFFFFFFFF AND EQ PUSH2 0x1004 JUMPI PUSH1 0x40 MLOAD PUSH32 0x8C379A000000000000000000000000000000000000000000000000000000000 DUP2 MSTORE PUSH1 0x4 ADD PUSH2 0xFFB SWAP1 PUSH2 0x3C0F JUMP JUMPDEST PUSH1 0x40 MLOAD DUP1 SWAP2 SUB SWAP1 REVERT JUMPDEST PUSH2 0x1098 DUP7 DUP7 DUP7 DUP1 DUP1 PUSH1 0x1F ADD PUSH1 0x20 DUP1 SWAP2 DIV MUL PUSH1 0x20 ADD PUSH1 0x40 MLOAD SWAP1 DUP2 ADD PUSH1 0x40 MSTORE DUP1 SWAP4 SWAP3 SWAP2 SWAP1 DUP2 DUP2 MSTORE PUSH1 0x20 ADD DUP4 DUP4 DUP1 DUP3 DUP5 CALLDATACOPY PUSH1 0x0 DUP2 DUP5 ADD MSTORE PUSH1 0x1F NOT PUSH1 0x1F DUP3 ADD AND SWAP1 POP DUP1 DUP4 ADD SWAP3 POP POP POP POP POP POP POP DUP6 DUP6 DUP6 DUP1 DUP1 PUSH1 0x1F ADD PUSH1 0x20 DUP1 SWAP2 DIV MUL PUSH1 0x20 ADD PUSH1 0x40 MLOAD SWAP1 DUP2 ADD PUSH1 0x40 MSTORE DUP1 SWAP4 SWAP3 SWAP2 SWAP1 DUP2 DUP2 MSTORE PUSH1 0x20 ADD DUP4 DUP4 DUP1 DUP3 DUP5 CALLDATACOPY PUSH1 0x0 DUP2 DUP5 ADD MSTORE PUSH1 0x1F NOT PUSH1 0x1F DUP3 ADD AND SWAP1 POP DUP1 DUP4 ADD SWAP3 POP POP POP POP POP POP POP PUSH2 0x1DA9 JUMP JUMPDEST POP POP POP POP POP POP JUMP JUMPDEST PUSH2 0x10A8 PUSH2 0x1C77 JUMP JUMPDEST PUSH2 0x10B2 PUSH1 0x0 PUSH2 0x1E15 JUMP JUMPDEST JUMP JUMPDEST PUSH1 0x1 PUSH1 0x20 MSTORE DUP1 PUSH1 0x0 MSTORE PUSH1 0x40 PUSH1 0x0 KECCAK256 PUSH1 0x0 SWAP2 POP SWAP1 POP DUP1 SLOAD PUSH2 0x10D3 SWAP1 PUSH2 0x393A JUMP JUMPDEST DUP1 PUSH1 0x1F ADD PUSH1 0x20 DUP1 SWAP2 DIV MUL PUSH1 0x20 ADD PUSH1 0x40 MLOAD SWAP1 DUP2 ADD PUSH1 0x40 MSTORE DUP1 SWAP3 SWAP2 SWAP1 DUP2 DUP2 MSTORE PUSH1 0x20 ADD DUP3 DUP1 SLOAD PUSH2 0x10FF SWAP1 PUSH2 0x393A JUMP JUMPDEST DUP1 ISZERO PUSH2 0x114C JUMPI DUP1 PUSH1 0x1F LT PUSH2 0x1121 JUMPI PUSH2 0x100 DUP1 DUP4 SLOAD DIV MUL DUP4 MSTORE SWAP2 PUSH1 0x20 ADD SWAP2 PUSH2 0x114C JUMP JUMPDEST DUP3 ADD SWAP2 SWAP1 PUSH1 0x0 MSTORE PUSH1 0x20 PUSH1 0x0 KECCAK256 SWAP1 JUMPDEST DUP2 SLOAD DUP2 MSTORE SWAP1 PUSH1 0x1 ADD SWAP1 PUSH1 0x20 ADD DUP1 DUP4 GT PUSH2 0x112F JUMPI DUP3 SWAP1 SUB PUSH1 0x1F AND DUP3 ADD SWAP2 JUMPDEST POP POP POP POP POP DUP2 JUMP JUMPDEST PUSH1 0x2 PUSH1 0x20 MSTORE DUP2 PUSH1 0x0 MSTORE PUSH1 0x40 PUSH1 0x0 KECCAK256 PUSH1 0x20 MSTORE DUP1 PUSH1 0x0 MSTORE PUSH1 0x40 PUSH1 0x0 KECCAK256 PUSH1 0x0 SWAP2 POP SWAP2 POP POP SLOAD DUP2 JUMP JUMPDEST PUSH1 0x0 DUP1 PUSH1 0x0 SWAP1 SLOAD SWAP1 PUSH2 0x100 EXP SWAP1 DIV PUSH20 0xFFFFFFFFFFFFFFFFFFFFFFFFFFFFFFFFFFFFFFFF AND SWAP1 POP SWAP1 JUMP JUMPDEST PUSH1 0x0 PUSH32 0x0 PUSH20 0xFFFFFFFFFFFFFFFFFFFFFFFFFFFFFFFFFFFFFFFF AND PUSH4 0x70A08231 ADDRESS PUSH1 0x40 MLOAD DUP3 PUSH4 0xFFFFFFFF AND PUSH1 0xE0 SHL DUP2 MSTORE PUSH1 0x4 ADD PUSH2 0x11FD SWAP2 SWAP1 PUSH2 0x365D JUMP JUMPDEST PUSH1 0x20 PUSH1 0x40 MLOAD DUP1 DUP4 SUB DUP2 DUP7 GAS STATICCALL ISZERO DUP1 ISZERO PUSH2 0x121A JUMPI RETURNDATASIZE PUSH1 0x0 DUP1 RETURNDATACOPY RETURNDATASIZE PUSH1 0x0 REVERT JUMPDEST POP POP POP POP PUSH1 0x40 MLOAD RETURNDATASIZE PUSH1 0x1F NOT PUSH1 0x1F DUP3 ADD AND DUP3 ADD DUP1 PUSH1 0x40 MSTORE POP DUP2 ADD SWAP1 PUSH2 0x123E SWAP2 SWAP1 PUSH2 0x3C2F JUMP JUMPDEST PUSH32 0x0 PUSH20 0xFFFFFFFFFFFFFFFFFFFFFFFFFFFFFFFFFFFFFFFF AND PUSH4 0x18160DDD PUSH1 0x40 MLOAD DUP2 PUSH4 0xFFFFFFFF AND PUSH1 0xE0 SHL DUP2 MSTORE PUSH1 0x4 ADD PUSH1 0x20 PUSH1 0x40 MLOAD DUP1 DUP4 SUB DUP2 DUP7 GAS STATICCALL ISZERO DUP1 ISZERO PUSH2 0x12A9 JUMPI RETURNDATASIZE PUSH1 0x0 DUP1 RETURNDATACOPY RETURNDATASIZE PUSH1 0x0 REVERT JUMPDEST POP POP POP POP PUSH1 0x40 MLOAD RETURNDATASIZE PUSH1 0x1F NOT PUSH1 0x1F DUP3 ADD AND DUP3 ADD DUP1 PUSH1 0x40 MSTORE POP DUP2 ADD SWAP1 PUSH2 0x12CD SWAP2 SWAP1 PUSH2 0x3C2F JUMP JUMPDEST SUB SWAP1 POP SWAP1 JUMP JUMPDEST PUSH1 0x4 PUSH1 0x0 SWAP1 SLOAD SWAP1 PUSH2 0x100 EXP SWAP1 DIV PUSH20 0xFFFFFFFFFFFFFFFFFFFFFFFFFFFFFFFFFFFFFFFF AND DUP2 JUMP JUMPDEST PUSH1 0x60 PUSH1 0x0 PUSH1 0x1 PUSH1 0x0 DUP5 PUSH2 0xFFFF AND PUSH2 0xFFFF AND DUP2 MSTORE PUSH1 0x20 ADD SWAP1 DUP2 MSTORE PUSH1 0x20 ADD PUSH1 0x0 KECCAK256 DUP1 SLOAD PUSH2 0x1323 SWAP1 PUSH2 0x393A JUMP JUMPDEST DUP1 PUSH1 0x1F ADD PUSH1 0x20 DUP1 SWAP2 DIV MUL PUSH1 0x20 ADD PUSH1 0x40 MLOAD SWAP1 DUP2 ADD PUSH1 0x40 MSTORE DUP1 SWAP3 SWAP2 SWAP1 DUP2 DUP2 MSTORE PUSH1 0x20 ADD DUP3 DUP1 SLOAD PUSH2 0x134F SWAP1 PUSH2 0x393A JUMP JUMPDEST DUP1 ISZERO PUSH2 0x139C JUMPI DUP1 PUSH1 0x1F LT PUSH2 0x1371 JUMPI PUSH2 0x100 DUP1 DUP4 SLOAD DIV MUL DUP4 MSTORE SWAP2 PUSH1 0x20 ADD SWAP2 PUSH2 0x139C JUMP JUMPDEST DUP3 ADD SWAP2 SWAP1 PUSH1 0x0 MSTORE PUSH1 0x20 PUSH1 0x0 KECCAK256 SWAP1 JUMPDEST DUP2 SLOAD DUP2 MSTORE SWAP1 PUSH1 0x1 ADD SWAP1 PUSH1 0x20 ADD DUP1 DUP4 GT PUSH2 0x137F JUMPI DUP3 SWAP1 SUB PUSH1 0x1F AND DUP3 ADD SWAP2 JUMPDEST POP POP POP POP POP SWAP1 POP PUSH1 0x0 DUP2 MLOAD SUB PUSH2 0x13E7 JUMPI PUSH1 0x40 MLOAD PUSH32 0x8C379A000000000000000000000000000000000000000000000000000000000 DUP2 MSTORE PUSH1 0x4 ADD PUSH2 0x13DE SWAP1 PUSH2 0x3CA8 JUMP JUMPDEST PUSH1 0x40 MLOAD DUP1 SWAP2 SUB SWAP1 REVERT JUMPDEST PUSH2 0x140A PUSH1 0x0 PUSH1 0x14 DUP4 MLOAD PUSH2 0x13FA SWAP2 SWAP1 PUSH2 0x3CF7 JUMP JUMPDEST DUP4 PUSH2 0x1ED9 SWAP1 SWAP3 SWAP2 SWAP1 PUSH4 0xFFFFFFFF AND JUMP JUMPDEST SWAP2 POP POP SWAP2 SWAP1 POP JUMP JUMPDEST PUSH2 0x141A PUSH2 0x1C77 JUMP JUMPDEST DUP2 DUP2 ADDRESS PUSH1 0x40 MLOAD PUSH1 0x20 ADD PUSH2 0x142F SWAP4 SWAP3 SWAP2 SWAP1 PUSH2 0x3D73 JUMP JUMPDEST PUSH1 0x40 MLOAD PUSH1 0x20 DUP2 DUP4 SUB SUB DUP2 MSTORE SWAP1 PUSH1 0x40 MSTORE PUSH1 0x1 PUSH1 0x0 DUP6 PUSH2 0xFFFF AND PUSH2 0xFFFF AND DUP2 MSTORE PUSH1 0x20 ADD SWAP1 DUP2 MSTORE PUSH1 0x20 ADD PUSH1 0x0 KECCAK256 SWAP1 DUP2 PUSH2 0x1465 SWAP2 SWAP1 PUSH2 0x3F3F JUMP JUMPDEST POP PUSH32 0x8C0400CFE2D1199B1A725C78960BCC2A344D869B80590D0F2BD005DB15A572CE DUP4 DUP4 DUP4 PUSH1 0x40 MLOAD PUSH2 0x1499 SWAP4 SWAP3 SWAP2 SWAP1 PUSH2 0x3B6B JUMP JUMPDEST PUSH1 0x40 MLOAD DUP1 SWAP2 SUB SWAP1 LOG1 POP POP POP JUMP JUMPDEST PUSH32 0x0 DUP2 JUMP JUMPDEST PUSH2 0x14D2 PUSH2 0x1C77 JUMP JUMPDEST DUP1 PUSH1 0x4 PUSH1 0x0 PUSH2 0x100 EXP DUP2 SLOAD DUP2 PUSH20 0xFFFFFFFFFFFFFFFFFFFFFFFFFFFFFFFFFFFFFFFF MUL NOT AND SWAP1 DUP4 PUSH20 0xFFFFFFFFFFFFFFFFFFFFFFFFFFFFFFFFFFFFFFFF AND MUL OR SWAP1 SSTORE POP PUSH32 0x5DB758E995A17EC1AD84BDEF7E8C3293A0BD6179BCCE400DFF5D4C3D87DB726B DUP2 PUSH1 0x40 MLOAD PUSH2 0x1542 SWAP2 SWAP1 PUSH2 0x365D JUMP JUMPDEST PUSH1 0x40 MLOAD DUP1 SWAP2 SUB SWAP1 LOG1 POP JUMP JUMPDEST PUSH2 0x2710 DUP2 JUMP JUMPDEST PUSH2 0x155B PUSH2 0x1C77 JUMP JUMPDEST PUSH32 0x0 PUSH20 0xFFFFFFFFFFFFFFFFFFFFFFFFFFFFFFFFFFFFFFFF AND PUSH4 0xCBED8B9C DUP7 DUP7 DUP7 DUP7 DUP7 PUSH1 0x40 MLOAD DUP7 PUSH4 0xFFFFFFFF AND PUSH1 0xE0 SHL DUP2 MSTORE PUSH1 0x4 ADD PUSH2 0x15BC SWAP6 SWAP5 SWAP4 SWAP3 SWAP2 SWAP1 PUSH2 0x4011 JUMP JUMPDEST PUSH1 0x0 PUSH1 0x40 MLOAD DUP1 DUP4 SUB DUP2 PUSH1 0x0 DUP8 DUP1 EXTCODESIZE ISZERO DUP1 ISZERO PUSH2 0x15D6 JUMPI PUSH1 0x0 DUP1 REVERT JUMPDEST POP GAS CALL ISZERO DUP1 ISZERO PUSH2 0x15EA JUMPI RETURNDATASIZE PUSH1 0x0 DUP1 RETURNDATACOPY RETURNDATASIZE PUSH1 0x0 REVERT JUMPDEST POP POP POP POP POP POP POP POP POP JUMP JUMPDEST PUSH1 0x0 PUSH1 0x5 PUSH1 0x0 DUP9 PUSH2 0xFFFF AND PUSH2 0xFFFF AND DUP2 MSTORE PUSH1 0x20 ADD SWAP1 DUP2 MSTORE PUSH1 0x20 ADD PUSH1 0x0 KECCAK256 DUP7 DUP7 PUSH1 0x40 MLOAD PUSH2 0x1622 SWAP3 SWAP2 SWAP1 PUSH2 0x399B JUMP JUMPDEST SWAP1 DUP2 MSTORE PUSH1 0x20 ADD PUSH1 0x40 MLOAD DUP1 SWAP2 SUB SWAP1 KECCAK256 PUSH1 0x0 DUP6 PUSH8 0xFFFFFFFFFFFFFFFF AND PUSH8 0xFFFFFFFFFFFFFFFF AND DUP2 MSTORE PUSH1 0x20 ADD SWAP1 DUP2 MSTORE PUSH1 0x20 ADD PUSH1 0x0 KECCAK256 SLOAD SWAP1 POP PUSH1 0x0 DUP1 SHL DUP2 SUB PUSH2 0x169D JUMPI PUSH1 0x40 MLOAD PUSH32 0x8C379A000000000000000000000000000000000000000000000000000000000 DUP2 MSTORE PUSH1 0x4 ADD PUSH2 0x1694 SWAP1 PUSH2 0x40D1 JUMP JUMPDEST PUSH1 0x40 MLOAD DUP1 SWAP2 SUB SWAP1 REVERT JUMPDEST DUP1 DUP4 DUP4 PUSH1 0x40 MLOAD PUSH2 0x16AE SWAP3 SWAP2 SWAP1 PUSH2 0x399B JUMP JUMPDEST PUSH1 0x40 MLOAD DUP1 SWAP2 SUB SWAP1 KECCAK256 EQ PUSH2 0x16F6 JUMPI PUSH1 0x40 MLOAD PUSH32 0x8C379A000000000000000000000000000000000000000000000000000000000 DUP2 MSTORE PUSH1 0x4 ADD PUSH2 0x16ED SWAP1 PUSH2 0x4163 JUMP JUMPDEST PUSH1 0x40 MLOAD DUP1 SWAP2 SUB SWAP1 REVERT JUMPDEST PUSH1 0x0 DUP1 SHL PUSH1 0x5 PUSH1 0x0 DUP10 PUSH2 0xFFFF AND PUSH2 0xFFFF AND DUP2 MSTORE PUSH1 0x20 ADD SWAP1 DUP2 MSTORE PUSH1 0x20 ADD PUSH1 0x0 KECCAK256 DUP8 DUP8 PUSH1 0x40 MLOAD PUSH2 0x1725 SWAP3 SWAP2 SWAP1 PUSH2 0x399B JUMP JUMPDEST SWAP1 DUP2 MSTORE PUSH1 0x20 ADD PUSH1 0x40 MLOAD DUP1 SWAP2 SUB SWAP1 KECCAK256 PUSH1 0x0 DUP7 PUSH8 0xFFFFFFFFFFFFFFFF AND PUSH8 0xFFFFFFFFFFFFFFFF AND DUP2 MSTORE PUSH1 0x20 ADD SWAP1 DUP2 MSTORE PUSH1 0x20 ADD PUSH1 0x0 KECCAK256 DUP2 SWAP1 SSTORE POP PUSH2 0x17F0 DUP8 DUP8 DUP8 DUP1 DUP1 PUSH1 0x1F ADD PUSH1 0x20 DUP1 SWAP2 DIV MUL PUSH1 0x20 ADD PUSH1 0x40 MLOAD SWAP1 DUP2 ADD PUSH1 0x40 MSTORE DUP1 SWAP4 SWAP3 SWAP2 SWAP1 DUP2 DUP2 MSTORE PUSH1 0x20 ADD DUP4 DUP4 DUP1 DUP3 DUP5 CALLDATACOPY PUSH1 0x0 DUP2 DUP5 ADD MSTORE PUSH1 0x1F NOT PUSH1 0x1F DUP3 ADD AND SWAP1 POP DUP1 DUP4 ADD SWAP3 POP POP POP POP POP POP POP DUP7 DUP7 DUP7 DUP1 DUP1 PUSH1 0x1F ADD PUSH1 0x20 DUP1 SWAP2 DIV MUL PUSH1 0x20 ADD PUSH1 0x40 MLOAD SWAP1 DUP2 ADD PUSH1 0x40 MSTORE DUP1 SWAP4 SWAP3 SWAP2 SWAP1 DUP2 DUP2 MSTORE PUSH1 0x20 ADD DUP4 DUP4 DUP1 DUP3 DUP5 CALLDATACOPY PUSH1 0x0 DUP2 DUP5 ADD MSTORE PUSH1 0x1F NOT PUSH1 0x1F DUP3 ADD AND SWAP1 POP DUP1 DUP4 ADD SWAP3 POP POP POP POP POP POP POP PUSH2 0x1DA9 JUMP JUMPDEST PUSH32 0xC264D91F3ADC5588250E1551F547752CA0CFA8F6B530D243B9F9F4CAB10EA8E5 DUP8 DUP8 DUP8 DUP8 DUP6 PUSH1 0x40 MLOAD PUSH2 0x1827 SWAP6 SWAP5 SWAP4 SWAP3 SWAP2 SWAP1 PUSH2 0x4192 JUMP JUMPDEST PUSH1 0x40 MLOAD DUP1 SWAP2 SUB SWAP1 LOG1 POP POP POP POP POP POP POP JUMP JUMPDEST PUSH2 0x1840 PUSH2 0x1C77 JUMP JUMPDEST PUSH1 0x0 DUP2 GT PUSH2 0x1883 JUMPI PUSH1 0x40 MLOAD PUSH32 0x8C379A000000000000000000000000000000000000000000000000000000000 DUP2 MSTORE PUSH1 0x4 ADD PUSH2 0x187A SWAP1 PUSH2 0x422C JUMP JUMPDEST PUSH1 0x40 MLOAD DUP1 SWAP2 SUB SWAP1 REVERT JUMPDEST DUP1 PUSH1 0x2 PUSH1 0x0 DUP6 PUSH2 0xFFFF AND PUSH2 0xFFFF AND DUP2 MSTORE PUSH1 0x20 ADD SWAP1 DUP2 MSTORE PUSH1 0x20 ADD PUSH1 0x0 KECCAK256 PUSH1 0x0 DUP5 PUSH2 0xFFFF AND PUSH2 0xFFFF AND DUP2 MSTORE PUSH1 0x20 ADD SWAP1 DUP2 MSTORE PUSH1 0x20 ADD PUSH1 0x0 KECCAK256 DUP2 SWAP1 SSTORE POP PUSH32 0x9D5C7C0B934DA8FEFA9C7760C98383778A12DFBFC0C3B3106518F43FB9508AC0 DUP4 DUP4 DUP4 PUSH1 0x40 MLOAD PUSH2 0x18EF SWAP4 SWAP3 SWAP2 SWAP1 PUSH2 0x424C JUMP JUMPDEST PUSH1 0x40 MLOAD DUP1 SWAP2 SUB SWAP1 LOG1 POP POP POP JUMP JUMPDEST PUSH2 0x1904 PUSH2 0x1C77 JUMP JUMPDEST DUP1 PUSH1 0x6 PUSH1 0x0 PUSH2 0x100 EXP DUP2 SLOAD DUP2 PUSH1 0xFF MUL NOT AND SWAP1 DUP4 ISZERO ISZERO MUL OR SWAP1 SSTORE POP PUSH32 0x1584AD594A70CBE1E6515592E1272A987D922B097EAD875069CEBE8B40C004A4 DUP2 PUSH1 0x40 MLOAD PUSH2 0x194D SWAP2 SWAP1 PUSH2 0x2F88 JUMP JUMPDEST PUSH1 0x40 MLOAD DUP1 SWAP2 SUB SWAP1 LOG1 POP JUMP JUMPDEST PUSH2 0x1960 PUSH2 0x1C77 JUMP JUMPDEST DUP2 DUP2 PUSH1 0x1 PUSH1 0x0 DUP7 PUSH2 0xFFFF AND PUSH2 0xFFFF AND DUP2 MSTORE PUSH1 0x20 ADD SWAP1 DUP2 MSTORE PUSH1 0x20 ADD PUSH1 0x0 KECCAK256 SWAP2 DUP3 PUSH2 0x198A SWAP3 SWAP2 SWAP1 PUSH2 0x428E JUMP JUMPDEST POP PUSH32 0xFA41487AD5D6728F0B19276FA1EDDC16558578F5109FC39D2DC33C3230470DAB DUP4 DUP4 DUP4 PUSH1 0x40 MLOAD PUSH2 0x19BE SWAP4 SWAP3 SWAP2 SWAP1 PUSH2 0x3B6B JUMP JUMPDEST PUSH1 0x40 MLOAD DUP1 SWAP2 SUB SWAP1 LOG1 POP POP POP JUMP JUMPDEST PUSH1 0x6 PUSH1 0x0 SWAP1 SLOAD SWAP1 PUSH2 0x100 EXP SWAP1 DIV PUSH1 0xFF AND DUP2 JUMP JUMPDEST PUSH2 0x19E6 PUSH2 0x1C77 JUMP JUMPDEST PUSH1 0x0 PUSH20 0xFFFFFFFFFFFFFFFFFFFFFFFFFFFFFFFFFFFFFFFF AND DUP2 PUSH20 0xFFFFFFFFFFFFFFFFFFFFFFFFFFFFFFFFFFFFFFFF AND SUB PUSH2 0x1A55 JUMPI PUSH1 0x40 MLOAD PUSH32 0x8C379A000000000000000000000000000000000000000000000000000000000 DUP2 MSTORE PUSH1 0x4 ADD PUSH2 0x1A4C SWAP1 PUSH2 0x43D0 JUMP JUMPDEST PUSH1 0x40 MLOAD DUP1 SWAP2 SUB SWAP1 REVERT JUMPDEST PUSH2 0x1A5E DUP2 PUSH2 0x1E15 JUMP JUMPDEST POP JUMP JUMPDEST PUSH1 0x60 PUSH32 0x0 PUSH20 0xFFFFFFFFFFFFFFFFFFFFFFFFFFFFFFFFFFFFFFFF AND PUSH4 0xF5ECBDBC DUP7 DUP7 ADDRESS DUP7 PUSH1 0x40 MLOAD DUP6 PUSH4 0xFFFFFFFF AND PUSH1 0xE0 SHL DUP2 MSTORE PUSH1 0x4 ADD PUSH2 0x1AC2 SWAP5 SWAP4 SWAP3 SWAP2 SWAP1 PUSH2 0x43F0 JUMP JUMPDEST PUSH1 0x0 PUSH1 0x40 MLOAD DUP1 DUP4 SUB DUP2 DUP7 GAS STATICCALL ISZERO DUP1 ISZERO PUSH2 0x1ADF JUMPI RETURNDATASIZE PUSH1 0x0 DUP1 RETURNDATACOPY RETURNDATASIZE PUSH1 0x0 REVERT JUMPDEST POP POP POP POP PUSH1 0x40 MLOAD RETURNDATASIZE PUSH1 0x0 DUP3 RETURNDATACOPY RETURNDATASIZE PUSH1 0x1F NOT PUSH1 0x1F DUP3 ADD AND DUP3 ADD DUP1 PUSH1 0x40 MSTORE POP DUP2 ADD SWAP1 PUSH2 0x1B08 SWAP2 SWAP1 PUSH2 0x44A5 JUMP JUMPDEST SWAP1 POP SWAP5 SWAP4 POP POP POP POP JUMP JUMPDEST PUSH1 0x0 PUSH32 0x0 SWAP1 POP SWAP1 JUMP JUMPDEST PUSH1 0x0 CALLER SWAP1 POP SWAP1 JUMP JUMPDEST PUSH1 0x0 DUP1 PUSH2 0x1BEE GAS PUSH1 0x96 PUSH4 0x66AD5C8A PUSH1 0xE0 SHL DUP10 DUP10 DUP10 DUP10 PUSH1 0x40 MLOAD PUSH1 0x24 ADD PUSH2 0x1B6A SWAP5 SWAP4 SWAP3 SWAP2 SWAP1 PUSH2 0x44EE JUMP JUMPDEST PUSH1 0x40 MLOAD PUSH1 0x20 DUP2 DUP4 SUB SUB DUP2 MSTORE SWAP1 PUSH1 0x40 MSTORE SWAP1 PUSH28 0xFFFFFFFFFFFFFFFFFFFFFFFFFFFFFFFFFFFFFFFFFFFFFFFFFFFFFFFF NOT AND PUSH1 0x20 DUP3 ADD DUP1 MLOAD PUSH28 0xFFFFFFFFFFFFFFFFFFFFFFFFFFFFFFFFFFFFFFFFFFFFFFFFFFFFFFFF DUP4 DUP2 DUP4 AND OR DUP4 MSTORE POP POP POP POP ADDRESS PUSH20 0xFFFFFFFFFFFFFFFFFFFFFFFFFFFFFFFFFFFFFFFF AND PUSH2 0x1FF7 SWAP1 SWAP4 SWAP3 SWAP2 SWAP1 PUSH4 0xFFFFFFFF AND JUMP JUMPDEST SWAP2 POP SWAP2 POP DUP2 PUSH2 0x1C05 JUMPI PUSH2 0x1C04 DUP7 DUP7 DUP7 DUP7 DUP6 PUSH2 0x208F JUMP JUMPDEST JUMPDEST POP POP POP POP POP POP JUMP JUMPDEST PUSH1 0x0 PUSH32 0x1FFC9A700000000000000000000000000000000000000000000000000000000 PUSH28 0xFFFFFFFFFFFFFFFFFFFFFFFFFFFFFFFFFFFFFFFFFFFFFFFFFFFFFFFF NOT AND DUP3 PUSH28 0xFFFFFFFFFFFFFFFFFFFFFFFFFFFFFFFFFFFFFFFFFFFFFFFFFFFFFFFF NOT AND EQ SWAP1 POP SWAP2 SWAP1 POP JUMP JUMPDEST PUSH2 0x1C7F PUSH2 0x1B3A JUMP JUMPDEST PUSH20 0xFFFFFFFFFFFFFFFFFFFFFFFFFFFFFFFFFFFFFFFF AND PUSH2 0x1C9D PUSH2 0x1179 JUMP JUMPDEST PUSH20 0xFFFFFFFFFFFFFFFFFFFFFFFFFFFFFFFFFFFFFFFF AND EQ PUSH2 0x1CF3 JUMPI PUSH1 0x40 MLOAD PUSH32 0x8C379A000000000000000000000000000000000000000000000000000000000 DUP2 MSTORE PUSH1 0x4 ADD PUSH2 0x1CEA SWAP1 PUSH2 0x458D JUMP JUMPDEST PUSH1 0x40 MLOAD DUP1 SWAP2 SUB SWAP1 REVERT JUMPDEST JUMP JUMPDEST PUSH2 0x1D03 DUP7 PUSH1 0x0 DUP4 PUSH1 0x0 PUSH2 0x213D JUMP JUMPDEST PUSH1 0x0 PUSH2 0x1D11 DUP9 DUP9 DUP9 DUP9 PUSH2 0x21AE JUMP JUMPDEST SWAP1 POP PUSH1 0x0 DUP1 DUP8 DUP4 PUSH1 0x40 MLOAD PUSH1 0x20 ADD PUSH2 0x1D2A SWAP4 SWAP3 SWAP2 SWAP1 PUSH2 0x45AD JUMP JUMPDEST PUSH1 0x40 MLOAD PUSH1 0x20 DUP2 DUP4 SUB SUB DUP2 MSTORE SWAP1 PUSH1 0x40 MSTORE SWAP1 POP PUSH2 0x1D49 DUP9 DUP3 DUP8 DUP8 DUP8 CALLVALUE PUSH2 0x23C0 JUMP JUMPDEST DUP9 PUSH20 0xFFFFFFFFFFFFFFFFFFFFFFFFFFFFFFFFFFFFFFFF AND DUP9 PUSH2 0xFFFF AND PUSH32 0x39A4C66499BCF4B56D79F0DDE8ED7A9D4925A0DF55825206B2B8531E202BE0D0 DUP10 DUP6 PUSH1 0x40 MLOAD PUSH2 0x1D96 SWAP3 SWAP2 SWAP1 PUSH2 0x45EB JUMP JUMPDEST PUSH1 0x40 MLOAD DUP1 SWAP2 SUB SWAP1 LOG3 POP POP POP POP POP POP POP POP POP JUMP JUMPDEST PUSH1 0x0 PUSH1 0x20 DUP3 ADD MLOAD SWAP1 POP PUSH1 0x0 PUSH2 0xFFFF AND DUP2 PUSH2 0xFFFF AND SUB PUSH2 0x1DD3 JUMPI PUSH2 0x1DCE DUP6 DUP6 DUP6 DUP6 PUSH2 0x2556 JUMP JUMPDEST PUSH2 0x1E0E JUMP JUMPDEST PUSH1 0x40 MLOAD PUSH32 0x8C379A000000000000000000000000000000000000000000000000000000000 DUP2 MSTORE PUSH1 0x4 ADD PUSH2 0x1E05 SWAP1 PUSH2 0x4667 JUMP JUMPDEST PUSH1 0x40 MLOAD DUP1 SWAP2 SUB SWAP1 REVERT JUMPDEST POP POP POP POP POP JUMP JUMPDEST PUSH1 0x0 DUP1 PUSH1 0x0 SWAP1 SLOAD SWAP1 PUSH2 0x100 EXP SWAP1 DIV PUSH20 0xFFFFFFFFFFFFFFFFFFFFFFFFFFFFFFFFFFFFFFFF AND SWAP1 POP DUP2 PUSH1 0x0 DUP1 PUSH2 0x100 EXP DUP2 SLOAD DUP2 PUSH20 0xFFFFFFFFFFFFFFFFFFFFFFFFFFFFFFFFFFFFFFFF MUL NOT AND SWAP1 DUP4 PUSH20 0xFFFFFFFFFFFFFFFFFFFFFFFFFFFFFFFFFFFFFFFF AND MUL OR SWAP1 SSTORE POP DUP2 PUSH20 0xFFFFFFFFFFFFFFFFFFFFFFFFFFFFFFFFFFFFFFFF AND DUP2 PUSH20 0xFFFFFFFFFFFFFFFFFFFFFFFFFFFFFFFFFFFFFFFF AND PUSH32 0x8BE0079C531659141344CD1FD0A4F28419497F9722A3DAAFE3B4186F6B6457E0 PUSH1 0x40 MLOAD PUSH1 0x40 MLOAD DUP1 SWAP2 SUB SWAP1 LOG3 POP POP JUMP JUMPDEST PUSH1 0x60 DUP2 PUSH1 0x1F DUP4 PUSH2 0x1EE9 SWAP2 SWAP1 PUSH2 0x4687 JUMP JUMPDEST LT ISZERO PUSH2 0x1F2A JUMPI PUSH1 0x40 MLOAD PUSH32 0x8C379A000000000000000000000000000000000000000000000000000000000 DUP2 MSTORE PUSH1 0x4 ADD PUSH2 0x1F21 SWAP1 PUSH2 0x4707 JUMP JUMPDEST PUSH1 0x40 MLOAD DUP1 SWAP2 SUB SWAP1 REVERT JUMPDEST DUP2 DUP4 PUSH2 0x1F36 SWAP2 SWAP1 PUSH2 0x4687 JUMP JUMPDEST DUP5 MLOAD LT ISZERO PUSH2 0x1F79 JUMPI PUSH1 0x40 MLOAD PUSH32 0x8C379A000000000000000000000000000000000000000000000000000000000 DUP2 MSTORE PUSH1 0x4 ADD PUSH2 0x1F70 SWAP1 PUSH2 0x4773 JUMP JUMPDEST PUSH1 0x40 MLOAD DUP1 SWAP2 SUB SWAP1 REVERT JUMPDEST PUSH1 0x60 DUP3 ISZERO PUSH1 0x0 DUP2 EQ PUSH2 0x1F9A JUMPI PUSH1 0x40 MLOAD SWAP2 POP PUSH1 0x0 DUP3 MSTORE PUSH1 0x20 DUP3 ADD PUSH1 0x40 MSTORE PUSH2 0x1FEB JUMP JUMPDEST PUSH1 0x40 MLOAD SWAP2 POP PUSH1 0x1F DUP5 AND DUP1 ISZERO PUSH1 0x20 MUL DUP2 DUP5 ADD ADD DUP6 DUP2 ADD DUP8 DUP4 ISZERO PUSH1 0x20 MUL DUP5 DUP12 ADD ADD ADD JUMPDEST DUP2 DUP4 LT ISZERO PUSH2 0x1FD8 JUMPI DUP1 MLOAD DUP4 MSTORE PUSH1 0x20 DUP4 ADD SWAP3 POP PUSH1 0x20 DUP2 ADD SWAP1 POP PUSH2 0x1FBB JUMP JUMPDEST POP DUP7 DUP6 MSTORE PUSH1 0x1F NOT PUSH1 0x1F DUP4 ADD AND PUSH1 0x40 MSTORE POP POP POP JUMPDEST POP DUP1 SWAP2 POP POP SWAP4 SWAP3 POP POP POP JUMP JUMPDEST PUSH1 0x0 PUSH1 0x60 PUSH1 0x0 DUP1 PUSH1 0x0 DUP7 PUSH2 0xFFFF AND PUSH8 0xFFFFFFFFFFFFFFFF DUP2 GT ISZERO PUSH2 0x201E JUMPI PUSH2 0x201D PUSH2 0x339F JUMP JUMPDEST JUMPDEST PUSH1 0x40 MLOAD SWAP1 DUP1 DUP3 MSTORE DUP1 PUSH1 0x1F ADD PUSH1 0x1F NOT AND PUSH1 0x20 ADD DUP3 ADD PUSH1 0x40 MSTORE DUP1 ISZERO PUSH2 0x2050 JUMPI DUP2 PUSH1 0x20 ADD PUSH1 0x1 DUP3 MUL DUP1 CALLDATASIZE DUP4 CALLDATACOPY DUP1 DUP3 ADD SWAP2 POP POP SWAP1 POP JUMPDEST POP SWAP1 POP PUSH1 0x0 DUP1 DUP8 MLOAD PUSH1 0x20 DUP10 ADD PUSH1 0x0 DUP14 DUP14 CALL SWAP2 POP RETURNDATASIZE SWAP3 POP DUP7 DUP4 GT ISZERO PUSH2 0x2072 JUMPI DUP7 SWAP3 POP JUMPDEST DUP3 DUP2 MSTORE DUP3 PUSH1 0x0 PUSH1 0x20 DUP4 ADD RETURNDATACOPY DUP2 DUP2 SWAP5 POP SWAP5 POP POP POP POP SWAP5 POP SWAP5 SWAP3 POP POP POP JUMP JUMPDEST DUP2 DUP1 MLOAD SWAP1 PUSH1 0x20 ADD KECCAK256 PUSH1 0x5 PUSH1 0x0 DUP8 PUSH2 0xFFFF AND PUSH2 0xFFFF AND DUP2 MSTORE PUSH1 0x20 ADD SWAP1 DUP2 MSTORE PUSH1 0x20 ADD PUSH1 0x0 KECCAK256 DUP6 PUSH1 0x40 MLOAD PUSH2 0x20C0 SWAP2 SWAP1 PUSH2 0x47C4 JUMP JUMPDEST SWAP1 DUP2 MSTORE PUSH1 0x20 ADD PUSH1 0x40 MLOAD DUP1 SWAP2 SUB SWAP1 KECCAK256 PUSH1 0x0 DUP6 PUSH8 0xFFFFFFFFFFFFFFFF AND PUSH8 0xFFFFFFFFFFFFFFFF AND DUP2 MSTORE PUSH1 0x20 ADD SWAP1 DUP2 MSTORE PUSH1 0x20 ADD PUSH1 0x0 KECCAK256 DUP2 SWAP1 SSTORE POP PUSH32 0xE183F33DE2837795525B4792CA4CD60535BD77C53B7E7030060BFCF5734D6B0C DUP6 DUP6 DUP6 DUP6 DUP6 PUSH1 0x40 MLOAD PUSH2 0x212E SWAP6 SWAP5 SWAP4 SWAP3 SWAP2 SWAP1 PUSH2 0x47DB JUMP JUMPDEST PUSH1 0x40 MLOAD DUP1 SWAP2 SUB SWAP1 LOG1 POP POP POP POP POP JUMP JUMPDEST PUSH1 0x6 PUSH1 0x0 SWAP1 SLOAD SWAP1 PUSH2 0x100 EXP SWAP1 DIV PUSH1 0xFF AND ISZERO PUSH2 0x2163 JUMPI PUSH2 0x215E DUP5 DUP5 DUP5 DUP5 PUSH2 0x25F3 JUMP JUMPDEST PUSH2 0x21A8 JUMP JUMPDEST PUSH1 0x0 DUP3 MLOAD EQ PUSH2 0x21A7 JUMPI PUSH1 0x40 MLOAD PUSH32 0x8C379A000000000000000000000000000000000000000000000000000000000 DUP2 MSTORE PUSH1 0x4 ADD PUSH2 0x219E SWAP1 PUSH2 0x48B5 JUMP JUMPDEST PUSH1 0x40 MLOAD DUP1 SWAP2 SUB SWAP1 REVERT JUMPDEST JUMPDEST POP POP POP POP JUMP JUMPDEST PUSH1 0x0 PUSH2 0x21B8 PUSH2 0x1B3A JUMP JUMPDEST PUSH20 0xFFFFFFFFFFFFFFFFFFFFFFFFFFFFFFFFFFFFFFFF AND DUP6 PUSH20 0xFFFFFFFFFFFFFFFFFFFFFFFFFFFFFFFFFFFFFFFF AND EQ PUSH2 0x2225 JUMPI PUSH1 0x40 MLOAD PUSH32 0x8C379A000000000000000000000000000000000000000000000000000000000 DUP2 MSTORE PUSH1 0x4 ADD PUSH2 0x221C SWAP1 PUSH2 0x4947 JUMP JUMPDEST PUSH1 0x40 MLOAD DUP1 SWAP2 SUB SWAP1 REVERT JUMPDEST PUSH1 0x0 PUSH32 0x0 PUSH20 0xFFFFFFFFFFFFFFFFFFFFFFFFFFFFFFFFFFFFFFFF AND PUSH4 0x70A08231 ADDRESS PUSH1 0x40 MLOAD DUP3 PUSH4 0xFFFFFFFF AND PUSH1 0xE0 SHL DUP2 MSTORE PUSH1 0x4 ADD PUSH2 0x2280 SWAP2 SWAP1 PUSH2 0x365D JUMP JUMPDEST PUSH1 0x20 PUSH1 0x40 MLOAD DUP1 DUP4 SUB DUP2 DUP7 GAS STATICCALL ISZERO DUP1 ISZERO PUSH2 0x229D JUMPI RETURNDATASIZE PUSH1 0x0 DUP1 RETURNDATACOPY RETURNDATASIZE PUSH1 0x0 REVERT JUMPDEST POP POP POP POP PUSH1 0x40 MLOAD RETURNDATASIZE PUSH1 0x1F NOT PUSH1 0x1F DUP3 ADD AND DUP3 ADD DUP1 PUSH1 0x40 MSTORE POP DUP2 ADD SWAP1 PUSH2 0x22C1 SWAP2 SWAP1 PUSH2 0x3C2F JUMP JUMPDEST SWAP1 POP PUSH2 0x2310 DUP7 ADDRESS DUP6 PUSH32 0x0 PUSH20 0xFFFFFFFFFFFFFFFFFFFFFFFFFFFFFFFFFFFFFFFF AND PUSH2 0x26D2 SWAP1 SWAP4 SWAP3 SWAP2 SWAP1 PUSH4 0xFFFFFFFF AND JUMP JUMPDEST DUP1 PUSH32 0x0 PUSH20 0xFFFFFFFFFFFFFFFFFFFFFFFFFFFFFFFFFFFFFFFF AND PUSH4 0x70A08231 ADDRESS PUSH1 0x40 MLOAD DUP3 PUSH4 0xFFFFFFFF AND PUSH1 0xE0 SHL DUP2 MSTORE PUSH1 0x4 ADD PUSH2 0x236A SWAP2 SWAP1 PUSH2 0x365D JUMP JUMPDEST PUSH1 0x20 PUSH1 0x40 MLOAD DUP1 DUP4 SUB DUP2 DUP7 GAS STATICCALL ISZERO DUP1 ISZERO PUSH2 0x2387 JUMPI RETURNDATASIZE PUSH1 0x0 DUP1 RETURNDATACOPY RETURNDATASIZE PUSH1 0x0 REVERT JUMPDEST POP POP POP POP PUSH1 0x40 MLOAD RETURNDATASIZE PUSH1 0x1F NOT PUSH1 0x1F DUP3 ADD AND DUP3 ADD DUP1 PUSH1 0x40 MSTORE POP DUP2 ADD SWAP1 PUSH2 0x23AB SWAP2 SWAP1 PUSH2 0x3C2F JUMP JUMPDEST PUSH2 0x23B5 SWAP2 SWAP1 PUSH2 0x3CF7 JUMP JUMPDEST SWAP2 POP POP SWAP5 SWAP4 POP POP POP POP JUMP JUMPDEST PUSH1 0x0 PUSH1 0x1 PUSH1 0x0 DUP9 PUSH2 0xFFFF AND PUSH2 0xFFFF AND DUP2 MSTORE PUSH1 0x20 ADD SWAP1 DUP2 MSTORE PUSH1 0x20 ADD PUSH1 0x0 KECCAK256 DUP1 SLOAD PUSH2 0x23E8 SWAP1 PUSH2 0x393A JUMP JUMPDEST DUP1 PUSH1 0x1F ADD PUSH1 0x20 DUP1 SWAP2 DIV MUL PUSH1 0x20 ADD PUSH1 0x40 MLOAD SWAP1 DUP2 ADD PUSH1 0x40 MSTORE DUP1 SWAP3 SWAP2 SWAP1 DUP2 DUP2 MSTORE PUSH1 0x20 ADD DUP3 DUP1 SLOAD PUSH2 0x2414 SWAP1 PUSH2 0x393A JUMP JUMPDEST DUP1 ISZERO PUSH2 0x2461 JUMPI DUP1 PUSH1 0x1F LT PUSH2 0x2436 JUMPI PUSH2 0x100 DUP1 DUP4 SLOAD DIV MUL DUP4 MSTORE SWAP2 PUSH1 0x20 ADD SWAP2 PUSH2 0x2461 JUMP JUMPDEST DUP3 ADD SWAP2 SWAP1 PUSH1 0x0 MSTORE PUSH1 0x20 PUSH1 0x0 KECCAK256 SWAP1 JUMPDEST DUP2 SLOAD DUP2 MSTORE SWAP1 PUSH1 0x1 ADD SWAP1 PUSH1 0x20 ADD DUP1 DUP4 GT PUSH2 0x2444 JUMPI DUP3 SWAP1 SUB PUSH1 0x1F AND DUP3 ADD SWAP2 JUMPDEST POP POP POP POP POP SWAP1 POP PUSH1 0x0 DUP2 MLOAD SUB PUSH2 0x24AC JUMPI PUSH1 0x40 MLOAD PUSH32 0x8C379A000000000000000000000000000000000000000000000000000000000 DUP2 MSTORE PUSH1 0x4 ADD PUSH2 0x24A3 SWAP1 PUSH2 0x49D9 JUMP JUMPDEST PUSH1 0x40 MLOAD DUP1 SWAP2 SUB SWAP1 REVERT JUMPDEST PUSH2 0x24B7 DUP8 DUP8 MLOAD PUSH2 0x275B JUMP JUMPDEST PUSH32 0x0 PUSH20 0xFFFFFFFFFFFFFFFFFFFFFFFFFFFFFFFFFFFFFFFF AND PUSH4 0xC5803100 DUP4 DUP10 DUP5 DUP11 DUP11 DUP11 DUP11 PUSH1 0x40 MLOAD DUP9 PUSH4 0xFFFFFFFF AND PUSH1 0xE0 SHL DUP2 MSTORE PUSH1 0x4 ADD PUSH2 0x251B SWAP7 SWAP6 SWAP5 SWAP4 SWAP3 SWAP2 SWAP1 PUSH2 0x4A08 JUMP JUMPDEST PUSH1 0x0 PUSH1 0x40 MLOAD DUP1 DUP4 SUB DUP2 DUP6 DUP9 DUP1 EXTCODESIZE ISZERO DUP1 ISZERO PUSH2 0x2534 JUMPI PUSH1 0x0 DUP1 REVERT JUMPDEST POP GAS CALL ISZERO DUP1 ISZERO PUSH2 0x2548 JUMPI RETURNDATASIZE PUSH1 0x0 DUP1 RETURNDATACOPY RETURNDATASIZE PUSH1 0x0 REVERT JUMPDEST POP POP POP POP POP POP POP POP POP POP POP POP JUMP JUMPDEST PUSH1 0x0 DUP1 DUP3 DUP1 PUSH1 0x20 ADD SWAP1 MLOAD DUP2 ADD SWAP1 PUSH2 0x256D SWAP2 SWAP1 PUSH2 0x4A93 JUMP JUMPDEST SWAP3 POP SWAP3 POP POP PUSH1 0x0 PUSH2 0x2588 PUSH1 0x0 DUP5 PUSH2 0x27D1 SWAP1 SWAP2 SWAP1 PUSH4 0xFFFFFFFF AND JUMP JUMPDEST SWAP1 POP PUSH2 0x2595 DUP8 DUP3 DUP5 PUSH2 0x2847 JUMP JUMPDEST SWAP2 POP DUP1 PUSH20 0xFFFFFFFFFFFFFFFFFFFFFFFFFFFFFFFFFFFFFFFF AND DUP8 PUSH2 0xFFFF AND PUSH32 0xBF551EC93859B170F9B2141BD9298BF3F64322C6F7BEB2543A0CB669834118BF DUP5 PUSH1 0x40 MLOAD PUSH2 0x25E2 SWAP2 SWAP1 PUSH2 0x31C6 JUMP JUMPDEST PUSH1 0x40 MLOAD DUP1 SWAP2 SUB SWAP1 LOG3 POP POP POP POP POP POP POP JUMP JUMPDEST PUSH1 0x0 PUSH2 0x25FE DUP4 PUSH2 0x29E0 JUMP JUMPDEST SWAP1 POP PUSH1 0x0 DUP3 PUSH1 0x2 PUSH1 0x0 DUP9 PUSH2 0xFFFF AND PUSH2 0xFFFF AND DUP2 MSTORE PUSH1 0x20 ADD SWAP1 DUP2 MSTORE PUSH1 0x20 ADD PUSH1 0x0 KECCAK256 PUSH1 0x0 DUP8 PUSH2 0xFFFF AND PUSH2 0xFFFF AND DUP2 MSTORE PUSH1 0x20 ADD SWAP1 DUP2 MSTORE PUSH1 0x20 ADD PUSH1 0x0 KECCAK256 SLOAD PUSH2 0x2642 SWAP2 SWAP1 PUSH2 0x4687 JUMP JUMPDEST SWAP1 POP PUSH1 0x0 DUP2 GT PUSH2 0x2687 JUMPI PUSH1 0x40 MLOAD PUSH32 0x8C379A000000000000000000000000000000000000000000000000000000000 DUP2 MSTORE PUSH1 0x4 ADD PUSH2 0x267E SWAP1 PUSH2 0x4B4E JUMP JUMPDEST PUSH1 0x40 MLOAD DUP1 SWAP2 SUB SWAP1 REVERT JUMPDEST DUP1 DUP3 LT ISZERO PUSH2 0x26CA JUMPI PUSH1 0x40 MLOAD PUSH32 0x8C379A000000000000000000000000000000000000000000000000000000000 DUP2 MSTORE PUSH1 0x4 ADD PUSH2 0x26C1 SWAP1 PUSH2 0x4BBA JUMP JUMPDEST PUSH1 0x40 MLOAD DUP1 SWAP2 SUB SWAP1 REVERT JUMPDEST POP POP POP POP POP POP JUMP JUMPDEST PUSH2 0x2755 DUP5 PUSH4 0x23B872DD PUSH1 0xE0 SHL DUP6 DUP6 DUP6 PUSH1 0x40 MLOAD PUSH1 0x24 ADD PUSH2 0x26F3 SWAP4 SWAP3 SWAP2 SWAP1 PUSH2 0x4BDA JUMP JUMPDEST PUSH1 0x40 MLOAD PUSH1 0x20 DUP2 DUP4 SUB SUB DUP2 MSTORE SWAP1 PUSH1 0x40 MSTORE SWAP1 PUSH28 0xFFFFFFFFFFFFFFFFFFFFFFFFFFFFFFFFFFFFFFFFFFFFFFFFFFFFFFFF NOT AND PUSH1 0x20 DUP3 ADD DUP1 MLOAD PUSH28 0xFFFFFFFFFFFFFFFFFFFFFFFFFFFFFFFFFFFFFFFFFFFFFFFFFFFFFFFF DUP4 DUP2 DUP4 AND OR DUP4 MSTORE POP POP POP POP PUSH2 0x2A33 JUMP JUMPDEST POP POP POP POP JUMP JUMPDEST PUSH1 0x0 PUSH1 0x3 PUSH1 0x0 DUP5 PUSH2 0xFFFF AND PUSH2 0xFFFF AND DUP2 MSTORE PUSH1 0x20 ADD SWAP1 DUP2 MSTORE PUSH1 0x20 ADD PUSH1 0x0 KECCAK256 SLOAD SWAP1 POP PUSH1 0x0 DUP2 SUB PUSH2 0x2789 JUMPI PUSH2 0x2710 SWAP1 POP JUMPDEST DUP1 DUP3 GT ISZERO PUSH2 0x27CC JUMPI PUSH1 0x40 MLOAD PUSH32 0x8C379A000000000000000000000000000000000000000000000000000000000 DUP2 MSTORE PUSH1 0x4 ADD PUSH2 0x27C3 SWAP1 PUSH2 0x4C5D JUMP JUMPDEST PUSH1 0x40 MLOAD DUP1 SWAP2 SUB SWAP1 REVERT JUMPDEST POP POP POP JUMP JUMPDEST PUSH1 0x0 PUSH1 0x14 DUP3 PUSH2 0x27E0 SWAP2 SWAP1 PUSH2 0x4687 JUMP JUMPDEST DUP4 MLOAD LT ISZERO PUSH2 0x2823 JUMPI PUSH1 0x40 MLOAD PUSH32 0x8C379A000000000000000000000000000000000000000000000000000000000 DUP2 MSTORE PUSH1 0x4 ADD PUSH2 0x281A SWAP1 PUSH2 0x4CC9 JUMP JUMPDEST PUSH1 0x40 MLOAD DUP1 SWAP2 SUB SWAP1 REVERT JUMPDEST PUSH1 0x0 PUSH13 0x1000000000000000000000000 DUP4 PUSH1 0x20 DUP7 ADD ADD MLOAD DIV SWAP1 POP DUP1 SWAP2 POP POP SWAP3 SWAP2 POP POP JUMP JUMPDEST PUSH1 0x0 DUP1 PUSH32 0x0 PUSH20 0xFFFFFFFFFFFFFFFFFFFFFFFFFFFFFFFFFFFFFFFF AND PUSH4 0x70A08231 DUP6 PUSH1 0x40 MLOAD DUP3 PUSH4 0xFFFFFFFF AND PUSH1 0xE0 SHL DUP2 MSTORE PUSH1 0x4 ADD PUSH2 0x28A3 SWAP2 SWAP1 PUSH2 0x365D JUMP JUMPDEST PUSH1 0x20 PUSH1 0x40 MLOAD DUP1 DUP4 SUB DUP2 DUP7 GAS STATICCALL ISZERO DUP1 ISZERO PUSH2 0x28C0 JUMPI RETURNDATASIZE PUSH1 0x0 DUP1 RETURNDATACOPY RETURNDATASIZE PUSH1 0x0 REVERT JUMPDEST POP POP POP POP PUSH1 0x40 MLOAD RETURNDATASIZE PUSH1 0x1F NOT PUSH1 0x1F DUP3 ADD AND DUP3 ADD DUP1 PUSH1 0x40 MSTORE POP DUP2 ADD SWAP1 PUSH2 0x28E4 SWAP2 SWAP1 PUSH2 0x3C2F JUMP JUMPDEST SWAP1 POP PUSH2 0x2931 DUP5 DUP5 PUSH32 0x0 PUSH20 0xFFFFFFFFFFFFFFFFFFFFFFFFFFFFFFFFFFFFFFFF AND PUSH2 0x2AFB SWAP1 SWAP3 SWAP2 SWAP1 PUSH4 0xFFFFFFFF AND JUMP JUMPDEST DUP1 PUSH32 0x0 PUSH20 0xFFFFFFFFFFFFFFFFFFFFFFFFFFFFFFFFFFFFFFFF AND PUSH4 0x70A08231 DUP7 PUSH1 0x40 MLOAD DUP3 PUSH4 0xFFFFFFFF AND PUSH1 0xE0 SHL DUP2 MSTORE PUSH1 0x4 ADD PUSH2 0x298B SWAP2 SWAP1 PUSH2 0x365D JUMP JUMPDEST PUSH1 0x20 PUSH1 0x40 MLOAD DUP1 DUP4 SUB DUP2 DUP7 GAS STATICCALL ISZERO DUP1 ISZERO PUSH2 0x29A8 JUMPI RETURNDATASIZE PUSH1 0x0 DUP1 RETURNDATACOPY RETURNDATASIZE PUSH1 0x0 REVERT JUMPDEST POP POP POP POP PUSH1 0x40 MLOAD RETURNDATASIZE PUSH1 0x1F NOT PUSH1 0x1F DUP3 ADD AND DUP3 ADD DUP1 PUSH1 0x40 MSTORE POP DUP2 ADD SWAP1 PUSH2 0x29CC SWAP2 SWAP1 PUSH2 0x3C2F JUMP JUMPDEST PUSH2 0x29D6 SWAP2 SWAP1 PUSH2 0x3CF7 JUMP JUMPDEST SWAP2 POP POP SWAP4 SWAP3 POP POP POP JUMP JUMPDEST PUSH1 0x0 PUSH1 0x22 DUP3 MLOAD LT ISZERO PUSH2 0x2A27 JUMPI PUSH1 0x40 MLOAD PUSH32 0x8C379A000000000000000000000000000000000000000000000000000000000 DUP2 MSTORE PUSH1 0x4 ADD PUSH2 0x2A1E SWAP1 PUSH2 0x4D35 JUMP JUMPDEST PUSH1 0x40 MLOAD DUP1 SWAP2 SUB SWAP1 REVERT JUMPDEST PUSH1 0x22 DUP3 ADD MLOAD SWAP1 POP SWAP2 SWAP1 POP JUMP JUMPDEST PUSH1 0x0 PUSH2 0x2A95 DUP3 PUSH1 0x40 MLOAD DUP1 PUSH1 0x40 ADD PUSH1 0x40 MSTORE DUP1 PUSH1 0x20 DUP2 MSTORE PUSH1 0x20 ADD PUSH32 0x5361666545524332303A206C6F772D6C6576656C2063616C6C206661696C6564 DUP2 MSTORE POP DUP6 PUSH20 0xFFFFFFFFFFFFFFFFFFFFFFFFFFFFFFFFFFFFFFFF AND PUSH2 0x2B81 SWAP1 SWAP3 SWAP2 SWAP1 PUSH4 0xFFFFFFFF AND JUMP JUMPDEST SWAP1 POP PUSH1 0x0 DUP2 MLOAD EQ DUP1 PUSH2 0x2AB7 JUMPI POP DUP1 DUP1 PUSH1 0x20 ADD SWAP1 MLOAD DUP2 ADD SWAP1 PUSH2 0x2AB6 SWAP2 SWAP1 PUSH2 0x4D6A JUMP JUMPDEST JUMPDEST PUSH2 0x2AF6 JUMPI PUSH1 0x40 MLOAD PUSH32 0x8C379A000000000000000000000000000000000000000000000000000000000 DUP2 MSTORE PUSH1 0x4 ADD PUSH2 0x2AED SWAP1 PUSH2 0x4E09 JUMP JUMPDEST PUSH1 0x40 MLOAD DUP1 SWAP2 SUB SWAP1 REVERT JUMPDEST POP POP POP JUMP JUMPDEST PUSH2 0x2B7C DUP4 PUSH4 0xA9059CBB PUSH1 0xE0 SHL DUP5 DUP5 PUSH1 0x40 MLOAD PUSH1 0x24 ADD PUSH2 0x2B1A SWAP3 SWAP2 SWAP1 PUSH2 0x4E29 JUMP JUMPDEST PUSH1 0x40 MLOAD PUSH1 0x20 DUP2 DUP4 SUB SUB DUP2 MSTORE SWAP1 PUSH1 0x40 MSTORE SWAP1 PUSH28 0xFFFFFFFFFFFFFFFFFFFFFFFFFFFFFFFFFFFFFFFFFFFFFFFFFFFFFFFF NOT AND PUSH1 0x20 DUP3 ADD DUP1 MLOAD PUSH28 0xFFFFFFFFFFFFFFFFFFFFFFFFFFFFFFFFFFFFFFFFFFFFFFFFFFFFFFFF DUP4 DUP2 DUP4 AND OR DUP4 MSTORE POP POP POP POP PUSH2 0x2A33 JUMP JUMPDEST POP POP POP JUMP JUMPDEST PUSH1 0x60 PUSH2 0x2B90 DUP5 DUP5 PUSH1 0x0 DUP6 PUSH2 0x2B99 JUMP JUMPDEST SWAP1 POP SWAP4 SWAP3 POP POP POP JUMP JUMPDEST PUSH1 0x60 DUP3 SELFBALANCE LT ISZERO PUSH2 0x2BDE JUMPI PUSH1 0x40 MLOAD PUSH32 0x8C379A000000000000000000000000000000000000000000000000000000000 DUP2 MSTORE PUSH1 0x4 ADD PUSH2 0x2BD5 SWAP1 PUSH2 0x4EC4 JUMP JUMPDEST PUSH1 0x40 MLOAD DUP1 SWAP2 SUB SWAP1 REVERT JUMPDEST PUSH1 0x0 DUP1 DUP7 PUSH20 0xFFFFFFFFFFFFFFFFFFFFFFFFFFFFFFFFFFFFFFFF AND DUP6 DUP8 PUSH1 0x40 MLOAD PUSH2 0x2C07 SWAP2 SWAP1 PUSH2 0x47C4 JUMP JUMPDEST PUSH1 0x0 PUSH1 0x40 MLOAD DUP1 DUP4 SUB DUP2 DUP6 DUP8 GAS CALL SWAP3 POP POP POP RETURNDATASIZE DUP1 PUSH1 0x0 DUP2 EQ PUSH2 0x2C44 JUMPI PUSH1 0x40 MLOAD SWAP2 POP PUSH1 0x1F NOT PUSH1 0x3F RETURNDATASIZE ADD AND DUP3 ADD PUSH1 0x40 MSTORE RETURNDATASIZE DUP3 MSTORE RETURNDATASIZE PUSH1 0x0 PUSH1 0x20 DUP5 ADD RETURNDATACOPY PUSH2 0x2C49 JUMP JUMPDEST PUSH1 0x60 SWAP2 POP JUMPDEST POP SWAP2 POP SWAP2 POP PUSH2 0x2C5A DUP8 DUP4 DUP4 DUP8 PUSH2 0x2C66 JUMP JUMPDEST SWAP3 POP POP POP SWAP5 SWAP4 POP POP POP POP JUMP JUMPDEST PUSH1 0x60 DUP4 ISZERO PUSH2 0x2CC8 JUMPI PUSH1 0x0 DUP4 MLOAD SUB PUSH2 0x2CC0 JUMPI PUSH2 0x2C80 DUP6 PUSH2 0x2CDB JUMP JUMPDEST PUSH2 0x2CBF JUMPI PUSH1 0x40 MLOAD PUSH32 0x8C379A000000000000000000000000000000000000000000000000000000000 DUP2 MSTORE PUSH1 0x4 ADD PUSH2 0x2CB6 SWAP1 PUSH2 0x4F30 JUMP JUMPDEST PUSH1 0x40 MLOAD DUP1 SWAP2 SUB SWAP1 REVERT JUMPDEST JUMPDEST DUP3 SWAP1 POP PUSH2 0x2CD3 JUMP JUMPDEST PUSH2 0x2CD2 DUP4 DUP4 PUSH2 0x2CFE JUMP JUMPDEST JUMPDEST SWAP5 SWAP4 POP POP POP POP JUMP JUMPDEST PUSH1 0x0 DUP1 DUP3 PUSH20 0xFFFFFFFFFFFFFFFFFFFFFFFFFFFFFFFFFFFFFFFF AND EXTCODESIZE GT SWAP1 POP SWAP2 SWAP1 POP JUMP JUMPDEST PUSH1 0x0 DUP3 MLOAD GT ISZERO PUSH2 0x2D11 JUMPI DUP2 MLOAD DUP1 DUP4 PUSH1 0x20 ADD REVERT JUMPDEST DUP1 PUSH1 0x40 MLOAD PUSH32 0x8C379A000000000000000000000000000000000000000000000000000000000 DUP2 MSTORE PUSH1 0x4 ADD PUSH2 0x2D45 SWAP2 SWAP1 PUSH2 0x4F94 JUMP JUMPDEST PUSH1 0x40 MLOAD DUP1 SWAP2 SUB SWAP1 REVERT JUMPDEST PUSH1 0x0 PUSH1 0x40 MLOAD SWAP1 POP SWAP1 JUMP JUMPDEST PUSH1 0x0 DUP1 REVERT JUMPDEST PUSH1 0x0 DUP1 REVERT JUMPDEST PUSH1 0x0 PUSH2 0xFFFF DUP3 AND SWAP1 POP SWAP2 SWAP1 POP JUMP JUMPDEST PUSH2 0x2D79 DUP2 PUSH2 0x2D62 JUMP JUMPDEST DUP2 EQ PUSH2 0x2D84 JUMPI PUSH1 0x0 DUP1 REVERT JUMPDEST POP JUMP JUMPDEST PUSH1 0x0 DUP2 CALLDATALOAD SWAP1 POP PUSH2 0x2D96 DUP2 PUSH2 0x2D70 JUMP JUMPDEST SWAP3 SWAP2 POP POP JUMP JUMPDEST PUSH1 0x0 DUP1 REVERT JUMPDEST PUSH1 0x0 DUP1 REVERT JUMPDEST PUSH1 0x0 DUP1 REVERT JUMPDEST PUSH1 0x0 DUP1 DUP4 PUSH1 0x1F DUP5 ADD SLT PUSH2 0x2DC1 JUMPI PUSH2 0x2DC0 PUSH2 0x2D9C JUMP JUMPDEST JUMPDEST DUP3 CALLDATALOAD SWAP1 POP PUSH8 0xFFFFFFFFFFFFFFFF DUP2 GT ISZERO PUSH2 0x2DDE JUMPI PUSH2 0x2DDD PUSH2 0x2DA1 JUMP JUMPDEST JUMPDEST PUSH1 0x20 DUP4 ADD SWAP2 POP DUP4 PUSH1 0x1 DUP3 MUL DUP4 ADD GT ISZERO PUSH2 0x2DFA JUMPI PUSH2 0x2DF9 PUSH2 0x2DA6 JUMP JUMPDEST JUMPDEST SWAP3 POP SWAP3 SWAP1 POP JUMP JUMPDEST PUSH1 0x0 PUSH8 0xFFFFFFFFFFFFFFFF DUP3 AND SWAP1 POP SWAP2 SWAP1 POP JUMP JUMPDEST PUSH2 0x2E1E DUP2 PUSH2 0x2E01 JUMP JUMPDEST DUP2 EQ PUSH2 0x2E29 JUMPI PUSH1 0x0 DUP1 REVERT JUMPDEST POP JUMP JUMPDEST PUSH1 0x0 DUP2 CALLDATALOAD SWAP1 POP PUSH2 0x2E3B DUP2 PUSH2 0x2E15 JUMP JUMPDEST SWAP3 SWAP2 POP POP JUMP JUMPDEST PUSH1 0x0 DUP1 PUSH1 0x0 DUP1 PUSH1 0x0 DUP1 PUSH1 0x80 DUP8 DUP10 SUB SLT ISZERO PUSH2 0x2E5E JUMPI PUSH2 0x2E5D PUSH2 0x2D58 JUMP JUMPDEST JUMPDEST PUSH1 0x0 PUSH2 0x2E6C DUP10 DUP3 DUP11 ADD PUSH2 0x2D87 JUMP JUMPDEST SWAP7 POP POP PUSH1 0x20 DUP8 ADD CALLDATALOAD PUSH8 0xFFFFFFFFFFFFFFFF DUP2 GT ISZERO PUSH2 0x2E8D JUMPI PUSH2 0x2E8C PUSH2 0x2D5D JUMP JUMPDEST JUMPDEST PUSH2 0x2E99 DUP10 DUP3 DUP11 ADD PUSH2 0x2DAB JUMP JUMPDEST SWAP6 POP SWAP6 POP POP PUSH1 0x40 PUSH2 0x2EAC DUP10 DUP3 DUP11 ADD PUSH2 0x2E2C JUMP JUMPDEST SWAP4 POP POP PUSH1 0x60 DUP8 ADD CALLDATALOAD PUSH8 0xFFFFFFFFFFFFFFFF DUP2 GT ISZERO PUSH2 0x2ECD JUMPI PUSH2 0x2ECC PUSH2 0x2D5D JUMP JUMPDEST JUMPDEST PUSH2 0x2ED9 DUP10 DUP3 DUP11 ADD PUSH2 0x2DAB JUMP JUMPDEST SWAP3 POP SWAP3 POP POP SWAP3 SWAP6 POP SWAP3 SWAP6 POP SWAP3 SWAP6 JUMP JUMPDEST PUSH1 0x0 PUSH32 0xFFFFFFFF00000000000000000000000000000000000000000000000000000000 DUP3 AND SWAP1 POP SWAP2 SWAP1 POP JUMP JUMPDEST PUSH2 0x2F1D DUP2 PUSH2 0x2EE8 JUMP JUMPDEST DUP2 EQ PUSH2 0x2F28 JUMPI PUSH1 0x0 DUP1 REVERT JUMPDEST POP JUMP JUMPDEST PUSH1 0x0 DUP2 CALLDATALOAD SWAP1 POP PUSH2 0x2F3A DUP2 PUSH2 0x2F14 JUMP JUMPDEST SWAP3 SWAP2 POP POP JUMP JUMPDEST PUSH1 0x0 PUSH1 0x20 DUP3 DUP5 SUB SLT ISZERO PUSH2 0x2F56 JUMPI PUSH2 0x2F55 PUSH2 0x2D58 JUMP JUMPDEST JUMPDEST PUSH1 0x0 PUSH2 0x2F64 DUP5 DUP3 DUP6 ADD PUSH2 0x2F2B JUMP JUMPDEST SWAP2 POP POP SWAP3 SWAP2 POP POP JUMP JUMPDEST PUSH1 0x0 DUP2 ISZERO ISZERO SWAP1 POP SWAP2 SWAP1 POP JUMP JUMPDEST PUSH2 0x2F82 DUP2 PUSH2 0x2F6D JUMP JUMPDEST DUP3 MSTORE POP POP JUMP JUMPDEST PUSH1 0x0 PUSH1 0x20 DUP3 ADD SWAP1 POP PUSH2 0x2F9D PUSH1 0x0 DUP4 ADD DUP5 PUSH2 0x2F79 JUMP JUMPDEST SWAP3 SWAP2 POP POP JUMP JUMPDEST PUSH1 0x0 PUSH1 0x20 DUP3 DUP5 SUB SLT ISZERO PUSH2 0x2FB9 JUMPI PUSH2 0x2FB8 PUSH2 0x2D58 JUMP JUMPDEST JUMPDEST PUSH1 0x0 PUSH2 0x2FC7 DUP5 DUP3 DUP6 ADD PUSH2 0x2D87 JUMP JUMPDEST SWAP2 POP POP SWAP3 SWAP2 POP POP JUMP JUMPDEST PUSH1 0x0 DUP2 SWAP1 POP SWAP2 SWAP1 POP JUMP JUMPDEST PUSH2 0x2FE3 DUP2 PUSH2 0x2FD0 JUMP JUMPDEST DUP2 EQ PUSH2 0x2FEE JUMPI PUSH1 0x0 DUP1 REVERT JUMPDEST POP JUMP JUMPDEST PUSH1 0x0 DUP2 CALLDATALOAD SWAP1 POP PUSH2 0x3000 DUP2 PUSH2 0x2FDA JUMP JUMPDEST SWAP3 SWAP2 POP POP JUMP JUMPDEST PUSH1 0x0 DUP1 PUSH1 0x40 DUP4 DUP6 SUB SLT ISZERO PUSH2 0x301D JUMPI PUSH2 0x301C PUSH2 0x2D58 JUMP JUMPDEST JUMPDEST PUSH1 0x0 PUSH2 0x302B DUP6 DUP3 DUP7 ADD PUSH2 0x2D87 JUMP JUMPDEST SWAP3 POP POP PUSH1 0x20 PUSH2 0x303C DUP6 DUP3 DUP7 ADD PUSH2 0x2FF1 JUMP JUMPDEST SWAP2 POP POP SWAP3 POP SWAP3 SWAP1 POP JUMP JUMPDEST PUSH2 0x304F DUP2 PUSH2 0x2F6D JUMP JUMPDEST DUP2 EQ PUSH2 0x305A JUMPI PUSH1 0x0 DUP1 REVERT JUMPDEST POP JUMP JUMPDEST PUSH1 0x0 DUP2 CALLDATALOAD SWAP1 POP PUSH2 0x306C DUP2 PUSH2 0x3046 JUMP JUMPDEST SWAP3 SWAP2 POP POP JUMP JUMPDEST PUSH1 0x0 DUP1 PUSH1 0x0 DUP1 PUSH1 0x0 DUP1 PUSH1 0x0 PUSH1 0xA0 DUP9 DUP11 SUB SLT ISZERO PUSH2 0x3091 JUMPI PUSH2 0x3090 PUSH2 0x2D58 JUMP JUMPDEST JUMPDEST PUSH1 0x0 PUSH2 0x309F DUP11 DUP3 DUP12 ADD PUSH2 0x2D87 JUMP JUMPDEST SWAP8 POP POP PUSH1 0x20 DUP9 ADD CALLDATALOAD PUSH8 0xFFFFFFFFFFFFFFFF DUP2 GT ISZERO PUSH2 0x30C0 JUMPI PUSH2 0x30BF PUSH2 0x2D5D JUMP JUMPDEST JUMPDEST PUSH2 0x30CC DUP11 DUP3 DUP12 ADD PUSH2 0x2DAB JUMP JUMPDEST SWAP7 POP SWAP7 POP POP PUSH1 0x40 PUSH2 0x30DF DUP11 DUP3 DUP12 ADD PUSH2 0x2FF1 JUMP JUMPDEST SWAP5 POP POP PUSH1 0x60 PUSH2 0x30F0 DUP11 DUP3 DUP12 ADD PUSH2 0x305D JUMP JUMPDEST SWAP4 POP POP PUSH1 0x80 DUP9 ADD CALLDATALOAD PUSH8 0xFFFFFFFFFFFFFFFF DUP2 GT ISZERO PUSH2 0x3111 JUMPI PUSH2 0x3110 PUSH2 0x2D5D JUMP JUMPDEST JUMPDEST PUSH2 0x311D DUP11 DUP3 DUP12 ADD PUSH2 0x2DAB JUMP JUMPDEST SWAP3 POP SWAP3 POP POP SWAP3 SWAP6 SWAP9 SWAP2 SWAP5 SWAP8 POP SWAP3 SWAP6 POP JUMP JUMPDEST PUSH2 0x3137 DUP2 PUSH2 0x2FD0 JUMP JUMPDEST DUP3 MSTORE POP POP JUMP JUMPDEST PUSH1 0x0 PUSH1 0x40 DUP3 ADD SWAP1 POP PUSH2 0x3152 PUSH1 0x0 DUP4 ADD DUP6 PUSH2 0x312E JUMP JUMPDEST PUSH2 0x315F PUSH1 0x20 DUP4 ADD DUP5 PUSH2 0x312E JUMP JUMPDEST SWAP4 SWAP3 POP POP POP JUMP JUMPDEST PUSH1 0x0 DUP1 PUSH1 0x0 PUSH1 0x40 DUP5 DUP7 SUB SLT ISZERO PUSH2 0x317F JUMPI PUSH2 0x317E PUSH2 0x2D58 JUMP JUMPDEST JUMPDEST PUSH1 0x0 PUSH2 0x318D DUP7 DUP3 DUP8 ADD PUSH2 0x2D87 JUMP JUMPDEST SWAP4 POP POP PUSH1 0x20 DUP5 ADD CALLDATALOAD PUSH8 0xFFFFFFFFFFFFFFFF DUP2 GT ISZERO PUSH2 0x31AE JUMPI PUSH2 0x31AD PUSH2 0x2D5D JUMP JUMPDEST JUMPDEST PUSH2 0x31BA DUP7 DUP3 DUP8 ADD PUSH2 0x2DAB JUMP JUMPDEST SWAP3 POP SWAP3 POP POP SWAP3 POP SWAP3 POP SWAP3 JUMP JUMPDEST PUSH1 0x0 PUSH1 0x20 DUP3 ADD SWAP1 POP PUSH2 0x31DB PUSH1 0x0 DUP4 ADD DUP5 PUSH2 0x312E JUMP JUMPDEST SWAP3 SWAP2 POP POP JUMP JUMPDEST PUSH2 0x31EA DUP2 PUSH2 0x2D62 JUMP JUMPDEST DUP3 MSTORE POP POP JUMP JUMPDEST PUSH1 0x0 PUSH1 0x20 DUP3 ADD SWAP1 POP PUSH2 0x3205 PUSH1 0x0 DUP4 ADD DUP5 PUSH2 0x31E1 JUMP JUMPDEST SWAP3 SWAP2 POP POP JUMP JUMPDEST PUSH1 0x0 PUSH20 0xFFFFFFFFFFFFFFFFFFFFFFFFFFFFFFFFFFFFFFFF DUP3 AND SWAP1 POP SWAP2 SWAP1 POP JUMP JUMPDEST PUSH1 0x0 PUSH2 0x3236 DUP3 PUSH2 0x320B JUMP JUMPDEST SWAP1 POP SWAP2 SWAP1 POP JUMP JUMPDEST PUSH2 0x3246 DUP2 PUSH2 0x322B JUMP JUMPDEST DUP2 EQ PUSH2 0x3251 JUMPI PUSH1 0x0 DUP1 REVERT JUMPDEST POP JUMP JUMPDEST PUSH1 0x0 DUP2 CALLDATALOAD SWAP1 POP PUSH2 0x3263 DUP2 PUSH2 0x323D JUMP JUMPDEST SWAP3 SWAP2 POP POP JUMP JUMPDEST PUSH1 0x0 PUSH2 0x3274 DUP3 PUSH2 0x320B JUMP JUMPDEST SWAP1 POP SWAP2 SWAP1 POP JUMP JUMPDEST PUSH2 0x3284 DUP2 PUSH2 0x3269 JUMP JUMPDEST DUP2 EQ PUSH2 0x328F JUMPI PUSH1 0x0 DUP1 REVERT JUMPDEST POP JUMP JUMPDEST PUSH1 0x0 DUP2 CALLDATALOAD SWAP1 POP PUSH2 0x32A1 DUP2 PUSH2 0x327B JUMP JUMPDEST SWAP3 SWAP2 POP POP JUMP JUMPDEST PUSH1 0x0 DUP1 PUSH1 0x0 DUP1 PUSH1 0x0 DUP1 PUSH1 0x0 DUP1 PUSH1 0x0 PUSH1 0xE0 DUP11 DUP13 SUB SLT ISZERO PUSH2 0x32C9 JUMPI PUSH2 0x32C8 PUSH2 0x2D58 JUMP JUMPDEST JUMPDEST PUSH1 0x0 PUSH2 0x32D7 DUP13 DUP3 DUP14 ADD PUSH2 0x3254 JUMP JUMPDEST SWAP10 POP POP PUSH1 0x20 PUSH2 0x32E8 DUP13 DUP3 DUP14 ADD PUSH2 0x2D87 JUMP JUMPDEST SWAP9 POP POP PUSH1 0x40 DUP11 ADD CALLDATALOAD PUSH8 0xFFFFFFFFFFFFFFFF DUP2 GT ISZERO PUSH2 0x3309 JUMPI PUSH2 0x3308 PUSH2 0x2D5D JUMP JUMPDEST JUMPDEST PUSH2 0x3315 DUP13 DUP3 DUP14 ADD PUSH2 0x2DAB JUMP JUMPDEST SWAP8 POP SWAP8 POP POP PUSH1 0x60 PUSH2 0x3328 DUP13 DUP3 DUP14 ADD PUSH2 0x2FF1 JUMP JUMPDEST SWAP6 POP POP PUSH1 0x80 PUSH2 0x3339 DUP13 DUP3 DUP14 ADD PUSH2 0x3292 JUMP JUMPDEST SWAP5 POP POP PUSH1 0xA0 PUSH2 0x334A DUP13 DUP3 DUP14 ADD PUSH2 0x3254 JUMP JUMPDEST SWAP4 POP POP PUSH1 0xC0 DUP11 ADD CALLDATALOAD PUSH8 0xFFFFFFFFFFFFFFFF DUP2 GT ISZERO PUSH2 0x336B JUMPI PUSH2 0x336A PUSH2 0x2D5D JUMP JUMPDEST JUMPDEST PUSH2 0x3377 DUP13 DUP3 DUP14 ADD PUSH2 0x2DAB JUMP JUMPDEST SWAP3 POP SWAP3 POP POP SWAP3 SWAP6 SWAP9 POP SWAP3 SWAP6 SWAP9 POP SWAP3 SWAP6 SWAP9 JUMP JUMPDEST PUSH1 0x0 DUP1 REVERT JUMPDEST PUSH1 0x0 PUSH1 0x1F NOT PUSH1 0x1F DUP4 ADD AND SWAP1 POP SWAP2 SWAP1 POP JUMP JUMPDEST PUSH32 0x4E487B7100000000000000000000000000000000000000000000000000000000 PUSH1 0x0 MSTORE PUSH1 0x41 PUSH1 0x4 MSTORE PUSH1 0x24 PUSH1 0x0 REVERT JUMPDEST PUSH2 0x33D7 DUP3 PUSH2 0x338E JUMP JUMPDEST DUP2 ADD DUP2 DUP2 LT PUSH8 0xFFFFFFFFFFFFFFFF DUP3 GT OR ISZERO PUSH2 0x33F6 JUMPI PUSH2 0x33F5 PUSH2 0x339F JUMP JUMPDEST JUMPDEST DUP1 PUSH1 0x40 MSTORE POP POP POP JUMP JUMPDEST PUSH1 0x0 PUSH2 0x3409 PUSH2 0x2D4E JUMP JUMPDEST SWAP1 POP PUSH2 0x3415 DUP3 DUP3 PUSH2 0x33CE JUMP JUMPDEST SWAP2 SWAP1 POP JUMP JUMPDEST PUSH1 0x0 PUSH8 0xFFFFFFFFFFFFFFFF DUP3 GT ISZERO PUSH2 0x3435 JUMPI PUSH2 0x3434 PUSH2 0x339F JUMP JUMPDEST JUMPDEST PUSH2 0x343E DUP3 PUSH2 0x338E JUMP JUMPDEST SWAP1 POP PUSH1 0x20 DUP2 ADD SWAP1 POP SWAP2 SWAP1 POP JUMP JUMPDEST DUP3 DUP2 DUP4 CALLDATACOPY PUSH1 0x0 DUP4 DUP4 ADD MSTORE POP POP POP JUMP JUMPDEST PUSH1 0x0 PUSH2 0x346D PUSH2 0x3468 DUP5 PUSH2 0x341A JUMP JUMPDEST PUSH2 0x33FF JUMP JUMPDEST SWAP1 POP DUP3 DUP2 MSTORE PUSH1 0x20 DUP2 ADD DUP5 DUP5 DUP5 ADD GT ISZERO PUSH2 0x3489 JUMPI PUSH2 0x3488 PUSH2 0x3389 JUMP JUMPDEST JUMPDEST PUSH2 0x3494 DUP5 DUP3 DUP6 PUSH2 0x344B JUMP JUMPDEST POP SWAP4 SWAP3 POP POP POP JUMP JUMPDEST PUSH1 0x0 DUP3 PUSH1 0x1F DUP4 ADD SLT PUSH2 0x34B1 JUMPI PUSH2 0x34B0 PUSH2 0x2D9C JUMP JUMPDEST JUMPDEST DUP2 CALLDATALOAD PUSH2 0x34C1 DUP5 DUP3 PUSH1 0x20 DUP7 ADD PUSH2 0x345A JUMP JUMPDEST SWAP2 POP POP SWAP3 SWAP2 POP POP JUMP JUMPDEST PUSH1 0x0 DUP1 PUSH1 0x0 PUSH1 0x60 DUP5 DUP7 SUB SLT ISZERO PUSH2 0x34E3 JUMPI PUSH2 0x34E2 PUSH2 0x2D58 JUMP JUMPDEST JUMPDEST PUSH1 0x0 PUSH2 0x34F1 DUP7 DUP3 DUP8 ADD PUSH2 0x2D87 JUMP JUMPDEST SWAP4 POP POP PUSH1 0x20 DUP5 ADD CALLDATALOAD PUSH8 0xFFFFFFFFFFFFFFFF DUP2 GT ISZERO PUSH2 0x3512 JUMPI PUSH2 0x3511 PUSH2 0x2D5D JUMP JUMPDEST JUMPDEST PUSH2 0x351E DUP7 DUP3 DUP8 ADD PUSH2 0x349C JUMP JUMPDEST SWAP3 POP POP PUSH1 0x40 PUSH2 0x352F DUP7 DUP3 DUP8 ADD PUSH2 0x2E2C JUMP JUMPDEST SWAP2 POP POP SWAP3 POP SWAP3 POP SWAP3 JUMP JUMPDEST PUSH1 0x0 DUP2 SWAP1 POP SWAP2 SWAP1 POP JUMP JUMPDEST PUSH2 0x354C DUP2 PUSH2 0x3539 JUMP JUMPDEST DUP3 MSTORE POP POP JUMP JUMPDEST PUSH1 0x0 PUSH1 0x20 DUP3 ADD SWAP1 POP PUSH2 0x3567 PUSH1 0x0 DUP4 ADD DUP5 PUSH2 0x3543 JUMP JUMPDEST SWAP3 SWAP2 POP POP JUMP JUMPDEST PUSH1 0x0 DUP2 MLOAD SWAP1 POP SWAP2 SWAP1 POP JUMP JUMPDEST PUSH1 0x0 DUP3 DUP3 MSTORE PUSH1 0x20 DUP3 ADD SWAP1 POP SWAP3 SWAP2 POP POP JUMP JUMPDEST PUSH1 0x0 JUMPDEST DUP4 DUP2 LT ISZERO PUSH2 0x35A7 JUMPI DUP1 DUP3 ADD MLOAD DUP2 DUP5 ADD MSTORE PUSH1 0x20 DUP2 ADD SWAP1 POP PUSH2 0x358C JUMP JUMPDEST PUSH1 0x0 DUP5 DUP5 ADD MSTORE POP POP POP POP JUMP JUMPDEST PUSH1 0x0 PUSH2 0x35BE DUP3 PUSH2 0x356D JUMP JUMPDEST PUSH2 0x35C8 DUP2 DUP6 PUSH2 0x3578 JUMP JUMPDEST SWAP4 POP PUSH2 0x35D8 DUP2 DUP6 PUSH1 0x20 DUP7 ADD PUSH2 0x3589 JUMP JUMPDEST PUSH2 0x35E1 DUP2 PUSH2 0x338E JUMP JUMPDEST DUP5 ADD SWAP2 POP POP SWAP3 SWAP2 POP POP JUMP JUMPDEST PUSH1 0x0 PUSH1 0x20 DUP3 ADD SWAP1 POP DUP2 DUP2 SUB PUSH1 0x0 DUP4 ADD MSTORE PUSH2 0x3606 DUP2 DUP5 PUSH2 0x35B3 JUMP JUMPDEST SWAP1 POP SWAP3 SWAP2 POP POP JUMP JUMPDEST PUSH1 0x0 DUP1 PUSH1 0x40 DUP4 DUP6 SUB SLT ISZERO PUSH2 0x3625 JUMPI PUSH2 0x3624 PUSH2 0x2D58 JUMP JUMPDEST JUMPDEST PUSH1 0x0 PUSH2 0x3633 DUP6 DUP3 DUP7 ADD PUSH2 0x2D87 JUMP JUMPDEST SWAP3 POP POP PUSH1 0x20 PUSH2 0x3644 DUP6 DUP3 DUP7 ADD PUSH2 0x2D87 JUMP JUMPDEST SWAP2 POP POP SWAP3 POP SWAP3 SWAP1 POP JUMP JUMPDEST PUSH2 0x3657 DUP2 PUSH2 0x322B JUMP JUMPDEST DUP3 MSTORE POP POP JUMP JUMPDEST PUSH1 0x0 PUSH1 0x20 DUP3 ADD SWAP1 POP PUSH2 0x3672 PUSH1 0x0 DUP4 ADD DUP5 PUSH2 0x364E JUMP JUMPDEST SWAP3 SWAP2 POP POP JUMP JUMPDEST PUSH1 0x0 DUP2 SWAP1 POP SWAP2 SWAP1 POP JUMP JUMPDEST PUSH1 0x0 PUSH2 0x369D PUSH2 0x3698 PUSH2 0x3693 DUP5 PUSH2 0x320B JUMP JUMPDEST PUSH2 0x3678 JUMP JUMPDEST PUSH2 0x320B JUMP JUMPDEST SWAP1 POP SWAP2 SWAP1 POP JUMP JUMPDEST PUSH1 0x0 PUSH2 0x36AF DUP3 PUSH2 0x3682 JUMP JUMPDEST SWAP1 POP SWAP2 SWAP1 POP JUMP JUMPDEST PUSH1 0x0 PUSH2 0x36C1 DUP3 PUSH2 0x36A4 JUMP JUMPDEST SWAP1 POP SWAP2 SWAP1 POP JUMP JUMPDEST PUSH2 0x36D1 DUP2 PUSH2 0x36B6 JUMP JUMPDEST DUP3 MSTORE POP POP JUMP JUMPDEST PUSH1 0x0 PUSH1 0x20 DUP3 ADD SWAP1 POP PUSH2 0x36EC PUSH1 0x0 DUP4 ADD DUP5 PUSH2 0x36C8 JUMP JUMPDEST SWAP3 SWAP2 POP POP JUMP JUMPDEST PUSH1 0x0 PUSH1 0x20 DUP3 DUP5 SUB SLT ISZERO PUSH2 0x3708 JUMPI PUSH2 0x3707 PUSH2 0x2D58 JUMP JUMPDEST JUMPDEST PUSH1 0x0 PUSH2 0x3716 DUP5 DUP3 DUP6 ADD PUSH2 0x3254 JUMP JUMPDEST SWAP2 POP POP SWAP3 SWAP2 POP POP JUMP JUMPDEST PUSH1 0x0 DUP1 PUSH1 0x0 DUP1 PUSH1 0x0 PUSH1 0x80 DUP7 DUP9 SUB SLT ISZERO PUSH2 0x373B JUMPI PUSH2 0x373A PUSH2 0x2D58 JUMP JUMPDEST JUMPDEST PUSH1 0x0 PUSH2 0x3749 DUP9 DUP3 DUP10 ADD PUSH2 0x2D87 JUMP JUMPDEST SWAP6 POP POP PUSH1 0x20 PUSH2 0x375A DUP9 DUP3 DUP10 ADD PUSH2 0x2D87 JUMP JUMPDEST SWAP5 POP POP PUSH1 0x40 PUSH2 0x376B DUP9 DUP3 DUP10 ADD PUSH2 0x2FF1 JUMP JUMPDEST SWAP4 POP POP PUSH1 0x60 DUP7 ADD CALLDATALOAD PUSH8 0xFFFFFFFFFFFFFFFF DUP2 GT ISZERO PUSH2 0x378C JUMPI PUSH2 0x378B PUSH2 0x2D5D JUMP JUMPDEST JUMPDEST PUSH2 0x3798 DUP9 DUP3 DUP10 ADD PUSH2 0x2DAB JUMP JUMPDEST SWAP3 POP SWAP3 POP POP SWAP3 SWAP6 POP SWAP3 SWAP6 SWAP1 SWAP4 POP JUMP JUMPDEST PUSH1 0x0 DUP1 PUSH1 0x0 PUSH1 0x60 DUP5 DUP7 SUB SLT ISZERO PUSH2 0x37C0 JUMPI PUSH2 0x37BF PUSH2 0x2D58 JUMP JUMPDEST JUMPDEST PUSH1 0x0 PUSH2 0x37CE DUP7 DUP3 DUP8 ADD PUSH2 0x2D87 JUMP JUMPDEST SWAP4 POP POP PUSH1 0x20 PUSH2 0x37DF DUP7 DUP3 DUP8 ADD PUSH2 0x2D87 JUMP JUMPDEST SWAP3 POP POP PUSH1 0x40 PUSH2 0x37F0 DUP7 DUP3 DUP8 ADD PUSH2 0x2FF1 JUMP JUMPDEST SWAP2 POP POP SWAP3 POP SWAP3 POP SWAP3 JUMP JUMPDEST PUSH1 0x0 PUSH1 0x20 DUP3 DUP5 SUB SLT ISZERO PUSH2 0x3810 JUMPI PUSH2 0x380F PUSH2 0x2D58 JUMP JUMPDEST JUMPDEST PUSH1 0x0 PUSH2 0x381E DUP5 DUP3 DUP6 ADD PUSH2 0x305D JUMP JUMPDEST SWAP2 POP POP SWAP3 SWAP2 POP POP JUMP JUMPDEST PUSH1 0x0 DUP1 PUSH1 0x0 DUP1 PUSH1 0x80 DUP6 DUP8 SUB SLT ISZERO PUSH2 0x3841 JUMPI PUSH2 0x3840 PUSH2 0x2D58 JUMP JUMPDEST JUMPDEST PUSH1 0x0 PUSH2 0x384F DUP8 DUP3 DUP9 ADD PUSH2 0x2D87 JUMP JUMPDEST SWAP5 POP POP PUSH1 0x20 PUSH2 0x3860 DUP8 DUP3 DUP9 ADD PUSH2 0x2D87 JUMP JUMPDEST SWAP4 POP POP PUSH1 0x40 PUSH2 0x3871 DUP8 DUP3 DUP9 ADD PUSH2 0x3254 JUMP JUMPDEST SWAP3 POP POP PUSH1 0x60 PUSH2 0x3882 DUP8 DUP3 DUP9 ADD PUSH2 0x2FF1 JUMP JUMPDEST SWAP2 POP POP SWAP3 SWAP6 SWAP2 SWAP5 POP SWAP3 POP JUMP JUMPDEST PUSH1 0x0 DUP3 DUP3 MSTORE PUSH1 0x20 DUP3 ADD SWAP1 POP SWAP3 SWAP2 POP POP JUMP JUMPDEST PUSH32 0x4C7A4170703A20696E76616C696420656E64706F696E742063616C6C65720000 PUSH1 0x0 DUP3 ADD MSTORE POP JUMP JUMPDEST PUSH1 0x0 PUSH2 0x38D5 PUSH1 0x1E DUP4 PUSH2 0x388E JUMP JUMPDEST SWAP2 POP PUSH2 0x38E0 DUP3 PUSH2 0x389F JUMP JUMPDEST PUSH1 0x20 DUP3 ADD SWAP1 POP SWAP2 SWAP1 POP JUMP JUMPDEST PUSH1 0x0 PUSH1 0x20 DUP3 ADD SWAP1 POP DUP2 DUP2 SUB PUSH1 0x0 DUP4 ADD MSTORE PUSH2 0x3904 DUP2 PUSH2 0x38C8 JUMP JUMPDEST SWAP1 POP SWAP2 SWAP1 POP JUMP JUMPDEST PUSH32 0x4E487B7100000000000000000000000000000000000000000000000000000000 PUSH1 0x0 MSTORE PUSH1 0x22 PUSH1 0x4 MSTORE PUSH1 0x24 PUSH1 0x0 REVERT JUMPDEST PUSH1 0x0 PUSH1 0x2 DUP3 DIV SWAP1 POP PUSH1 0x1 DUP3 AND DUP1 PUSH2 0x3952 JUMPI PUSH1 0x7F DUP3 AND SWAP2 POP JUMPDEST PUSH1 0x20 DUP3 LT DUP2 SUB PUSH2 0x3965 JUMPI PUSH2 0x3964 PUSH2 0x390B JUMP JUMPDEST JUMPDEST POP SWAP2 SWAP1 POP JUMP JUMPDEST PUSH1 0x0 DUP2 SWAP1 POP SWAP3 SWAP2 POP POP JUMP JUMPDEST PUSH1 0x0 PUSH2 0x3982 DUP4 DUP6 PUSH2 0x396B JUMP JUMPDEST SWAP4 POP PUSH2 0x398F DUP4 DUP6 DUP5 PUSH2 0x344B JUMP JUMPDEST DUP3 DUP5 ADD SWAP1 POP SWAP4 SWAP3 POP POP POP JUMP JUMPDEST PUSH1 0x0 PUSH2 0x39A8 DUP3 DUP5 DUP7 PUSH2 0x3976 JUMP JUMPDEST SWAP2 POP DUP2 SWAP1 POP SWAP4 SWAP3 POP POP POP JUMP JUMPDEST PUSH32 0x4C7A4170703A20696E76616C696420736F757263652073656E64696E6720636F PUSH1 0x0 DUP3 ADD MSTORE PUSH32 0x6E74726163740000000000000000000000000000000000000000000000000000 PUSH1 0x20 DUP3 ADD MSTORE POP JUMP JUMPDEST PUSH1 0x0 PUSH2 0x3A10 PUSH1 0x26 DUP4 PUSH2 0x388E JUMP JUMPDEST SWAP2 POP PUSH2 0x3A1B DUP3 PUSH2 0x39B4 JUMP JUMPDEST PUSH1 0x40 DUP3 ADD SWAP1 POP SWAP2 SWAP1 POP JUMP JUMPDEST PUSH1 0x0 PUSH1 0x20 DUP3 ADD SWAP1 POP DUP2 DUP2 SUB PUSH1 0x0 DUP4 ADD MSTORE PUSH2 0x3A3F DUP2 PUSH2 0x3A03 JUMP JUMPDEST SWAP1 POP SWAP2 SWAP1 POP JUMP JUMPDEST PUSH1 0x0 PUSH2 0x3A52 DUP4 DUP6 PUSH2 0x3578 JUMP JUMPDEST SWAP4 POP PUSH2 0x3A5F DUP4 DUP6 DUP5 PUSH2 0x344B JUMP JUMPDEST PUSH2 0x3A68 DUP4 PUSH2 0x338E JUMP JUMPDEST DUP5 ADD SWAP1 POP SWAP4 SWAP3 POP POP POP JUMP JUMPDEST PUSH1 0x0 PUSH1 0x60 DUP3 ADD SWAP1 POP PUSH2 0x3A88 PUSH1 0x0 DUP4 ADD DUP8 PUSH2 0x31E1 JUMP JUMPDEST DUP2 DUP2 SUB PUSH1 0x20 DUP4 ADD MSTORE PUSH2 0x3A9B DUP2 DUP6 DUP8 PUSH2 0x3A46 JUMP JUMPDEST SWAP1 POP PUSH2 0x3AAA PUSH1 0x40 DUP4 ADD DUP5 PUSH2 0x312E JUMP JUMPDEST SWAP6 SWAP5 POP POP POP POP POP JUMP JUMPDEST PUSH1 0x0 PUSH1 0xA0 DUP3 ADD SWAP1 POP PUSH2 0x3AC8 PUSH1 0x0 DUP4 ADD DUP10 PUSH2 0x31E1 JUMP JUMPDEST PUSH2 0x3AD5 PUSH1 0x20 DUP4 ADD DUP9 PUSH2 0x364E JUMP JUMPDEST DUP2 DUP2 SUB PUSH1 0x40 DUP4 ADD MSTORE PUSH2 0x3AE7 DUP2 DUP8 PUSH2 0x35B3 JUMP JUMPDEST SWAP1 POP PUSH2 0x3AF6 PUSH1 0x60 DUP4 ADD DUP7 PUSH2 0x2F79 JUMP JUMPDEST DUP2 DUP2 SUB PUSH1 0x80 DUP4 ADD MSTORE PUSH2 0x3B09 DUP2 DUP5 DUP7 PUSH2 0x3A46 JUMP JUMPDEST SWAP1 POP SWAP8 SWAP7 POP POP POP POP POP POP POP JUMP JUMPDEST PUSH1 0x0 DUP2 MLOAD SWAP1 POP PUSH2 0x3B25 DUP2 PUSH2 0x2FDA JUMP JUMPDEST SWAP3 SWAP2 POP POP JUMP JUMPDEST PUSH1 0x0 DUP1 PUSH1 0x40 DUP4 DUP6 SUB SLT ISZERO PUSH2 0x3B42 JUMPI PUSH2 0x3B41 PUSH2 0x2D58 JUMP JUMPDEST JUMPDEST PUSH1 0x0 PUSH2 0x3B50 DUP6 DUP3 DUP7 ADD PUSH2 0x3B16 JUMP JUMPDEST SWAP3 POP POP PUSH1 0x20 PUSH2 0x3B61 DUP6 DUP3 DUP7 ADD PUSH2 0x3B16 JUMP JUMPDEST SWAP2 POP POP SWAP3 POP SWAP3 SWAP1 POP JUMP JUMPDEST PUSH1 0x0 PUSH1 0x40 DUP3 ADD SWAP1 POP PUSH2 0x3B80 PUSH1 0x0 DUP4 ADD DUP7 PUSH2 0x31E1 JUMP JUMPDEST DUP2 DUP2 SUB PUSH1 0x20 DUP4 ADD MSTORE PUSH2 0x3B93 DUP2 DUP5 DUP7 PUSH2 0x3A46 JUMP JUMPDEST SWAP1 POP SWAP5 SWAP4 POP POP POP POP JUMP JUMPDEST PUSH32 0x4E6F6E626C6F636B696E674C7A4170703A2063616C6C6572206D757374206265 PUSH1 0x0 DUP3 ADD MSTORE PUSH32 0x204C7A4170700000000000000000000000000000000000000000000000000000 PUSH1 0x20 DUP3 ADD MSTORE POP JUMP JUMPDEST PUSH1 0x0 PUSH2 0x3BF9 PUSH1 0x26 DUP4 PUSH2 0x388E JUMP JUMPDEST SWAP2 POP PUSH2 0x3C04 DUP3 PUSH2 0x3B9D JUMP JUMPDEST PUSH1 0x40 DUP3 ADD SWAP1 POP SWAP2 SWAP1 POP JUMP JUMPDEST PUSH1 0x0 PUSH1 0x20 DUP3 ADD SWAP1 POP DUP2 DUP2 SUB PUSH1 0x0 DUP4 ADD MSTORE PUSH2 0x3C28 DUP2 PUSH2 0x3BEC JUMP JUMPDEST SWAP1 POP SWAP2 SWAP1 POP JUMP JUMPDEST PUSH1 0x0 PUSH1 0x20 DUP3 DUP5 SUB SLT ISZERO PUSH2 0x3C45 JUMPI PUSH2 0x3C44 PUSH2 0x2D58 JUMP JUMPDEST JUMPDEST PUSH1 0x0 PUSH2 0x3C53 DUP5 DUP3 DUP6 ADD PUSH2 0x3B16 JUMP JUMPDEST SWAP2 POP POP SWAP3 SWAP2 POP POP JUMP JUMPDEST PUSH32 0x4C7A4170703A206E6F20747275737465642070617468207265636F7264000000 PUSH1 0x0 DUP3 ADD MSTORE POP JUMP JUMPDEST PUSH1 0x0 PUSH2 0x3C92 PUSH1 0x1D DUP4 PUSH2 0x388E JUMP JUMPDEST SWAP2 POP PUSH2 0x3C9D DUP3 PUSH2 0x3C5C JUMP JUMPDEST PUSH1 0x20 DUP3 ADD SWAP1 POP SWAP2 SWAP1 POP JUMP JUMPDEST PUSH1 0x0 PUSH1 0x20 DUP3 ADD SWAP1 POP DUP2 DUP2 SUB PUSH1 0x0 DUP4 ADD MSTORE PUSH2 0x3CC1 DUP2 PUSH2 0x3C85 JUMP JUMPDEST SWAP1 POP SWAP2 SWAP1 POP JUMP JUMPDEST PUSH32 0x4E487B7100000000000000000000000000000000000000000000000000000000 PUSH1 0x0 MSTORE PUSH1 0x11 PUSH1 0x4 MSTORE PUSH1 0x24 PUSH1 0x0 REVERT JUMPDEST PUSH1 0x0 PUSH2 0x3D02 DUP3 PUSH2 0x2FD0 JUMP JUMPDEST SWAP2 POP PUSH2 0x3D0D DUP4 PUSH2 0x2FD0 JUMP JUMPDEST SWAP3 POP DUP3 DUP3 SUB SWAP1 POP DUP2 DUP2 GT ISZERO PUSH2 0x3D25 JUMPI PUSH2 0x3D24 PUSH2 0x3CC8 JUMP JUMPDEST JUMPDEST SWAP3 SWAP2 POP POP JUMP JUMPDEST PUSH1 0x0 DUP2 PUSH1 0x60 SHL SWAP1 POP SWAP2 SWAP1 POP JUMP JUMPDEST PUSH1 0x0 PUSH2 0x3D43 DUP3 PUSH2 0x3D2B JUMP JUMPDEST SWAP1 POP SWAP2 SWAP1 POP JUMP JUMPDEST PUSH1 0x0 PUSH2 0x3D55 DUP3 PUSH2 0x3D38 JUMP JUMPDEST SWAP1 POP SWAP2 SWAP1 POP JUMP JUMPDEST PUSH2 0x3D6D PUSH2 0x3D68 DUP3 PUSH2 0x322B JUMP JUMPDEST PUSH2 0x3D4A JUMP JUMPDEST DUP3 MSTORE POP POP JUMP JUMPDEST PUSH1 0x0 PUSH2 0x3D80 DUP3 DUP6 DUP8 PUSH2 0x3976 JUMP JUMPDEST SWAP2 POP PUSH2 0x3D8C DUP3 DUP5 PUSH2 0x3D5C JUMP JUMPDEST PUSH1 0x14 DUP3 ADD SWAP2 POP DUP2 SWAP1 POP SWAP5 SWAP4 POP POP POP POP JUMP JUMPDEST PUSH1 0x0 DUP2 SWAP1 POP DUP2 PUSH1 0x0 MSTORE PUSH1 0x20 PUSH1 0x0 KECCAK256 SWAP1 POP SWAP2 SWAP1 POP JUMP JUMPDEST PUSH1 0x0 PUSH1 0x20 PUSH1 0x1F DUP4 ADD DIV SWAP1 POP SWAP2 SWAP1 POP JUMP JUMPDEST PUSH1 0x0 DUP3 DUP3 SHL SWAP1 POP SWAP3 SWAP2 POP POP JUMP JUMPDEST PUSH1 0x0 PUSH1 0x8 DUP4 MUL PUSH2 0x3DFF PUSH32 0xFFFFFFFFFFFFFFFFFFFFFFFFFFFFFFFFFFFFFFFFFFFFFFFFFFFFFFFFFFFFFFFF DUP3 PUSH2 0x3DC2 JUMP JUMPDEST PUSH2 0x3E09 DUP7 DUP4 PUSH2 0x3DC2 JUMP JUMPDEST SWAP6 POP DUP1 NOT DUP5 AND SWAP4 POP DUP1 DUP7 AND DUP5 OR SWAP3 POP POP POP SWAP4 SWAP3 POP POP POP JUMP JUMPDEST PUSH1 0x0 PUSH2 0x3E3C PUSH2 0x3E37 PUSH2 0x3E32 DUP5 PUSH2 0x2FD0 JUMP JUMPDEST PUSH2 0x3678 JUMP JUMPDEST PUSH2 0x2FD0 JUMP JUMPDEST SWAP1 POP SWAP2 SWAP1 POP JUMP JUMPDEST PUSH1 0x0 DUP2 SWAP1 POP SWAP2 SWAP1 POP JUMP JUMPDEST PUSH2 0x3E56 DUP4 PUSH2 0x3E21 JUMP JUMPDEST PUSH2 0x3E6A PUSH2 0x3E62 DUP3 PUSH2 0x3E43 JUMP JUMPDEST DUP5 DUP5 SLOAD PUSH2 0x3DCF JUMP JUMPDEST DUP3 SSTORE POP POP POP POP JUMP JUMPDEST PUSH1 0x0 SWAP1 JUMP JUMPDEST PUSH2 0x3E7F PUSH2 0x3E72 JUMP JUMPDEST PUSH2 0x3E8A DUP2 DUP5 DUP5 PUSH2 0x3E4D JUMP JUMPDEST POP POP POP JUMP JUMPDEST JUMPDEST DUP2 DUP2 LT ISZERO PUSH2 0x3EAE JUMPI PUSH2 0x3EA3 PUSH1 0x0 DUP3 PUSH2 0x3E77 JUMP JUMPDEST PUSH1 0x1 DUP2 ADD SWAP1 POP PUSH2 0x3E90 JUMP JUMPDEST POP POP JUMP JUMPDEST PUSH1 0x1F DUP3 GT ISZERO PUSH2 0x3EF3 JUMPI PUSH2 0x3EC4 DUP2 PUSH2 0x3D9D JUMP JUMPDEST PUSH2 0x3ECD DUP5 PUSH2 0x3DB2 JUMP JUMPDEST DUP2 ADD PUSH1 0x20 DUP6 LT ISZERO PUSH2 0x3EDC JUMPI DUP2 SWAP1 POP JUMPDEST PUSH2 0x3EF0 PUSH2 0x3EE8 DUP6 PUSH2 0x3DB2 JUMP JUMPDEST DUP4 ADD DUP3 PUSH2 0x3E8F JUMP JUMPDEST POP POP JUMPDEST POP POP POP JUMP JUMPDEST PUSH1 0x0 DUP3 DUP3 SHR SWAP1 POP SWAP3 SWAP2 POP POP JUMP JUMPDEST PUSH1 0x0 PUSH2 0x3F16 PUSH1 0x0 NOT DUP5 PUSH1 0x8 MUL PUSH2 0x3EF8 JUMP JUMPDEST NOT DUP1 DUP4 AND SWAP2 POP POP SWAP3 SWAP2 POP POP JUMP JUMPDEST PUSH1 0x0 PUSH2 0x3F2F DUP4 DUP4 PUSH2 0x3F05 JUMP JUMPDEST SWAP2 POP DUP3 PUSH1 0x2 MUL DUP3 OR SWAP1 POP SWAP3 SWAP2 POP POP JUMP JUMPDEST PUSH2 0x3F48 DUP3 PUSH2 0x356D JUMP JUMPDEST PUSH8 0xFFFFFFFFFFFFFFFF DUP2 GT ISZERO PUSH2 0x3F61 JUMPI PUSH2 0x3F60 PUSH2 0x339F JUMP JUMPDEST JUMPDEST PUSH2 0x3F6B DUP3 SLOAD PUSH2 0x393A JUMP JUMPDEST PUSH2 0x3F76 DUP3 DUP3 DUP6 PUSH2 0x3EB2 JUMP JUMPDEST PUSH1 0x0 PUSH1 0x20 SWAP1 POP PUSH1 0x1F DUP4 GT PUSH1 0x1 DUP2 EQ PUSH2 0x3FA9 JUMPI PUSH1 0x0 DUP5 ISZERO PUSH2 0x3F97 JUMPI DUP3 DUP8 ADD MLOAD SWAP1 POP JUMPDEST PUSH2 0x3FA1 DUP6 DUP3 PUSH2 0x3F23 JUMP JUMPDEST DUP7 SSTORE POP PUSH2 0x4009 JUMP JUMPDEST PUSH1 0x1F NOT DUP5 AND PUSH2 0x3FB7 DUP7 PUSH2 0x3D9D JUMP JUMPDEST PUSH1 0x0 JUMPDEST DUP3 DUP2 LT ISZERO PUSH2 0x3FDF JUMPI DUP5 DUP10 ADD MLOAD DUP3 SSTORE PUSH1 0x1 DUP3 ADD SWAP2 POP PUSH1 0x20 DUP6 ADD SWAP5 POP PUSH1 0x20 DUP2 ADD SWAP1 POP PUSH2 0x3FBA JUMP JUMPDEST DUP7 DUP4 LT ISZERO PUSH2 0x3FFC JUMPI DUP5 DUP10 ADD MLOAD PUSH2 0x3FF8 PUSH1 0x1F DUP10 AND DUP3 PUSH2 0x3F05 JUMP JUMPDEST DUP4 SSTORE POP JUMPDEST PUSH1 0x1 PUSH1 0x2 DUP9 MUL ADD DUP9 SSTORE POP POP POP JUMPDEST POP POP POP POP POP POP JUMP JUMPDEST PUSH1 0x0 PUSH1 0x80 DUP3 ADD SWAP1 POP PUSH2 0x4026 PUSH1 0x0 DUP4 ADD DUP9 PUSH2 0x31E1 JUMP JUMPDEST PUSH2 0x4033 PUSH1 0x20 DUP4 ADD DUP8 PUSH2 0x31E1 JUMP JUMPDEST PUSH2 0x4040 PUSH1 0x40 DUP4 ADD DUP7 PUSH2 0x312E JUMP JUMPDEST DUP2 DUP2 SUB PUSH1 0x60 DUP4 ADD MSTORE PUSH2 0x4053 DUP2 DUP5 DUP7 PUSH2 0x3A46 JUMP JUMPDEST SWAP1 POP SWAP7 SWAP6 POP POP POP POP POP POP JUMP JUMPDEST PUSH32 0x4E6F6E626C6F636B696E674C7A4170703A206E6F2073746F726564206D657373 PUSH1 0x0 DUP3 ADD MSTORE PUSH32 0x6167650000000000000000000000000000000000000000000000000000000000 PUSH1 0x20 DUP3 ADD MSTORE POP JUMP JUMPDEST PUSH1 0x0 PUSH2 0x40BB PUSH1 0x23 DUP4 PUSH2 0x388E JUMP JUMPDEST SWAP2 POP PUSH2 0x40C6 DUP3 PUSH2 0x405F JUMP JUMPDEST PUSH1 0x40 DUP3 ADD SWAP1 POP SWAP2 SWAP1 POP JUMP JUMPDEST PUSH1 0x0 PUSH1 0x20 DUP3 ADD SWAP1 POP DUP2 DUP2 SUB PUSH1 0x0 DUP4 ADD MSTORE PUSH2 0x40EA DUP2 PUSH2 0x40AE JUMP JUMPDEST SWAP1 POP SWAP2 SWAP1 POP JUMP JUMPDEST PUSH32 0x4E6F6E626C6F636B696E674C7A4170703A20696E76616C6964207061796C6F61 PUSH1 0x0 DUP3 ADD MSTORE PUSH32 0x6400000000000000000000000000000000000000000000000000000000000000 PUSH1 0x20 DUP3 ADD MSTORE POP JUMP JUMPDEST PUSH1 0x0 PUSH2 0x414D PUSH1 0x21 DUP4 PUSH2 0x388E JUMP JUMPDEST SWAP2 POP PUSH2 0x4158 DUP3 PUSH2 0x40F1 JUMP JUMPDEST PUSH1 0x40 DUP3 ADD SWAP1 POP SWAP2 SWAP1 POP JUMP JUMPDEST PUSH1 0x0 PUSH1 0x20 DUP3 ADD SWAP1 POP DUP2 DUP2 SUB PUSH1 0x0 DUP4 ADD MSTORE PUSH2 0x417C DUP2 PUSH2 0x4140 JUMP JUMPDEST SWAP1 POP SWAP2 SWAP1 POP JUMP JUMPDEST PUSH2 0x418C DUP2 PUSH2 0x2E01 JUMP JUMPDEST DUP3 MSTORE POP POP JUMP JUMPDEST PUSH1 0x0 PUSH1 0x80 DUP3 ADD SWAP1 POP PUSH2 0x41A7 PUSH1 0x0 DUP4 ADD DUP9 PUSH2 0x31E1 JUMP JUMPDEST DUP2 DUP2 SUB PUSH1 0x20 DUP4 ADD MSTORE PUSH2 0x41BA DUP2 DUP7 DUP9 PUSH2 0x3A46 JUMP JUMPDEST SWAP1 POP PUSH2 0x41C9 PUSH1 0x40 DUP4 ADD DUP6 PUSH2 0x4183 JUMP JUMPDEST PUSH2 0x41D6 PUSH1 0x60 DUP4 ADD DUP5 PUSH2 0x3543 JUMP JUMPDEST SWAP7 SWAP6 POP POP POP POP POP POP JUMP JUMPDEST PUSH32 0x4C7A4170703A20696E76616C6964206D696E4761730000000000000000000000 PUSH1 0x0 DUP3 ADD MSTORE POP JUMP JUMPDEST PUSH1 0x0 PUSH2 0x4216 PUSH1 0x15 DUP4 PUSH2 0x388E JUMP JUMPDEST SWAP2 POP PUSH2 0x4221 DUP3 PUSH2 0x41E0 JUMP JUMPDEST PUSH1 0x20 DUP3 ADD SWAP1 POP SWAP2 SWAP1 POP JUMP JUMPDEST PUSH1 0x0 PUSH1 0x20 DUP3 ADD SWAP1 POP DUP2 DUP2 SUB PUSH1 0x0 DUP4 ADD MSTORE PUSH2 0x4245 DUP2 PUSH2 0x4209 JUMP JUMPDEST SWAP1 POP SWAP2 SWAP1 POP JUMP JUMPDEST PUSH1 0x0 PUSH1 0x60 DUP3 ADD SWAP1 POP PUSH2 0x4261 PUSH1 0x0 DUP4 ADD DUP7 PUSH2 0x31E1 JUMP JUMPDEST PUSH2 0x426E PUSH1 0x20 DUP4 ADD DUP6 PUSH2 0x31E1 JUMP JUMPDEST PUSH2 0x427B PUSH1 0x40 DUP4 ADD DUP5 PUSH2 0x312E JUMP JUMPDEST SWAP5 SWAP4 POP POP POP POP JUMP JUMPDEST PUSH1 0x0 DUP3 SWAP1 POP SWAP3 SWAP2 POP POP JUMP JUMPDEST PUSH2 0x4298 DUP4 DUP4 PUSH2 0x4283 JUMP JUMPDEST PUSH8 0xFFFFFFFFFFFFFFFF DUP2 GT ISZERO PUSH2 0x42B1 JUMPI PUSH2 0x42B0 PUSH2 0x339F JUMP JUMPDEST JUMPDEST PUSH2 0x42BB DUP3 SLOAD PUSH2 0x393A JUMP JUMPDEST PUSH2 0x42C6 DUP3 DUP3 DUP6 PUSH2 0x3EB2 JUMP JUMPDEST PUSH1 0x0 PUSH1 0x1F DUP4 GT PUSH1 0x1 DUP2 EQ PUSH2 0x42F5 JUMPI PUSH1 0x0 DUP5 ISZERO PUSH2 0x42E3 JUMPI DUP3 DUP8 ADD CALLDATALOAD SWAP1 POP JUMPDEST PUSH2 0x42ED DUP6 DUP3 PUSH2 0x3F23 JUMP JUMPDEST DUP7 SSTORE POP PUSH2 0x4355 JUMP JUMPDEST PUSH1 0x1F NOT DUP5 AND PUSH2 0x4303 DUP7 PUSH2 0x3D9D JUMP JUMPDEST PUSH1 0x0 JUMPDEST DUP3 DUP2 LT ISZERO PUSH2 0x432B JUMPI DUP5 DUP10 ADD CALLDATALOAD DUP3 SSTORE PUSH1 0x1 DUP3 ADD SWAP2 POP PUSH1 0x20 DUP6 ADD SWAP5 POP PUSH1 0x20 DUP2 ADD SWAP1 POP PUSH2 0x4306 JUMP JUMPDEST DUP7 DUP4 LT ISZERO PUSH2 0x4348 JUMPI DUP5 DUP10 ADD CALLDATALOAD PUSH2 0x4344 PUSH1 0x1F DUP10 AND DUP3 PUSH2 0x3F05 JUMP JUMPDEST DUP4 SSTORE POP JUMPDEST PUSH1 0x1 PUSH1 0x2 DUP9 MUL ADD DUP9 SSTORE POP POP POP JUMPDEST POP POP POP POP POP POP POP JUMP JUMPDEST PUSH32 0x4F776E61626C653A206E6577206F776E657220697320746865207A65726F2061 PUSH1 0x0 DUP3 ADD MSTORE PUSH32 0x6464726573730000000000000000000000000000000000000000000000000000 PUSH1 0x20 DUP3 ADD MSTORE POP JUMP JUMPDEST PUSH1 0x0 PUSH2 0x43BA PUSH1 0x26 DUP4 PUSH2 0x388E JUMP JUMPDEST SWAP2 POP PUSH2 0x43C5 DUP3 PUSH2 0x435E JUMP JUMPDEST PUSH1 0x40 DUP3 ADD SWAP1 POP SWAP2 SWAP1 POP JUMP JUMPDEST PUSH1 0x0 PUSH1 0x20 DUP3 ADD SWAP1 POP DUP2 DUP2 SUB PUSH1 0x0 DUP4 ADD MSTORE PUSH2 0x43E9 DUP2 PUSH2 0x43AD JUMP JUMPDEST SWAP1 POP SWAP2 SWAP1 POP JUMP JUMPDEST PUSH1 0x0 PUSH1 0x80 DUP3 ADD SWAP1 POP PUSH2 0x4405 PUSH1 0x0 DUP4 ADD DUP8 PUSH2 0x31E1 JUMP JUMPDEST PUSH2 0x4412 PUSH1 0x20 DUP4 ADD DUP7 PUSH2 0x31E1 JUMP JUMPDEST PUSH2 0x441F PUSH1 0x40 DUP4 ADD DUP6 PUSH2 0x364E JUMP JUMPDEST PUSH2 0x442C PUSH1 0x60 DUP4 ADD DUP5 PUSH2 0x312E JUMP JUMPDEST SWAP6 SWAP5 POP POP POP POP POP JUMP JUMPDEST PUSH1 0x0 PUSH2 0x4448 PUSH2 0x4443 DUP5 PUSH2 0x341A JUMP JUMPDEST PUSH2 0x33FF JUMP JUMPDEST SWAP1 POP DUP3 DUP2 MSTORE PUSH1 0x20 DUP2 ADD DUP5 DUP5 DUP5 ADD GT ISZERO PUSH2 0x4464 JUMPI PUSH2 0x4463 PUSH2 0x3389 JUMP JUMPDEST JUMPDEST PUSH2 0x446F DUP5 DUP3 DUP6 PUSH2 0x3589 JUMP JUMPDEST POP SWAP4 SWAP3 POP POP POP JUMP JUMPDEST PUSH1 0x0 DUP3 PUSH1 0x1F DUP4 ADD SLT PUSH2 0x448C JUMPI PUSH2 0x448B PUSH2 0x2D9C JUMP JUMPDEST JUMPDEST DUP2 MLOAD PUSH2 0x449C DUP5 DUP3 PUSH1 0x20 DUP7 ADD PUSH2 0x4435 JUMP JUMPDEST SWAP2 POP POP SWAP3 SWAP2 POP POP JUMP JUMPDEST PUSH1 0x0 PUSH1 0x20 DUP3 DUP5 SUB SLT ISZERO PUSH2 0x44BB JUMPI PUSH2 0x44BA PUSH2 0x2D58 JUMP JUMPDEST JUMPDEST PUSH1 0x0 DUP3 ADD MLOAD PUSH8 0xFFFFFFFFFFFFFFFF DUP2 GT ISZERO PUSH2 0x44D9 JUMPI PUSH2 0x44D8 PUSH2 0x2D5D JUMP JUMPDEST JUMPDEST PUSH2 0x44E5 DUP5 DUP3 DUP6 ADD PUSH2 0x4477 JUMP JUMPDEST SWAP2 POP POP SWAP3 SWAP2 POP POP JUMP JUMPDEST PUSH1 0x0 PUSH1 0x80 DUP3 ADD SWAP1 POP PUSH2 0x4503 PUSH1 0x0 DUP4 ADD DUP8 PUSH2 0x31E1 JUMP JUMPDEST DUP2 DUP2 SUB PUSH1 0x20 DUP4 ADD MSTORE PUSH2 0x4515 DUP2 DUP7 PUSH2 0x35B3 JUMP JUMPDEST SWAP1 POP PUSH2 0x4524 PUSH1 0x40 DUP4 ADD DUP6 PUSH2 0x4183 JUMP JUMPDEST DUP2 DUP2 SUB PUSH1 0x60 DUP4 ADD MSTORE PUSH2 0x4536 DUP2 DUP5 PUSH2 0x35B3 JUMP JUMPDEST SWAP1 POP SWAP6 SWAP5 POP POP POP POP POP JUMP JUMPDEST PUSH32 0x4F776E61626C653A2063616C6C6572206973206E6F7420746865206F776E6572 PUSH1 0x0 DUP3 ADD MSTORE POP JUMP JUMPDEST PUSH1 0x0 PUSH2 0x4577 PUSH1 0x20 DUP4 PUSH2 0x388E JUMP JUMPDEST SWAP2 POP PUSH2 0x4582 DUP3 PUSH2 0x4541 JUMP JUMPDEST PUSH1 0x20 DUP3 ADD SWAP1 POP SWAP2 SWAP1 POP JUMP JUMPDEST PUSH1 0x0 PUSH1 0x20 DUP3 ADD SWAP1 POP DUP2 DUP2 SUB PUSH1 0x0 DUP4 ADD MSTORE PUSH2 0x45A6 DUP2 PUSH2 0x456A JUMP JUMPDEST SWAP1 POP SWAP2 SWAP1 POP JUMP JUMPDEST PUSH1 0x0 PUSH1 0x60 DUP3 ADD SWAP1 POP PUSH2 0x45C2 PUSH1 0x0 DUP4 ADD DUP7 PUSH2 0x31E1 JUMP JUMPDEST DUP2 DUP2 SUB PUSH1 0x20 DUP4 ADD MSTORE PUSH2 0x45D4 DUP2 DUP6 PUSH2 0x35B3 JUMP JUMPDEST SWAP1 POP PUSH2 0x45E3 PUSH1 0x40 DUP4 ADD DUP5 PUSH2 0x312E JUMP JUMPDEST SWAP5 SWAP4 POP POP POP POP JUMP JUMPDEST PUSH1 0x0 PUSH1 0x40 DUP3 ADD SWAP1 POP DUP2 DUP2 SUB PUSH1 0x0 DUP4 ADD MSTORE PUSH2 0x4605 DUP2 DUP6 PUSH2 0x35B3 JUMP JUMPDEST SWAP1 POP PUSH2 0x4614 PUSH1 0x20 DUP4 ADD DUP5 PUSH2 0x312E JUMP JUMPDEST SWAP4 SWAP3 POP POP POP JUMP JUMPDEST PUSH32 0x4F4654436F72653A20756E6B6E6F776E207061636B6574207479706500000000 PUSH1 0x0 DUP3 ADD MSTORE POP JUMP JUMPDEST PUSH1 0x0 PUSH2 0x4651 PUSH1 0x1C DUP4 PUSH2 0x388E JUMP JUMPDEST SWAP2 POP PUSH2 0x465C DUP3 PUSH2 0x461B JUMP JUMPDEST PUSH1 0x20 DUP3 ADD SWAP1 POP SWAP2 SWAP1 POP JUMP JUMPDEST PUSH1 0x0 PUSH1 0x20 DUP3 ADD SWAP1 POP DUP2 DUP2 SUB PUSH1 0x0 DUP4 ADD MSTORE PUSH2 0x4680 DUP2 PUSH2 0x4644 JUMP JUMPDEST SWAP1 POP SWAP2 SWAP1 POP JUMP JUMPDEST PUSH1 0x0 PUSH2 0x4692 DUP3 PUSH2 0x2FD0 JUMP JUMPDEST SWAP2 POP PUSH2 0x469D DUP4 PUSH2 0x2FD0 JUMP JUMPDEST SWAP3 POP DUP3 DUP3 ADD SWAP1 POP DUP1 DUP3 GT ISZERO PUSH2 0x46B5 JUMPI PUSH2 0x46B4 PUSH2 0x3CC8 JUMP JUMPDEST JUMPDEST SWAP3 SWAP2 POP POP JUMP JUMPDEST PUSH32 0x736C6963655F6F766572666C6F77000000000000000000000000000000000000 PUSH1 0x0 DUP3 ADD MSTORE POP JUMP JUMPDEST PUSH1 0x0 PUSH2 0x46F1 PUSH1 0xE DUP4 PUSH2 0x388E JUMP JUMPDEST SWAP2 POP PUSH2 0x46FC DUP3 PUSH2 0x46BB JUMP JUMPDEST PUSH1 0x20 DUP3 ADD SWAP1 POP SWAP2 SWAP1 POP JUMP JUMPDEST PUSH1 0x0 PUSH1 0x20 DUP3 ADD SWAP1 POP DUP2 DUP2 SUB PUSH1 0x0 DUP4 ADD MSTORE PUSH2 0x4720 DUP2 PUSH2 0x46E4 JUMP JUMPDEST SWAP1 POP SWAP2 SWAP1 POP JUMP JUMPDEST PUSH32 0x736C6963655F6F75744F66426F756E6473000000000000000000000000000000 PUSH1 0x0 DUP3 ADD MSTORE POP JUMP JUMPDEST PUSH1 0x0 PUSH2 0x475D PUSH1 0x11 DUP4 PUSH2 0x388E JUMP JUMPDEST SWAP2 POP PUSH2 0x4768 DUP3 PUSH2 0x4727 JUMP JUMPDEST PUSH1 0x20 DUP3 ADD SWAP1 POP SWAP2 SWAP1 POP JUMP JUMPDEST PUSH1 0x0 PUSH1 0x20 DUP3 ADD SWAP1 POP DUP2 DUP2 SUB PUSH1 0x0 DUP4 ADD MSTORE PUSH2 0x478C DUP2 PUSH2 0x4750 JUMP JUMPDEST SWAP1 POP SWAP2 SWAP1 POP JUMP JUMPDEST PUSH1 0x0 PUSH2 0x479E DUP3 PUSH2 0x356D JUMP JUMPDEST PUSH2 0x47A8 DUP2 DUP6 PUSH2 0x396B JUMP JUMPDEST SWAP4 POP PUSH2 0x47B8 DUP2 DUP6 PUSH1 0x20 DUP7 ADD PUSH2 0x3589 JUMP JUMPDEST DUP1 DUP5 ADD SWAP2 POP POP SWAP3 SWAP2 POP POP JUMP JUMPDEST PUSH1 0x0 PUSH2 0x47D0 DUP3 DUP5 PUSH2 0x4793 JUMP JUMPDEST SWAP2 POP DUP2 SWAP1 POP SWAP3 SWAP2 POP POP JUMP JUMPDEST PUSH1 0x0 PUSH1 0xA0 DUP3 ADD SWAP1 POP PUSH2 0x47F0 PUSH1 0x0 DUP4 ADD DUP9 PUSH2 0x31E1 JUMP JUMPDEST DUP2 DUP2 SUB PUSH1 0x20 DUP4 ADD MSTORE PUSH2 0x4802 DUP2 DUP8 PUSH2 0x35B3 JUMP JUMPDEST SWAP1 POP PUSH2 0x4811 PUSH1 0x40 DUP4 ADD DUP7 PUSH2 0x4183 JUMP JUMPDEST DUP2 DUP2 SUB PUSH1 0x60 DUP4 ADD MSTORE PUSH2 0x4823 DUP2 DUP6 PUSH2 0x35B3 JUMP JUMPDEST SWAP1 POP DUP2 DUP2 SUB PUSH1 0x80 DUP4 ADD MSTORE PUSH2 0x4837 DUP2 DUP5 PUSH2 0x35B3 JUMP JUMPDEST SWAP1 POP SWAP7 SWAP6 POP POP POP POP POP POP JUMP JUMPDEST PUSH32 0x4F4654436F72653A205F61646170746572506172616D73206D75737420626520 PUSH1 0x0 DUP3 ADD MSTORE PUSH32 0x656D7074792E0000000000000000000000000000000000000000000000000000 PUSH1 0x20 DUP3 ADD MSTORE POP JUMP JUMPDEST PUSH1 0x0 PUSH2 0x489F PUSH1 0x26 DUP4 PUSH2 0x388E JUMP JUMPDEST SWAP2 POP PUSH2 0x48AA DUP3 PUSH2 0x4843 JUMP JUMPDEST PUSH1 0x40 DUP3 ADD SWAP1 POP SWAP2 SWAP1 POP JUMP JUMPDEST PUSH1 0x0 PUSH1 0x20 DUP3 ADD SWAP1 POP DUP2 DUP2 SUB PUSH1 0x0 DUP4 ADD MSTORE PUSH2 0x48CE DUP2 PUSH2 0x4892 JUMP JUMPDEST SWAP1 POP SWAP2 SWAP1 POP JUMP JUMPDEST PUSH32 0x50726F78794F46543A206F776E6572206973206E6F742073656E642063616C6C PUSH1 0x0 DUP3 ADD MSTORE PUSH32 0x6572000000000000000000000000000000000000000000000000000000000000 PUSH1 0x20 DUP3 ADD MSTORE POP JUMP JUMPDEST PUSH1 0x0 PUSH2 0x4931 PUSH1 0x22 DUP4 PUSH2 0x388E JUMP JUMPDEST SWAP2 POP PUSH2 0x493C DUP3 PUSH2 0x48D5 JUMP JUMPDEST PUSH1 0x40 DUP3 ADD SWAP1 POP SWAP2 SWAP1 POP JUMP JUMPDEST PUSH1 0x0 PUSH1 0x20 DUP3 ADD SWAP1 POP DUP2 DUP2 SUB PUSH1 0x0 DUP4 ADD MSTORE PUSH2 0x4960 DUP2 PUSH2 0x4924 JUMP JUMPDEST SWAP1 POP SWAP2 SWAP1 POP JUMP JUMPDEST PUSH32 0x4C7A4170703A2064657374696E6174696F6E20636861696E206973206E6F7420 PUSH1 0x0 DUP3 ADD MSTORE PUSH32 0x61207472757374656420736F7572636500000000000000000000000000000000 PUSH1 0x20 DUP3 ADD MSTORE POP JUMP JUMPDEST PUSH1 0x0 PUSH2 0x49C3 PUSH1 0x30 DUP4 PUSH2 0x388E JUMP JUMPDEST SWAP2 POP PUSH2 0x49CE DUP3 PUSH2 0x4967 JUMP JUMPDEST PUSH1 0x40 DUP3 ADD SWAP1 POP SWAP2 SWAP1 POP JUMP JUMPDEST PUSH1 0x0 PUSH1 0x20 DUP3 ADD SWAP1 POP DUP2 DUP2 SUB PUSH1 0x0 DUP4 ADD MSTORE PUSH2 0x49F2 DUP2 PUSH2 0x49B6 JUMP JUMPDEST SWAP1 POP SWAP2 SWAP1 POP JUMP JUMPDEST PUSH2 0x4A02 DUP2 PUSH2 0x3269 JUMP JUMPDEST DUP3 MSTORE POP POP JUMP JUMPDEST PUSH1 0x0 PUSH1 0xC0 DUP3 ADD SWAP1 POP PUSH2 0x4A1D PUSH1 0x0 DUP4 ADD DUP10 PUSH2 0x31E1 JUMP JUMPDEST DUP2 DUP2 SUB PUSH1 0x20 DUP4 ADD MSTORE PUSH2 0x4A2F DUP2 DUP9 PUSH2 0x35B3 JUMP JUMPDEST SWAP1 POP DUP2 DUP2 SUB PUSH1 0x40 DUP4 ADD MSTORE PUSH2 0x4A43 DUP2 DUP8 PUSH2 0x35B3 JUMP JUMPDEST SWAP1 POP PUSH2 0x4A52 PUSH1 0x60 DUP4 ADD DUP7 PUSH2 0x49F9 JUMP JUMPDEST PUSH2 0x4A5F PUSH1 0x80 DUP4 ADD DUP6 PUSH2 0x364E JUMP JUMPDEST DUP2 DUP2 SUB PUSH1 0xA0 DUP4 ADD MSTORE PUSH2 0x4A71 DUP2 DUP5 PUSH2 0x35B3 JUMP JUMPDEST SWAP1 POP SWAP8 SWAP7 POP POP POP POP POP POP POP JUMP JUMPDEST PUSH1 0x0 DUP2 MLOAD SWAP1 POP PUSH2 0x4A8D DUP2 PUSH2 0x2D70 JUMP JUMPDEST SWAP3 SWAP2 POP POP JUMP JUMPDEST PUSH1 0x0 DUP1 PUSH1 0x0 PUSH1 0x60 DUP5 DUP7 SUB SLT ISZERO PUSH2 0x4AAC JUMPI PUSH2 0x4AAB PUSH2 0x2D58 JUMP JUMPDEST JUMPDEST PUSH1 0x0 PUSH2 0x4ABA DUP7 DUP3 DUP8 ADD PUSH2 0x4A7E JUMP JUMPDEST SWAP4 POP POP PUSH1 0x20 DUP5 ADD MLOAD PUSH8 0xFFFFFFFFFFFFFFFF DUP2 GT ISZERO PUSH2 0x4ADB JUMPI PUSH2 0x4ADA PUSH2 0x2D5D JUMP JUMPDEST JUMPDEST PUSH2 0x4AE7 DUP7 DUP3 DUP8 ADD PUSH2 0x4477 JUMP JUMPDEST SWAP3 POP POP PUSH1 0x40 PUSH2 0x4AF8 DUP7 DUP3 DUP8 ADD PUSH2 0x3B16 JUMP JUMPDEST SWAP2 POP POP SWAP3 POP SWAP3 POP SWAP3 JUMP JUMPDEST PUSH32 0x4C7A4170703A206D696E4761734C696D6974206E6F7420736574000000000000 PUSH1 0x0 DUP3 ADD MSTORE POP JUMP JUMPDEST PUSH1 0x0 PUSH2 0x4B38 PUSH1 0x1A DUP4 PUSH2 0x388E JUMP JUMPDEST SWAP2 POP PUSH2 0x4B43 DUP3 PUSH2 0x4B02 JUMP JUMPDEST PUSH1 0x20 DUP3 ADD SWAP1 POP SWAP2 SWAP1 POP JUMP JUMPDEST PUSH1 0x0 PUSH1 0x20 DUP3 ADD SWAP1 POP DUP2 DUP2 SUB PUSH1 0x0 DUP4 ADD MSTORE PUSH2 0x4B67 DUP2 PUSH2 0x4B2B JUMP JUMPDEST SWAP1 POP SWAP2 SWAP1 POP JUMP JUMPDEST PUSH32 0x4C7A4170703A20676173206C696D697420697320746F6F206C6F770000000000 PUSH1 0x0 DUP3 ADD MSTORE POP JUMP JUMPDEST PUSH1 0x0 PUSH2 0x4BA4 PUSH1 0x1B DUP4 PUSH2 0x388E JUMP JUMPDEST SWAP2 POP PUSH2 0x4BAF DUP3 PUSH2 0x4B6E JUMP JUMPDEST PUSH1 0x20 DUP3 ADD SWAP1 POP SWAP2 SWAP1 POP JUMP JUMPDEST PUSH1 0x0 PUSH1 0x20 DUP3 ADD SWAP1 POP DUP2 DUP2 SUB PUSH1 0x0 DUP4 ADD MSTORE PUSH2 0x4BD3 DUP2 PUSH2 0x4B97 JUMP JUMPDEST SWAP1 POP SWAP2 SWAP1 POP JUMP JUMPDEST PUSH1 0x0 PUSH1 0x60 DUP3 ADD SWAP1 POP PUSH2 0x4BEF PUSH1 0x0 DUP4 ADD DUP7 PUSH2 0x364E JUMP JUMPDEST PUSH2 0x4BFC PUSH1 0x20 DUP4 ADD DUP6 PUSH2 0x364E JUMP JUMPDEST PUSH2 0x4C09 PUSH1 0x40 DUP4 ADD DUP5 PUSH2 0x312E JUMP JUMPDEST SWAP5 SWAP4 POP POP POP POP JUMP JUMPDEST PUSH32 0x4C7A4170703A207061796C6F61642073697A6520697320746F6F206C61726765 PUSH1 0x0 DUP3 ADD MSTORE POP JUMP JUMPDEST PUSH1 0x0 PUSH2 0x4C47 PUSH1 0x20 DUP4 PUSH2 0x388E JUMP JUMPDEST SWAP2 POP PUSH2 0x4C52 DUP3 PUSH2 0x4C11 JUMP JUMPDEST PUSH1 0x20 DUP3 ADD SWAP1 POP SWAP2 SWAP1 POP JUMP JUMPDEST PUSH1 0x0 PUSH1 0x20 DUP3 ADD SWAP1 POP DUP2 DUP2 SUB PUSH1 0x0 DUP4 ADD MSTORE PUSH2 0x4C76 DUP2 PUSH2 0x4C3A JUMP JUMPDEST SWAP1 POP SWAP2 SWAP1 POP JUMP JUMPDEST PUSH32 0x746F416464726573735F6F75744F66426F756E64730000000000000000000000 PUSH1 0x0 DUP3 ADD MSTORE POP JUMP JUMPDEST PUSH1 0x0 PUSH2 0x4CB3 PUSH1 0x15 DUP4 PUSH2 0x388E JUMP JUMPDEST SWAP2 POP PUSH2 0x4CBE DUP3 PUSH2 0x4C7D JUMP JUMPDEST PUSH1 0x20 DUP3 ADD SWAP1 POP SWAP2 SWAP1 POP JUMP JUMPDEST PUSH1 0x0 PUSH1 0x20 DUP3 ADD SWAP1 POP DUP2 DUP2 SUB PUSH1 0x0 DUP4 ADD MSTORE PUSH2 0x4CE2 DUP2 PUSH2 0x4CA6 JUMP JUMPDEST SWAP1 POP SWAP2 SWAP1 POP JUMP JUMPDEST PUSH32 0x4C7A4170703A20696E76616C69642061646170746572506172616D7300000000 PUSH1 0x0 DUP3 ADD MSTORE POP JUMP JUMPDEST PUSH1 0x0 PUSH2 0x4D1F PUSH1 0x1C DUP4 PUSH2 0x388E JUMP JUMPDEST SWAP2 POP PUSH2 0x4D2A DUP3 PUSH2 0x4CE9 JUMP JUMPDEST PUSH1 0x20 DUP3 ADD SWAP1 POP SWAP2 SWAP1 POP JUMP JUMPDEST PUSH1 0x0 PUSH1 0x20 DUP3 ADD SWAP1 POP DUP2 DUP2 SUB PUSH1 0x0 DUP4 ADD MSTORE PUSH2 0x4D4E DUP2 PUSH2 0x4D12 JUMP JUMPDEST SWAP1 POP SWAP2 SWAP1 POP JUMP JUMPDEST PUSH1 0x0 DUP2 MLOAD SWAP1 POP PUSH2 0x4D64 DUP2 PUSH2 0x3046 JUMP JUMPDEST SWAP3 SWAP2 POP POP JUMP JUMPDEST PUSH1 0x0 PUSH1 0x20 DUP3 DUP5 SUB SLT ISZERO PUSH2 0x4D80 JUMPI PUSH2 0x4D7F PUSH2 0x2D58 JUMP JUMPDEST JUMPDEST PUSH1 0x0 PUSH2 0x4D8E DUP5 DUP3 DUP6 ADD PUSH2 0x4D55 JUMP JUMPDEST SWAP2 POP POP SWAP3 SWAP2 POP POP JUMP JUMPDEST PUSH32 0x5361666545524332303A204552433230206F7065726174696F6E20646964206E PUSH1 0x0 DUP3 ADD MSTORE PUSH32 0x6F74207375636365656400000000000000000000000000000000000000000000 PUSH1 0x20 DUP3 ADD MSTORE POP JUMP JUMPDEST PUSH1 0x0 PUSH2 0x4DF3 PUSH1 0x2A DUP4 PUSH2 0x388E JUMP JUMPDEST SWAP2 POP PUSH2 0x4DFE DUP3 PUSH2 0x4D97 JUMP JUMPDEST PUSH1 0x40 DUP3 ADD SWAP1 POP SWAP2 SWAP1 POP JUMP JUMPDEST PUSH1 0x0 PUSH1 0x20 DUP3 ADD SWAP1 POP DUP2 DUP2 SUB PUSH1 0x0 DUP4 ADD MSTORE PUSH2 0x4E22 DUP2 PUSH2 0x4DE6 JUMP JUMPDEST SWAP1 POP SWAP2 SWAP1 POP JUMP JUMPDEST PUSH1 0x0 PUSH1 0x40 DUP3 ADD SWAP1 POP PUSH2 0x4E3E PUSH1 0x0 DUP4 ADD DUP6 PUSH2 0x364E JUMP JUMPDEST PUSH2 0x4E4B PUSH1 0x20 DUP4 ADD DUP5 PUSH2 0x312E JUMP JUMPDEST SWAP4 SWAP3 POP POP POP JUMP JUMPDEST PUSH32 0x416464726573733A20696E73756666696369656E742062616C616E636520666F PUSH1 0x0 DUP3 ADD MSTORE PUSH32 0x722063616C6C0000000000000000000000000000000000000000000000000000 PUSH1 0x20 DUP3 ADD MSTORE POP JUMP JUMPDEST PUSH1 0x0 PUSH2 0x4EAE PUSH1 0x26 DUP4 PUSH2 0x388E JUMP JUMPDEST SWAP2 POP PUSH2 0x4EB9 DUP3 PUSH2 0x4E52 JUMP JUMPDEST PUSH1 0x40 DUP3 ADD SWAP1 POP SWAP2 SWAP1 POP JUMP JUMPDEST PUSH1 0x0 PUSH1 0x20 DUP3 ADD SWAP1 POP DUP2 DUP2 SUB PUSH1 0x0 DUP4 ADD MSTORE PUSH2 0x4EDD DUP2 PUSH2 0x4EA1 JUMP JUMPDEST SWAP1 POP SWAP2 SWAP1 POP JUMP JUMPDEST PUSH32 0x416464726573733A2063616C6C20746F206E6F6E2D636F6E7472616374000000 PUSH1 0x0 DUP3 ADD MSTORE POP JUMP JUMPDEST PUSH1 0x0 PUSH2 0x4F1A PUSH1 0x1D DUP4 PUSH2 0x388E JUMP JUMPDEST SWAP2 POP PUSH2 0x4F25 DUP3 PUSH2 0x4EE4 JUMP JUMPDEST PUSH1 0x20 DUP3 ADD SWAP1 POP SWAP2 SWAP1 POP JUMP JUMPDEST PUSH1 0x0 PUSH1 0x20 DUP3 ADD SWAP1 POP DUP2 DUP2 SUB PUSH1 0x0 DUP4 ADD MSTORE PUSH2 0x4F49 DUP2 PUSH2 0x4F0D JUMP JUMPDEST SWAP1 POP SWAP2 SWAP1 POP JUMP JUMPDEST PUSH1 0x0 DUP2 MLOAD SWAP1 POP SWAP2 SWAP1 POP JUMP JUMPDEST PUSH1 0x0 PUSH2 0x4F66 DUP3 PUSH2 0x4F50 JUMP JUMPDEST PUSH2 0x4F70 DUP2 DUP6 PUSH2 0x388E JUMP JUMPDEST SWAP4 POP PUSH2 0x4F80 DUP2 DUP6 PUSH1 0x20 DUP7 ADD PUSH2 0x3589 JUMP JUMPDEST PUSH2 0x4F89 DUP2 PUSH2 0x338E JUMP JUMPDEST DUP5 ADD SWAP2 POP POP SWAP3 SWAP2 POP POP JUMP JUMPDEST PUSH1 0x0 PUSH1 0x20 DUP3 ADD SWAP1 POP DUP2 DUP2 SUB PUSH1 0x0 DUP4 ADD MSTORE PUSH2 0x4FAE DUP2 DUP5 PUSH2 0x4F5B JUMP JUMPDEST SWAP1 POP SWAP3 SWAP2 POP POP JUMP INVALID LOG2 PUSH5 0x6970667358 0x22 SLT KECCAK256 SELFDESTRUCT 0x2A BASEFEE CALLCODE 0xE0 PUSH30 0xC8FFEB079182C0309DA9EAD4F224BBD1041C0F4207AD7B2D7EF64736F6C PUSH4 0x43000812 STOP CALLER "
    },
    "gasEstimates": {
      "creation": {
        "codeDepositCost": "4092000",
        "executionCost": "infinite",
        "totalCost": "infinite"
      },
      "external": {
        "DEFAULT_PAYLOAD_SIZE_LIMIT()": "440",
        "NO_EXTRA_GAS()": "397",
        "PT_SEND()": "425",
        "circulatingSupply()": "infinite",
        "estimateSendFee(uint16,bytes,uint256,bool,bytes)": "infinite",
        "failedMessages(uint16,bytes,uint64)": "infinite",
        "forceResumeReceive(uint16,bytes)": "infinite",
        "getConfig(uint16,uint16,address,uint256)": "infinite",
        "getTrustedRemoteAddress(uint16)": "infinite",
        "isTrustedRemote(uint16,bytes)": "infinite",
        "lzEndpoint()": "infinite",
        "lzReceive(uint16,bytes,uint64,bytes)": "infinite",
        "minDstGasLookup(uint16,uint16)": "infinite",
        "nonblockingLzReceive(uint16,bytes,uint64,bytes)": "infinite",
        "owner()": "2568",
        "payloadSizeLimitLookup(uint16)": "2883",
        "precrime()": "2604",
        "renounceOwnership()": "30487",
        "retryMessage(uint16,bytes,uint64,bytes)": "infinite",
        "sendFrom(address,uint16,bytes,uint256,address,address,bytes)": "infinite",
        "setConfig(uint16,uint16,uint256,bytes)": "infinite",
        "setMinDstGas(uint16,uint16,uint256)": "infinite",
        "setPayloadSizeLimit(uint16,uint256)": "25166",
        "setPrecrime(address)": "infinite",
        "setReceiveVersion(uint16)": "infinite",
        "setSendVersion(uint16)": "infinite",
        "setTrustedRemote(uint16,bytes)": "infinite",
        "setTrustedRemoteAddress(uint16,bytes)": "infinite",
        "setUseCustomAdapterParams(bool)": "infinite",
        "supportsInterface(bytes4)": "796",
        "token()": "infinite",
        "transferOwnership(address)": "30832",
        "trustedRemoteLookup(uint16)": "infinite",
        "useCustomAdapterParams()": "2537"
      },
      "internal": {
        "_creditTo(uint16,address,uint256)": "infinite",
        "_debitFrom(address,uint16,bytes memory,uint256)": "infinite"
      }
    },
    "methodIdentifiers": {
      "DEFAULT_PAYLOAD_SIZE_LIMIT()": "c4461834",
      "NO_EXTRA_GAS()": "44770515",
      "PT_SEND()": "4c42899a",
      "circulatingSupply()": "9358928b",
      "estimateSendFee(uint16,bytes,uint256,bool,bytes)": "2a205e3d",
      "failedMessages(uint16,bytes,uint64)": "5b8c41e6",
      "forceResumeReceive(uint16,bytes)": "42d65a8d",
      "getConfig(uint16,uint16,address,uint256)": "f5ecbdbc",
      "getTrustedRemoteAddress(uint16)": "9f38369a",
      "isTrustedRemote(uint16,bytes)": "3d8b38f6",
      "lzEndpoint()": "b353aaa7",
      "lzReceive(uint16,bytes,uint64,bytes)": "001d3567",
      "minDstGasLookup(uint16,uint16)": "8cfd8f5c",
      "nonblockingLzReceive(uint16,bytes,uint64,bytes)": "66ad5c8a",
      "owner()": "8da5cb5b",
      "payloadSizeLimitLookup(uint16)": "3f1f4fa4",
      "precrime()": "950c8a74",
      "renounceOwnership()": "715018a6",
      "retryMessage(uint16,bytes,uint64,bytes)": "d1deba1f",
      "sendFrom(address,uint16,bytes,uint256,address,address,bytes)": "51905636",
      "setConfig(uint16,uint16,uint256,bytes)": "cbed8b9c",
      "setMinDstGas(uint16,uint16,uint256)": "df2a5b3b",
      "setPayloadSizeLimit(uint16,uint256)": "0df37483",
      "setPrecrime(address)": "baf3292d",
      "setReceiveVersion(uint16)": "10ddb137",
      "setSendVersion(uint16)": "07e0db17",
      "setTrustedRemote(uint16,bytes)": "eb8d72b7",
      "setTrustedRemoteAddress(uint16,bytes)": "a6c3d165",
      "setUseCustomAdapterParams(bool)": "eab45d9c",
      "supportsInterface(bytes4)": "01ffc9a7",
      "token()": "fc0c546a",
      "transferOwnership(address)": "f2fde38b",
      "trustedRemoteLookup(uint16)": "7533d788",
      "useCustomAdapterParams()": "ed629c5c"
    }
  },
  "abi": [
    {
      "inputs": [
        {
          "internalType": "address",
          "name": "_lzEndpoint",
          "type": "address"
        },
        {
          "internalType": "address",
          "name": "_token",
          "type": "address"
        }
      ],
      "stateMutability": "nonpayable",
      "type": "constructor"
    },
    {
      "anonymous": false,
      "inputs": [
        {
          "indexed": false,
          "internalType": "uint16",
          "name": "_srcChainId",
          "type": "uint16"
        },
        {
          "indexed": false,
          "internalType": "bytes",
          "name": "_srcAddress",
          "type": "bytes"
        },
        {
          "indexed": false,
          "internalType": "uint64",
          "name": "_nonce",
          "type": "uint64"
        },
        {
          "indexed": false,
          "internalType": "bytes",
          "name": "_payload",
          "type": "bytes"
        },
        {
          "indexed": false,
          "internalType": "bytes",
          "name": "_reason",
          "type": "bytes"
        }
      ],
      "name": "MessageFailed",
      "type": "event"
    },
    {
      "anonymous": false,
      "inputs": [
        {
          "indexed": true,
          "internalType": "address",
          "name": "previousOwner",
          "type": "address"
        },
        {
          "indexed": true,
          "internalType": "address",
          "name": "newOwner",
          "type": "address"
        }
      ],
      "name": "OwnershipTransferred",
      "type": "event"
    },
    {
      "anonymous": false,
      "inputs": [
        {
          "indexed": true,
          "internalType": "uint16",
          "name": "_srcChainId",
          "type": "uint16"
        },
        {
          "indexed": true,
          "internalType": "address",
          "name": "_to",
          "type": "address"
        },
        {
          "indexed": false,
          "internalType": "uint256",
          "name": "_amount",
          "type": "uint256"
        }
      ],
      "name": "ReceiveFromChain",
      "type": "event"
    },
    {
      "anonymous": false,
      "inputs": [
        {
          "indexed": false,
          "internalType": "uint16",
          "name": "_srcChainId",
          "type": "uint16"
        },
        {
          "indexed": false,
          "internalType": "bytes",
          "name": "_srcAddress",
          "type": "bytes"
        },
        {
          "indexed": false,
          "internalType": "uint64",
          "name": "_nonce",
          "type": "uint64"
        },
        {
          "indexed": false,
          "internalType": "bytes32",
          "name": "_payloadHash",
          "type": "bytes32"
        }
      ],
      "name": "RetryMessageSuccess",
      "type": "event"
    },
    {
      "anonymous": false,
      "inputs": [
        {
          "indexed": true,
          "internalType": "uint16",
          "name": "_dstChainId",
          "type": "uint16"
        },
        {
          "indexed": true,
          "internalType": "address",
          "name": "_from",
          "type": "address"
        },
        {
          "indexed": false,
          "internalType": "bytes",
          "name": "_toAddress",
          "type": "bytes"
        },
        {
          "indexed": false,
          "internalType": "uint256",
          "name": "_amount",
          "type": "uint256"
        }
      ],
      "name": "SendToChain",
      "type": "event"
    },
    {
      "anonymous": false,
      "inputs": [
        {
          "indexed": false,
          "internalType": "uint16",
          "name": "_dstChainId",
          "type": "uint16"
        },
        {
          "indexed": false,
          "internalType": "uint16",
          "name": "_type",
          "type": "uint16"
        },
        {
          "indexed": false,
          "internalType": "uint256",
          "name": "_minDstGas",
          "type": "uint256"
        }
      ],
      "name": "SetMinDstGas",
      "type": "event"
    },
    {
      "anonymous": false,
      "inputs": [
        {
          "indexed": false,
          "internalType": "address",
          "name": "precrime",
          "type": "address"
        }
      ],
      "name": "SetPrecrime",
      "type": "event"
    },
    {
      "anonymous": false,
      "inputs": [
        {
          "indexed": false,
          "internalType": "uint16",
          "name": "_remoteChainId",
          "type": "uint16"
        },
        {
          "indexed": false,
          "internalType": "bytes",
          "name": "_path",
          "type": "bytes"
        }
      ],
      "name": "SetTrustedRemote",
      "type": "event"
    },
    {
      "anonymous": false,
      "inputs": [
        {
          "indexed": false,
          "internalType": "uint16",
          "name": "_remoteChainId",
          "type": "uint16"
        },
        {
          "indexed": false,
          "internalType": "bytes",
          "name": "_remoteAddress",
          "type": "bytes"
        }
      ],
      "name": "SetTrustedRemoteAddress",
      "type": "event"
    },
    {
      "anonymous": false,
      "inputs": [
        {
          "indexed": false,
          "internalType": "bool",
          "name": "_useCustomAdapterParams",
          "type": "bool"
        }
      ],
      "name": "SetUseCustomAdapterParams",
      "type": "event"
    },
    {
      "inputs": [],
      "name": "DEFAULT_PAYLOAD_SIZE_LIMIT",
      "outputs": [
        {
          "internalType": "uint256",
          "name": "",
          "type": "uint256"
        }
      ],
      "stateMutability": "view",
      "type": "function"
    },
    {
      "inputs": [],
      "name": "NO_EXTRA_GAS",
      "outputs": [
        {
          "internalType": "uint256",
          "name": "",
          "type": "uint256"
        }
      ],
      "stateMutability": "view",
      "type": "function"
    },
    {
      "inputs": [],
      "name": "PT_SEND",
      "outputs": [
        {
          "internalType": "uint16",
          "name": "",
          "type": "uint16"
        }
      ],
      "stateMutability": "view",
      "type": "function"
    },
    {
      "inputs": [],
      "name": "circulatingSupply",
      "outputs": [
        {
          "internalType": "uint256",
          "name": "",
          "type": "uint256"
        }
      ],
      "stateMutability": "view",
      "type": "function"
    },
    {
      "inputs": [
        {
          "internalType": "uint16",
          "name": "_dstChainId",
          "type": "uint16"
        },
        {
          "internalType": "bytes",
          "name": "_toAddress",
          "type": "bytes"
        },
        {
          "internalType": "uint256",
          "name": "_amount",
          "type": "uint256"
        },
        {
          "internalType": "bool",
          "name": "_useZro",
          "type": "bool"
        },
        {
          "internalType": "bytes",
          "name": "_adapterParams",
          "type": "bytes"
        }
      ],
      "name": "estimateSendFee",
      "outputs": [
        {
          "internalType": "uint256",
          "name": "nativeFee",
          "type": "uint256"
        },
        {
          "internalType": "uint256",
          "name": "zroFee",
          "type": "uint256"
        }
      ],
      "stateMutability": "view",
      "type": "function"
    },
    {
      "inputs": [
        {
          "internalType": "uint16",
          "name": "",
          "type": "uint16"
        },
        {
          "internalType": "bytes",
          "name": "",
          "type": "bytes"
        },
        {
          "internalType": "uint64",
          "name": "",
          "type": "uint64"
        }
      ],
      "name": "failedMessages",
      "outputs": [
        {
          "internalType": "bytes32",
          "name": "",
          "type": "bytes32"
        }
      ],
      "stateMutability": "view",
      "type": "function"
    },
    {
      "inputs": [
        {
          "internalType": "uint16",
          "name": "_srcChainId",
          "type": "uint16"
        },
        {
          "internalType": "bytes",
          "name": "_srcAddress",
          "type": "bytes"
        }
      ],
      "name": "forceResumeReceive",
      "outputs": [],
      "stateMutability": "nonpayable",
      "type": "function"
    },
    {
      "inputs": [
        {
          "internalType": "uint16",
          "name": "_version",
          "type": "uint16"
        },
        {
          "internalType": "uint16",
          "name": "_chainId",
          "type": "uint16"
        },
        {
          "internalType": "address",
          "name": "",
          "type": "address"
        },
        {
          "internalType": "uint256",
          "name": "_configType",
          "type": "uint256"
        }
      ],
      "name": "getConfig",
      "outputs": [
        {
          "internalType": "bytes",
          "name": "",
          "type": "bytes"
        }
      ],
      "stateMutability": "view",
      "type": "function"
    },
    {
      "inputs": [
        {
          "internalType": "uint16",
          "name": "_remoteChainId",
          "type": "uint16"
        }
      ],
      "name": "getTrustedRemoteAddress",
      "outputs": [
        {
          "internalType": "bytes",
          "name": "",
          "type": "bytes"
        }
      ],
      "stateMutability": "view",
      "type": "function"
    },
    {
      "inputs": [
        {
          "internalType": "uint16",
          "name": "_srcChainId",
          "type": "uint16"
        },
        {
          "internalType": "bytes",
          "name": "_srcAddress",
          "type": "bytes"
        }
      ],
      "name": "isTrustedRemote",
      "outputs": [
        {
          "internalType": "bool",
          "name": "",
          "type": "bool"
        }
      ],
      "stateMutability": "view",
      "type": "function"
    },
    {
      "inputs": [],
      "name": "lzEndpoint",
      "outputs": [
        {
          "internalType": "contract ILayerZeroEndpoint",
          "name": "",
          "type": "address"
        }
      ],
      "stateMutability": "view",
      "type": "function"
    },
    {
      "inputs": [
        {
          "internalType": "uint16",
          "name": "_srcChainId",
          "type": "uint16"
        },
        {
          "internalType": "bytes",
          "name": "_srcAddress",
          "type": "bytes"
        },
        {
          "internalType": "uint64",
          "name": "_nonce",
          "type": "uint64"
        },
        {
          "internalType": "bytes",
          "name": "_payload",
          "type": "bytes"
        }
      ],
      "name": "lzReceive",
      "outputs": [],
      "stateMutability": "nonpayable",
      "type": "function"
    },
    {
      "inputs": [
        {
          "internalType": "uint16",
          "name": "",
          "type": "uint16"
        },
        {
          "internalType": "uint16",
          "name": "",
          "type": "uint16"
        }
      ],
      "name": "minDstGasLookup",
      "outputs": [
        {
          "internalType": "uint256",
          "name": "",
          "type": "uint256"
        }
      ],
      "stateMutability": "view",
      "type": "function"
    },
    {
      "inputs": [
        {
          "internalType": "uint16",
          "name": "_srcChainId",
          "type": "uint16"
        },
        {
          "internalType": "bytes",
          "name": "_srcAddress",
          "type": "bytes"
        },
        {
          "internalType": "uint64",
          "name": "_nonce",
          "type": "uint64"
        },
        {
          "internalType": "bytes",
          "name": "_payload",
          "type": "bytes"
        }
      ],
      "name": "nonblockingLzReceive",
      "outputs": [],
      "stateMutability": "nonpayable",
      "type": "function"
    },
    {
      "inputs": [],
      "name": "owner",
      "outputs": [
        {
          "internalType": "address",
          "name": "",
          "type": "address"
        }
      ],
      "stateMutability": "view",
      "type": "function"
    },
    {
      "inputs": [
        {
          "internalType": "uint16",
          "name": "",
          "type": "uint16"
        }
      ],
      "name": "payloadSizeLimitLookup",
      "outputs": [
        {
          "internalType": "uint256",
          "name": "",
          "type": "uint256"
        }
      ],
      "stateMutability": "view",
      "type": "function"
    },
    {
      "inputs": [],
      "name": "precrime",
      "outputs": [
        {
          "internalType": "address",
          "name": "",
          "type": "address"
        }
      ],
      "stateMutability": "view",
      "type": "function"
    },
    {
      "inputs": [],
      "name": "renounceOwnership",
      "outputs": [],
      "stateMutability": "nonpayable",
      "type": "function"
    },
    {
      "inputs": [
        {
          "internalType": "uint16",
          "name": "_srcChainId",
          "type": "uint16"
        },
        {
          "internalType": "bytes",
          "name": "_srcAddress",
          "type": "bytes"
        },
        {
          "internalType": "uint64",
          "name": "_nonce",
          "type": "uint64"
        },
        {
          "internalType": "bytes",
          "name": "_payload",
          "type": "bytes"
        }
      ],
      "name": "retryMessage",
      "outputs": [],
      "stateMutability": "payable",
      "type": "function"
    },
    {
      "inputs": [
        {
          "internalType": "address",
          "name": "_from",
          "type": "address"
        },
        {
          "internalType": "uint16",
          "name": "_dstChainId",
          "type": "uint16"
        },
        {
          "internalType": "bytes",
          "name": "_toAddress",
          "type": "bytes"
        },
        {
          "internalType": "uint256",
          "name": "_amount",
          "type": "uint256"
        },
        {
          "internalType": "address payable",
          "name": "_refundAddress",
          "type": "address"
        },
        {
          "internalType": "address",
          "name": "_zroPaymentAddress",
          "type": "address"
        },
        {
          "internalType": "bytes",
          "name": "_adapterParams",
          "type": "bytes"
        }
      ],
      "name": "sendFrom",
      "outputs": [],
      "stateMutability": "payable",
      "type": "function"
    },
    {
      "inputs": [
        {
          "internalType": "uint16",
          "name": "_version",
          "type": "uint16"
        },
        {
          "internalType": "uint16",
          "name": "_chainId",
          "type": "uint16"
        },
        {
          "internalType": "uint256",
          "name": "_configType",
          "type": "uint256"
        },
        {
          "internalType": "bytes",
          "name": "_config",
          "type": "bytes"
        }
      ],
      "name": "setConfig",
      "outputs": [],
      "stateMutability": "nonpayable",
      "type": "function"
    },
    {
      "inputs": [
        {
          "internalType": "uint16",
          "name": "_dstChainId",
          "type": "uint16"
        },
        {
          "internalType": "uint16",
          "name": "_packetType",
          "type": "uint16"
        },
        {
          "internalType": "uint256",
          "name": "_minGas",
          "type": "uint256"
        }
      ],
      "name": "setMinDstGas",
      "outputs": [],
      "stateMutability": "nonpayable",
      "type": "function"
    },
    {
      "inputs": [
        {
          "internalType": "uint16",
          "name": "_dstChainId",
          "type": "uint16"
        },
        {
          "internalType": "uint256",
          "name": "_size",
          "type": "uint256"
        }
      ],
      "name": "setPayloadSizeLimit",
      "outputs": [],
      "stateMutability": "nonpayable",
      "type": "function"
    },
    {
      "inputs": [
        {
          "internalType": "address",
          "name": "_precrime",
          "type": "address"
        }
      ],
      "name": "setPrecrime",
      "outputs": [],
      "stateMutability": "nonpayable",
      "type": "function"
    },
    {
      "inputs": [
        {
          "internalType": "uint16",
          "name": "_version",
          "type": "uint16"
        }
      ],
      "name": "setReceiveVersion",
      "outputs": [],
      "stateMutability": "nonpayable",
      "type": "function"
    },
    {
      "inputs": [
        {
          "internalType": "uint16",
          "name": "_version",
          "type": "uint16"
        }
      ],
      "name": "setSendVersion",
      "outputs": [],
      "stateMutability": "nonpayable",
      "type": "function"
    },
    {
      "inputs": [
        {
          "internalType": "uint16",
          "name": "_remoteChainId",
          "type": "uint16"
        },
        {
          "internalType": "bytes",
          "name": "_path",
          "type": "bytes"
        }
      ],
      "name": "setTrustedRemote",
      "outputs": [],
      "stateMutability": "nonpayable",
      "type": "function"
    },
    {
      "inputs": [
        {
          "internalType": "uint16",
          "name": "_remoteChainId",
          "type": "uint16"
        },
        {
          "internalType": "bytes",
          "name": "_remoteAddress",
          "type": "bytes"
        }
      ],
      "name": "setTrustedRemoteAddress",
      "outputs": [],
      "stateMutability": "nonpayable",
      "type": "function"
    },
    {
      "inputs": [
        {
          "internalType": "bool",
          "name": "_useCustomAdapterParams",
          "type": "bool"
        }
      ],
      "name": "setUseCustomAdapterParams",
      "outputs": [],
      "stateMutability": "nonpayable",
      "type": "function"
    },
    {
      "inputs": [
        {
          "internalType": "bytes4",
          "name": "interfaceId",
          "type": "bytes4"
        }
      ],
      "name": "supportsInterface",
      "outputs": [
        {
          "internalType": "bool",
          "name": "",
          "type": "bool"
        }
      ],
      "stateMutability": "view",
      "type": "function"
    },
    {
      "inputs": [],
      "name": "token",
      "outputs": [
        {
          "internalType": "address",
          "name": "",
          "type": "address"
        }
      ],
      "stateMutability": "view",
      "type": "function"
    },
    {
      "inputs": [
        {
          "internalType": "address",
          "name": "newOwner",
          "type": "address"
        }
      ],
      "name": "transferOwnership",
      "outputs": [],
      "stateMutability": "nonpayable",
      "type": "function"
    },
    {
      "inputs": [
        {
          "internalType": "uint16",
          "name": "",
          "type": "uint16"
        }
      ],
      "name": "trustedRemoteLookup",
      "outputs": [
        {
          "internalType": "bytes",
          "name": "",
          "type": "bytes"
        }
      ],
      "stateMutability": "view",
      "type": "function"
    },
    {
      "inputs": [],
      "name": "useCustomAdapterParams",
      "outputs": [
        {
          "internalType": "bool",
          "name": "",
          "type": "bool"
        }
      ],
      "stateMutability": "view",
      "type": "function"
    }
  ]
}